:020000040800F2
:100000000010002091090008D1540008D1540008C4
:10001000D1540008D1540008D1540008D15400082C
:10002000D1540008D1540008D1540008D15400081C
:10003000D1540008D1540008D1540008D15400080C
:10004000D1540008D1540008D1540008D1540008FC
:10005000D1540008D1540008D1540008D1540008EC
:10006000D15400083D440008FF610008D154000845
:10007000D1540008D1540008D1540008D1540008CC
:10008000D1540008D1540008D1540008D1540008BC
:10009000D1540008D1540008C10F0008D154000801
:1000A000D1540008D1540008D1540008D15400089C
:1000B000D1540008D1540008D1540008D15400088C
:1000C000D1540008D1540008D1540008D15400087C
:1000D000D1540008D1540008D1540008D15400086C
:1000E000D1540008D1540008D1540008D15400085C
:1000F000D1540008D1540008D1540008D15400084C
:10010000D1540008D1540008D1540008D15400083B
:10011000D1540008D1540008D1540008D15400082B
:10012000D1540008D1540008D1540008D15400081B
:10013000D1540008D1540008D1540008D15400080B
:10014000D1540008D1540008D1540008D1540008FB
:10015000D1540008D1540008D1540008D1540008EB
:10016000D1540008D1540008D1540008D1540008DB
:10017000D1540008D1540008D154000800000000F8
:100180002DE9F04F93B0CDE90A32DDE91C530E930F
:1001900053EC102BCDE90801104619468DED060BE6
:1001A0001E9E04F075FD80B1DDE906014FF0FF32BF
:1001B000C54B04F095FD40B9DDE906014FF0FF3273
:1001C0006FF4801304F06EFD70B1DDE908019DED60
:1001D000060B0E9B1E96CDE91C53DDE90A3213B0C7
:1001E000BDE8F04F00F088B90022DDE906010023E8
:1001F00004F058FD002800F03381DDE906A303F187
:10020000004BCBF30A5016F48063A0F2FF3008BF16
:1002100006250F9304F06AFA9BA3D3E9002304F0A8
:10022000CFFA9BA3D3E9002304F014F9CBF3130412
:10023000894644F07F5180460022A44B504641F449
:10024000401104F005F994A3D3E9002304F0B8FAAF
:1002500002460B464046494604F0FCF804F04AFDCD
:10026000044604F043FA8EA3D3E90023804689466E
:1002700004F0A6FA0022964B04F0ECF804F03AFDE4
:1002800089A3D3E9002307464946404604F098FA7B
:1002900080463846894604F029FA85A3D3E900232D
:1002A00004F08EFA02460B464046494604F0D0F868
:1002B00002460B46CDE90C2304F082FADDE90C235B
:1002C000804689461046194604F0C4F80022CDE95C
:1002D0001001804B4046494604F09CFB00227E4BB7
:1002E00004F0B8F802460B464046494604F092FB3B
:1002F00000227A4B04F0AEF802460B4640464946CF
:1003000004F088FBDDE90C238046894600204FF08D
:10031000804104F09DF802460B464046494604F0F1
:1003200099F802460B46DDE9100104F073FB07F271
:10033000FF3700226A4B04F08DF800223B0504F0E1
:100340003FFA52465B468046894604F0C9FC0028C5
:1003500040F08980CDE90C8904F16303C72B34BFD9
:100360000427052731051BD553A3D3E900235046A5
:10037000594604F0ABFC00287FD051A3D3E90023F9
:100380005046594604F08EFC002876D00027A5423E
:10039000C6BF2C1B04F1FF3500253C4646F48066A1
:1003A0000E9B9F422CBF4FF00008A3EB070816F0EE
:1003B000020903D0002F18BF4FF000083CB1DDE95F
:1003C0000C235046594604F025FB82468B46DDE956
:1003D00006010022002304F065FC10B10BF100437C
:1003E0009B46DDE9080126F40063CDE90183DDE9E0
:1003F0000A324BEC10AB009500F07EF802465FB37A
:10040000DDE9091316F0200F00F10105089E0CBF6D
:1004100065204520B047DDE908010523002205934A
:100420000A23002CCDE9023207F1FF374FEAD473DB
:10043000B8BF64422A46019304970A9B009405F0D2
:1004400022FE0246B9F1000F06D00B9BC41A0B9B8B
:100450001A190E9BA34245D8104613B0BDE8F08F81
:10046000DDE906ABCDE60022404649461A4B04F0D2
:10047000D1FA013CCDE90C016EE7002D90D00F9B25
:10048000002B8DD0013D8BE7FB799F501344D33F68
:10049000B3C8608B288AC63F61436F63A787D23F8A
:1004A00071A379094F930A401655B5BBB16B024051
:1004B000EF39FAFE422EE63F2D431CEBE2361A3F9F
:1004C0000000000080842E41FFFFEF7F0000F83F16
:1004D0000000E03F00002C400000244000001840D5
:1004E0000000F03F2020DDE90913089DA8470134F2
:1004F000ADE700BF000000002DE9F04F5BEC10AB52
:1005000097B0CDE90501DDE92057CDE90723504635
:1005100052465B465946229E04F0BAFB70B903234B
:10052000CDE902760193B04B0093DDE90501DDE9E9
:10053000072305F0C8FC17B0BDE8F08F4FF0FF327D
:100540006FF480135046594604F0ACFB28B10423E5
:10055000CDE902760193A54BE6E74FF0FF32504616
:100560005946A34B04F0BCFB68B1A24A06F0040351
:10057000002B08BF0322A04B1CBF13460422CDE969
:1005800002760192D0E7504693A3D3E9002359465F
:1005900004F0A6FB38B992A3D3E90023504659468C
:1005A00004F080FB68B1DDE90723DDE905014BECD0
:1005B00010ABCDE92176209517B0BDE8F04FFFF7DD
:1005C000DFBD002200235046594604F06BFB002893
:1005D00000F09A805B4652460020002103F038FF6D
:1005E000012382468B46099316F4806400F08E80C6
:1005F000092D40F28E80002430210EABA5F10902B6
:100600000134202C03F8011BA5EB040901D094420E
:10061000F6D15946504604F06DFB784B054603EB86
:10062000C90393ED007B8DED0A7B04F05FF8024671
:100630000B465046594603F00BFFDDE90A2304F050
:10064000BFF802460B46CDE90C2304F07BFB804645
:1006500004F03CF802460B46DDE90C0103F0F8FE1D
:1006600002460B46CDE90C230022654B04F038FB13
:10067000002851D008F10108404604F027F802464E
:100680000B46DDE90A0104F017FB10B14FF000083A
:100690000135B9F1000F50D1284604F027F8024681
:1006A0000B465046594603F0D3FE0022544B804679
:1006B000894604F0F7FA30B1002240464946504BD3
:1006C00004F00EFB10B1E80700D501350A210EAB8E
:1006D0001A19202C0AD095FBF1F001FB105530358A
:1006E00002F8015B013405460028F2D106F003024E
:1006F000012A57D1002F55D0099A12B916F00C0FC4
:1007000000D0013F302245E009906DE74FF0060927
:100710007FE7A94600247CE70022DDE90C01384B85
:1007200004F0C0FA0028B4D1B8F1000F02D018F0DC
:10073000010FAED008F10108ABE70A210EAB23444C
:10074000202C0ED0B8FBF1F001FB1082B8F1090F9C
:1007500002F1300209F1FF3904F1010403F8012B21
:1007600011D83021A1440EAA202CAFD0A14504F10C
:1007700001030AD11C4609F158030DEB03092E238E
:1007800009F8203CA2E78046DAE7A1541C46EBE7D3
:100790001A550134A74205D9202CF9D1CDE90276AA
:1007A0000194C1E6202CF9D0099A3AB12D2104F127
:1007B00058026A4402F8201C0134EFE7710704D59F
:1007C00004F158022B216A44F4E73207E6D504F11C
:1007D000580220216A44EDE70000000065CDCD41BC
:1007E0000000000065CDCDC1986A00089C6A000831
:1007F000FFFFEF7F8F6A0008946A0008A86A00086C
:100800000000E03F0348044B834202D0034B03B196
:100810001847704780100020801000200000000062
:10082000064B0749C91A891048BF0131491003D046
:10083000044B0BB101481847704700BF80100020DF
:10084000801000200000000010B5064C237843B94A
:10085000FFF7D8FF044B13B10448AFF30080012326
:10086000237010BD8416002000000000906C00086A
:1008700008B5054B1BB105490548AFF30080BDE83D
:100880000840FFF7CDBF00BF00000000801000202F
:10089000906C0008A3F5803A704700BF174B002BFF
:1008A00008BF134B9D46FFF7F5FF00218B460F460F
:1008B0001348144A121A05F0C8FC0E4B002B00D046
:1008C00098470D4B002B00D09847002000210400D2
:1008D0000D000D48002802D00C48AFF3008004F052
:1008E0009BFD2000290005F08CFC04F0DBFB00BF21
:1008F00000000800000000000000000000100020C0
:1009000080100020A8160020000000000000000059
:1009100038B504460D4601B118B93721034804F033
:100920009FFD23682B60256038BD00BF0063000871
:1009300070B5D0B1C9B10E4E431E013913F8014F45
:100940002046325D02F00302012A11F8012F08BF90
:1009500004F12000B55C05F00305012D08BF20322D
:10096000801A01D1002CE9D170BD0120FCE700BF45
:100970008D6B00080348044A0449121A921004F0CF
:10098000A8BD00BF246D0008246D0008A816002033
:1009900008B500F02FF8FFF7EDFF124B12498B421C
:1009A00012D30020114B12498B4218D3FFF776FF68
:1009B000186850F82240586840F822400132986880
:1009C0008242F5D30C33EAE70022F8E71C6844F8CA
:1009D000220001325C68A242F8D30833E4E7002227
:1009E000F8E700BF986C0008A46C0008A46C00082D
:1009F000A46C00084FF480414FF0FF30114B124AB5
:100A000010B59A60D3F8882042F47002C3F88820A9
:100A10000E4A91660E4901F5005210660D48506667
:100A20000220C3F8D000BFF34F8FBFF36F8F0124B4
:100A30004FF440330848C0F88041D36004600B6134
:100A400010BD00BF00ED00E0000000080090005065
:100A5000008000447FFF7F0300E100E0014B186845
:100A6000704700BF04100020014B1860704700BFA2
:100A700004100020084B1B6F03F00703022B04D067
:100A8000032B05D0012B05D0FEE7044B18687047F7
:100A9000034BFBE703487047008000500410002020
:100AA0000C100020002D310108B5FFF7E3FF054BC6
:100AB0001B6FC3F303330133B0FBF3F0024B186039
:100AC00008BD00BF008000500010002000487047A3
:100AD00000B4C404014B1868704700BF0C1000201C
:100AE000054B1860054B1B6F03F00703032B01D167
:100AF000FFF7DABF704700BF0C10002000800050E5
:100B000000487047002D31014FF0B4439868C0F39E
:100B100004400C280AD8DFE800F00B09090909098C
:100B2000072119091B1D1F000F487047002070473F
:100B30009B6803F04073B3F1807F11D0B3F1007F65
:100B400010D00A4A002B08BF10467047084870476B
:100B50000848704708487047084870470848704779
:100B60000848704708487047405DC60000093D00CE
:100B7000C0EA210180BA8C010048E801005A6202F3
:100B80000024F40080841E0040420F00014B1868CE
:100B9000704700BF081000202DE9F04F9A46564BD1
:100BA00085B01B7806460F461546DDF83C909DF84B
:100BB00044B0DDF85080002B00F09780072A00F247
:100BC00096800E9B002B00F09280B9F1000F00F090
:100BD0008E80129BB3F5006F00F38980012803D14A
:100BE000109B002B00F08380444B03EB05131B7B11
:100BF000002B7ED0424C10220021684605F025FBD8
:100C000004EB45141022A7BB3946204605F01DFB16
:100C100043F210036380BBF1000F03D1E37843F08C
:100C20000303E370364A0E9B02EB451CCCE90193AB
:100C3000129B6901581E9DF84C30C0F30A0003F066
:100C400003039B0643EA001E53582E48012E00EA78
:100C500003004EEA0003CDF800A0535017D0B8F1BE
:100C6000000F2ED19CF8023068F304138CF8023088
:100C700027E00021204605F0E8FA4FF44473638032
:100C8000BBF1000FCED1E37843F03003C9E7132363
:100C90000CF1100ECCF80C309CE80F008EE80F0021
:100CA0006FF00301DCF81C20109B61F39F02012F01
:100CB000CCF81C20CCF8143003D1CCF81890CCF828
:100CC000043000270D4A290102EB051342F8018088
:100CD000159A28465A60694622469F605E7301F065
:100CE00045FD384605B0BDE8F08F0748FAE70748EC
:100CF000F8E70748F6E700BF8516002098110020A6
:100D0000981000200F80FFF3028000F0018000F0B7
:100D1000078000F038B5124B05461B78DBB1E0B117
:100D200004F042FC0F4A00231146147B54B92B6097
:100D300001251A0101EB03131D738C5004F03AFCDA
:100D4000204638BD0133082B02F11002EDD104F02A
:100D500031FC0548F5E70548F3E70548F1E700BF32
:100D60008516002098110020048000F0028000F019
:100D7000018000F038B504F017FC002305460B4A4B
:100D8000147B6CB90133082B02F11002F8D101F089
:100D900065FC074B28461C7004F00CFC204603E061
:100DA000284604F007FC034838BD00BF9811002016
:100DB00085160020058000F00D4B10B51B78044609
:100DC00093B1072812D804F0EFFB0A4B03EB04138E
:100DD0001A7B2AB100241C7304F0ECFB204610BDE2
:100DE00004F0E8FB0448FAE70448F8E70448F6E7AB
:100DF0008516002098110020068000F0028000F087
:100E0000018000F0154B13B51868002301908DF890
:100E1000043004F0C9FB124B1C7824B104F0CAFB67
:100E2000104802B010BD01221A7004F0C3FB0E4B33
:100E300001A81C731C7783F82C4083F83C4083F88E
:100E40004C4083F85C4083F86C4083F87C40082376
:100E50008DF8073001F040FC2046E2E769630008A6
:100E600085160020038000F0981100200A4A08B57A
:100E700012785AB107280BD8084A02EB00131B7BE3
:100E800043B1002101F008FC002008BD0448FCE744
:100E90000448FAE70448F8E7851600209811002076
:100EA000028000F0018000F0078000F00A4A08B5D7
:100EB00012785AB107280BD8084A02EB00131B7BA3
:100EC00043B1012101F0E8FB002008BD0448FCE724
:100ED0000448FAE70448F8E7851600209811002036
:100EE000028000F0018000F0078000F00A4A08B597
:100EF000127852B107280AD8084A02EB00131B7B6C
:100F00003BB101F0B5FC002008BD0548FCE70548F1
:100F1000FAE70548F8E700BF851600209811002081
:100F2000028000F0018000F0078000F00D4B1B787C
:100F300093B1072812D889B10B4B03EB00131B7B2D
:100F400073B10A4B1A6D01238340134214BF01236E
:100F5000002300200B707047054870470548704714
:100F600005487047851600209811002000000450A5
:100F7000028000F0018000F0078000F00B4A10B5FD
:100F800012780C4662B107280CD859B1084A02EB16
:100F900000131B7B43B101F087FC2070002010BDC3
:100FA0000448FCE70448FAE70448F8E785160020FF
:100FB00098110020028000F0018000F0078000F00E
:100FC000184B2DE9F0411F6D5B6D1F4000D5FEE70A
:100FD00001260025144CDFF85880374218D02368CA
:100FE000C8F85060A3B1A168284601316268A160C9
:100FF0009847637B012B0BD150B90C4B03EB451386
:101000001A7B60F341021A731A7F60F341021A7768
:101010000135082D4FEA460604F11004DDD1BDE884
:10102000F08100BF000004509811002098100020AB
:1010300000200450044BD3F88420D206FBD4D3F80C
:101040008400C0F3811070470040005008B5334B56
:1010500098424FD027D8324B984245D017D8314BC1
:1010600098423ED00AD838B12F4B984239D041F23D
:1010700086312E4804F0F4F9002034E02C4B9842DD
:101080002FD02C4B9842F2D12B4B586E2BE02B4B90
:1010900098422CD003F5371303F5D8639842E6D174
:1010A000254B986F1FE0264B98422FD00CD8254B2C
:1010B000984223D0244B984224D0244B9842D6D136
:1010C0001D4BD3F884000EE0214B984222D003F54B
:1010D000740303F510539842C9D1174BD3F8980005
:1010E00001E0154B986D08BD134B186FFBE7124BD1
:1010F000586FF8E7104BD3F88000F4E70E4BD3F8A5
:101100008800F0E70C4BD3F88C00ECE70A4BD3F8DF
:101110009000E8E7084BD3F89400E4E780BA8C012C
:10112000405DC60080841E0040420F006D630008D1
:1011300000093D00C0CF6A000080E00F0024F400E9
:10114000007E560380D54302006CDC020048E801B3
:101150000090D00338B5124B0546D3F880300C46CA
:1011600003F00303022B0BD0032B0DD0012B0FD167
:10117000FFF780FC0D2305B1286004B1236038BD62
:10118000FFF7C2FC0723F6E7FFF768FC0623F2E748
:10119000044841F2DF1104F063F900231846EAE73E
:1011A000008000506D63000838B51A4B0546D3F82F
:1011B00020010C4600F00700062821D8DFE800F0E7
:1011C00028040C1410181C00FFF748FC052305B177
:1011D000286004B1236038BDFFF77CFC0323F6E7E9
:1011E000FFF792FC0723F2E7FFF78AFC0223EEE702
:1011F000FFF734FC0623EAE7FFF76CFC0423E6E77D
:10120000054841F25C2104F02BF900231846DEE783
:101210000123DCE7008000506D63000838B5194BEE
:101220000546D3F828310C4603F00703013B052B94
:1012300020D8DFE803F003131B0F0B17FFF70EFC9A
:10124000052305B1286004B1236038BDFFF706FC13
:101250000623F6E7FFF758FC0723F2E7FFF73AFC0F
:101260000323EEE7FFF736FC0423EAE7FFF748FC29
:101270000223E6E7044841F2640104F0F1F8002398
:101280001846DEE7008000506D630008F7B50027C0
:10129000144B0197D3F88041064604F00304022C56
:1012A0000D4614D0032C0DD0012C14D1394601A8C1
:1012B000FFF77AFF0F240EB1019B336005B12C605C
:1012C00003B0F0BDFFF720FC07240190F3E7FFF720
:1012D00017FC0190EFE741F2B131034804F0C0F888
:1012E0003C46E8E7008000506D63000838B50F4BBE
:1012F0000546D3F890320C4603F00303012B09D0C6
:10130000022B0BD1FFF700FC072305B1286004B1C5
:10131000236038BDFFF7F4FB0223F6E7044841F2EF
:10132000501104F09DF800231846EEE700800050AD
:101330006D630008002337B50193194B0546D3F8B8
:1013400020320C4603F00703042B1FD8DFE803F01C
:1013500025030F141900002101A8FFF75FFF1123D7
:101360000DB1019A2A6004B1236003B030BDFFF7CC
:10137000CBFB07230190F3E704F0B8F80A230190B0
:10138000EEE7FFF703FC09230190E9E741F22301AF
:10139000044804F065F80023E2E70123E0E700BF1A
:1013A000008000506D63000838B5104B0546D3F837
:1013B00040310C4603F00303022B0BD0032B0DD05E
:1013C000012B0FD104F092F80A2305B1286004B173
:1013D000236038BDFFF7DAFB0923F6E704F089F84C
:1013E0000B23F2E701230020EFE700BF008000504D
:1013F000002337B50193184B0546D3F860320C46ED
:1014000003F00703013B032B1FD8DFE803F0020EB4
:101410001914002101A8FFF7C7FE0F230DB1019A8F
:101420002A6004B1236003B030BD002101A8FFF79A
:10143000BBFF1023F2E7FFF767FB07230190EDE7FF
:10144000FFF75EFB02230190E8E741F2C801034881
:1014500004F006F80023E1E7008000506D63000807
:1014600073B500240F4B0194D3F87032064603F095
:101470000303012B0D4607D0022B11D041F2261198
:10148000094803F0EDFF04E0214601A8FFF78CFFB7
:1014900010240EB1019B336005B12C6002B070BD09
:1014A0001424F6E7008000506D63000838B5164B31
:1014B0000546D3F800020C4600F00700042819D8AE
:1014C000DFE800F020030B0F130004F00FF80A23ED
:1014D00005B1286004B1236038BDFFF757FB09232D
:1014E000F6E704F006F80B23F2E7FFF7DDFA0E2328
:1014F000800AEDE7054841F26F4103F0B1FF002398
:101500001846E5E70123E3E7008000506D6300081B
:1015100038B5164B0546D3F808020C4600F0070014
:10152000042819D8DFE800F020030B0F130003F0A4
:10153000DDFF0A2305B1286004B1236038BDFFF741
:1015400025FB0923F6E703F0D4FF0B23F2E7FFF7AF
:10155000ABFA0E23800AEDE7054841F2A74103F0FC
:101560007FFF00231846E5E70123E3E700800050F2
:101570006D63000838B5104B0546D3F840320C4671
:1015800003F00303022B0BD0032B0DD0012B0FD143
:1015900003F0ACFF0A2305B1286004B1236038BD15
:1015A000FFF7F4FA0923F6E703F0A3FF0B23F2E7B2
:1015B00001230020EFE700BF0080005038B5124B38
:1015C0000546D3F850320C4603F00303022B0FD02C
:1015D000032B05D0012B0FD103F088FF0A2302E073
:1015E00003F087FF0B2305B1286004B1236038BDE9
:1015F000FFF7CCFA0923F6E7044841F2940103F01F
:101600002FFF00231846EEE7008000506D630008AE
:1016100038B5104B0546D3F860310C4603F0030390
:10162000022B0BD0032B0DD0012B0FD103F05EFF4B
:101630000A2305B1286004B1236038BDFFF7A6FA7C
:101640000923F6E703F055FF0B23F2E701230020FF
:10165000EFE700BF00800050B0F5207F10B52ED01E
:1016600009D8B0F5007F24D003D868B1B0F5C07FA9
:101670000AD000241BE0B0F5607FFAD1124BD3F8FA
:101680008040C4F3011412E00F4B1C6F230B13F0C6
:101690000E0FC4F303340AD0072C08D00F2C06D049
:1016A000032C04D040F28521084803F0D9FE601CC9
:1016B00010BD054BD3F89040C4F30464F7E7024B28
:1016C0001C6FC4F38024F2E7008000506D630008B3
:1016D0004FF4803238B5104B04469A6600200D4610
:1016E000FFF7BAFF41F671320C4B6043DC69DA63F5
:1016F0005A6804F4803422F440125DB908498842E3
:1017000094BF00200120000502435A600CB1002262
:10171000DA6338BD0349F2E700900050000003503F
:10172000005A6202002D310138B5430904460D46C6
:101730000ED140F22F310D4803F092FE002304F049
:101740001F0485B103F580530122A2401A6038BD01
:10175000012B04D0022B04D040F23D31EBE7044BC7
:10176000EDE7044BEBE703F50053EDE76D6300088D
:101770006480005068800050002130B5B0F5807F53
:1017800085B00446CDE9001100F006816BD8002831
:1017900000F0DB80A0F12004602C75D8602C73D899
:1017A000DFE814F0D300E000D300E000F000F00028
:1017B000F000F000F000E000F5007E000B019E005C
:1017C0007E00E000E000E000720072007200720033
:1017D0007200720072000B01E000E000E0002301E3
:1017E0001001E0007200720072007200720072005C
:1017F0007200720072007200720072001501F00037
:10180000D300D300D300B1007E007E00B9001A01DE
:101810009300C800C800720072007200720072006B
:101820007200720072007200720072007200720028
:101830007200720072007200720072007200720018
:101840007200720072007200720072007200720008
:1018500072007200720072007200720072007200F8
:1018600072007200CD00B0F5E06F00F0AB803CD8A4
:10187000B0F5607F00F081801DD8B0F5007F67D0A3
:1018800008D8B0F5C07F60D040F29441594803F0C9
:10189000E7FD57E0B0F5207F64D0B0F5407FF3D18D
:1018A000FFF702F904464FF42070FFF7D5FEB4FBB2
:1018B000F0F464085FE0B0F5B06F68D00AD8B0F516
:1018C000806F5FD0B0F5A06FDED100216846FFF7D2
:1018D00031FD37E0B0F5C06F6FD0B0F5D06FD3D128
:1018E00000216846FFF7E2FD2CE0B0F5286F73D0C9
:1018F00016D8B0F5186F6AD00AD8B0F5F06F74D06A
:10190000B0F5106FC0D100216846FFF701FE19E065
:10191000B0F5206FB8D100216846FFF769FD11E0EE
:10192000B0F5306F5DD0AFD3B0F5386F45D0B0F5BE
:10193000406FA9D100216846FFF770FC02E0FFF775
:1019400099F80090009805B030BDFFF7ADF8F8E7C2
:10195000FFF790F805462046FFF77EFEB5FBF0F551
:101960000095EFE7FFF7A0F804464FF42070FFF76B
:1019700073FEB4FBF0F40094E4E701A8FFF7EAFB80
:10198000019DE8E700216846FFF70EFCDAE7002139
:101990006846FFF77BFCD5E74FF0E02302911B6917
:1019A0005B0705D5FFF780F80290029B0093C9E71B
:1019B00003A902A8FFF7F8FCF7E700216846FFF744
:1019C000F3FCBFE700216846FFF7D4FDBAE700212A
:1019D0006846FFF7F3FDB5E700216846FFF740FDD5
:1019E000B0E76846FFF782FCACE700216846FFF7E6
:1019F0000FFEA7E76D63000808B58020FFF7BCFE67
:101A0000034B98429EBF4FF48032024B1A6708BDC9
:101A1000005A620200A000501FB503460020B3F533
:101A2000607F019000F00E817BD8582B68D8382B4E
:101A300005D8243B092B49D940F27951CEE0393BF6
:101A40001F2BF9D801A252F823F000BFFF1B00089A
:101A5000391A0008391A0008391A0008091C000848
:101A6000571C0008391A0008391A0008391A0008EA
:101A7000391A0008391A0008391A0008391A0008FA
:101A8000391A0008391A0008391A0008391A0008EA
:101A9000391A0008391A0008611C0008491B00089F
:101AA000391A0008391A0008391A00088D1B000875
:101AB000391A0008391A00086B1C0008751C000848
:101AC0004D1C0008AF1B0008AF1B0008092BB3D842
:101AD00001A252F823F000BF491B0008491B00086F
:101AE000491B0008491B0008491B0008391A000857
:101AF000E51B0008391A0008FF1B0008671B0008D7
:101B0000802B59D0B3F5807F96D14FF0E02302901F
:101B10001B695B076ED5FEF7C7FF0C230393039B7E
:101B200056E0B3F5086F74D022D8B3F5C06F66D015
:101B30000FD8B3F5A06F00F08980B3F5B06F51D026
:101B4000B3F5806F7FF478AF002001A9FFF72CFB7D
:101B50004CE0B3F5E06F7ED0B3F5F06F54D0B3F541
:101B6000D06F7FF469AF002001A9FFF79FFC3DE033
:101B7000B3F5286F7ED00ED8B3F5186F70D0B3F5DB
:101B8000206F72D0B3F5106F7FF456AF002001A91B
:101B9000FFF7BEFC2AE0B3F5306F70D0FFF44CAF16
:101BA000B3F5386F2BD0B3F5406F7FF445AF00200D
:101BB00001A9FFF733FB19E0334B1B6F03F0070359
:101BC000013B032B08D8DFE803F005023139052378
:101BD00001930BE00223FBE740F2C6412B4803F0E0
:101BE0003FFC03E0002001A9FFF750FB019805B07E
:101BF0005DF804FB03A902A8FFF7D6FB8FE70020DE
:101C000001A9FFF7D1FBF1E7002001A9FFF700FDD3
:101C1000ECE71D4BD3F8003103F00303022B07D090
:101C2000032B09D0012B0BD1FEF754FF0323CFE781
:101C3000FEF7ACFF0923CBE703F056FC0823C7E708
:101C40000123C5E701A9FFF785FACFE7002001A925
:101C5000FFF770FBCAE7002001A9FFF78BFCC5E77F
:101C6000002001A9FFF7AAFCC0E7002001A9FFF7A7
:101C7000BFFBBBE7002001A9FFF7F2FBB6E701A914
:101C8000FFF734FBB2E700BF008000506D6300082F
:101C9000F8B5036804460F2B04D940F66D3180482F
:101CA00003F0DEFB63680F2B04D94FF437617C48E7
:101CB00003F0D6FBA3680F2B04D940F673317848A4
:101CC00003F0CEFB237B0F2B04D940F6763174480A
:101CD00003F0C6FB637B0F2B04D940F679317048C3
:101CE00003F0BEFBA37B3F2B04D940F67C316C484C
:101CF00003F0B6FBE37B3F2B04D940F67F31684805
:101D000003F0AEFB2369032B04D940F6823164480B
:101D100003F0A6FB6369032B04D940F685316048C4
:101D200003F09EFBE369032B04D940F688315C483D
:101D300003F096FB8020FFF76FFE032800F08A80F7
:101D40004FF48012574B584D5A6645F60E034FF02C
:101D5000A062C5F88030554B9A624FF4803203F58B
:101D600080539A62AB6DDA03FCD4AE6D16F08046F8
:101D7000FBD1D4E900231B0543EA0263E27B4C4814
:101D80001343227B4B4F43EA0243627B43EA023315
:101D9000A27B43EA82132B61AA69D4E904131B06D0
:101DA00043EA816302F000421343A27E4FF4406194
:101DB0001343227E43EA0243627E43EA0223AB617D
:101DC0004FF4006203F0B2FB2B6AE17EE26923F07C
:101DD0000F0343EA8103002A3DD12B6294F824309B
:101DE00094F82010AA6ADB0043EA41133A401343F7
:101DF00094F82120304943EA021343F480332A4AFD
:101E0000AB62936D31EA0303FBD14FF08071274839
:101E100081621369A56823F4700343EA05531361D3
:101E20004FF00043836194F822300BB9234B996241
:101E300094F823303BB94FF48032204B9A621A4A0F
:101E4000936D5B00FCD494F825301BB1164B1C4AF3
:101E5000C3F88020F8BD134343F00803022A2B6225
:101E600008D12E614FF408524FF47F411548AE61FE
:101E700003F05CFB0C4994F822308A6A94F8200045
:101E80001B063A4043EA4013134394F8242043EAE4
:101E9000C20394F8232043EA02438B62D3E700BFD6
:101EA0006D630008009000500040005A0050005A36
:101EB0003840005AC7FFFEFE030001000060005AD0
:101EC000F1A7FFFF3440005A014B93F9000070471F
:101ED00074100020436810B5072B044604D940F65F
:101EE000B3512A4803F0BCFAA368032B04D940F687
:101EF000B551264803F0B4FA2378032B04D940F6F1
:101F0000B751224803F0ACFA94F90130002B04DAFF
:101F100040F6B9511D4803F0A3FA4FF400011C4AE2
:101F2000637851664FF4D151022002F5B832516204
:101F300018494F2B48604FF0010028BF4F2301F58F
:101F4000805148601169C903FCD4217843EA012318
:101F50005361D4E901131B0143EA0123617B0B4365
:101F6000217B43EA41039360E37BA17B1B0143EAAE
:101F70004113617C0B43217C43EA41035360A37C02
:101F800013B16FF4D153536210BD00BF6D630008ED
:101F90000090005000100250014B1880704700BFA5
:101FA00072100020014B1880704700BF7010002095
:101FB000B0F5207F38B577D00ED8B0F5007F61D06E
:101FC00003D890B3B0F5C07F2FD040F21231BDE8F6
:101FD00038403D4803F044BAB0F5607FF5D13B4A44
:101FE0004C1ED2F8FC5015F080751EBFD2F8FC30A4
:101FF00023F08073C2F8FC30032C04D940F2F221A4
:10200000314803F02DFA324AD2F8803023F0300301
:1020100043EA0413C2F8803035B12C4AD2F8FC30C0
:1020200043F08073C2F8FC3038BD4C1E012C0AD935
:10203000102903D8274BCB40DB0704D440F2C7213B
:10204000214803F00DFA03F080FA03F08CFA4FF404
:102050008031214B1E4A1967136F23F4704343EA02
:1020600004331367FEF720FD0446FEF7E3FFC0F1DB
:102070000201204603F071FA00F040F8BDE8384054
:10208000FFF7BABC4C1E1F2C04D940F206310E4893
:1020900003F0E6F90E4AD2F8903023F0F85343EA01
:1020A0000463C2F89030BFE74C1E012C04D94FF4F2
:1020B0004371054803F0D4F9054A136F23F4806394
:1020C00043EA84231367AFE76D63000800ED00E087
:1020D00000800050100101000090005008B501215F
:1020E000022000F073F903F030FA03F03CFA4FF4E9
:1020F0008032014B1A6708BD0090005008B54FF4BC
:10210000C070FFF739FBBDE808400449884294BF1E
:10211000012102214FF42070FFF74ABF80F0FA023C
:102120004FF4C02201212DE9F0470446944B5A6632
:10213000944A03F598335F6851605D6815F00205B5
:10214000FBD12268904B9A4204D84FF426618F4805
:1021500003F086F922688E4B9A4204D940F6612139
:102160008A4803F07DF9A388B3F5967F04D840F63A
:102170006421864803F074F9A388B3F5805F04D323
:1021800040F66521814803F06BF9E388B3F5805F81
:1021900004D340F666217D4803F062F9FEF74AFF5A
:1021A000012820680AD17B4B984207D940F66B2161
:1021B000764803F055F90020BDE8F087764A002301
:1021C00011461668B04202D35668B04205D90133B1
:1021D000192B02F11002F4D1002301EB0313D3E910
:1021E000029028B1FEF732FF00F07F0049EA0009B3
:1021F0008020FFF711FC052840F0988003F0A5F936
:1022000003F0B1F94FF480325D4B4FF4C0701A67A0
:10221000FFF722FA0128054640F0848002214FF49E
:10222000C070FFF7C5FE0126DFF87881D8F80C30C2
:1022300013F0060FFAD1D8F808A0C8F80890D8F81B
:10224000083083EA090313F4F81F71D1A288E388E8
:1022500043EA0243514AD360A368032B7BD1504A1F
:10226000D2F8003123F0030343F00103C2F8003138
:10227000637D227D9B0143EA820322694FF00008BF
:102280001343227B43EA4203444A93602068FEF7EB
:10229000EBFB07223B4B1A610122A3F580535A60E6
:1022A000A3F580531F6917F00707FBD08020FFF7C5
:1022B000B3FB05282ED126B129464FF4C070FFF795
:1022C00077FEFEF7F1FB23680546834204D240F611
:1022D000E6212E4803F0C4F8FEF7C0FBA84204D262
:1022E00040F6E721294803F0BBF82468FEF7B6FB67
:1022F000844204D040F6E821244803F0B1F8FEF708
:1023000099FEC0F10201284603F027F9FFF7F6FE17
:10231000FFF772FBB8F1000F7FF44DAF7B1E584200
:10232000584149E7022801D1042178E700267BE7DC
:1023300040F6B221154803F093F817F00107C8F8EA
:1023400008A01AD18020FFF767FB05287FF433AF80
:102350004FF00108AFE7092B07D1114AD2F800313D
:1023600023F0030343F0020380E7082B80D10C4ADB
:10237000D2F8003143F0030378E74FF0010888E713
:102380000090005000E001509FBB0D006D630008FD
:1023900000B4C404005A6202D463000800C00150B3
:1023A0000080005000000150024A536B0342FCD1F0
:1023B000704700BF00400950034A0179D36E23F0F3
:1023C00030030B43D366704700400050F8B5044615
:1023D000244BD3F88420D006FBD4D3F88430C3F345
:1023E00081139C423CD0FEF745FB012C05460BD1E6
:1023F0001D4B984204D940F292711C4803F030F80A
:102400000121284603F0A9F803F0C7F84FF0007245
:10241000174B07465A66204603F0CFF84FF4806307
:10242000104E621E93403367736E9A0103D4D6F840
:1024300084309B060AD5384603F0B3F8022C0FD13E
:102440002846BDE8F840002103F087B8D6F884306C
:102450009906E9D54FF4F461044803F001F8E3E785
:10246000F8BD00BF00400050005A620264650008D9
:102470000060005010B50C4608B9FEF7FBFA074B98
:1024800021461B783BB1064B984204D80120BDE899
:102490001040FFF79BBF0220F9E700BF861600201F
:1024A000005A62024FF0004238B5244B244C5A6661
:1024B0004AF6CD33656C014605F00105236428BB5F
:1024C0000120FFF771FF6368DB0715D51D4B5860CE
:1024D00008461D4B226BD2070CD4984208D1072422
:1024E00015B1174B194A1A6403F068F8204638BD35
:1024F0000130EFE79842F2D00024F1E70132236B7C
:1025000013F0080305D08A42F8D1E8E700220E490B
:10251000F5E78A42E3D020210A4A91620121A2F51F
:10252000805251600649084A886A800603D4934263
:10253000D5D00133F8E79342DDE700BF00900050AB
:10254000004009500060095040420F003254FFFF24
:10255000032838B504460D4605D8094B33F810302A
:10256000CB40DB0704D440F22D41064802F078FF4F
:10257000302301225C43044BAA401A5138BD00BFEE
:1025800098660008CA65000840D00350032838B593
:1025900004460D4605D8094B33F81030CB40DB0715
:1025A00004D440F2FE31064802F05AFF30230122E3
:1025B0005C43044BAA401A5138BD00BF986600081E
:1025C000CA65000840E0035003282DE9F0410446A5
:1025D0000D461746984605D81D4B33F81030CB40B2
:1025E000DB0704D44FF4B0711A4802F039FF37B159
:1025F00029462046B8F1000F20D0FFF7A9FF0F2190
:10260000072D04EB440688BFA5F108034FEA061620
:10261000114895BFAB009B0004360C3607FA03F255
:102620009940304402F0D1FF7FB929462046B8F1E5
:10263000000F06D0BDE8F041FFF78ABFFFF7A6FF05
:10264000DDE7BDE8F041FFF7A1BFBDE8F08100BFC5
:10265000986600083166000830C003504FF48002CD
:102660000B4B10B5C3F88020BFF34F8FBFF36F8FB4
:102670000024FF22074B21465C6520209A625C60A3
:10268000FFF752F82146BDE810402120FFF74CB873
:1026900000E100E000000450072838B504460D466C
:1026A00003DD7721084802F0DBFE1F2C03D99121BE
:1026B000064802F0D5FE064A064B002D08BF134619
:1026C0000122A2401A6038BDA06600080767000812
:1026D000401004504020045010B5044618B9912110
:1026E0001F4802F0BDFE23781B0613F0604F03D095
:1026F00092211B4802F0B4FEE3780F2B03D9A321EB
:10270000174802F0ADFE01212020FFF70DF801214E
:102710002120FFF709F80122124B5A602278120695
:102720009A606178A27842EA01429A61FF229A6235
:1027300000229A631A644FF000425A654FF0FF324C
:102740004FF4800103F500531A65074AC2F880115F
:10275000E3781B01DBB282F81633116010BD00BFB5
:10276000A06600080000045000E100E02DE9F041FF
:102770000126C3B2072805460C46904606FA03F622
:1027800003DDEC21364802F06BFE1CB9ED21344824
:1027900002F066FE236823F47C1323F00F031BB1C1
:1027A000F0212F4802F05CFEA37A1B0413F47C0F87
:1027B00004D040F209112A4802F052FEE37A1B05C8
:1027C00013F07E6F04D040F20B11254802F048FE52
:1027D000237B5B0513F0FE5F04D040F20D1120480F
:1027E00002F03EFE1F4B204F1E65AB00226803F136
:1027F000A04303F588235A60302202FB0575637BF2
:102800002B66E37AA27A1B0543EA0243227B43EA62
:102810004253EB6528F003032B6702F0C5FE7B6D86
:1028200033437B65237A13B13B6C33433B64637A58
:1028300013B1BB6B3343BB632279A37943EA0243F1
:10284000084A93616179E37943EA014307498B615F
:10285000054B56639E64BDE8F04102F0ABBE00BF7D
:10286000A06600080020045000000450001004502E
:1028700010B50124C3B2072804FA03F404DD40F2C2
:102880009711074802F0ECFD02F08EFE054B5A6DE1
:1028900022EA04025A659C62BDE8104002F08ABE3A
:1028A000A06600080000045010B50124C3B2072838
:1028B00004FA03F404DD40F2B5110A4802F0D0FD39
:1028C00002F072FE084BDA6A224208D15B6B9C432D
:1028D0000CBF0124002402F06DFE204610BD002430
:1028E000F9E700BFA066000800000450F8B50746ED
:1028F0000C461D4616464AB94FF4A171314802F004
:10290000AFFD24B1402D09D1062328E021B94FF4B1
:102910002070FEF731FF0446402D42D0402D09D8EB
:102920007DB1202D17D040F28911BDE8F84025482F
:1029300002F096BD602DF6D1B6EB940F3CD804237F
:102940000DE0B6EB141F04D94FF4BA711D4802F024
:1029500087FD102303E0B6EBD40F1CD808235E4399
:10296000730803EB4413B3FBF6F3174E203BB6EBAF
:10297000C30F4FEAC30404D24FF4D071114802F0E0
:102980006FFDBB68344023F06003BB60BB681D4330
:10299000BD60FC61F8BD40F279110A4802F060FDAB
:1029A000DCE70623B4FBF3F3B342ADD24FF4BF71BF
:1029B000044802F055FDA7E740F28311014802F0F8
:1029C0004FFDBCE76D670008F8FF7F0038B50C4B82
:1029D000044698420D4604D04FF43371094802F082
:1029E0003FFD012204F580535A60EB43934003F00E
:1029F0000A036361656115B904F50054626038BD6E
:102A000000C005506D670008124B10B5984204468F
:102A100004D040F24241104802F022FD012104F5A9
:102A20008053596040F6AA6341F2050263610023B6
:102A30000A48A360E365E26004F500522361E361A4
:102A4000E36490640348A365844204BF236563651F
:102A5000516010BD00C005506D670008FFFF010008
:102A6000304B70B5984204460D4604D040F2FD212B
:102A70002D4802F0F5FC2046FFF7C6FF012304F5C0
:102A800080567360AB7C1BB1A36843F08043A360A6
:102A9000EB7C5BB1234B9C4202BF2A7DA3F5103334
:102AA000C3F8D421E36D43F08003E3652A8A6B7B8E
:102AB00020461343EA891343E3602B7BD5E90112D7
:102AC000FFF714FF6B7D1BB1A36843F48033A36051
:102AD000AB7D1BB1A36843F40043A360EB7D2A7E6A
:102AE0001B07120502F4E00203F0E0431343A36561
:102AF0006B7E9A1E012A4FF0020209D80B49032B64
:102B0000C1F8982709D10423F3652B78636170BD60
:102B10000749012BC1F89827F4E7042204F5005374
:102B2000DA65F2E700C005506D67000800D0035079
:102B300000E0035010B54FF42F720021044603F05B
:102B400084FB8023C4F88C30054B04F19C00C4F84E
:102B50008430012384F88830BDE8104002F081BC45
:102B6000D567000810B5D0F8A0400A4684B902F035
:102B7000F6FE044610B90024204610BD2D2896BF4D
:102B8000064B074953F82010064803F02EF8F3E7E8
:102B9000D0F8A4101046A047EDE700BF80680008F9
:102BA000D8670008E6670008F8B590F8806004462A
:102BB00016B100263046F8BD02F01EFD0028F8D1FF
:102BC000012384F8803094F8883033B1D4F884102D
:102BD000194884F8886003F008F84FF0FF37D4F8FC
:102BE000B402421C1CD0C4F8B47210F0FF0520D00F
:102BF000204602F0FEFC2946204600F0AFFB0028EC
:102C0000EDD0204602F0FAFC94F888306BB1D4F88D
:102C10008410094802F0E9FF002384F8883004E0BA
:102C200002F0C8FF431CE0D10126002384F8803065
:102C3000C0E70126D3E700BFB3690008F8B50B78F9
:102C40000446302B0D46164604D14B7803F0DF03C3
:102C5000582B11D0284F6A1E12F8011F002934D1B9
:102C600028460A2202F0C8FB202C03460D4631D12B
:102C7000B1FA81F040091AE04A1C1F4912F8013FDD
:102C80008BB9284603F012FB1C4B02382340032B60
:102C900012D10134A41084420AD1A87837288CBFFD
:102CA0000020012003E0CB5C13F04400E6D1F8BD26
:102CB000CCBF01200020FAE7002CB8BF0334B0EBF2
:102CC000A40FD4BF01200020F1E77B5C13F00400C7
:102CD000C2D1ECE726B1084302D0013B61F1000507
:102CE0000122A240013A1A40002D08BF9A420CBFAF
:102CF00001200020DBE700BF8D6B0008030000808F
:102D0000F0B5037801467B2B17D10646022400223A
:102D10000B4F16F8015F7D2D05D10B5D6BB9D243CA
:102D200002F0010008E07B5D13F0440002D00132A4
:102D30000134EEE7202DFBD0F0BD0020FCE700BF02
:102D40008D6B000870B506460D4603F0AFFA0446D9
:102D5000304602F04AFF044EAC4200D370BD30460C
:102D600002F043FF0134F7E7A66900082DE9F84FA8
:102D7000044602216048FFF7E5FF1E212068FFF7A7
:102D8000E1FF6368586802F030FF5C4802F02DFFF5
:102D900067683B7BFD2B12D8D7F808804FF0FF34D3
:102DA000404603F083FA0646DFF84C91DFF8A8A10D
:102DB000DFF864B10C3717F8013BFF2B01D1BDE8F8
:102DC000F88F212B14D8212B14D8DFE803F0178CAF
:102DD0008884807C78741313131313131313706C8B
:102DE0006864605C58541313131313131313504C7B
:102DF000FE2B34D006B10134414D02E006B101345E
:102E0000404D02214846FFF79DFF1E214846FFF72F
:102E100099FF504602F0E9FE5946284603F02FFA82
:102E20003949002818BF2946384802F0DEFE3B78B1
:102E3000202B02D12B2002F0CCFE354802F0D5FE2B
:102E40004EB118F804301F2B05D018F804001F28C5
:102E500001D0B4424BDB294802F0C7FEABE706B114
:102E600001342C4DCDE706B101342B4DC9E7002EBE
:102E7000A1D001349FE706B10134284DC1E706B166
:102E80000134274DBDE706B10134264DB9E706B13F
:102E90000134254DB5E706B10134244DB1E706B143
:102EA0000134234DADE706B10134224DA9E706B147
:102EB0000134214DA5E706B10134204DA1E706B14B
:102EC00001341F4D9DE706B101341E4D99E706B14F
:102ED00001341D4D95E706B101341C4D91E706B153
:102EE00001341B4D8DE706B101341A4D89E702F01C
:102EF00070FE0134A9E700BFBA690008E86700085E
:102F0000456900083F6900089C690008B36900082A
:102F1000A06900084D690008536900085C69000851
:102F2000636900086E690008786900088269000812
:102F30006D69000877690008816900088A690008DE
:102F40008E69000896690008396900084069000820
:102F500095690008386900089E6900082DE9F04F5E
:102F600093B005468B4600240092049303F09EF92B
:102F70001C9F049B05901C6028463C600AAA09A976
:102F800002F054FE064658B90A9803F08FF9344609
:102F9000B146049B1860D5F89C300393039B1BB982
:102FA000204613B0BDE8F08F039B9B680193002B74
:102FB00069D02E4416F8013B202B12D000260C239A
:102FC0007343019A02EB030AD3580293002B55D0A6
:102FD000DDF82480C84551DB9AF808302BB1721C0B
:102FE00035E03B6801333B60E4E73B68D5F894206B
:102FF0000299D21A049B1A6012AB03EB890353F8AF
:10300000203C1846069303F028F907900028E6D1E3
:10301000029803F04BF9DAF804100346087BD7F85E
:1030200000A0FE28079A16D108F1FF38C8452ED017
:103030000B6806980292019303F038F90AF1010334
:10304000029A0344E95C21B13B6009F1010916468B
:10305000B5E70133F6E7D5F89420A2EB0A029A42CD
:10306000BDDC5846069303F021F9069B03447B2BF5
:103070001DD958461E4A009902F016FA2B46059AA9
:103080002A449A422AD1039B1B68039386E7D5F80A
:103090009420A2EB0A029A42E3DDD1F8008058F8AE
:1030A0000C2B82B9059B3B60049B1A60E6E75846EF
:1030B000029A009902F0F8F958460E4A0099013434
:1030C00002F0F2F98BE75846009902F0EDF9584604
:1030D000084A009902F0E8F90134E0E713F8011B0F
:1030E0000029CED14FF0200103F8011CC9E700BF31
:1030F000A3690008A66900082DE9F047002486B0FE
:103100001C60DDE90EA8064689468AF80040116871
:10311000154888F8004017461D468DF81740FDF702
:1031200007FC18B901242B6801332B600020D6F866
:103130009C6036B914B1012388F8003006B0BDE8B0
:10314000F087B06868B14B460021CDE902A8CDE90F
:1031500000750DF1170202F09FFB9DF81730002B50
:10316000E8D13668E5E700BFA86900082DE9F0431B
:1031700000260446ADF5457D7C22314605A802AF08
:10318000049603F062F880222046009703AB04A95E
:10319000FFF7E4FE01283ED104A803F087F8039965
:1031A0003B68A0EB01080B44234428EAE878054675
:1031B00004A801444246184603F06BF800F8086082
:1031C000D4F89060039B3968D4F890201944B14238
:1031D00012DCD4F89410E81A0244C4F89020014498
:1031E00004AAC4F89410D41825182B1B002B0DDC4E
:1031F0000DF5457DBDE8F083A05C02F0EAFCD4F853
:10320000903001360133C4F89030DBE714F8010B3D
:1032100002F0DFFCE9E7EBDD24AD802231462846F1
:1032200003F013F844AB4FF400723146184603F034
:103230000CF80DF1100903464A464FF001083146DB
:1032400012F8016B002E49D104A843F8281003F0AE
:103250002DF82946334619F8016B0DF5887C5CF88A
:10326000042B824243D10133984501F8016BF2DA15
:10327000D4F89060039BB34242DC2346354A04A94C
:10328000354802F0B2FC284603F010F80646039BCE
:103290003F68F61A1F44E0191D4426EAE67204F15D
:1032A00098031744984204EB07014ED204F19003AF
:1032B00099424AD96A1E81190B1A002B39DD12F87E
:1032C000013F00F8013BD4F890300133C4F890304E
:1032D000D4F894300133C4F89430EDE7202E01F196
:1032E000010104BF43F8281008F10108A8E70DF117
:1032F000100E7244D25CB242B1D00022EA54B7E759
:10330000D4F890300136E05C02F063FCD4F89030E1
:103310000133C4F89030ADE7D4F89020013B01327E
:10332000C4F89020D4F894200132C4F89420002BE3
:10333000F2DC00232E44E355731B002B7FF758AFBC
:1033400015F8010B02F045FCF6E7294602F0A1FF53
:103350003346ECE7D5670008AD6900082DE9F8436E
:10336000D0E9245604460F46002294F89830012BE9
:1033700007D10A2F07D1002384F898300020BDE838
:10338000F88300F29F801B2F01D10223F4E70D2F59
:103390000DD1012384F898300D2002F01AFC0A2088
:1033A00002F017FC00230120C4E92433E7E74FF0C3
:1033B0000008082F84F8988034D1454530DDB542A7
:1033C0000FD1384602F005FC202002F002FC013D3E
:1033D000384602F0FEFB013E04F80580C4E924569D
:1033E000CCE7FBDA05F1FF39384602F0F2FB04EBDB
:1033F0000903A6EB09026119184602F00CFF04F854
:1034000006800146013E484802F0EFFB35464D4537
:1034100001DC4D46E2E7082002F0DBFB013DF6E768
:10342000ACD0DBE77F2F1CD1002EA7DDB542A5DA9B
:103430006319691C21441846721B02F0ECFE04F863
:1034400006800146394802F0D0FB0820013E02F018
:10345000C0FBB542F9D1D4F89430013BC4F89430A4
:103460008CE70A2F98D0092F03D12046FFF77EFE64
:1034700084E7D4F88C30013BB3427FF77FAFB5428D
:1034800004EB050805F101090CDB384688F80070EB
:10349000D4F89430C4F890900133C4F8943002F01A
:1034A00098FB6BE74146721B04EB090002F0B3FE88
:1034B000404602F09AFB0820013E02F08AFBB5422A
:1034C000F9DDE2E7022B06D15B2F01D1032353E79D
:1034D00084F8982049E7032B7FF450AF413F84F8EC
:1034E0009820032F3FF64AAFDFE807F002070A16DD
:1034F0000121204602F01EFB40E74FF0FF31F8E7C4
:10350000B542BFF63BAF605D02F063FBD4F890308C
:103510000133C4F8903031E7002D7FF72FAF013D24
:103520000820C4F89050BAE7B6690008BB690008E3
:1035300030B587B06C461B4D0FCD0FC495E8030026
:1035400084E803008020FEF767FA05280CD00121EB
:103550003120FEF7E9F86846FEF7E2FD044684F004
:103560000100C0B207B030BD0F4DFEF7B7FD2B6FA5
:1035700023F0070343F001032B6701F0F9FF01215A
:103580003120FEF7D1F86846FEF7CAFD0446FEF783
:10359000A5FD2B6F23F0070343F002032B6701F017
:1035A000E7FFDCE7C06900080080005013B5002485
:1035B000064A6846536F43F00103536700948DF841
:1035C0000440FEF7F9FE204602B010BD0040005056
:1035D00030B58BB06C46174D0FCD0FC40FCD0FC457
:1035E00095E8030084E80300134BD3F84C21120341
:1035F0001CD5A3F5FE431C884FF6FF739C4208BF01
:103600008C248DF81940FEF75FFC204480F30800FD
:103610008DF818000948FDF763FA6846FEF738FB95
:103620000A20FEF7BFFC00200BB030BDD3F850419C
:10363000E4B2E6E7D86900080080E00FC017530243
:1036400030B5094D87B001AC0FCD0FC42B6801A870
:1036500023603F238DF80530FEF73CFC1420FEF775
:103660009BFC002007B030BD006A00086FF0040327
:10367000502110B50A480B4C13F0800F03F10102E2
:1036800007D123444F2A83F800131346F4D10020B6
:1036900010BD03F00F03043B034419761346EBE718
:1036A00000ED00E000E100E010B5044601F075FF18
:1036B000024B1C6001F075FF002010BD201200209D
:1036C00010B501F06AFF034B1C6801F06AFF204649
:1036D00010BD00BF20120020302238B5037A044606
:1036E000534303F1A04303F58023DD6ED0E90323A8
:1036F00013449D4201D8AA4204D94FF43E710548B3
:1037000001F0AEFED4E9030303449D4218BF2846EE
:1037100038BD00BF146A000830B51446054687B0AE
:103720001046FFF7D9FF6369024683423CBFD4E9E4
:1037300003315B181B1AABB11249049403910021A9
:10374000CDE90131012300932846D4E9001301F0AB
:10375000D3FE20B14FF434710B4801F081FE0020FC
:1037600007B030BD0122627694F82D20002AF6D0F1
:1037700084F835301321E369204698472046636A70
:103780009847ECE719370008146A00082DE9F0475C
:1037900088B004460F461646984601F005FF81465C
:1037A000002E00F0AD80237E03F0FF02002B00F01E
:1037B000E0802046FFF790FF63698246984206D179
:1037C000637E23B940F27F316B4801F049FE6569A1
:1037D000AA459DBFD4E903329B185D1BAAEB0505E2
:1037E000B54228BF354601F0DFFE94F82D30824601
:1037F000002B40F096802A463846616902F049FD68
:1038000063692E462B4463612CE06069037803F002
:10381000FD01112940F08280216B884205D1A3F17E
:1038200011014B424B4184F83430013E6369216BF6
:1038300001328B4203F1010308BF236363619542A8
:10384000E3D1D4E90323216B1344994208BF2263D7
:10385000216B8A4201D88B4204D84FF46D714648DF
:1038600001F0FEFDD4E9032361691344994208BFC6
:10387000626161698A4201D88B4204D84FF4717148
:103880003D4801F0EDFD0023207A6376FDF7EEFA66
:1038900020B140F21131384801F0E2FD2046FFF737
:1038A0001BFF636983423FD10023E568237694F8C8
:1038B0002D30656103B125632046636A98472F4B1D
:1038C000049403930023029323692A46019301235E
:1038D000009363682168207A01F00EFE20B140F267
:1038E0002D31254801F0BCFD207AFDF7DFFA20B12B
:1038F00040F25131204801F0B3FD504601F05AFE2C
:103900004846C8F8006001F055FED8F80030002B9A
:103910000CBF1B20002008B0BDE8F08707F8013B72
:1039200084E72E4600228AE70123207A23760DF1D0
:103930001E01FDF723FB20B14FF450710E4801F03A
:103940008FFD9DF81E30207A002BCDD00DF11F0188
:10395000FDF7ECFA20B140F24631074801F080FD56
:103960009DF81F10207A0029BED12246FFF7D4FE11
:10397000BAE71646C4E700BF146A00081937000802
:1039800070B504460568FFF79BFE844202D1002013
:10399000FFF78AFE95F93630002B11DB012203F088
:1039A0001F015B099B0003F160438A4003F56143FB
:1039B000C3F88021C3F88020BFF34F8FBFF36F8F10
:1039C000287AFDF793FA20B14FF4ED71104801F019
:1039D00047FD287AFDF7F0F920B14FF4EF710C485C
:1039E00001F03EFDFDF7C6F938B10A4B984204D00C
:1039F0004FF4F171064801F033FD00232846C4E975
:103A00000033C4E90433A360AB6ABDE870401847D3
:103A1000146A0008058000F02DE9F84304460D46BD
:103A200090F82C80DFF8AC908E18AE4228D094F835
:103A30002D3083B101F0B8FD237E07461BBB226BFE
:103A400063699A4204D040F2F911484601F008FD3A
:103A5000384601F0AFFD94F83430002BE5D0B8F1D2
:103A6000000F06D02B780A2B03D10D212046E369E5
:103A700098472046E36915F8011B98470028D4D0E1
:103A80000020BDE8F8832046FFF726FEE1680138F4
:103A9000884238BF2069D4F830C03CBF00F1FF3005
:103AA000401803469C450BD013F80129112A01D078
:103AB000132A07D1A2F111035A425A4184F8342043
:103AC0002063C5E7994282BF236903F1FF335B1886
:103AD000E8E700BF146A0008F0B50C460646154634
:103AE00087B03822002120461F4602F0AEFB95E841
:103AF000030000232A692376EB6884E80300C4E905
:103B000004232A7DE36084F82C20AA7D236301230B
:103B100084F8343084F835300C9B84F82D202362EF
:103B20000D9BE76163620E9BA3622B7A84F83630AB
:103B3000204B34607360204BB360204B3361204BCB
:103B40007361204BF360FDF75DF930B11E4B984275
:103B500003D01024204607B0F0BD002104F1080076
:103B6000FDF7D8F80028F4D10127184B0494CDE9CB
:103B700002032369009701936368E2682168207A51
:103B800001F0BAFC04460028E3D195F90830002B77
:103B90000BDB03F01F025B099B0003F160439740BE
:103BA00003F56143C3F880711F603046FFF77CFD69
:103BB000D0E700BF193A00088D370008895D00087A
:103BC0008F5D000881390008038000F01937000874
:103BD0002DE9F0411C46574B86B00293564B012706
:103BE000019300230C9D00939046CDE903770A468C
:103BF000524B2946FFF770FF0646002840F091809F
:103C000023683946AB6363683A20EB63637A85F8CF
:103C10004130237A85F84030E37A85F84330A37A3F
:103C200085F84230637B85F84530237B85F8443046
:103C3000E37B85F84730A37B85F84630FDF774FDBC
:103C40003B460422617A207AFEF7BEFC3B46022204
:103C5000E17AA07AFEF7B8FC39466068FDF764FDAA
:103C600088F8006041462068FEF7FAFE1422637C63
:103C70005B0103F1A04303F57033C3F89827617A21
:103C8000227A42EA0142C3F8B027E17AA27A42EAF4
:103C90000142C3F8A82785F8486098F81930032B2B
:103CA00045D8DFE803F03542021C022385F848308E
:103CB00000230422E17BA07BFEF786FC022741F271
:103CC0009871627C1E4B03EB42104750E07BA17B56
:103CD000BD3241EA004103EB4213596018E001276D
:103CE00085F8483002220023617B207BFEF76CFCC4
:103CF000617B637C227BBD3342EA014210495B0158
:103D0000CA500422236803F58053DA65002FCFD10F
:103D1000AA6B0521D36C206843F00403D364FEF73B
:103D200055FE304606B0BDE8F0810027D8E72326CF
:103D3000F7E700BFA15D0008955D0008195E000867
:103D400000C003502DE9F04F9B4691B00B1E0A9323
:103D5000AD4B904614BF8146994600241A9E9BF8AD
:103D6000000070B9444538BF224643464FF000007A
:103D70000A9928BF08F1FF32C847204611B0BDE8B4
:103D8000F08F25280BF1010B06D0224643460A99F5
:103D9000651CC8472C46E2E700230DE02D2A2AD0F7
:103DA000302A06D0303A092A4FF0000711D80A25E8
:103DB00032E043F001038B46594611F8012B2B2AC0
:103DC0001CD0EBD8202A1CD0232A1DD02A2A2BD085
:103DD00000279BF800202E2A64D19BF801100BF1DC
:103DE0000102A1F13000092843F4806351D8002575
:103DF0004FF00A0C26E043F00203DCE743F0040333
:103E0000D9E743F00803D6E743F01003D3E78B4626
:103E100005FB0722A2F13007594611F8012BA2F148
:103E200030000928F3D9D4E756F8047B8B46002FDD
:103E3000BCBF43F002037F42CBE702460CFB0511F7
:103E4000A1F13005104610F8011BA1F1300EBEF1B2
:103E5000090FF2D9114611F8010B6C282CD024D887
:103E6000682830D06A2837D011468B461BF8010BE2
:103E7000672875D857284BD8452807D085D94628B4
:103E800000F03181472880D143F4006343F02003E0
:103E90003FE12A2907D156F8045B0BF1020225EA1B
:103EA000E575D7E75A460025D4E7742801D07A286B
:103EB000DAD143F48073D8E750786C28F9D143F411
:103EC0004073911CD1E75078682802D043F08003FA
:103ED000CBE743F0C003F4E743F40073C5E70A2AD5
:103EE00000F06281072A7FF450AF43F0210305936D
:103EF0000823CDE903531023CDE9011356F8043B01
:103F000022460093484643460A9902F0BCF8FAE07C
:103F1000A0F158020F2A3FF638AF01A151F822F064
:103F2000913F00088B3D00088B3D00088B3D000849
:103F30008B3D00088B3D00088B3D00088B3D000841
:103F40008B3D00088B3D0008913F0008314100087F
:103F5000913F00080B410008EB4000080B410008AE
:103F6000A0F16902D2B20F2A3FF60FAF012149F248
:103F7000410C914011EA0C01B1D0782803F4806122
:103F800022D1002900F0908023F00D02102307E0D9
:103F9000622803F4806220D142BB23F00C0202238A
:103FA00012F4007100F08380CDE907720022CDE9A0
:103FB000043206F1070A2AF0070A06950292FAE887
:103FC0000223CDE900233DE06F2812D123F00C023B
:103FD00009B123F00D020823E2E7582816D1002A80
:103FE00039D123F00C0242F02002CFE723F00D027A
:103FF000D5E7692823F0100230D023F01C0209B164
:1040000023F01D020A23CBE7C55E000842BB23F064
:104010001002930527D5073626F00706B2467168C9
:104020005AF8083B0A26CDE907720027CA0F002973
:10403000CDE904670695029202DA5B4261EB410129
:10404000CDE900314346224648460A9902F05EF81F
:104050000446564683E623F00D02C4E70029D8D073
:1040600023F01102D5E7D00506F1040A01D5336823
:1040700002E0510613D53378CDE904720A22002BF1
:1040800002924FEAD37203950192B8BF5B4200934C
:104090004346224648460A9901F0F5FFD8E7130641
:1040A000E5D5B6F90030E7E723F00C026EE7D0055E
:1040B00006F1040A06D5CDE90472CDE90235019175
:1040C0003368E4E7510608D53178CDE9023500239D
:1040D000CDE90472CDE90013DAE7316812F0800F00
:1040E00018BF89B2F1E743F02003CDE90173073629
:1040F00026F007060095B6EC020B434622464846DA
:104100000A99FCF7F9F9044629E6672801D143F436
:104110000063CDE90173073626F007060095B6EC7B
:10412000020B4346224648460A99FCF729F8EAE77B
:1041300013F0020523D04FF0010A631C0B932246B3
:1041400043460A9916F8040BC8475DB354460B9AC8
:104150001EE0434620200A99C8470AEB04020AF1F0
:10416000010A5745F5D8002F07F1FF3308BF002398
:1041700007F1010A1C4408BF4FF0020ADDE7AA4616
:10418000EBE7551C434620200A99C8472A460134CC
:10419000BC42F6D3A7EB0A03574538BF00230B9A5E
:1041A0001A440B920B9CDAE53246002D52F8046B50
:1041B00014BF29464FF0FF310B923246314410783C
:1041C00008B18A4211D1A2EB060A13F480620C9264
:1041D00002D0AA4528BFAA4613F002030D931BD1B3
:1041E000AAEB040322460F9308E00132E7E7531CD1
:1041F0000E93202043460A99C8470E9A0F9BD31866
:104200009F42F4D8A7EB0A03574538BF00230AF1B1
:1042100001021C4403EB020AA31B0E9304E01D469B
:10422000434622460A99C8470E9BF41816F8010B1C
:1042300028B10C9B002BF3D06B1E002DEFD10D9BF2
:1042400093B12246AAEB040505E0561C4346202004
:104250000A99C847324653199F42F6D8A7EB0A037A
:10426000574538BF00231C440B9E78E51FB5034615
:1042700000914FF0FF3203A90248FFF763FD05B03C
:104280005DF804FBAB61000830B50A4C0A4B2268AC
:104290000A4D1A600A4B85B02B600A4B0193FFF759
:1042A0000FFA2B68029001A92068039301F0B9F975
:1042B00005B030BD1C1000201C1200201812002078
:1042C00010100020F86A000838B5FFF7F9F9044625
:1042D000064D2B68D3F8B002FFF7E6F9286801F025
:1042E000B4F92046BDE83840FFF7DEB91C100020C5
:1042F00010B5224CFDF7F2FE236F23F0070343F0C5
:104300000203236701F034F9D4F82031002023F0B0
:10431000070343F00103C4F82031D4F8283123F017
:10432000070343F00103C4F82831D4F8403123F0E7
:10433000030343F00203C4F84031D4F8603123F0A2
:10434000030343F00203C4F86031D4F8403223F091
:10435000030343F00203C4F84032D4F8003223F0E0
:10436000070343F00203C4F80032D4F8083223F004
:10437000070343F00203C4F8083210BD0080005068
:1043800030B5204D95B00DAC0FCD0FC495E80700AA
:10439000292384E807001C4A0021CDE902230523D4
:1043A000CDE904118DF8113004230E220DF1260001
:1043B00006918DF8133001F048FF4FF48021134B24
:1043C0001348CDE9071309238DF824300A238DF80B
:1043D0002530104B0DAA0A9320230B9340F20113B2
:1043E000ADF830300C4B07A9009302ABFFF7F0FBA0
:1043F000044618B18621094801F032F8204615B06C
:1044000030BD00BF706B000800C0055024C00550CF
:104410003015002087160020E4140020096B0008E6
:1044200008B5FFF7ADFF28B1BDE808409A21024862
:1044300001F016B808BD00BF096B0008014801F083
:10444000F1BC00BF3015002081F0004102E000BF48
:1044500083F0004330B54FEA41044FEA430594EA44
:10446000050F08BF90EA020F1FBF54EA000C55EA7F
:10447000020C7FEA645C7FEA655C00F0E2804FEA50
:104480005454D4EB5555B8BF6D420CDD2C4480EA32
:10449000020281EA030382EA000083EA010180EA62
:1044A000020281EA0303362D88BF30BD11F0004FB0
:1044B0004FEA01314FF4801C4CEA113102D04042E6
:1044C00061EB410113F0004F4FEA03334CEA133321
:1044D00002D0524263EB430394EA050F00F0A78039
:1044E000A4F10104D5F1200E0DDB02FA0EFC22FA34
:1044F00005F2801841F1000103FA0EF2801843FA28
:1045000005F359410EE0A5F120050EF1200E012A18
:1045100003FA0EFC28BF4CF0020C43FA05F3C01856
:1045200051EBE37101F0004507D54FF0000EDCF1CF
:10453000000C7EEB00006EEB0101B1F5801F1BD378
:10454000B1F5001F0CD349085FEA30004FEA3C0C7C
:1045500004F101044FEA445212F5800F80F09A8072
:10456000BCF1004F08BF5FEA500C50F1000041EB76
:10457000045141EA050130BD5FEA4C0C404141EB7A
:104580000101013C28BFB1F5801FE9D291F0000F75
:1045900004BF01460020B1FA81F308BF2033A3F124
:1045A0000B03B3F120020CDA0C3208DD02F1140C1B
:1045B000C2F10C0201FA0CF021FA02F10CE002F156
:1045C0001402D8BFC2F1200C01FA02F120FA0CFC4F
:1045D000DCBF41EA0C019040E41AA2BF01EB045198
:1045E000294330BD6FEA04041F3C1CDA0C340EDC96
:1045F00004F11404C4F1200220FA04F001FA02F3D9
:1046000040EA030021FA04F345EA030130BDC4F196
:104610000C04C4F1200220FA02F001FA04F340EA8B
:104620000300294630BD21FA04F0294630BD94F03C
:10463000000F83F4801306BF81F480110134013D23
:104640004EE77FEA645C18BF7FEA655C29D094EA94
:10465000050F08BF90EA020F05D054EA000C04BF12
:104660001946104630BD91EA030F1EBF00210020FD
:1046700030BD5FEA545C05D14000494128BF41F09C
:10468000004130BD14F580043CBF01F5801130BD00
:1046900001F0004545F0FE4141F470014FF000008B
:1046A00030BD7FEA645C1ABF194610467FEA655C3C
:1046B0001CBF0B46024650EA013406BF52EA0335DE
:1046C00091EA030F41F4002130BD00BF90F0000FCC
:1046D00004BF0021704730B54FF4806404F1320408
:1046E0004FF000054FF0000150E700BF90F0000FC1
:1046F00004BF0021704730B54FF4806404F13204E8
:1047000010F0004548BF40424FF000013EE700BFB7
:1047100042004FEAE2014FEA31014FEA02701FBF47
:1047200012F07F4393F07F4F81F06051704732F079
:104730007F4208BF704793F07F4F04BF41F40021D0
:10474000704730B54FF4607401F0004521F000412E
:104750001CE700BF50EA010208BF704730B54FF0B8
:1047600000050AE050EA010208BF704730B511F0B9
:10477000004502D5404261EB41014FF4806404F1F1
:1047800032045FEA915C3FF4D8AE4FF003025FEA77
:10479000DC0C18BF03325FEADC0C18BF033202EBFB
:1047A000DC02C2F1200300FA03FC20FA02F001FA55
:1047B00003FE40EA0E0021FA02F11444BDE600BFF8
:1047C00070B54FF0FF0C4CF4E06C1CEA11541DBFA7
:1047D0001CEA135594EA0C0F95EA0C0F00F0DEF872
:1047E0002C4481EA030621EA4C5123EA4C5350EA57
:1047F000013518BF52EA033541F4801143F48013A8
:1048000038D0A0FB02CE4FF00005E1FB02E506F038
:104810000042E0FB03E54FF00006E1FB03569CF08D
:10482000000F18BF4EF0010EA4F1FF04B6F5007F93
:1048300064F5407404D25FEA4E0E6D4146EB060605
:1048400042EAC62141EA55514FEAC52040EA5E508E
:104850004FEACE2EB4F1FD0C88BFBCF5E06F1ED838
:10486000BEF1004F08BF5FEA500E50F1000041EB6F
:10487000045170BD06F0004646EA010140EA02001C
:1048800081EA0301B4EB5C04C2BFD4EB0C0541EA3E
:10489000045170BD41F480114FF0000E013C00F353
:1048A000AB8014F1360FDEBF002001F0004170BD77
:1048B000C4F10004203C35DA0C341BDC04F1140490
:1048C000C4F1200500FA05F320FA04F001FA05F21C
:1048D00040EA020001F0004221F0004110EBD370E9
:1048E00021FA04F642EB06015EEA430E08BF20EA15
:1048F000D37070BDC4F10C04C4F1200500FA04F3B8
:1049000020FA05F001FA04F240EA020001F0004149
:1049100010EBD37041F100015EEA430E08BF20EABC
:10492000D37070BDC4F1200500FA05F24EEA020E04
:1049300020FA04F301FA05F243EA020321FA04F033
:1049400001F0004121FA04F220EA020000EBD370EA
:104950005EEA430E08BF20EAD37070BD94F0000FEA
:104960000FD101F00046400041EB010111F4801F1E
:1049700008BF013CF7D041EA060195F0000F18BFCF
:10498000704703F00046520043EB030313F4801F0B
:1049900008BF013DF7D043EA0603704794EA0C0FC5
:1049A0000CEA135518BF95EA0C0F0CD050EA4106DB
:1049B00018BF52EA4306D1D181EA030101F0004158
:1049C0004FF0000070BD50EA410606BF1046194680
:1049D00052EA430619D094EA0C0F02D150EA01368C
:1049E00013D195EA0C0F05D152EA03361CBF1046CD
:1049F00019460AD181EA030101F0004141F0FE416C
:104A000041F470014FF0000070BD41F0FE4141F4EF
:104A1000780170BD70B54FF0FF0C4CF4E06C1CEAEF
:104A200011541DBF1CEA135594EA0C0F95EA0C0FA4
:104A300000F0A7F8A4EB050481EA030E52EA03355F
:104A40004FEA013100F088804FEA03334FF0805580
:104A500045EA131343EA12634FEA022245EA1115AD
:104A600045EA10654FEA00260EF000419D4208BF5E
:104A7000964244F1FD0404F5407402D25B084FEA0B
:104A80003202B61A65EB03055B084FEA32024FF4B7
:104A900080104FF4002CB6EB020E75EB030E22BF14
:104AA000B61A754640EA0C005B084FEA3202B6EBD4
:104AB000020E75EB030E22BFB61A754640EA5C0083
:104AC0005B084FEA3202B6EB020E75EB030E22BF13
:104AD000B61A754640EA9C005B084FEA3202B6EB14
:104AE000020E75EB030E22BFB61A754640EADC00D3
:104AF00055EA060E18D04FEA051545EA16754FEA35
:104B000006164FEAC30343EA52734FEAC2025FEA52
:104B10001C1CC0D111F4801F0BD141EA00014FF0E1
:104B200000004FF0004CB6E711F4801F04BF0143B2
:104B30000020B4F1FD0C88BFBCF5E06F3FF6AFAECE
:104B4000B5EB030C04BFB6EB020C5FEA500C50F15E
:104B5000000041EB045170BD0EF0004E4EEA1131E1
:104B600014EB5C04C2BFD4EB0C0541EA045170BDE8
:104B700041F480114FF0000E013C90E645EA060E2C
:104B80008DE60CEA135594EA0C0F08BF95EA0C0F5A
:104B90003FF43BAF94EA0C0F0AD150EA01347FF4A2
:104BA00034AF95EA0C0F7FF425AF104619462CE779
:104BB00095EA0C0F06D152EA03353FF4FDAE1046DC
:104BC000194622E750EA410618BF52EA43067FF42D
:104BD000C5AE50EA41047FF40DAF52EA43057FF4BD
:104BE000EBAE12E74FF0FF3C06E000BF4FF0010CC8
:104BF00002E000BF4FF0010C4DF804CD4FEA410C2C
:104C00007FEA6C5C4FEA430C18BF7FEA6C5C1BD0F8
:104C100001B050EA410C0CBF52EA430C91EA030F79
:104C200002BF90EA020F0020704710F1000F91EAD6
:104C3000030F58BF994208BF90422CBFD8176FEAA4
:104C4000E37040F0010070474FEA410C7FEA6C5C72
:104C500002D150EA013C07D14FEA430C7FEA6C5C79
:104C6000D6D152EA033CD3D05DF8040B704700BFA5
:104C70008446104662468C461946634600E000BFF3
:104C800001B5FFF7B7FF002848BF10F1000F01BDC5
:104C90004DF808EDFFF7F4FF0CBF012000205DF890
:104CA00008FB00BF4DF808EDFFF7EAFF34BF012015
:104CB00000205DF808FB00BF4DF808EDFFF7E0FFAE
:104CC00094BF012000205DF808FB00BF4DF808EDFF
:104CD000FFF7CEFF94BF012000205DF808FB00BF66
:104CE0004DF808EDFFF7C4FF34BF012000205DF848
:104CF00008FB00BF4FEA410212F5001215D211D590
:104D00006FF47873B3EB625212D94FEAC12343F0C8
:104D1000004343EA505311F0004F23FA02F018BF4A
:104D2000404270474FF00000704750EA013005D113
:104D300011F0004008BF6FF0004070474FF00000D6
:104D4000704700BF4A0011D212F5001211D20DD5E2
:104D50006FF47873B3EB62520ED44FEAC12343F081
:104D6000004343EA505323FA02F070474FF000002B
:104D7000704750EA013002D14FF0FF3070474FF0DA
:104D80000000704753B94AB9002908BF00281CBF6A
:104D90004FF0FF314FF0FF3000F082B9ADF1080C59
:104DA0006DE904CE00F006F8DDF804E0DDE9022349
:104DB00004B070472DE9F04F099D0C46002B4DD1F2
:104DC0008A420F4684469646B2FA82F360D94BB1C6
:104DD00002FA03FEC3F120029F4000FA03FC20FA0E
:104DE00002F217434FEA1E461FFA8EF44FEA1C42A6
:104DF000B7FBF6F106FB117701FB04F042EA07422C
:104E0000904208D91EEB020201F1FF3702D2904214
:104E100000F231813946121A1FFA8CFCB2FBF6F00F
:104E200006FB102200FB04F44CEA024C644508D94E
:104E30001EEB0C0C00F1FF3202D2644500F21E8121
:104E4000104640EA0140ACEB040C002125B12CFADD
:104E500003F30022C5E90032BDE8F08F8B4205D98B
:104E60000DB1C5E9000100210846F5E7B3FA83F169
:104E700000294DD1A342C0F0F380904280F0F08031
:104E8000064623460846002DE6D0C5E90063E3E761
:104E9000002B40F0A3808A1A4FEA1E471FFA8EF6B5
:104EA0000121B2FBF7F407FB14204FEA1C4242EA4F
:104EB000004206FB04F090420FD91EEB020204F1FF
:104EC000FF382CBF4FF001094FF00009904203D981
:104ED000B9F1000F00F0CC804446121A1FFA8CFC86
:104EE000B2FBF7F007FB102200FB06F64CEA024C7F
:104EF000664508D91EEB0C0C00F1FF3202D2664564
:104F000000F2B3801046ACEB060C40EA04409DE78B
:104F1000C1F120068B4004FA01FE22FA06F720FABE
:104F200006FCF4408A401F434EEA0C0300FA01FEDF
:104F30004FEA17484FEA13491FFA87FCB4FBF8F011
:104F400008FB104449EA044400FB0CF9A1450ED9C2
:104F50003C1900F1FF3A2CBF4FF0010B4FF0000B52
:104F6000A14503D9BBF1000F00F08B805046A4EBA4
:104F700009041FFA83F9B4FBF8F308FB134403FB9D
:104F80000CFC49EA0444A44506D93C1903F1FF3856
:104F900001D2A4457BD8434643EA0040A4EB0C046D
:104FA000A0FB02984445CC46434602D306D1CE45E9
:104FB00004D20138B9EB020C68EB0703002D6CD06A
:104FC000BEEB0C0264EB030422FA01F304FA06F6CA
:104FD000CC4000211E43C5E900643DE702FA03FE10
:104FE000C3F1200104FA03F200FA03FCCC404FEABB
:104FF0001E4720FA01F11FFA8EF6B4FBF7F00A43C0
:1050000007FB1044110C41EA044100FB06F48C42FA
:105010000ED91EEB010100F1FF382CBF4FF0010942
:105020004FF000098C4202D9B9F1000F2CD0404654
:10503000091B92B2B1FBF7F407FB141142EA0142DB
:1050400004FB06F1914207D91EEB020204F1FF387E
:1050500001D291421ED84446521A44EA004120E748
:10506000861A64EB030301200DE7F44402384AE793
:10507000023C724431E702397244CCE6F44402380F
:10508000DFE602383C4472E702387144D0E7023B65
:105090003C4481E7023C7244DEE72946DCE600BF7F
:1050A000704700BF08B5064B044613B10021AFF3AB
:1050B0000080044B1B6803B19847204600F007FAB4
:1050C0000000000080160020242B2DE9F0478646C2
:1050D000904601D8012B06D100F098F91623036001
:1050E0000020BDE8F0870D4635482A4615F8014BEB
:1050F000065D16F00806F8D12D2C24D12C78012657
:10510000951C2BBB302C30D00A2306F1004C00221A
:105110000CF1FF3C1046BCFBF3F903FB19CAA4F1E8
:105120003007092F28D83C46A34234DD571C07D04E
:1051300081452DD301D1A2452ADB00FB034001228A
:1051400015F8014BEBE72B2C04BF2C78951CD8E706
:10515000102BDAD1302CD8D12A7802F0DF02582A6D
:10516000D3D16C7810230235CFE72B7803F0DF031F
:10517000582BF6D00823C8E7A4F14107192F01D80E
:10518000373CD1E7A4F16107192F04D8573CCBE78E
:105190004FF0FF32D4E7531C08D122236046CEF8EB
:1051A0000030B8F1000F9CD0691E06E006B1404205
:1051B000B8F1000F95D0002AF6D1C8F8001090E79A
:1051C0008D6B000813460A46014602480068FFF747
:1051D0007BBF00BF201000202DE9F04386460D461E
:1051E000354E284615F8014B375D17F00807F8D102
:1051F0002D2C26D12C780127851C3BBB302C32D09E
:105200000A234FF0FF380026B8FBF3F803FB08F938
:1052100030466FEA0909A4F1300CBCF1090F29D816
:105220006446A34237DDB6F1FF3F07D080452FD358
:1052300001D1A1452CDB00FB0340012615F8014BF1
:10524000E9E72B2C04BF2C78851CD6E7102BD8D18E
:10525000302CD6D1287800F0DF005828D1D16C78D6
:1052600010230235CDE72B7803F0DF03582BF6D05F
:105270000823C6E7A4F1410CBCF1190F01D8373C53
:10528000CFE7A4F1610CBCF1190F04D8573CC8E773
:105290004FF0FF36D2E7731C06D122233046CEF8FA
:1052A000003032B9BDE8F08307B14042002AF9D09E
:1052B00006B1691E1160F5E78D6B000813460A46BA
:1052C000014602480068FFF787BF00BF201000209A
:1052D0002DE9F04F904685B089461E460D46454A59
:1052E00002902B4615F8014B175D17F00807F8D10F
:1052F0002D2C41D12C7801279D1C002E41D1302C22
:105300004CD00A2607F1004A07F1FF3BF31732465B
:105310000AF1FF3A584603935146FFF733FD0192D5
:1053200000228E46844611461046A4F13003092B14
:1053300005D9A4F14103192B37D8A4F137039E42B4
:105340003DDD541C15D084457EEB010234D38E45DF
:1053500008BF844502D1019A9A422DDB039A71431A
:1053600000FB0211A6FB00020A44181842EBE3718D
:10537000012215F8014BD8E72B2C04BF2C789D1C7B
:10538000BBE7102EBED1302CBCD12B7803F0DF034D
:10539000582BB7D16C7810260235B3E72B7803F081
:1053A000DF03582BF6D00826ACE7A4F16103192BD4
:1053B00005D8A4F15703C2E74FF0FF32D9E7531CD9
:1053C0000AD12223029A584651461360B8F1000FC1
:1053D0000AD105B0BDE8F08F17B1404261EB410141
:1053E000B8F1000FF5D00AB105F1FF39C8F8009007
:1053F000EFE700BF8D6B000813460A4601460248DE
:105400000068FFF765BF00BF20100020014B18683F
:10541000704700BF2010002070B50D4D00260D4CC8
:10542000641BA410A64209D10B4D00260B4C00F0C2
:1054300047FF641BA410A64205D170BD55F8043B7C
:1054400001369847EEE755F8043B01369847F2E7F6
:105450007810002078100020781000207C100020A8
:10546000FEE700230360704710B538B132B129B1AF
:1054700000230139D45C14B90023037010BD8B42A2
:10548000FAD200F8014B0133F4E7034638B10020AB
:10549000814204D01A5C02B970470130F8E77047C6
:1054A0004FF0FF31FFF7F1BF70B50C4616460546C9
:1054B00060B15AB151B1FFF7F3FF844206D9211A06
:1054C00032462844BDE87040FFF7CEBF70BDFEE70E
:1054D000FEE710B53AB1002350F8234041F82340CD
:1054E00001339A42F8D110BD002070474FF40040BC
:1054F00070474FF47A70704710B588B004460E9824
:10550000009207900D98224606909DF83000059075
:105510000B9804909DF8280003900020CDE90130FD
:105520000B460121FBF738FB08B010BD70B50546EE
:1055300014460E4600F031F82B685C4034405C4065
:105540002C60BDE8704000F02CB808B5FBF7BEFA3F
:10555000BDE808400021FCF7BBB80029CCBF012101
:105560000021FCF7B5B802214FF42070FCF720BDF4
:1055700010B5FBF799FA0446FBF75CFDC0F1020198
:105580002046FFF7EAFF01210020FCF773FFFCF73C
:10559000B5FDBDE81040FCF72FBAEFF3108072B6EE
:1055A000704700B962B67047EFF31180302383F380
:1055B0001188704780F3118870477047704708B5AD
:1055C0000020FCF76FFF012008BD70B505461446AA
:1055D0000E46FFF7E2FF2B685C4034405C402C60D5
:1055E000BDE87040FFF7DDBF83695B06FCD5C16392
:1055F000704770470020704700207047012310B5A6
:1056000080F888300378044653B100F050FA214600
:105610002046FDF7A7FA2046BDE8104000F03CBA4E
:1056200010BD38B50D460446FDF784FA6B68204678
:10563000C4F8B032A96800F085F94FF0FF33204676
:10564000C4F8B432FFF7D6FF38BD08B5FDF7ACFAA1
:1056500008BD0A7801382D2A0ABF012200228918C4
:10566000FDF7ECBA07281BD8DFE800F0060A0D109A
:10567000131504170120704700220820FDF7DEBA39
:1056800000221020FAE700222020F7E70820FFF789
:10569000E0BF1020FBE72020F9E70846FDF730BB0C
:1056A000002070472DE9F74307280C46DDE90A760C
:1056B00090461D4608D8013806280AD8DFE800F0D1
:1056C0001D27303A44574A00212850D003B0BDE886
:1056D000F083002220461146FFF7F0FD3368C0B288
:1056E00005EB83013A6845F82300013348F822109E
:1056F00033603B6801333B60E8E7002220461146F7
:10570000FFF7DCFD336880B205EB8301EAE7002296
:1057100020461146FFF7D2FD336805EB8301E1E730
:10572000002220461146FFF74DFD336840B205EBDD
:105730008301D7E7002220461146FFF743FD336877
:1057400000B205EB8301CDE7002220461146FFF7AA
:1057500039FDE1E7002389461E461D468DF80630D7
:1057600019F8013F7D2B06D125702D0A65703B6825
:1057700048F82340BDE7202BF2D006F001020136A5
:1057800012B98DF80430EBE71022002101A88DF842
:105790000530FFF717FD631901359870ADB2DFE7EB
:1057A0002DE9F04F9B46002385B08B458146884606
:1057B0009246CDE902336BDC1A461E4619F80340C7
:1057C000FF2C08D15B4496B1013B434516DD2B20ED
:1057D00005B0BDE8F08F172C04D8102C28BF01228B
:1057E0000133EBE7203C012C98BF0126F8E762B1BA
:1057F000013B4345EBDC3546374602E000252F46AA
:105800002E46454504DB0020E2E79845F3D0DEE76D
:105810005D453BDB19F80730202B18D109EB070356
:105820005B78FF2BD3D1CEB920465AF82510FFF76D
:1058300019FF78B303AB019302AB00932046DDE977
:105840000E235AF82510FFF72DFF0135D9E7212B3C
:105850000ED109EB07035B78FF2BB8D1029B5AF8F6
:1058600025200E99012641F8232001330293ECE70D
:10587000A3F11004072C02D91C460137D3E709EB2A
:1058800007035B78FF2BA2D1E4B2CCE70624CAE77A
:1058900021209DE726209BE72DE9F04F07460E4685
:1058A00015469846044685B0DDF84490DDE90FAB17
:1058B000206808B3DAF80020D8F800108A421BDA12
:1058C0000E9B53F82210FBF733F848BBDAF80020A0
:1058D0000132CAF800206268117BFE291BD10E9BA1
:1058E0001068012100932A464346CDE902B9CDF85C
:1058F00004A0FFF7D1FF04462B7843B999F8003094
:105900002BB97EB101233C4689F800302B7020462C
:1059100005B0BDE8F08F01238BF800302B70EBE76A
:105920000C34C5E73446F2E710B50446236803B9E2
:1059300010BD237A13B92046FDF718FA0C34F5E7A9
:105940007047704710B541B10A7932B901249C30D3
:105950000C71FAF7DDFF204610BD0020FCE72DE9B1
:10596000F041A2B005460AAA084603A900F05EF974
:105970000446B0B90DF10A0301930DF10B038DF844
:105980000A0000930AAA284604AB03A9FDF7B4FB5A
:105990009DF80A20B2B19DF80B2048B12AB1FDF75D
:1059A000E5F9204622B0BDE8F081FFF7BDFFF8E73A
:1059B000D5F89C50002DF4D0A86808B1FFF7B4FFCB
:1059C0002D68F7E700B3466812AB06F10C081AAF72
:1059D00001934046049B039900970AAAFFF7E0FE53
:1059E00004460028DDD1039B05A8CDE90637049BBA
:1059F0000595CDE90838FFF7A3FF05A83368984758
:105A000005A8FFF79EFFCCE72D24CAE710B5044692
:105A1000AC3000F04BFC04F1AB031A1800209342A9
:105A200000D110BD13F8011F0029FAD00A2908BFC0
:105A30000130F4E70023F0B50B6013600646D0F8A0
:105A4000AC0278B196F8AC0060B1012406F1AC0765
:105A5000D6F8AC02844210D306F1AC00B3F5007F57
:105A600010D30120F0BD0D6801350D6015680135BA
:105A70001560F85C01330A2802D0B3F5007FF2D339
:105A80000134E5E7C15C0A29EBD00029E9D01168AF
:105A9000013301311160E1E710B50021D0F88C200D
:105AA000044600F0D2FB0023C4E9243310BD73B5D3
:105AB000044600F1AC0580212046FFF7E6FC4FF4D8
:105AC000007106462846FFF7E0FC0136C0F500707D
:105AD000864220461FD800F0E9FB0646284600F023
