:020000040800F2
:10000000001000209109000835710008977E000853
:100010009F7E0008A77E0008AF7E0008B77E00081C
:100020003571000835710008357100083571000818
:10003000357100083571000847820008757E000898
:1000400035710008357100083571000835710008F8
:1000500035710008357100083571000835710008E8
:100060003571000849460008717E000835710008A6
:1000700035710008357100083571000835710008C8
:1000800035710008357100083571000835710008B8
:100090003571000835710008C10F0008357100087E
:1000A0003571000835710008357100083571000898
:1000B0003571000835710008357100083571000888
:1000C0003571000835710008357100083571000878
:1000D0003571000835710008357100083571000868
:1000E0003571000835710008357100083571000858
:1000F0003571000835710008357100083571000848
:100100003571000835710008357100083571000837
:100110003571000835710008357100083571000827
:100120003571000835710008357100083571000817
:100130003571000835710008357100083571000807
:1001400035710008357100083571000835710008F7
:1001500035710008357100083571000835710008E7
:1001600035710008357100083571000835710008D7
:100170003571000835710008357100080000000075
:100180002DE9F04F93B0CDE90A32DDE91C530E930F
:1001900053EC102BCDE90801104619468DED060BE6
:1001A0001E9E06F0A7FB80B1DDE906014FF0FF328D
:1001B000C54B06F0C7FB40B9DDE906014FF0FF3241
:1001C0006FF4801306F0A0FB70B1DDE908019DED2E
:1001D000060B0E9B1E96CDE91C53DDE90A3213B0C7
:1001E000BDE8F04F00F088B90022DDE906010023E8
:1001F00006F08AFB002800F03381DDE906A303F155
:10020000004BCBF30A5016F48063A0F2FF3008BF16
:1002100006250F9306F09CF89BA3D3E9002306F074
:1002200001F99BA3D3E9002305F046FFCBF31304A8
:10023000894644F07F5180460022A44B504641F449
:10024000401105F037FF94A3D3E9002306F0EAF844
:1002500002460B464046494605F02EFF06F07CFB61
:10026000044606F075F88EA3D3E90023804689463C
:1002700006F0D8F80022964B05F01EFF06F06CFB46
:1002800089A3D3E9002307464946404606F0CAF849
:1002900080463846894606F05BF885A3D3E90023FB
:1002A00006F0C0F802460B464046494605F002FFFC
:1002B00002460B46CDE90C2306F0B4F8DDE90C2329
:1002C000804689461046194605F0F6FE0022CDE923
:1002D0001001804B4046494606F0CEF900227E4B85
:1002E00005F0EAFE02460B464046494606F0C4F9D0
:1002F00000227A4B05F0E0FE02460B464046494696
:1003000006F0BAF9DDE90C238046894600204FF05B
:10031000804105F0CFFE02460B464046494605F0B7
:10032000CBFE02460B46DDE9100106F0A5F907F207
:10033000FF3700226A4B05F0BFFE00223B0506F0A6
:1003400071F852465B468046894606F0FBFA002863
:1003500040F08980CDE90C8904F16303C72B34BFD9
:100360000427052731051BD553A3D3E900235046A5
:10037000594606F0DDFA00287FD051A3D3E90023C7
:100380005046594606F0C0FA002876D00027A5420C
:10039000C6BF2C1B04F1FF3500253C4646F48066A1
:1003A0000E9B9F422CBF4FF00008A3EB070816F0EE
:1003B000020903D0002F18BF4FF000083CB1DDE95F
:1003C0000C235046594606F057F982468B46DDE924
:1003D00006010022002306F097FA10B10BF100434A
:1003E0009B46DDE9080126F40063CDE90183DDE9E0
:1003F0000A324BEC10AB009500F07EF802465FB37A
:10040000DDE9091316F0200F00F10105089E0CBF6D
:1004100065204520B047DDE908010523002205934A
:100420000A23002CCDE9023207F1FF374FEAD473DB
:10043000B8BF64422A46019304970A9B009407F0D0
:100440005BFC0246B9F1000F06D00B9BC41A0B9B54
:100450001A190E9BA34245D8104613B0BDE8F08F81
:10046000DDE906ABCDE60022404649461A4B06F0D0
:1004700003F9013CCDE90C016EE7002D90D00F9BF4
:10048000002B8DD0013D8BE7FB799F501344D33F68
:10049000B3C8608B288AC63F61436F63A787D23F8A
:1004A00071A379094F930A401655B5BBB16B024051
:1004B000EF39FAFE422EE63F2D431CEBE2361A3F9F
:1004C0000000000080842E41FFFFEF7F0000F83F16
:1004D0000000E03F00002C400000244000001840D5
:1004E0000000F03F2020DDE90913089DA8470134F2
:1004F000ADE700BF000000002DE9F04F5BEC10AB52
:1005000097B0CDE90501DDE92057CDE90723504635
:1005100052465B465946229E06F0ECF970B9032319
:10052000CDE902760193B04B0093DDE90501DDE9E9
:10053000072307F001FB17B0BDE8F08F4FF0FF3243
:100540006FF480135046594606F0DEF928B10423B3
:10055000CDE902760193A54BE6E74FF0FF32504616
:100560005946A34B06F0EEF968B1A24A06F004031F
:10057000002B08BF0322A04B1CBF13460422CDE969
:1005800002760192D0E7504693A3D3E9002359465F
:1005900006F0D8F938B992A3D3E90023504659465A
:1005A00006F0B2F968B1DDE90723DDE905014BEC9E
:1005B00010ABCDE92176209517B0BDE8F04FFFF7DD
:1005C000DFBD002200235046594606F09DF9002861
:1005D00000F09A805B4652460020002105F06AFD3B
:1005E000012382468B46099316F4806400F08E80C6
:1005F000092D40F28E80002430210EABA5F10902B6
:100600000134202C03F8011BA5EB040901D094420E
:10061000F6D15946504606F09FF9784B054603EB54
:10062000C90393ED007B8DED0A7B05F091FE024638
:100630000B465046594605F03DFDDDE90A2305F01D
:10064000F1FE02460B46CDE90C2306F0ADF98046DB
:1006500005F06EFE02460B46DDE90C0105F02AFDB1
:1006600002460B46CDE90C230022654B06F06AF9E1
:10067000002851D008F10108404605F059FE024615
:100680000B46DDE90A0106F049F910B14FF0000808
:100690000135B9F1000F50D1284605F059FE024648
:1006A0000B465046594605F005FD0022544B804646
:1006B000894606F029F930B1002240464946504BA0
:1006C00006F040F910B1E80700D501350A210EAB5C
:1006D0001A19202C0AD095FBF1F001FB105530358A
:1006E00002F8015B013405460028F2D106F003024E
:1006F000012A57D1002F55D0099A12B916F00C0FC4
:1007000000D0013F302245E009906DE74FF0060927
:100710007FE7A94600247CE70022DDE90C01384B85
:1007200006F0F2F80028B4D1B8F1000F02D018F0AA
:10073000010FAED008F10108ABE70A210EAB23444C
:10074000202C0ED0B8FBF1F001FB1082B8F1090F9C
:1007500002F1300209F1FF3904F1010403F8012B21
:1007600011D83021A1440EAA202CAFD0A14504F10C
:1007700001030AD11C4609F158030DEB03092E238E
:1007800009F8203CA2E78046DAE7A1541C46EBE7D3
:100790001A550134A74205D9202CF9D1CDE90276AA
:1007A0000194C1E6202CF9D0099A3AB12D2104F127
:1007B00058026A4402F8201C0134EFE7710704D59F
:1007C00004F158022B216A44F4E73207E6D504F11C
:1007D000580220216A44EDE70000000065CDCD41BC
:1007E0000000000065CDCDC1008C0008048C00081D
:1007F000FFFFEF7FF78B0008FC8B0008108C0008D0
:100800000000E03F0348044B834202D0034B03B196
:100810001847704788110020881100200000000050
:10082000064B0749C91A891048BF0131491003D046
:10083000044B0BB101481847704700BF88110020D6
:10084000881100200000000010B5064C237843B941
:10085000FFF7D8FF044B13B10448AFF30080012326
:10086000237010BDD457012000000000A89B000891
:1008700008B5054B1BB105490548AFF30080BDE83D
:100880000840FFF7CDBF00BF0000000088510120E5
:10089000A89B0008A3F5803A704700BF174B002BB8
:1008A00008BF134B9D46FFF7F5FF00218B460F460F
:1008B0001348144A121A07F022FD0E4B002B00D0E9
:1008C00098470D4B002B00D09847002000210400D2
:1008D0000D000D48002802D00C48AFF3008006F050
:1008E000CDFB2000290003F0B5FE06F00DFA00BF95
:1008F00000000800000000000000000000100020C0
:1009000088110020005801200000000000000000B5
:1009100038B504460D4601B118B93721034806F031
:10092000D1FB23682B60256038BD00BF0084000820
:1009300070B5D0B1C9B10E4E431E013913F8014F45
:100940002046325D02F00302012A11F8012F08BF90
:1009500004F12000B55C05F00305012D08BF20322D
:10096000801A01D1002CE9D170BD0120FCE700BF45
:10097000A69A00080348044A0449121A921006F085
:10098000DABB00BF449D0008449D000800580120C8
:1009900008B500F02FF8FFF7EDFF124B12498B421C
:1009A00012D30020114B12498B4218D3FFF776FF68
:1009B000186850F82240586840F822400132986880
:1009C0008242F5D30C33EAE70022F8E71C6844F8CA
:1009D000220001325C68A242F8D30833E4E7002227
:1009E000F8E700BFB09B0008BC9B0008BC9B000858
:1009F000BC9B00084FF480414FF0FF30114B124A6E
:100A000010B59A60D3F8882042F47002C3F88820A9
:100A10000E4A91660E4901F5005210660D48506667
:100A20000220C3F8D000BFF34F8FBFF36F8F0124B4
:100A30004FF440330848C0F88041D36004600B6134
:100A400010BD00BF00ED00E0000000080090005065
:100A5000008000447FFF7F0300E100E0014B186845
:100A6000704700BF04100020014B1860704700BFA2
:100A700004100020084B1B6F03F00703022B04D067
:100A8000032B05D0012B05D0FEE7044B18687047F7
:100A9000034BFBE703487047008000500410002020
:100AA0000C100020002D310108B5FFF7E3FF054BC6
:100AB0001B6FC3F303330133B0FBF3F0024B186039
:100AC00008BD00BF008000500010002000487047A3
:100AD00000B4C404014B1868704700BF0C1000201C
:100AE000054B1860054B1B6F03F00703032B01D167
:100AF000FFF7DABF704700BF0C10002000800050E5
:100B000000487047002D31014FF0B4439868C0F39E
:100B100004400C280AD8DFE800F00B09090909098C
:100B2000072119091B1D1F000F487047002070473F
:100B30009B6803F04073B3F1807F11D0B3F1007F65
:100B400010D00A4A002B08BF10467047084870476B
:100B50000848704708487047084870470848704779
:100B60000848704708487047405DC60000093D00CE
:100B7000C0EA210180BA8C010048E801005A6202F3
:100B80000024F40080841E0040420F00014B1868CE
:100B9000704700BF081000202DE9F04F9A46564BD1
:100BA00085B01B7806460F461546DDF83C909DF84B
:100BB00044B0DDF85080002B00F09780072A00F247
:100BC00096800E9B002B00F09280B9F1000F00F090
:100BD0008E80129BB3F5006F00F38980012803D14A
:100BE000109B002B00F08380444B03EB05131B7B11
:100BF000002B7ED0424C10220021684607F07FFB7C
:100C000004EB45141022A7BB3946204607F077FBBA
:100C100043F210036380BBF1000F03D1E37843F08C
:100C20000303E370364A0E9B02EB451CCCE90193AB
:100C3000129B6901581E9DF84C30C0F30A0003F066
:100C400003039B0643EA001E53582E48012E00EA78
:100C500003004EEA0003CDF800A0535017D0B8F1BE
:100C6000000F2ED19CF8023068F304138CF8023088
:100C700027E00021204607F042FB4FF444736380D5
:100C8000BBF1000FCED1E37843F03003C9E7132363
:100C90000CF1100ECCF80C309CE80F008EE80F0021
:100CA0006FF00301DCF81C20109B61F39F02012F01
:100CB000CCF81C20CCF8143003D1CCF81890CCF828
:100CC000043000270D4A290102EB051342F8018088
:100CD000159A28465A60694622469F605E7301F065
:100CE00045FD384605B0BDE8F08F0748FAE70748EC
:100CF000F8E70748F6E700BFD5570120A0520120CA
:100D0000A05101200F80FFF3028000F0018000F06D
:100D1000078000F038B5124B05461B78DBB1E0B117
:100D200006F074FA0F4A00231146147B54B92B6065
:100D300001251A0101EB03131D738C5006F06CFAA8
:100D4000204638BD0133082B02F11002EDD106F028
:100D500063FA0548F5E70548F3E70548F1E700BF02
:100D6000D5570120A0520120048000F0028000F03D
:100D7000018000F038B506F049FA002305460B4A19
:100D8000147B6CB90133082B02F11002F8D101F089
:100D900065FC074B28461C7006F03EFA204603E02F
:100DA000284606F039FA034838BD00BFA05201209A
:100DB000D5570120058000F00D4B10B51B78044677
:100DC00093B1072812D806F021FA0A4B03EB04135B
:100DD0001A7B2AB100241C7306F01EFA204610BDAF
:100DE00006F01AFA0448FAE70448F8E70448F6E778
:100DF000D5570120A0520120068000F0028000F0AB
:100E0000018000F0154B13B51868002301908DF890
:100E1000043006F0FBF9124B1C7824B106F0FCF903
:100E2000104802B010BD01221A7006F0F5F90E4B01
:100E300001A81C731C7783F82C4083F83C4083F88E
:100E40004C4083F85C4083F86C4083F87C40082376
:100E50008DF8073001F040FC2046E2E76984000885
:100E6000D5570120038000F0A05201200A4A08B59E
:100E700012785AB107280BD8084A02EB00131B7BE3
:100E800043B1002101F008FC002008BD0448FCE744
:100E90000448FAE70448F8E7D5570120A05201209A
:100EA000028000F0018000F0078000F00A4A08B5D7
:100EB00012785AB107280BD8084A02EB00131B7BA3
:100EC00043B1012101F0E8FB002008BD0448FCE724
:100ED0000448FAE70448F8E7D5570120A05201205A
:100EE000028000F0018000F0078000F00A4A08B597
:100EF000127852B107280AD8084A02EB00131B7B6C
:100F00003BB101F0B5FC002008BD0548FCE70548F1
:100F1000FAE70548F8E700BFD5570120A0520120A5
:100F2000028000F0018000F0078000F00D4B1B787C
:100F300093B1072812D889B10B4B03EB00131B7B2D
:100F400073B10A4B1A6D01238340134214BF01236E
:100F5000002300200B707047054870470548704714
:100F600005487047D5570120A052012000000450C9
:100F7000028000F0018000F0078000F00B4A10B5FD
:100F800012780C4662B107280CD859B1084A02EB16
:100F900000131B7B43B101F087FC2070002010BDC3
:100FA0000448FCE70448FAE70448F8E7D55701206D
:100FB000A0520120028000F0018000F0078000F0C4
:100FC000184B2DE9F0411F6D5B6D1F4000D5FEE70A
:100FD00001260025144CDFF85880374218D02368CA
:100FE000C8F85060A3B1A168284601316268A160C9
:100FF0009847637B012B0BD150B90C4B03EB451386
:101000001A7B60F341021A731A7F60F341021A7768
:101010000135082D4FEA460604F11004DDD1BDE884
:10102000F08100BF00000450A0520120A051012017
:1010300000200450044BD3F88420D206FBD4D3F80C
:101040008400C0F3811070470040005008B5334B56
:1010500098424FD027D8324B984245D017D8314BC1
:1010600098423ED00AD838B12F4B984239D041F23D
:1010700086312E4806F026F8002034E02C4B9842AA
:101080002FD02C4B9842F2D12B4B586E2BE02B4B90
:1010900098422CD003F5371303F5D8639842E6D174
:1010A000254B986F1FE0264B98422FD00CD8254B2C
:1010B000984223D0244B984224D0244B9842D6D136
:1010C0001D4BD3F884000EE0214B984222D003F54B
:1010D000740303F510539842C9D1174BD3F8980005
:1010E00001E0154B986D08BD134B186FFBE7124BD1
:1010F000586FF8E7104BD3F88000F4E70E4BD3F8A5
:101100008800F0E70C4BD3F88C00ECE70A4BD3F8DF
:101110009000E8E7084BD3F89400E4E780BA8C012C
:10112000405DC60080841E0040420F006D840008B0
:1011300000093D00C0CF6A000080E00F0024F400E9
:10114000007E560380D54302006CDC020048E801B3
:101150000090D00338B5124B0546D3F880300C46CA
:1011600003F00303022B0BD0032B0DD0012B0FD167
:10117000FFF780FC0D2305B1286004B1236038BD62
:10118000FFF7C2FC0723F6E7FFF768FC0623F2E748
:10119000044841F2DF1105F095FF00231846EAE705
:1011A000008000506D84000838B51A4B0546D3F80E
:1011B00020010C4600F00700062821D8DFE800F0E7
:1011C00028040C1410181C00FFF748FC052305B177
:1011D000286004B1236038BDFFF77CFC0323F6E7E9
:1011E000FFF792FC0723F2E7FFF78AFC0223EEE702
:1011F000FFF734FC0623EAE7FFF76CFC0423E6E77D
:10120000054841F25C2105F05DFF00231846DEE74A
:101210000123DCE7008000506D84000838B5194BCD
:101220000546D3F828310C4603F00703013B052B94
:1012300020D8DFE803F003131B0F0B17FFF70EFC9A
:10124000052305B1286004B1236038BDFFF706FC13
:101250000623F6E7FFF758FC0723F2E7FFF73AFC0F
:101260000323EEE7FFF736FC0423EAE7FFF748FC29
:101270000223E6E7044841F2640105F023FF00235E
:101280001846DEE7008000506D840008F7B500279F
:10129000144B0197D3F88041064604F00304022C56
:1012A0000D4614D0032C0DD0012C14D1394601A8C1
:1012B000FFF77AFF0F240EB1019B336005B12C605C
:1012C00003B0F0BDFFF720FC07240190F3E7FFF720
:1012D00017FC0190EFE741F2B131034805F0F2FE4F
:1012E0003C46E8E7008000506D84000838B50F4B9D
:1012F0000546D3F890320C4603F00303012B09D0C6
:10130000022B0BD1FFF700FC072305B1286004B1C5
:10131000236038BDFFF7F4FB0223F6E7044841F2EF
:10132000501105F0CFFE00231846EEE70080005074
:101330006D840008002337B50193194B0546D3F897
:1013400020320C4603F00703042B1FD8DFE803F01C
:1013500025030F141900002101A8FFF75FFF1123D7
:101360000DB1019A2A6004B1236003B030BDFFF7CC
:10137000CBFB07230190F3E705F0EAFE0A23019077
:10138000EEE7FFF703FC09230190E9E741F22301AF
:10139000044805F097FE0023E2E70123E0E700BFE1
:1013A000008000506D84000838B5104B0546D3F816
:1013B00040310C4603F00303022B0BD0032B0DD05E
:1013C000012B0FD105F0C4FE0A2305B1286004B13A
:1013D000236038BDFFF7DAFB0923F6E705F0BBFE13
:1013E0000B23F2E701230020EFE700BF008000504D
:1013F000002337B50193184B0546D3F860320C46ED
:1014000003F00703013B032B1FD8DFE803F0020EB4
:101410001914002101A8FFF7C7FE0F230DB1019A8F
:101420002A6004B1236003B030BD002101A8FFF79A
:10143000BBFF1023F2E7FFF767FB07230190EDE7FF
:10144000FFF75EFB02230190E8E741F2C801034881
:1014500005F038FE0023E1E7008000506D840008AD
:1014600073B500240F4B0194D3F87032064603F095
:101470000303012B0D4607D0022B11D041F2261198
:10148000094805F01FFE04E0214601A8FFF78CFF84
:1014900010240EB1019B336005B12C6002B070BD09
:1014A0001424F6E7008000506D84000838B5164B10
:1014B0000546D3F800020C4600F00700042819D8AE
:1014C000DFE800F020030B0F130005F041FE0A23B4
:1014D00005B1286004B1236038BDFFF757FB09232D
:1014E000F6E705F038FE0B23F2E7FFF7DDFA0E23EF
:1014F000800AEDE7054841F26F4105F0E3FD002366
:101500001846E5E70123E3E7008000506D840008FA
:1015100038B5164B0546D3F808020C4600F0070014
:10152000042819D8DFE800F020030B0F130005F0A2
:101530000FFE0A2305B1286004B1236038BDFFF710
:1015400025FB0923F6E705F006FE0B23F2E7FFF77C
:10155000ABFA0E23800AEDE7054841F2A74105F0FA
:10156000B1FD00231846E5E70123E3E700800050C2
:101570006D84000838B5104B0546D3F840320C4650
:1015800003F00303022B0BD0032B0DD0012B0FD143
:1015900005F0DEFD0A2305B1286004B1236038BDE3
:1015A000FFF7F4FA0923F6E705F0D5FD0B23F2E780
:1015B00001230020EFE700BF0080005038B5124B38
:1015C0000546D3F850320C4603F00303022B0FD02C
:1015D000032B05D0012B0FD105F0BAFD0A2302E041
:1015E00005F0B9FD0B2305B1286004B1236038BDB7
:1015F000FFF7CCFA0923F6E7044841F2940105F01D
:1016000061FD00231846EEE7008000506D8400085D
:1016100038B5104B0546D3F860310C4603F0030390
:10162000022B0BD0032B0DD0012B0FD105F090FD19
:101630000A2305B1286004B1236038BDFFF7A6FA7C
:101640000923F6E705F087FD0B23F2E701230020CD
:10165000EFE700BF00800050B0F5207F10B52ED01E
:1016600009D8B0F5007F24D003D868B1B0F5C07FA9
:101670000AD000241BE0B0F5607FFAD1124BD3F8FA
:101680008040C4F3011412E00F4B1C6F230B13F0C6
:101690000E0FC4F303340AD0072C08D00F2C06D049
:1016A000032C04D040F28521084805F00BFD601C96
:1016B00010BD054BD3F89040C4F30464F7E7024B28
:1016C0001C6FC4F38024F2E7008000506D84000892
:1016D0004FF4803238B5104B04469A6600200D4610
:1016E000FFF7BAFF41F671320C4B6043DC69DA63F5
:1016F0005A6804F4803422F440125DB908498842E3
:1017000094BF00200120000502435A600CB1002262
:10171000DA6338BD0349F2E700900050000003503F
:10172000005A6202002D310138B5430904460D46C6
:101730000ED140F22F310D4805F0C4FC002304F017
:101740001F0485B103F580530122A2401A6038BD01
:10175000012B04D0022B04D040F23D31EBE7044BC7
:10176000EDE7044BEBE703F50053EDE76D8400086C
:101770006480005068800050002130B5B0F5807F53
:1017800085B00446CDE9001100F006816BD8002831
:1017900000F0DB80A0F12004602C75D8602C73D899
:1017A000DFE814F0D300E000D300E000F000F00028
:1017B000F000F000F000E000F5007E000B019E005C
:1017C0007E00E000E000E000720072007200720033
:1017D0007200720072000B01E000E000E0002301E3
:1017E0001001E0007200720072007200720072005C
:1017F0007200720072007200720072001501F00037
:10180000D300D300D300B1007E007E00B9001A01DE
:101810009300C800C800720072007200720072006B
:101820007200720072007200720072007200720028
:101830007200720072007200720072007200720018
:101840007200720072007200720072007200720008
:1018500072007200720072007200720072007200F8
:1018600072007200CD00B0F5E06F00F0AB803CD8A4
:10187000B0F5607F00F081801DD8B0F5007F67D0A3
:1018800008D8B0F5C07F60D040F29441594805F0C7
:1018900019FC57E0B0F5207F64D0B0F5407FF3D15C
:1018A000FFF702F904464FF42070FFF7D5FEB4FBB2
:1018B000F0F464085FE0B0F5B06F68D00AD8B0F516
:1018C000806F5FD0B0F5A06FDED100216846FFF7D2
:1018D00031FD37E0B0F5C06F6FD0B0F5D06FD3D128
:1018E00000216846FFF7E2FD2CE0B0F5286F73D0C9
:1018F00016D8B0F5186F6AD00AD8B0F5F06F74D06A
:10190000B0F5106FC0D100216846FFF701FE19E065
:10191000B0F5206FB8D100216846FFF769FD11E0EE
:10192000B0F5306F5DD0AFD3B0F5386F45D0B0F5BE
:10193000406FA9D100216846FFF770FC02E0FFF775
:1019400099F80090009805B030BDFFF7ADF8F8E7C2
:10195000FFF790F805462046FFF77EFEB5FBF0F551
:101960000095EFE7FFF7A0F804464FF42070FFF76B
:1019700073FEB4FBF0F40094E4E701A8FFF7EAFB80
:10198000019DE8E700216846FFF70EFCDAE7002139
:101990006846FFF77BFCD5E74FF0E02302911B6917
:1019A0005B0705D5FFF780F80290029B0093C9E71B
:1019B00003A902A8FFF7F8FCF7E700216846FFF744
:1019C000F3FCBFE700216846FFF7D4FDBAE700212A
:1019D0006846FFF7F3FDB5E700216846FFF740FDD5
:1019E000B0E76846FFF782FCACE700216846FFF7E6
:1019F0000FFEA7E76D84000808B58020FFF7BCFE46
:101A0000034B98429EBF4FF48032024B1A6708BDC9
:101A1000005A620200A000501FB503460020B3F533
:101A2000607F019000F00E817BD8582B68D8382B4E
:101A300005D8243B092B49D940F27951CEE0393BF6
:101A40001F2BF9D801A252F823F000BFFF1B00089A
:101A5000391A0008391A0008391A0008091C000848
:101A6000571C0008391A0008391A0008391A0008EA
:101A7000391A0008391A0008391A0008391A0008FA
:101A8000391A0008391A0008391A0008391A0008EA
:101A9000391A0008391A0008611C0008491B00089F
:101AA000391A0008391A0008391A00088D1B000875
:101AB000391A0008391A00086B1C0008751C000848
:101AC0004D1C0008AF1B0008AF1B0008092BB3D842
:101AD00001A252F823F000BF491B0008491B00086F
:101AE000491B0008491B0008491B0008391A000857
:101AF000E51B0008391A0008FF1B0008671B0008D7
:101B0000802B59D0B3F5807F96D14FF0E02302901F
:101B10001B695B076ED5FEF7C7FF0C230393039B7E
:101B200056E0B3F5086F74D022D8B3F5C06F66D015
:101B30000FD8B3F5A06F00F08980B3F5B06F51D026
:101B4000B3F5806F7FF478AF002001A9FFF72CFB7D
:101B50004CE0B3F5E06F7ED0B3F5F06F54D0B3F541
:101B6000D06F7FF469AF002001A9FFF79FFC3DE033
:101B7000B3F5286F7ED00ED8B3F5186F70D0B3F5DB
:101B8000206F72D0B3F5106F7FF456AF002001A91B
:101B9000FFF7BEFC2AE0B3F5306F70D0FFF44CAF16
:101BA000B3F5386F2BD0B3F5406F7FF445AF00200D
:101BB00001A9FFF733FB19E0334B1B6F03F0070359
:101BC000013B032B08D8DFE803F005023139052378
:101BD00001930BE00223FBE740F2C6412B4805F0DE
:101BE00071FA03E0002001A9FFF750FB019805B04E
:101BF0005DF804FB03A902A8FFF7D6FB8FE70020DE
:101C000001A9FFF7D1FBF1E7002001A9FFF700FDD3
:101C1000ECE71D4BD3F8003103F00303022B07D090
:101C2000032B09D0012B0BD1FEF754FF0323CFE781
:101C3000FEF7ACFF0923CBE705F088FA0823C7E7D6
:101C40000123C5E701A9FFF785FACFE7002001A925
:101C5000FFF770FBCAE7002001A9FFF78BFCC5E77F
:101C6000002001A9FFF7AAFCC0E7002001A9FFF7A7
:101C7000BFFBBBE7002001A9FFF7F2FBB6E701A914
:101C8000FFF734FBB2E700BF008000506D8400080E
:101C9000F8B5036804460F2B04D940F66D3180482F
:101CA00005F010FA63680F2B04D94FF437617C48B4
:101CB00005F008FAA3680F2B04D940F67331784871
:101CC00005F000FA237B0F2B04D940F676317448D7
:101CD00005F0F8F9637B0F2B04D940F67931704891
:101CE00005F0F0F9A37B3F2B04D940F67C316C481A
:101CF00005F0E8F9E37B3F2B04D940F67F316848D3
:101D000005F0E0F92369032B04D940F682316448D9
:101D100005F0D8F96369032B04D940F68531604892
:101D200005F0D0F9E369032B04D940F688315C480B
:101D300005F0C8F98020FFF76FFE032800F08A80C5
:101D40004FF48012574B584D5A6645F60E034FF02C
:101D5000A062C5F88030554B9A624FF4803203F58B
:101D600080539A62AB6DDA03FCD4AE6D16F08046F8
:101D7000FBD1D4E900231B0543EA0263E27B4C4814
:101D80001343227B4B4F43EA0243627B43EA023315
:101D9000A27B43EA82132B61AA69D4E904131B06D0
:101DA00043EA816302F000421343A27E4FF4406194
:101DB0001343227E43EA0243627E43EA0223AB617D
:101DC0004FF4006205F0E4F92B6AE17EE26923F04A
:101DD0000F0343EA8103002A3DD12B6294F824309B
:101DE00094F82010AA6ADB0043EA41133A401343F7
:101DF00094F82120304943EA021343F480332A4AFD
:101E0000AB62936D31EA0303FBD14FF08071274839
:101E100081621369A56823F4700343EA05531361D3
:101E20004FF00043836194F822300BB9234B996241
:101E300094F823303BB94FF48032204B9A621A4A0F
:101E4000936D5B00FCD494F825301BB1164B1C4AF3
:101E5000C3F88020F8BD134343F00803022A2B6225
:101E600008D12E614FF408524FF47F411548AE61FE
:101E700005F08EF90C4994F822308A6A94F8200013
:101E80001B063A4043EA4013134394F8242043EAE4
:101E9000C20394F8232043EA02438B62D3E700BFD6
:101EA0006D840008009000500040005A0050005A15
:101EB0003840005AC7FFFEFE030001000060005AD0
:101EC000F1A7FFFF3440005A014B93F9000070471F
:101ED0007C110020436810B5072B044604D940F656
:101EE000B3512A4805F0EEF8A368032B04D940F655
:101EF000B551264805F0E6F82378032B04D940F6BF
:101F0000B751224805F0DEF894F90130002B04DACD
:101F100040F6B9511D4805F0D5F84FF400011C4AB0
:101F2000637851664FF4D151022002F5B832516204
:101F300018494F2B48604FF0010028BF4F2301F58F
:101F4000805148601169C903FCD4217843EA012318
:101F50005361D4E901131B0143EA0123617B0B4365
:101F6000217B43EA41039360E37BA17B1B0143EAAE
:101F70004113617C0B43217C43EA41035360A37C02
:101F800013B16FF4D153536210BD00BF6D840008CC
:101F90000090005000100250014B1880704700BFA5
:101FA0007A110020014B1880704700BF7811002083
:101FB000B0F5207F38B577D00ED8B0F5007F61D06E
:101FC00003D890B3B0F5C07F2FD040F21231BDE8F6
:101FD00038403D4805F076B8B0F5607FF5D13B4A12
:101FE0004C1ED2F8FC5015F080751EBFD2F8FC30A4
:101FF00023F08073C2F8FC30032C04D940F2F221A4
:10200000314805F05FF8324AD2F8803023F03003CF
:1020100043EA0413C2F8803035B12C4AD2F8FC30C0
:1020200043F08073C2F8FC3038BD4C1E012C0AD935
:10203000102903D8274BCB40DB0704D440F2C7213B
:10204000214805F03FF805F0B2F805F0BEF84FF46E
:102050008031214B1E4A1967136F23F4704343EA02
:1020600004331367FEF720FD0446FEF7E3FFC0F1DB
:102070000201204605F0A3F800F040F8BDE8384022
:10208000FFF7BABC4C1E1F2C04D940F206310E4893
:1020900005F018F80E4AD2F8903023F0F85343EACE
:1020A0000463C2F89030BFE74C1E012C04D94FF4F2
:1020B0004371054805F006F8054A136F23F4806361
:1020C00043EA84231367AFE76D84000800ED00E066
:1020D00000800050100101000090005008B501215F
:1020E000022000F073F905F062F805F06EF84FF485
:1020F0008032014B1A6708BD0090005008B54FF4BC
:10210000C070FFF739FBBDE808400449884294BF1E
:10211000012102214FF42070FFF74ABF80F0FA023C
:102120004FF4C02201212DE9F0470446944B5A6632
:10213000944A03F598335F6851605D6815F00205B5
:10214000FBD12268904B9A4204D84FF426618F4805
:1021500004F0B8FF22688E4B9A4204D940F6612100
:102160008A4804F0AFFFA388B3F5967F04D840F601
:102170006421864804F0A6FFA388B3F5805F04D3EA
:1021800040F66521814804F09DFFE388B3F5805F48
:1021900004D340F666217D4804F094FFFEF74AFF21
:1021A000012820680AD17B4B984207D940F66B2161
:1021B000764804F087FF0020BDE8F087764A0023C8
:1021C00011461668B04202D35668B04205D90133B1
:1021D000192B02F11002F4D1002301EB0313D3E910
:1021E000029028B1FEF732FF00F07F0049EA0009B3
:1021F0008020FFF711FC052840F0988004F0D7FFFD
:1022000004F0E3FF4FF480325D4B4FF4C0701A6767
:10221000FFF722FA0128054640F0848002214FF49E
:10222000C070FFF7C5FE0126DFF87881D8F80C30C2
:1022300013F0060FFAD1D8F808A0C8F80890D8F81B
:10224000083083EA090313F4F81F71D1A288E388E8
:1022500043EA0243514AD360A368032B7BD1504A1F
:10226000D2F8003123F0030343F00103C2F8003138
:10227000637D227D9B0143EA820322694FF00008BF
:102280001343227B43EA4203444A93602068FEF7EB
:10229000EBFB07223B4B1A610122A3F580535A60E6
:1022A000A3F580531F6917F00707FBD08020FFF7C5
:1022B000B3FB05282ED126B129464FF4C070FFF795
:1022C00077FEFEF7F1FB23680546834204D240F611
:1022D000E6212E4804F0F6FEFEF7C0FBA84204D229
:1022E00040F6E721294804F0EDFE2468FEF7B6FB2E
:1022F000844204D040F6E821244804F0E3FEFEF7CF
:1023000099FEC0F10201284604F059FFFFF7F6FEDE
:10231000FFF772FBB8F1000F7FF44DAF7B1E584200
:10232000584149E7022801D1042178E700267BE7DC
:1023300040F6B221154804F0C5FE17F00107C8F8B1
:1023400008A01AD18020FFF767FB05287FF433AF80
:102350004FF00108AFE7092B07D1114AD2F800313D
:1023600023F0030343F0020380E7082B80D10C4ADB
:10237000D2F8003143F0030378E74FF0010888E713
:102380000090005000E001509FBB0D006D840008DC
:1023900000B4C404005A6202D484000800C0015092
:1023A0000080005000000150024A536B0342FCD1F0
:1023B000704700BF00400950034A0179D36E23F0F3
:1023C00030030B43D366704700400050F8B5044615
:1023D000244BD3F88420D006FBD4D3F88430C3F345
:1023E00081139C423CD0FEF745FB012C05460BD1E6
:1023F0001D4B984204D940F292711C4804F062FED1
:102400000121284604F0DBFE04F0F9FE4FF00072D3
:10241000174B07465A66204604F001FF4FF48063CD
:10242000104E621E93403367736E9A0103D4D6F840
:1024300084309B060AD5384604F0E5FE022C0FD105
:102440002846BDE8F840002104F0B9BED6F8843033
:102450009906E9D54FF4F461044804F033FEE3E74C
:10246000F8BD00BF00400050005A620264860008B8
:102470000060005010B50C4608B9FEF7FBFA074B98
:1024800021461B783BB1064B984204D80120BDE899
:102490001040FFF79BBF0220F9E700BFD65701208D
:1024A000005A62024FF0004238B5244B244C5A6661
:1024B0004AF6CD33656C014605F00105236428BB5F
:1024C0000120FFF771FF6368DB0715D51D4B5860CE
:1024D00008461D4B226BD2070CD4984208D1072422
:1024E00015B1174B194A1A6404F09AFE204638BDFC
:1024F0000130EFE79842F2D00024F1E70132236B7C
:1025000013F0080305D08A42F8D1E8E700220E490B
:10251000F5E78A42E3D020210A4A91620121A2F51F
:10252000805251600649084A886A800603D4934263
:10253000D5D00133F8E79342DDE700BF00900050AB
:10254000004009500060095040420F003254FFFF24
:10255000032838B504460D4605D8094B33F810302A
:10256000CB40DB0704D440F22D41064804F0AAFD1D
:10257000302301225C43044BAA401A5138BD00BFEE
:1025800098870008CA86000840D00350032838B551
:1025900004460D4605D8094B33F81030CB40DB0715
:1025A00004D440F2FE31064804F08CFD30230122B1
:1025B0005C43044BAA401A5138BD00BF98870008FD
:1025C000CA86000840E0035003282DE9F041044684
:1025D0000D461746984605D81D4B33F81030CB40B2
:1025E000DB0704D44FF4B0711A4804F06BFD37B127
:1025F00029462046B8F1000F20D0FFF7A9FF0F2190
:10260000072D04EB440688BFA5F108034FEA061620
:10261000114895BFAB009B0004360C3607FA03F255
:102620009940304404F003FE7FB929462046B8F1B2
:10263000000F06D0BDE8F041FFF78ABFFFF7A6FF05
:10264000DDE7BDE8F041FFF7A1BFBDE8F08100BFC5
:10265000988700083187000830C003504FF480028B
:102660000B4B10B5C3F88020BFF34F8FBFF36F8FB4
:102670000024FF22074B21465C6520209A625C60A3
:10268000FFF752F82146BDE810402120FFF74CB873
:1026900000E100E000000450072838B504460D466C
:1026A00003DD7721084804F00DFD1F2C03D991218B
:1026B000064804F007FD064A064B002D08BF1346E6
:1026C0000122A2401A6038BDA087000807880008D0
:1026D000401004504020045010B5044618B9912110
:1026E0001F4804F0EFFC23781B0613F0604F03D063
:1026F00092211B4804F0E6FCE3780F2B03D9A321B9
:10270000174804F0DFFC01212020FFF70DF801211C
:102710002120FFF709F80122124B5A602278120695
:102720009A606178A27842EA01429A61FF229A6235
:1027300000229A631A644FF000425A654FF0FF324C
:102740004FF4800103F500531A65074AC2F880115F
:10275000E3781B01DBB282F81633116010BD00BFB5
:10276000A08700080000045000E100E02DE9F041DE
:102770000126C3B2072805460C46904606FA03F622
:1027800003DDEC21364804F09DFC1CB9ED213448F2
:1027900004F098FC236823F47C1323F00F031BB18F
:1027A000F0212F4804F08EFCA37A1B0413F47C0F55
:1027B00004D040F209112A4804F084FCE37A1B0596
:1027C00013F07E6F04D040F20B11254804F07AFC20
:1027D000237B5B0513F0FE5F04D040F20D1120480F
:1027E00004F070FC1F4B204F1E65AB00226803F104
:1027F000A04303F588235A60302202FB0575637BF2
:102800002B66E37AA27A1B0543EA0243227B43EA62
:102810004253EB6528F003032B6704F0F7FC7B6D54
:1028200033437B65237A13B13B6C33433B64637A58
:1028300013B1BB6B3343BB632279A37943EA0243F1
:10284000084A93616179E37943EA014307498B615F
:10285000054B56639E64BDE8F04104F0DDBC00BF4B
:10286000A08700080020045000000450001004500D
:1028700010B50124C3B2072804FA03F404DD40F2C2
:102880009711074804F01EFC04F0C0FC054B5A6D7C
:1028900022EA04025A659C62BDE8104004F0BCBC08
:1028A000A08700080000045010B50124C3B2072817
:1028B00004FA03F404DD40F2B5110A4804F002FC06
:1028C00004F0A4FC084BDA6A224208D15B6B9C43FB
:1028D0000CBF0124002404F09FFC204610BD0024FE
:1028E000F9E700BFA0870008000004500B4B984296
:1028F00011D003F5804398420DD003F580439842F0
:1029000009D003F58043984205D003F58043C31AEC
:102910005842584170470120704700BF0080045062
:1029200030B4184CA04214D004F58044A0421BD00F
:1029300004F58044A04219D004F58044A04217D089
:1029400004F58044A04215D030BC8F210E4804F01D
:10295000B9BB002006250D4C73B105FB001004EB3C
:102960008004626530BC70470120F3E70220F1E784
:102970000320EFE70420EDE705FB0011120204EB52
:102980008104EEE7008004506D8800080081035048
:1029900038B505460C46FFF7A9FF18B9B421214800
:1029A00004F090FB284604F051FC012205F5005389
:1029B0001A632B6B9B07FCD4237962881B0243EAC2
:1029C0008243A27A1343627843EA8213E27A43EAAB
:1029D000C213227B43EA4213627B43EA0213A27BC7
:1029E00043EAC203E27B43EAC223A27943EA0243F9
:1029F000E27943EA424301226B6005F580531A6392
:102A000022780AB90223EB6000236B626379217A92
:102A10001B0143EA8103617A0B43AB600AB10123D6
:102A2000EB6038BD6D880008F8B506460F461446C1
:102A3000FFF75CFF20B94FF48671254804F042FB94
:102A4000022F04D940F20D11214804F03BFB30461F
:102A500004F0FCFB012206F500531A63336B9B075D
:102A6000FCD4637AE2791B0143EA0253A27906EBB4
:102A700047151343E27A43EAC2432B66237A1BB31A
:102A8000237B2A6E394642EA43422A66013B18BF3D
:102A900001233046A278FFF743FF012306F5805655
:102AA0003363637822781B0643EA8263E27843EA61
:102AB0000233227943EA8223627943EA0223A27A2B
:102AC00043EA82036B66F8BD2B6E2B66E5E700BF19
:102AD0006D880008F8B507460C461D4616464AB9EB
:102AE0004FF4A171314804F0EDFA24B1402D09D121
:102AF000062328E021B94FF42070FEF73DFE04467E
:102B0000402D42D0402D09D87DB1202D17D040F264
:102B10008911BDE8F840254804F0D4BA602DF6D1FB
:102B2000B6EB940F3CD804230DE0B6EB141F04D988
:102B30004FF4BA711D4804F0C5FA102303E0B6EB58
:102B4000D40F1CD808235E43730803EB4413B3FB74
:102B5000F6F3174E203BB6EBC30F4FEAC30404D283
:102B60004FF4D071114804F0ADFABB68344023F043
:102B70006003BB60BB681D43BD60FC61F8BD40F2F3
:102B800079110A4804F09EFADCE70623B4FBF3F35C
:102B9000B342ADD24FF4BF71044804F093FAA7E7F3
:102BA00040F28311014804F08DFABCE7D588000893
:102BB000F8FF7F0038B50C4B044698420D4604D010
:102BC0004FF43371094804F07DFA012204F5805373
:102BD0005A60EB43934003F00A036361656115B9E2
:102BE00004F50054626038BD00C00550D588000867
:102BF000124B10B59842044604D040F242411048AE
:102C000004F060FA012104F58053596040F6AA638C
:102C100041F20502636100230A48A360E365E260B4
:102C200004F500522361E361E36490640348A36503
:102C3000844204BF23656365516010BD00C0055028
:102C4000D5880008FFFF0100304B70B5984204465C
:102C50000D4604D040F2FD212D4804F033FA204601
:102C6000FFF7C6FF012304F580567360AB7C1BB1F0
:102C7000A36843F08043A360EB7C5BB1234B9C4291
:102C800002BF2A7DA3F51033C3F8D421E36D43F0CE
:102C90008003E3652A8A6B7B20461343EA8913434A
:102CA000E3602B7BD5E90112FFF714FF6B7D1BB1AD
:102CB000A36843F48033A360AB7D1BB1A36843F4E6
:102CC0000043A360EB7D2A7E1B07120502F4E0029D
:102CD00003F0E0431343A3656B7E9A1E012A4FF075
:102CE000020209D80B49032BC1F8982709D1042304
:102CF000F3652B78636170BD0749012BC1F89827F4
:102D0000F4E7042204F50053DA65F2E700C0055049
:102D1000D588000800D0035000E0035010B54FF4F0
:102D20002F720021044605F0EAFA8023C4F88C30A3
:102D3000054B04F19C00C4F88430012384F88830EA
:102D4000BDE8104004F0BFB93D89000810B5D0F8C7
:102D5000A0400A4684B904F03BFC044610B90024A4
:102D6000204610BD2D2896BF064B074953F820106A
:102D7000064804F073FDF3E7D0F8A4101046A0470E
:102D8000EDE700BFE8890008408900084E89000887
:102D9000F8B590F88060044616B100263046F8BDBC
:102DA00004F063FA0028F8D1012384F8803094F805
:102DB000883033B1D4F88410194884F8886004F05E
:102DC0004DFD4FF0FF37D4F8B402421C1CD0C4F8BC
:102DD000B47210F0FF0520D0204604F043FA2946D3
:102DE000204600F0AFFB0028EDD0204604F03FFA6B
:102DF00094F888306BB1D4F88410094804F02EFDA3
:102E0000002384F8883004E004F00DFD431CE0D179
:102E10000126002384F88030C0E70126D3E700BFF5
:102E20001B8B0008F8B50B780446302B0D46164670
:102E300004D14B7803F0DF03582B11D0284F6A1EC2
:102E400012F8011F002934D128460A2204F006F99D
:102E5000202C03460D4631D1B1FA81F040091AE029
:102E60004A1C1F4912F8013F8BB9284605F093FA16
:102E70001C4B02382340032B12D10134A41084428E
:102E80000AD1A87837288CBF0020012003E0CB5C52
:102E900013F04400E6D1F8BDCCBF01200020FAE7D2
:102EA000002CB8BF0334B0EBA40FD4BF0120002026
:102EB000F1E77B5C13F00400C2D1ECE726B10843D4
:102EC00002D0013B61F100050122A240013A1A4003
:102ED000002D08BF9A420CBF01200020DBE700BF95
:102EE000A69A000803000080F0B5037801467B2B0A
:102EF00017D10646022400220B4F16F8015F7D2DE4
:102F000005D10B5D6BB9D24302F0010008E07B5D97
:102F100013F0440002D001320134EEE7202DFBD043
:102F2000F0BD0020FCE700BFA69A000870B5064679
:102F30000D4605F030FA0446304604F08FFC044E8E
:102F4000AC4200D370BD304604F088FC0134F7E792
:102F50000E8B00082DE9F84F044602216048FFF768
:102F6000E5FF1E212068FFF7E1FF6368586804F061
:102F700075FC5C4804F072FC67683B7BFD2B12D843
:102F8000D7F808804FF0FF34404605F004FA0646B3
:102F9000DFF84C91DFF8A8A1DFF864B10C3717F81F
:102FA000013BFF2B01D1BDE8F88F212B14D8212B39
:102FB00014D8DFE803F0178C8884807C78741313AE
:102FC000131313131313706C6864605C5854131359
:102FD000131313131313504CFE2B34D006B10134CA
:102FE000414D02E006B10134404D02214846FFF751
:102FF0009DFF1E214846FFF799FF504604F02EFC26
:103000005946284605F0A8F93949002818BF29462D
:10301000384804F023FC3B78202B02D12B2004F00D
:1030200011FC354804F01AFC4EB118F804301F2B7F
:1030300005D018F804001F2801D0B4424BDB294802
:1030400004F00CFCABE706B101342C4DCDE706B122
:1030500001342B4DC9E7002EA1D001349FE706B102
:103060000134284DC1E706B10134274DBDE706B153
:103070000134264DB9E706B10134254DB5E706B157
:103080000134244DB1E706B10134234DADE706B15B
:103090000134224DA9E706B10134214DA5E706B15F
:1030A0000134204DA1E706B101341F4D9DE706B163
:1030B00001341E4D99E706B101341D4D95E706B167
:1030C00001341C4D91E706B101341B4D8DE706B16B
:1030D00001341A4D89E704F0B5FB0134A9E700BFBC
:1030E000228B0008FF940008AD8A0008A78A000818
:1030F000048B00081B8B0008088B0008B58A0008A9
:10310000BB8A0008C48A0008CB8A0008D68A000857
:10311000E08A0008EA8A0008D58A0008DF8A0008E9
:10312000E98A0008F28A0008F68A0008FE8A000888
:10313000A18A0008A88A0008FD8A0008A08A000861
:10314000068B00082DE9F04F93B005468B4600240E
:103150000092049305F01FF91C9F049B05901C60CE
:1031600028463C600AAA09A904F099FB064658B90A
:103170000A9805F010F93446B146049B1860D5F85A
:103180009C300393039B1BB9204613B0BDE8F08F1E
:10319000039B9B680193002B69D02E4416F8013BDA
:1031A000202B12D000260C237343019A02EB030A52
:1031B000D3580293002B55D0DDF82480C84551DB4D
:1031C0009AF808302BB1721C35E03B6801333B6044
:1031D000E4E73B68D5F894200299D21A049B1A6060
:1031E00012AB03EB890353F8203C1846069305F015
:1031F0008EF807900028E6D1029805F0CCF8DAF8AE
:1032000004100346087BD7F800A0FE28079A16D1C1
:1032100008F1FF38C8452ED00B680698029201933A
:1032200005F0B9F80AF10103029A0344E95C21B1FF
:103230003B6009F101091646B5E70133F6E7D5F819
:103240009420A2EB0A029A42BDDC5846069305F090
:10325000A2F8069B03447B2B1DD958461E4A0099B1
:1032600003F054FF2B46059A2A449A422AD1039B25
:103270001B68039386E7D5F89420A2EB0A029A42D2
:10328000E3DDD1F8008058F80C2B82B9059B3B6038
:10329000049B1A60E6E75846029A009903F036FF4D
:1032A00058460E4A0099013403F030FF8BE7584628
:1032B000009903F02BFF5846084A009903F026FFB7
:1032C0000134E0E713F8011B0029CED14FF02001B3
:1032D00003F8011CC9E700BF0B8B00080E8B000828
:1032E0002DE9F047002486B01C60DDE90EA80646F3
:1032F00089468AF800401168154888F8004017464A
:103300001D468DF81740FDF713FB18B901242B68F3
:1033100001332B600020D6F89C6036B914B101232C
:1033200088F8003006B0BDE8F087B06868B14B4659
:103330000021CDE902A8CDE900750DF1170204F0D6
:10334000E4F89DF81730002BE8D13668E5E700BFB8
:10335000108B00082DE9F04300260446ADF5457DAD
:103360007C22314605A802AF049604F0C8FF8022F3
:103370002046009703AB04A9FFF7E4FE01283ED1E5
:1033800004A805F008F803993B68A0EB01080B447A
:10339000234428EAE878054604A801444246184632
:1033A00004F0ECFF00F80860D4F89060039B3968E3
:1033B000D4F890201944B14212DCD4F89410E81AE1
:1033C0000244C4F89020014404AAC4F89410D4180C
:1033D00025182B1B002B0DDC0DF5457DBDE8F0837A
:1033E000A05C04F02FFAD4F8903001360133C4F811
:1033F0009030DBE714F8010B04F024FAE9E7EBDD89
:1034000024AD80223146284604F079FF44AB4FF4C6
:1034100000723146184604F072FF0DF110090346A0
:103420004A464FF00108314612F8016B002E49D18F
:1034300004A843F8281004F0AEFF2946334619F8D3
:10344000016B0DF5887C5CF8042B824243D101337B
:10345000984501F8016BF2DAD4F89060039BB3420F
:1034600042DC2346354A04A9354804F0F7F92846DA
:1034700004F091FF0646039B3F68F61A1F44E019CB
:103480001D4426EAE67204F198031744984204EBBF
:1034900007014ED204F1900399424AD96A1E81195C
:1034A0000B1A002B39DD12F8013F00F8013BD4F86C
:1034B00090300133C4F89030D4F894300133C4F81C
:1034C0009430EDE7202E01F1010104BF43F82810EC
:1034D00008F10108A8E70DF1100E7244D25CB24267
:1034E000B1D00022EA54B7E7D4F890300136E05C5E
:1034F00004F0A8F9D4F890300133C4F89030ADE767
:10350000D4F89020013B0132C4F89020D4F89420E4
:103510000132C4F89420002BF2DC00232E44E35542
:10352000731B002B7FF758AF15F8010B04F08AF9D5
:10353000F6E7294604F022FF3346ECE73D89000810
:10354000158B00082DE9F843D0E9245604460F46B0
:10355000002294F89830012B07D10A2F07D10023BD
:1035600084F898300020BDE8F88300F29F801B2F7C
:1035700001D10223F4E70D2F0DD1012384F89830F7
:103580000D2004F05FF90A2004F05CF9002301200B
:10359000C4E92433E7E74FF00008082F84F8988047
:1035A00034D1454530DDB5420FD1384604F04AF9F3
:1035B000202004F047F9013D384604F043F9013E6C
:1035C00004F80580C4E92456CCE7FBDA05F1FF399D
:1035D000384604F037F904EB0903A6EB0902611938
:1035E000184604F072FE04F806800146013E484881
:1035F00004F034F935464D4501DC4D46E2E708203C
:1036000004F020F9013DF6E7ACD0DBE77F2F1CD1B9
:10361000002EA7DDB542A5DA6319691C21441846BE
:10362000721B04F052FE04F806800146394804F08B
:1036300015F90820013E04F005F9B542F9D1D4F896
:103640009430013BC4F894308CE70A2F98D0092FAE
:1036500003D12046FFF77EFE84E7D4F88C30013B8F
:10366000B3427FF77FAFB54204EB050805F10109CE
:103670000CDB384688F80070D4F89430C4F8909089
:103680000133C4F8943004F0DDF86BE74146721B57
:1036900004EB090004F019FE404604F0DFF80820AE
:1036A000013E04F0CFF8B542F9DDE2E7022B06D186
:1036B0005B2F01D1032353E784F8982049E7032BBC
:1036C0007FF450AF413F84F89820032F3FF64AAF74
:1036D000DFE807F002070A160121204604F063F82C
:1036E00040E74FF0FF31F8E7B542BFF63BAF605D12
:1036F00004F0A8F8D4F890300133C4F8903031E7E2
:10370000002D7FF72FAF013D0820C4F89050BAE795
:103710001E8B0008238B000830B587B06C461B4D0C
:103720000FCD0FC495E8030084E803008020FEF766
:1037300073F905280CD001213120FDF7F5FF68460B
:10374000FEF7EEFC044684F00100C0B207B030BDC5
:103750000F4DFEF7C3FC2B6F23F0070343F001036B
:103760002B6703F037FD01213120FDF7DDFF6846AF
:10377000FEF7D6FC0446FEF7B1FC2B6F23F00703DF
:1037800043F002032B6703F025FDDCE7288B0008DC
:103790000080005013B50024064A6846536F43F07A
:1037A0000103536700948DF80440FEF705FE2046A0
:1037B00002B010BD0040005030B58BB06C46174DC4
:1037C0000FCD0FC40FCD0FC495E8030084E80300AC
:1037D000134BD3F84C2112031CD5A3F5FE431C88D0
:1037E0004FF6FF739C4208BF8C248DF81940FEF7FA
:1037F0006BFB204480F308008DF818000948FDF7A2
:103800006FF96846FEF744FA1420FEF7CBFB002060
:103810000BB030BDD3F85041E4B2E6E7408B00086E
:103820000080E00F00F0490230B5094D87B001ACCF
:103830000FCD0FC42B6801A823603F238DF80530FE
:10384000FEF748FB3220FEF7A7FB002007B030BD93
:10385000688B00086FF00403502110B50A480B4C28
:1038600013F0800F03F1010207D123444F2A83F89C
:1038700000131346F4D1002010BD03F00F03043BE6
:10388000034419761346EBE700ED00E000E100E0A9
:1038900010B5044603F0B3FC024B1C6003F0B3FC0C
:1038A000002010BD2853012010B503F0A8FC034BE5
:1038B0001C6803F0A8FC204610BD00BF285301205F
:1038C000302238B5037A0446534303F1A04303F58D
:1038D0008023DD6ED0E9032313449D4201D8AA4220
:1038E00004D94FF43E71054803F0ECFBD4E903031F
:1038F00003449D4218BF284638BD00BF7C8B00089A
:1039000030B51446054687B01046FFF7D9FF636906
:10391000024683423CBFD4E903315B181B1AABB1AA
:103920001249049403910021CDE901310123009350
:103930002846D4E9001303F011FC20B14FF4347190
:103940000B4803F0BFFB002007B030BD01226276B8
:1039500094F82D20002AF6D084F835301321E3693D
:10396000204698472046636A9847ECE701390008EB
:103970007C8B00082DE9F04788B004460F461646B8
:10398000984603F043FC8146002E00F0AD80237E74
:1039900003F0FF02002B00F0E0802046FFF790FFCD
:1039A00063698246984206D1637E23B940F27F3133
:1039B0006B4803F087FB6569AA459DBFD4E90332D4
:1039C0009B185D1BAAEB0505B54228BF354603F0E1
:1039D0001DFC94F82D308246002B40F096802A463C
:1039E0003846616904F0CAFC63692E462B44636162
:1039F0002CE06069037803F0FD01112940F082801A
:103A0000216B884205D1A3F111014B424B4184F84F
:103A10003430013E6369216B01328B4203F10103B3
:103A200008BF236363619542E3D1D4E90323216B8B
:103A30001344994208BF2263216B8A4201D88B420A
:103A400004D84FF46D71464803F03CFBD4E90323DE
:103A500061691344994208BF626161698A4201D871
:103A60008B4204D84FF471713D4803F02BFB0023C7
:103A7000207A6376FDF7FAF920B140F21131384827
:103A800003F020FB2046FFF71BFF636983423FD111
:103A90000023E568237694F82D30656103B1256332
:103AA0002046636A98472F4B0494039300230293A4
:103AB00023692A4601930123009363682168207AD1
:103AC00003F04CFB20B140F22D31254803F0FAFA07
:103AD000207AFDF7EBF920B140F25131204803F094
:103AE000F1FA504603F098FB4846C8F8006003F02E
:103AF00093FBD8F80030002B0CBF1B20002008B02F
:103B0000BDE8F08707F8013B84E72E4600228AE7EC
:103B10000123207A23760DF11E01FDF72FFA20B143
:103B20004FF450710E4803F0CDFA9DF81E30207A04
:103B3000002BCDD00DF11F01FDF7F8F920B140F2B7
:103B40004631074803F0BEFA9DF81F10207A00297D
:103B5000BED12246FFF7D4FEBAE71646C4E700BF3F
:103B60007C8B00080139000870B504460568FFF732
:103B70009BFE844202D10020FFF78AFE95F9363081
:103B8000002B11DB012203F01F015B099B0003F1F5
:103B900060438A4003F56143C3F88021C3F8802065
:103BA000BFF34F8FBFF36F8F287AFDF79FF920B1D6
:103BB0004FF4ED71104803F085FA287AFDF7FCF810
:103BC00020B14FF4EF710C4803F07CFAFDF7D2F806
:103BD00038B10A4B984204D04FF4F171064803F013
:103BE00071FA00232846C4E90033C4E90433A36012
:103BF000AB6ABDE8704018477C8B0008058000F078
:103C00002DE9F84304460D4690F82C80DFF8AC907F
:103C10008E18AE4228D094F82D3083B103F0F6FA16
:103C2000237E07461BBB226B63699A4204D040F295
:103C3000F911484603F046FA384603F0EDFA94F8D5
:103C40003430002BE5D0B8F1000F06D02B780A2BCA
:103C500003D10D212046E36998472046E36915F812
:103C6000011B98470028D4D00020BDE8F8832046E7
:103C7000FFF726FEE1680138884238BF2069D4F892
:103C800030C03CBF00F1FF30401803469C450BD0CC
:103C900013F80129112A01D0132A07D1A2F1110327
:103CA0005A425A4184F834202063C5E7994282BFC2
:103CB000236903F1FF335B18E8E700BF7C8B000842
:103CC000F0B50C460646154687B03822002120463E
:103CD0001F4604F014FB95E8030000232A692376AD
:103CE000EB6884E80300C4E904232A7DE36084F8D8
:103CF0002C20AA7D2363012384F8343084F83530E6
:103D00000C9B84F82D2023620D9BE76163620E9B60
:103D1000A3622B7A84F83630204B34607360204BDA
:103D2000B360204B3361204B7361204BF360FDF790
:103D300069F830B11E4B984203D01024204607B0DA
:103D4000F0BD002104F10800FCF7E4FF0028F4D1E5
:103D50000127184B0494CDE90203236900970193CE
:103D60006368E2682168207A03F0F8F904460028C5
:103D7000E3D195F90830002B0BDB03F01F025B0940
:103D80009B0003F16043974003F56143C3F88071E2
:103D90001F603046FFF77CFDD0E700BF013C000804
:103DA00075390008FB790008017A0008693B0008B2
:103DB000038000F0013900082DE9F0411C46574B03
:103DC00086B00293564B0127019300230C9D00936C
:103DD0009046CDE903770A46524B2946FFF770FF1C
:103DE0000646002840F0918023683946AB6363683B
:103DF0003A20EB63637A85F84130237A85F84030C6
:103E0000E37A85F84330A37A85F84230637B85F8FE
:103E10004530237B85F84430E37B85F84730A37B2E
:103E200085F84630FDF780FC3B460422617A207A13
:103E3000FEF7CAFB3B460222E17AA07AFEF7C4FBFA
:103E400039466068FDF770FC88F8006041462068DC
:103E5000FEF7FAFE1422637C5B0103F1A04303F535
:103E60007033C3F89827617A227A42EA0142C3F894
:103E7000B027E17AA27A42EA0142C3F8A82785F87E
:103E8000486098F81930032B45D8DFE803F0354235
:103E9000021C022385F8483000230422E17BA07B2A
:103EA000FEF792FB022741F29871627C1E4B03EBF6
:103EB00042104750E07BA17BBD3241EA004103EB59
:103EC0004213596018E0012785F848300222002388
:103ED000617B207BFEF778FB617B637C227BBD33BB
:103EE00042EA014210495B01CA500422236803F5EB
:103EF0008053DA65002FCFD1AA6B0521D36C2068DF
:103F000043F00403D364FEF755FE304606B0BDE827
:103F1000F0810027D8E72326F7E700BF137A0008CF
:103F2000077A00088B7A000800C003502DE9F04F93
:103F30009B4691B00B1E0A93AD4B904614BF814631
:103F4000994600241A9E9BF8000070B9444538BF7A
:103F5000224643464FF000000A9928BF08F1FF327D
:103F6000C847204611B0BDE8F08F25280BF1010BA2
:103F700006D0224643460A99651CC8472C46E2E70C
:103F800000230DE02D2A2AD0302A06D0303A092A03
:103F90004FF0000711D80A2532E043F001038B46A9
:103FA000594611F8012B2B2A1CD0EBD8202A1CD003
:103FB000232A1DD02A2A2BD000279BF800202E2A46
:103FC00064D19BF801100BF10102A1F13000092826
:103FD00043F4806351D800254FF00A0C26E043F0EB
:103FE0000203DCE743F00403D9E743F00803D6E714
:103FF00043F01003D3E78B4605FB0722A2F13007FD
:10400000594611F8012BA2F130000928F3D9D4E761
:1040100056F8047B8B46002FBCBF43F002037F425F
:10402000CBE702460CFB0511A1F13005104610F854
:10403000011BA1F1300EBEF1090FF2D9114611F8A2
:10404000010B6C282CD024D8682830D06A2837D0AF
:1040500011468B461BF8010B672875D857284BD89B
:10406000452807D085D9462800F03181472880D1DE
:1040700043F4006343F020033FE12A2907D156F8B7
:10408000045B0BF1020225EAE575D7E75A460025E5
:10409000D4E7742801D07A28DAD143F48073D8E7C2
:1040A00050786C28F9D143F44073911CD1E75078D3
:1040B000682802D043F08003CBE743F0C003F4E765
:1040C00043F40073C5E70A2A00F06281072A7FF4EF
:1040D00050AF43F0210305930823CDE90353102388
:1040E000CDE9011356F8043B224600934846434667
:1040F0000A9903F001FEFAE0A0F158020F2A3FF6F8
:1041000038AF01A151F822F079410008733F00084F
:10411000733F0008733F0008733F0008733F0008B7
:10412000733F0008733F0008733F0008733F0008A7
:10413000794100081943000879410008F34200085A
:10414000D3420008F3420008A0F16902D2B20F2A5C
:104150003FF60FAF012149F2410C914011EA0C01E9
:10416000B1D0782803F4806122D1002900F090803A
:1041700023F00D02102307E0622803F4806220D1AF
:1041800042BB23F00C02022312F4007100F0838082
:10419000CDE907720022CDE9043206F1070A2AF0C0
:1041A000070A06950292FAE80223CDE900233DE0D2
:1041B0006F2812D123F00C0209B123F00D0208235D
:1041C000E2E7582816D1002A39D123F00C0242F038
:1041D0002002CFE723F00D02D5E7692823F0100273
:1041E00030D023F01C0209B123F01D020A23CBE7D3
:1041F000377B000842BB23F01002930527D5073612
:1042000026F00706B24671685AF8083B0A26CDE93F
:1042100007720027CA0F0029CDE9046706950292AC
:1042200002DA5B4261EB4101CDE9003143462246AF
:1042300048460A9903F0A3FD0446564683E623F058
:104240000D02C4E70029D8D023F01102D5E7D0052C
:1042500006F1040A01D5336802E0510613D533781C
:10426000CDE904720A22002B02924FEAD372039521
:104270000192B8BF5B4200934346224648460A99E2
:1042800003F03AFDD8E71306E5D5B6F90030E7E7C5
:1042900023F00C026EE7D00506F1040A06D5CDE93D
:1042A0000472CDE9023501913368E4E7510608D57F
:1042B0003178CDE902350023CDE90472CDE9001350
:1042C000DAE7316812F0800F18BF89B2F1E743F0E6
:1042D0002003CDE90173073626F007060095B6ECFA
:1042E000020B4346224648460A99FCF705F9044664
:1042F00029E6672801D143F40063CDE9017307364D
:1043000026F007060095B6EC020B434622464846C7
:104310000A99FBF735FFEAE713F0020523D04FF0C7
:10432000010A631C0B93224643460A9916F8040BB4
:10433000C8475DB354460B9A1EE0434620200A99B5
:10434000C8470AEB04020AF1010A5745F5D8002FC5
:1043500007F1FF3308BF002307F1010A1C4408BF1F
:104360004FF0020ADDE7AA46EBE7551C4346202042
:104370000A99C8472A460134BC42F6D3A7EB0A0380
:10438000574538BF00230B9A1A440B920B9CDAE571
:104390003246002D52F8046B14BF29464FF0FF310E
:1043A0000B9232463144107808B18A4211D1A2EB07
:1043B000060A13F480620C9202D0AA4528BFAA46CE
:1043C00013F002030D931BD1AAEB040322460F93B3
:1043D00008E00132E7E7531C0E93202043460A9978
:1043E000C8470E9A0F9BD3189F42F4D8A7EB0A0335
:1043F000574538BF00230AF101021C4403EB020AAF
:10440000A31B0E9304E01D46434622460A99C84763
:104410000E9BF41816F8010B28B10C9B002BF3D05F
:104420006B1E002DEFD10D9B93B12246AAEB040524
:1044300005E0561C434620200A99C84732465319C6
:104440009F42F6D8A7EB0A03574538BF00231C4408
:104450000B9E78E50FB41FB506AA52F8043B02A9DB
:104460000392009204484FF0FF32FFF75FFD05B062
:104470005DF804EB04B070471D7E00081FB50346CD
:1044800000914FF0FF3203A90248FFF74FFD05B03E
:104490005DF804FB1D7E000830B50A4C0A4B22680B
:1044A0000A4D1A600A4B85B02B600A4B0193FFF747
:1044B000FBF92B68029001A92068039302F0EAFE41
:1044C00005B030BD1C1000202453012020530120D2
:1044D00010100020608C000838B5FFF7E5F904469D
:1044E000064D2B68D3F8B002FFF7D2F9286802F026
:1044F000E5FE2046BDE83840FFF7CAB91C10002091
:1045000010B5224CFDF7EAFD236F23F0070343F0BB
:104510000203236702F05EFED4F82031002023F06E
:10452000070343F00103C4F82031D4F8283123F005
:10453000070343F00103C4F82831D4F8403123F0D5
:10454000030343F00203C4F84031D4F8603123F090
:10455000030343F00203C4F86031D4F8403223F07F
:10456000030343F00203C4F84032D4F8003223F0CE
:10457000070343F00203C4F80032D4F8083223F0F2
:10458000070343F00203C4F8083210BD0080005056
:1045900030B51F4D95B00DAC0FCD0FC495E8070099
:1045A000292384E807001B4A0021CDE902230523C3
:1045B000CDE904118DF8113004230E220DF12600EF
:1045C00006918DF8133003F09AFE4FF48021124BC0
:1045D0001248CDE9071309238DF824300A238DF8FA
:1045E00025300F4B0DAA0A9320230B9301238DF83E
:1045F00031300C4B07A9009302ABFFF7DDFB0446FB
:1046000018B18621084802F05DFD204615B030BD86
:10461000DC8C000800C0055024C00550385601202D
:10462000D7570120EC550120748C000808B5FFF71E
:10463000AFFF28B1BDE808409A21024802F042BD10
:1046400008BD00BF748C0008014803F024BA00BF05
:10465000385601201FB500232E4A0393039B934233
:1046600054DD03F050FA03F0E1FB00F035FB00F0FD
:10467000F7F80022FF20114600F096F80A2000F01B
:10468000CBF8012000F0DAF8412223492348FFF754
:10469000E1FE00F02DFA46221F492148FFF7DAFE1D
:1046A00001F040FB4B221C491E48FFF7D3FE1E4B76
:1046B0001E4AD9681E4821F4E0610904090C0A4326
:1046C000DA60202283F8232010225A769A764FF45B
:1046D000A0521421174B009200F004FD20B1592282
:1046E0000D491548FFF7B6FE00F07AFF20B15A22B7
:1046F00009491148FFF7AEFE5C2207490F48FFF752
:10470000A9FE03F00DFA03F092FBFAE7039B0133D5
:104710000393A3E71FA10700F88C0008FF8C000893
:104720001E8D00083F8D000800ED00E00003FA0533
:10473000638D00085E8D0008688D00088D8D00086F
:1047400070B5074C0646236B0D46DB0704D440F2D8
:104750004231044802F0B6FC04EB4614A56670BD75
:1047600000000550AB8D0008014B1878704700BF62
:104770007D110020014B1878704700BFFA570120C7
:1047800010B1064B1B78037011B1054B1B780B70F1
:1047900012B1044B1B781370704700BFF95701200A
:1047A000F8570120F7570120164B70B51870164BBB
:1047B0000C461970154B1A70154B1D78F5B164260F
:1047C000144B1B7813FB04F4B4FBF6F410FB03F05A
:1047D000E5B213FB02F4B0FBF6F0B4FBF6F4C1B2A1
:1047E000E4B20020FFF7ACFF29460120FFF7A8FF45
:1047F0002146BDE870400220FFF7A2BF29462C46A3
:10480000EFE700BFF9570120F8570120F7570120C3
:10481000FA5701207D110020044B1870044B1A78C0
:10482000044B1978044B1878FFF7BEBF7D110020A8
:10483000F7570120F8570120F9570120044B187051
:10484000044B1A78044B1978044B1878FFF7ACBF67
:10485000FA570120F7570120F8570120F957012096
:1048600030B5012189B03A20FCF75EFF01212620F6
:10487000FCF75AFF0023042218460821FDF7A4FE86
:104880000023042218460921FDF79EFE002300257F
:10489000184604220A21FDF797FE0F2200210DF190
:1048A000110003F02CFD0D220021684603F027FDC6
:1048B00026208DF81050FCF75FFF2A4B2A4CB0FBE6
:1048C000F3F003230138ADF8120004A920468DF857
:1048D0000630FEF75DF80722244B2946C3F8382737
:1048E0004FF40022C3F83C274FF41022C3F84027AE
:1048F0004FF420222046C3F844276A46FEF794F876
:104900006A4601212046FEF78FF86A4602212046BA
:10491000FEF78AF8236BDB0704D440F2B641144853
:1049200002F0D0FB4FF480730021E3610846FFF7EB
:1049300007FF00210120FFF703FF00210220FFF7FE
:10494000FFFE00230B4A13700B4A13700B4A1370BF
:104950000B4A137064220B4B1A700123E36009B0F9
:1049600030BD00BFA08601000000055000C003500C
:10497000AB8D0008FA570120F7570120F8570120A6
:10498000F95701207D11002008B5104B984216D030
:1049900003F58043984215D003F58043984211D027
:1049A00003F5804398420DD003F58043984209D027
:1049B000074840F2D22102F085FB002008BD4FF0ED
:1049C000FF30FBE74FF6FF70F8E700BF00800450B0
:1049D000AB8D000870B5154604460E46FFF7D4FFB0
:1049E000A84204D24FF45071074802F06BFB236BCE
:1049F000DB0704D440F24231034802F063FB04EBCE
:104A00004614A56670BD00BFAB8D000810B5044606
:104A1000FFF7BAFF632804D840F2B441064802F019
:104A200051FB236BDB0704D440F2B641024802F08D
:104A300049FB6423E36110BDAB8D0008032810B56A
:104A40000A46044606D9BDE8104026220E490F4802
:104A5000FFF700BD642905D92B220B490C48FFF74D
:104A6000F9FC642214B921460A4805E0012C07D05C
:104A7000022C07D000210848BDE81040FFF7AABF6C
:104A80002146F8E70121EFE7C78E0008138E0008E2
:104A9000378E00080080045000C0045010B5032871
:104AA0001DD8DFE800F0020C181A0E4C236BDB0750
:104AB00003D411210C4802F005FBA06E09E00B4C59
:104AC000236BDA0703D41121074802F0FBFAD4F86C
:104AD0008800C0B210BD034CF2E7044CE6E70020AA
:104AE000F8E700BF00800450778E000800C0045033
:104AF000F0B5002489B001213A20FCF715FE012110
:104B00002420FCF711FE01212520FCF70DFE0023D7
:104B1000042206210220FDF757FD0023042209216B
:104B20000220FDF751FD0023042207210220FDF79A
:104B30004BFD0023042208210220FDF745FD0F2232
:104B400000210DF1110003F0DAFB0D22002168466F
:104B500003F0D5FB25208DF81040FCF70DFE2B4B04
:104B60000327B0FBF3F02A4E2A4D0138ADF81200AE
:104B700004A930468DF80670FDF70AFF284604A9FF
:104B8000FDF706FF244B254AC3F8F876C3F81877DB
:104B9000C3F8FC2602F58032C3F8002702F5803204
:104BA000C3F81C2702F58032C3F8202721466A4645
:104BB0003046FDF739FF6A4630460121FDF734FFE4
:104BC0006A4621462846FDF72FFF6A4601212846FE
:104BD000FDF72AFF3046FFF719FF2846FFF716FFBB
:104BE00021462046FFF72AFF21460120FFF726FF36
:104BF00021460220FFF722FF21463846FFF71EFF1D
:104C00000123F360EB6009B0F0BD00BF808D5B0055
:104C10000080045000C0045000C003500200060091
:104C2000244C07B5207024480160002100910191B7
:104C3000EFF309810091EFF308810191009991420E
:104C40002FD8009A6AB301221C4B1A704FF0E02350
:104C50001B4AD3F8281D1B4C1160D3F8341D1A4A87
:104C60001160D3F8382D194B1A600023237000F01F
:104C700033FA48B100F0AEFF30B100F0ABFF3222A2
:104C80004168204603F055FBBFF34F8F1049114B8D
:104C9000CA6802F4E0621343CB60BFF34F8F00BFDA
:104CA000FDE7019A9A42D1D8019B002BCED0022277
:104CB000024BCAE711D803200CD8032010D80320D8
:104CC00004D8032012D8032008D8032000D80320DA
:104CD00000ED00E00400FA0538B59A4B9A48D3F885
:104CE0009440FFF7B7FBBD2298499948FFF7B2FB04
:104CF0008020FCF741FDBE22034694499548FFF70A
:104D0000A9FBBF2291499448FFF7A4FB630504D592
:104D1000C3228E499148FFF79DFBA50504D5C42207
:104D20008A498F48FFF796FB200604D5C52287499C
:104D30008C48FFF78FFBE10504D5C62283498A48DA
:104D4000FFF788FB620704D5C72280498748FFF731
:104D500081FB230504D5C8227C498548FFF77AFBEF
:104D6000A50604D5C92279498248FFF773FB2007BD
:104D700004D5CA2275498048FFF76CFBE10604D5CB
:104D8000CB2272497D48FFF765FBA20704D5CC22F0
:104D90006E497B48FFF75EFBA30404D5CD226B4927
:104DA0007848FFF757FB002C04DACE226749764893
:104DB000FFF750FBE50704D5CF2264497348FFF79E
:104DC00049FB14F04003724D724C00F06681D22210
:104DD0005E497148FFF73EFBD8225C496F48FFF7F8
:104DE00039FB2B78002B00F04A81DD2257496B48B4
:104DF000FFF730FB2A786A4B544953F82230694850
:104E0000DE22FFF727FB236813F0BB0F3BD0E42221
:104E10004E496548FFF71EFB2368D80704D5E522F5
:104E20004A496248FFF716FB2368990704D5E62232
:104E300046495F48FFF70EFB23681A0704D5E722AF
:104E400042495C48FFF706FB2368DB0604D5E822ED
:104E50003E495948FFF7FEFA2368980604D5E9222F
:104E60003A495648FFF7F6FA2368190606D5544B17
:104E7000EB221B6835495348FFF7ECFAEC22334923
:104E80004648FFF7E7FA236813F43B4F3BD0F32281
:104E90002E494D48FFF7DEFA2368DA0504D5F422DF
:104EA0002A494A48FFF7D6FA23689B0504D5F5221C
:104EB00026494748FFF7CEFA2368180504D5F6229D
:104EC00022493C48FFF7C6FA2368D90404D5F722E3
:104ED0001E493948FFF7BEFA23689A0404D5F82220
:104EE0001A493648FFF7B6FA23681B0406D5394B32
:104EF000FA221B6815493348FFF7ACFAFB22134925
:104F00002648FFF7A7FA2368334A1A4200F0A68022
:104F10004FF481720D493148FFF79CFA2368D8039A
:104F200005D540F2031209492D48FFF793FA23688B
:104F3000990359D54FF4827204492A48FFF78AFA37
:104F400052E000BF00400050FE940008E08E0008D0
:104F5000EE8E00082B8F00084E8F00086A8F000825
:104F6000908F0008BA8F0008E98F00081890000899
:104F70003E900008659000088A900008AC900008F8
:104F8000CE900008EE9000080F9100082D910008C7
:104F900011D8032004D80320529100087E91000804
:104FA000509500088B910008C3910008E991000812
:104FB000159200083A92000877920008A99200081A
:104FC00008D80320E29200081D9300083C930008D3
:104FD0006193000800D8032000001F038793000896
:104FE000A8930008CD93000823685A0305D540F222
:104FF00005122B492B48FFF72DFA23681B0305D513
:105000004FF4837226492848FFF724FA2368D80111
:1050100005D54FF4847222492448FFF71BFA236810
:10502000990105D540F209121D492148FFF712FAEE
:105030002368DA020CD51F4B1F4A19781F4B2048F2
:10504000012908BF134640F20D121549FFF702FA75
:1050500040F20F1212491B48FFF7FCF92368DB02EC
:105060000DD4194B40F215120D491B681748FFF774
:10507000F1F94FF48B720A491248FFF7EBF94FF43C
:105080008E7207491248FFF7E5F900234FF400320A
:105090002B7023600F4B1A6738BD2B7023609BE683
:1050A000E08E0008EA9300080494000822940008A7
:1050B0004794000810D8032012D80320CF8E000890
:1050C000679400087E9100080CD803209294000891
:1050D000C294000800400050014B1878704700BF90
:1050E000FB5701202DE9F04FDFF8C0901E4699F8DC
:1050F000003085B007468A469346DDF83880002B9D
:105100004CD14FF0E024D4F8883D254D43F4700392
:10511000C4F8883D6B6B802043F000436B636B6B7E
:1051200043F080436B63236923F001032361D4F8C8
:10513000203D43F00073C4F8203DD4F8203D43F4F3
:105140007023C4F8203DFCF717FB4FF47A73B0FBD3
:10515000F3F06061236943F004032361236943F0A2
:1051600002032361236943F00103236100F02AF85D
:1051700043465A465146384600F05EFA58B9012374
:10518000314689F80030074ACDE90200CDE9000830
:10519000054800F015FC05B0BDE8F08F0520FAE7E2
:1051A00000EF00E0BF7E00088C560120FB57012075
:1051B00010B103680BB1181A7047014BFBE700BF31
:1051C000885101204FF4A0320021014803F097B824
:1051D0008811002073B540B3EFF31083019372B6CA
:1051E000BFF36F8F264C4FF0FF3500212646073066
:1051F00020F007022046FFF7DBFF636833B9083869
:10520000A84203D282429CBF054621462468002C56
:10521000F0D1B14202D31B4B994209D902F051FEA1
:10522000019B83F31088BFF36F8F002002B070BD25
:10523000312A12D80AB308680832531883421EBFB5
:1052400088500B605C60012301F108004B60019BFA
:1052500083F31088BFF36F8FE8E70846FFF7A8FFD6
:105260008A1A0244A2F1080399421EBF086842F854
:10527000080CC1E90034012159601046E7E700BF7E
:10528000881100208751012037B500283AD01E4BE5
:10529000984237D31D4CA04234D8EFF310820192CC
:1052A00072B6BFF36F8F083B00211D46AB420AD395
:1052B000A34208D883421A6802D862B1824218D247
:1052C00019461346F2E7019B83F31088BFF36F8FF3
:1052D000022003B030BD5A6021B14A6812B9186883
:1052E00008601A60019B83F31088BFF36F8F002062
:1052F000EFE70020586050680028EDD114681C606A
:105300001060E9E70120E4E79011002087510120B7
:10531000044B1B680BB9184603E09868027A002A10
:10532000F7D07047505601202DE9F04F064685B062
:10533000EFF31083039372B6BFF36F8F4FF0FF3814
:105340004FF0010BC246A6B9B8F1000F08DD614B62
:105350001B68986802F09EFF4045ACBF00260126FE
:10536000039B83F31088BFF36F8F304605B0BDE811
:10537000F08F706902F0B9FEF3683046984707462F
:105380007369D3F80090B9F1000F05D186F8089041
:10539000FFF7BEFF0646D6E7D9F80840237E042B68
:1053A00025D0012B23D094F84050002D6CD1A16B57
:1053B000A9421FD1E26B27B3954210D2914288BF18
:1053C000636B07F1FF3784BF53F8223083F808B0CE
:1053D0000223BA1C08BF4FF0FF37E5632376237E14
:1053E000022B04D194F94C309845B8BF9846D9F8AF
:1053F0000090C8E7636B53F82530B342DAD001352B
:10540000D6E79542EBD1A36B0135AB420AD9636B6A
:10541000214653F8250002F0AFFE0028F3D0A36B1D
:10542000AB420CD8E3694FF0FF35002B0CBF0223D1
:105430000323237694F84030E563012B0AE002232E
:1054400001222376636BE56353F825301A7294F8D2
:1054500040309342C3D1E3690027002B14BF0323DC
:105460000223C4F83CA02376E36BAB42B7D0002202
:10547000A16B9142B3D0636B53F822300132B34237
:1054800018BF83F808B0F4E7012DA8D1E56B002F11
:10549000E1D0002305E0626B52F82300B0420AD14C
:1054A0000133A26B9A42F6D80023E3637B1C00D041
:1054B000013F0223D7E72146019302F05DFE019BE5
:1054C0000028EDD1E369C4F83CA0002B14BF0323EE
:1054D0000223C8E76C5601202DE9F04F3D4B85B003
:1054E0001B78012B72D172B600230193EFF309836D
:1054F000394C0193D4F80080B8F1000F03D0019A21
:10550000D8F808301A62DFF8D49000254FF0FF3A3F
:10551000D9F80060276823689E421DD100264FF00D
:10552000FF3B3FBB002E33D1256035B962B602F098
:10553000C7FC72B62368002BE7D000230293EFF379
:105540000B83029323689A68D2E909135B1A0299C4
:10555000994224D3194623E0B068037E022B03D17D
:1055600002F098FE504503DA504682463668D2E78C
:105570003546FAE7B868037E022B03D102F08AFEB3
:10558000584503DA584683463F68CAE73E46FAE77D
:105590000DB92660D1E7DA45A8BF2E46F9E7029992
:1055A0000391039981F30B88126A0192019A82F3A5
:1055B000098883F30B88B8F1000F06D0D8F80800EB
:1055C000037E042B01D100F0F3F862B605B0BDE80C
:1055D000F08F00BFFC5701206C560120705601204F
:1055E00007B5FFF779FDE0B1EFF31083019372B6D1
:1055F000BFF36F8F01220C4B1A7000F07DF938B1A8
:105600004FF0E022D2F8043D43F08053C2F8043D4D
:10561000019B83F31088BFF36F8F002003B05DF808
:1056200004FB0420FAE700BFFC570120014B187867
:10563000704700BFFC57012073B50D1E0646144687
:10564000C0F28A80B2F5C07FC0F08680B3F5C07F1B
:10565000C0F082801046FFF7BDFD18B9032528462B
:1056600002B070BD044424F007040094EFF30881F5
:1056700081F30988009B194681F30888EFF31481B0
:1056800041F0020181F314880190019B194681F3D6
:105690000A885820FFF79EFD04460028DED000232C
:1056A0000372012303702D4BC36002F060FC2C4B8E
:1056B0006061236130461EB102F06DFEFFF78AFD86
:1056C0000223657684F84C5000252376C4E90755FB
:1056D000C4E90D556060A585A562A56402F047FC8C
:1056E0006369C4E914556064002B33D0002831D0BD
:1056F000606818BB76BB1B4E00222146304602F084
:105700005AFC636902462BB3636C1BB310BB214682
:10571000154802F050FC0546B0B12146304602F073
:1057200084FC606902F0C7FC606C02F0C4FC606835
:10573000FFF7AAFD2046FFF7A7FD90E7002EDAD07D
:10574000314602F013FED6E7084B32681A60084B68
:105750001C6084E70325E4E7012580E7A9820008AF
:105760007F82000870560120505601206C5601209F
:105770009056012013B50446FFF758FF0128034651
:1057800010D1EFF31082019272B6BFF36F8F074A08
:105790001268906803768464FFF7C6FD02F071FD1D
:1057A00062B6FBE7042002B010BD00BF6C560120BA
:1057B00073B504460146494802F0E6FB002C00F0B0
:1057C0008A80002800F085802378012B40F08380B8
:1057D000434D2B689B68A34214D0EFF310830193D1
:1057E00072B6BFF36F8F012320462376FFF79CFD2F
:1057F0002B689B689C420BD10423237602F041FD69
:1058000062B6FBE7FFF712FF0128E6D004203CE078
:10581000636B002B52D12146324802F006FC214630
:105820002E4802F002FC606902F045FC606C02F058
:1058300042FC236D002B0CDD0025206BFFF724FDBF
:105840002E46D4E914309D4201DA002838D1FFF702
:105850001BFDD4E90930C01AFFF716FD002501230E
:10586000C4E90D552376C4E90955C4E914556068A7
:105870002562E561FFF708FD2046FFF705FD019B66
:1058800083F31088BFF36F8F284602B070BD636B3F
:1058900053F825306BB12146586902F0C6FB636BA3
:1058A00053F8250002F00EFB636B53F82500FFF759
:1058B0003BFD0135A36B9D42E9D3ACE70025F9E739
:1058C00050F82500FFF7E0FC636D43F825600135D3
:1058D000B7E70220D9E70120D7E700BF70560120C3
:1058E0006C56012050560120024B1B689868FFF748
:1058F0005FBF00BF6C56012007B5EFF31083019323
:1059000072B6BFF36F8F114B1A68114B1B686BB1E6
:10591000986802F0BFFC01465AB9019B83F31088D6
:10592000BFF36F8F104603B05DF804FB4FF0FF31FB
:10593000F2E79068037E022B03D102F0ABFC8142B8
:1059400001DB1268E8E70120EDE700BF7056012097
:105950006C56012010B5044608B9002010BD03782C
:10596000012BFAD10146074802F00EFB0028F4D0C3
:10597000207E0428F1D00228F0D1636B002B18BFE1
:105980000320EBE77056012082B00346EFF310824C
:10599000019272B6BFF36F8F084A106818B182681F
:1059A000928D9A4208D1019B83F31088BFF36F8FC9
:1059B00000B1806802B070470068EFE770560120C0
:1059C0002DE9F74F0D46174699469DF930B00190E5
:1059D000002800F0ED80002A00F0EA80BBF1000F03
:1059E000C0F2E680B9F1010F00F2E2800D9BB3F541
:1059F000C07FC0F0DD80FFF76FFB002800F0DA8089
:105A00005820FFF7E7FB824620B90324204603B065
:105A1000BDE8F08F0D98FFF7DDFB064618B950463C
:105A2000FFF732FCF1E74FF0000800F0DBF800EB85
:105A3000080484EA1444E4B22046FFF7A5FF10B13D
:105A400008F10108F1E701228AF800205A4A8AF891
:105A50000800CAF80C2002F08AFA584ACAF8140062
:105A6000CAF8102028461DB102F095FCFFF7B2FBE2
:105A70000222AAF82C4000240D9B8AF81820F21864
:105A8000CAE9093222F00702CAF82020CAF83070A9
:105A9000CAE90D44CAF804008AF819B08AF84CB073
:105AA000CAF81C40CAF8484002F061FA0F9B4FF058
:105AB0008071A3420E9B0CBF22461A460F9BCAF868
:105AC0005020DAF82020CAF85430CAF8440042E9DD
:105AD00002713B493B4F42F81C3CA14508BF394687
