:020000040800F2
:1000000000100020910900081D6C00088779000885
:100010008F790008977900089F790008A779000870
:100020001D6C00081D6C00081D6C00081D6C00088C
:100030001D6C00081D6C0008377D00086179000800
:100040001D6C00081D6C00081D6C00081D6C00086C
:100050001D6C00081D6C00081D6C00081D6C00085C
:100060001D6C00084D4600085D7900081D6C0008F5
:100070001D6C00081D6C00081D6C00081D6C00083C
:100080001D6C00081D6C00081D6C00081D6C00082C
:100090001D6C00081D6C0008C10F00081D6C0008D5
:1000A0001D6C00081D6C00081D6C00081D6C00080C
:1000B0001D6C00081D6C00081D6C00081D6C0008FC
:1000C0001D6C00081D6C00081D6C00081D6C0008EC
:1000D0001D6C00081D6C00081D6C00081D6C0008DC
:1000E0001D6C00081D6C00081D6C00081D6C0008CC
:1000F0001D6C00081D6C00081D6C00081D6C0008BC
:100100001D6C00081D6C00081D6C00081D6C0008AB
:100110001D6C00081D6C00081D6C00081D6C00089B
:100120001D6C00081D6C00081D6C00081D6C00088B
:100130001D6C00081D6C00081D6C00081D6C00087B
:100140001D6C00081D6C00081D6C00081D6C00086B
:100150001D6C00081D6C00081D6C00081D6C00085B
:100160001D6C00081D6C00081D6C00081D6C00084B
:100170001D6C00081D6C00081D6C000800000000CC
:100180002DE9F04F93B0CDE90A32DDE91C530E930F
:1001900053EC102BCDE90801104619468DED060BE6
:1001A0001E9E06F01BF980B1DDE906014FF0FF321B
:1001B000C54B06F03BF940B9DDE906014FF0FF32CF
:1001C0006FF4801306F014F970B1DDE908019DEDBC
:1001D000060B0E9B1E96CDE91C53DDE90A3213B0C7
:1001E000BDE8F04F00F088B90022DDE906010023E8
:1001F00006F0FEF8002800F03381DDE906A303F1E4
:10020000004BCBF30A5016F48063A0F2FF3008BF16
:1002100006250F9305F010FE9BA3D3E9002305F0FC
:1002200075FE9BA3D3E9002305F0BAFCCBF31304BE
:10023000894644F07F5180460022A44B504641F449
:10024000401105F0ABFC94A3D3E9002305F05EFE5A
:1002500002460B464046494605F0A2FC06F0F0F87F
:10026000044605F0E9FD8EA3D3E9002380468946C4
:1002700005F04CFE0022964B05F092FC06F0E0F8EB
:1002800089A3D3E9002307464946404605F03EFED0
:1002900080463846894605F0CFFD85A3D3E9002383
:1002A00005F034FE02460B464046494605F076FC12
:1002B00002460B46CDE90C2305F028FEDDE90C23B0
:1002C000804689461046194605F06AFC0022CDE9B1
:1002D0001001804B4046494605F042FF00227E4B0C
:1002E00005F05EFC02460B464046494605F038FFE5
:1002F00000227A4B05F054FC02460B464046494624
:1003000005F02EFFDDE90C238046894600204FF0E2
:10031000804105F043FC02460B464046494605F045
:100320003FFC02460B46DDE9100105F019FF07F21C
:10033000FF3700226A4B05F033FC00223B0505F035
:10034000E5FD52465B468046894606F06FF8002878
:1003500040F08980CDE90C8904F16303C72B34BFD9
:100360000427052731051BD553A3D3E900235046A5
:10037000594606F051F800287FD051A3D3E9002355
:100380005046594606F034F8002876D00027A5429A
:10039000C6BF2C1B04F1FF3500253C4646F48066A1
:1003A0000E9B9F422CBF4FF00008A3EB070816F0EE
:1003B000020903D0002F18BF4FF000083CB1DDE95F
:1003C0000C235046594605F0CBFE82468B46DDE9AC
:1003D00006010022002306F00BF810B10BF10043D8
:1003E0009B46DDE9080126F40063CDE90183DDE9E0
:1003F0000A324BEC10AB009500F07EF802465FB37A
:10040000DDE9091316F0200F00F10105089E0CBF6D
:1004100065204520B047DDE908010523002205934A
:100420000A23002CCDE9023207F1FF374FEAD473DB
:10043000B8BF64422A46019304970A9B009407F0D0
:10044000CFF90246B9F1000F06D00B9BC41A0B9BE3
:100450001A190E9BA34245D8104613B0BDE8F08F81
:10046000DDE906ABCDE60022404649461A4B05F0D1
:1004700077FE013CCDE90C016EE7002D90D00F9B7B
:10048000002B8DD0013D8BE7FB799F501344D33F68
:10049000B3C8608B288AC63F61436F63A787D23F8A
:1004A00071A379094F930A401655B5BBB16B024051
:1004B000EF39FAFE422EE63F2D431CEBE2361A3F9F
:1004C0000000000080842E41FFFFEF7F0000F83F16
:1004D0000000E03F00002C400000244000001840D5
:1004E0000000F03F2020DDE90913089DA8470134F2
:1004F000ADE700BF000000002DE9F04F5BEC10AB52
:1005000097B0CDE90501DDE92057CDE90723504635
:1005100052465B465946229E05F060FF70B90323A0
:10052000CDE902760193B04B0093DDE90501DDE9E9
:10053000072307F075F817B0BDE8F08F4FF0FF32D2
:100540006FF480135046594605F052FF28B104233A
:10055000CDE902760193A54BE6E74FF0FF32504616
:100560005946A34B05F062FF68B1A24A06F00403A6
:10057000002B08BF0322A04B1CBF13460422CDE969
:1005800002760192D0E7504693A3D3E9002359465F
:1005900005F04CFF38B992A3D3E9002350465946E1
:1005A00005F026FF68B1DDE90723DDE905014BEC25
:1005B00010ABCDE92176209517B0BDE8F04FFFF7DD
:1005C000DFBD002200235046594605F011FF0028E8
:1005D00000F09A805B4652460020002105F0DEFACA
:1005E000012382468B46099316F4806400F08E80C6
:1005F000092D40F28E80002430210EABA5F10902B6
:100600000134202C03F8011BA5EB040901D094420E
:10061000F6D15946504605F013FF784B054603EBDB
:10062000C90393ED007B8DED0A7B05F005FC0246C6
:100630000B465046594605F0B1FADDE90A2305F0AC
:1006400065FC02460B46CDE90C2305F021FF8046F0
:1006500005F0E2FB02460B46DDE90C0105F09EFACF
:1006600002460B46CDE90C230022654B05F0DEFE69
:10067000002851D008F10108404605F0CDFB0246A4
:100680000B46DDE90A0105F0BDFE10B14FF0000890
:100690000135B9F1000F50D1284605F0CDFB0246D7
:1006A0000B465046594605F079FA0022544B8046D5
:1006B000894605F09DFE30B1002240464946504B28
:1006C00005F0B4FE10B1E80700D501350A210EABE4
:1006D0001A19202C0AD095FBF1F001FB105530358A
:1006E00002F8015B013405460028F2D106F003024E
:1006F000012A57D1002F55D0099A12B916F00C0FC4
:1007000000D0013F302245E009906DE74FF0060927
:100710007FE7A94600247CE70022DDE90C01384B85
:1007200005F066FE0028B4D1B8F1000F02D018F031
:10073000010FAED008F10108ABE70A210EAB23444C
:10074000202C0ED0B8FBF1F001FB1082B8F1090F9C
:1007500002F1300209F1FF3904F1010403F8012B21
:1007600011D83021A1440EAA202CAFD0A14504F10C
:1007700001030AD11C4609F158030DEB03092E238E
:1007800009F8203CA2E78046DAE7A1541C46EBE7D3
:100790001A550134A74205D9202CF9D1CDE90276AA
:1007A0000194C1E6202CF9D0099A3AB12D2104F127
:1007B00058026A4402F8201C0134EFE7710704D59F
:1007C00004F158022B216A44F4E73207E6D504F11C
:1007D000580220216A44EDE70000000065CDCD41BC
:1007E0000000000065CDCDC1DC860008E086000871
:1007F000FFFFEF7FD3860008D8860008E886000850
:100800000000E03F0348044B834202D0034B03B196
:100810001847704788110020881100200000000050
:10082000064B0749C91A891048BF0131491003D046
:10083000044B0BB101481847704700BF88110020D6
:10084000881100200000000010B5064C237843B941
:10085000FFF7D8FF044B13B10448AFF30080012326
:10086000237010BD1C58012000000000D492000825
:1008700008B5054B1BB105490548AFF30080BDE83D
:100880000840FFF7CDBF00BF00000000D05101209D
:10089000D4920008A3F5803A704700BF174B002B95
:1008A00008BF134B9D46FFF7F5FF00218B460F460F
:1008B0001348144A121A07F09AFA0E4B002B00D074
:1008C00098470D4B002B00D09847002000210400D2
:1008D0000D000D48002802D00C48AFF3008006F050
:1008E00041F92000290003F0B7FE05F081FF00BFA9
:1008F00000000800000000000000000000100020C0
:10090000CC11002048580120000000000000000029
:1009100038B504460D4601B118B93721034806F031
:1009200045F923682B60256038BD00BFE07E0008D4
:1009300070B5D0B1C9B10E4E431E013913F8014F45
:100940002046325D02F00302012A11F8012F08BF90
:1009500004F12000B55C05F00305012D08BF20322D
:10096000801A01D1002CE9D170BD0120FCE700BF45
:10097000D29100080348044A0449121A921006F062
:100980004EB900BF709400087094000848580120C8
:1009900008B500F02FF8FFF7EDFF124B12498B421C
:1009A00012D30020114B12498B4218D3FFF776FF68
:1009B000186850F82240586840F822400132986880
:1009C0008242F5D30C33EAE70022F8E71C6844F8CA
:1009D000220001325C68A242F8D30833E4E7002227
:1009E000F8E700BFDC920008E8920008E8920008EF
:1009F000E89200084FF480414FF0FF30114B124A4B
:100A000010B59A60D3F8882042F47002C3F88820A9
:100A10000E4A91660E4901F5005210660D48506667
:100A20000220C3F8D000BFF34F8FBFF36F8F0124B4
:100A30004FF440330848C0F88041D36004600B6134
:100A400010BD00BF00ED00E0000000080090005065
:100A5000008000447FFF7F0300E100E0014B186845
:100A6000704700BF04100020014B1860704700BFA2
:100A700004100020084B1B6F03F00703022B04D067
:100A8000032B05D0012B05D0FEE7044B18687047F7
:100A9000034BFBE703487047008000500410002020
:100AA0000C100020002D310108B5FFF7E3FF054BC6
:100AB0001B6FC3F303330133B0FBF3F0024B186039
:100AC00008BD00BF008000500010002000487047A3
:100AD00000B4C404014B1868704700BF0C1000201C
:100AE000054B1860054B1B6F03F00703032B01D167
:100AF000FFF7DABF704700BF0C10002000800050E5
:100B000000487047002D31014FF0B4439868C0F39E
:100B100004400C280AD8DFE800F00B09090909098C
:100B2000072119091B1D1F000F487047002070473F
:100B30009B6803F04073B3F1807F11D0B3F1007F65
:100B400010D00A4A002B08BF10467047084870476B
:100B50000848704708487047084870470848704779
:100B60000848704708487047405DC60000093D00CE
:100B7000C0EA210180BA8C010048E801005A6202F3
:100B80000024F40080841E0040420F00014B1868CE
:100B9000704700BF081000202DE9F04F9A46564BD1
:100BA00085B01B7806460F461546DDF83C909DF84B
:100BB00044B0DDF85080002B00F09780072A00F247
:100BC00096800E9B002B00F09280B9F1000F00F090
:100BD0008E80129BB3F5006F00F38980012803D14A
:100BE000109B002B00F08380444B03EB05131B7B11
:100BF000002B7ED0424C10220021684607F0F7F807
:100C000004EB45141022A7BB3946204607F0EFF845
:100C100043F210036380BBF1000F03D1E37843F08C
:100C20000303E370364A0E9B02EB451CCCE90193AB
:100C3000129B6901581E9DF84C30C0F30A0003F066
:100C400003039B0643EA001E53582E48012E00EA78
:100C500003004EEA0003CDF800A0535017D0B8F1BE
:100C6000000F2ED19CF8023068F304138CF8023088
:100C700027E00021204607F0BAF84FF44473638060
:100C8000BBF1000FCED1E37843F03003C9E7132363
:100C90000CF1100ECCF80C309CE80F008EE80F0021
:100CA0006FF00301DCF81C20109B61F39F02012F01
:100CB000CCF81C20CCF8143003D1CCF81890CCF828
:100CC000043000270D4A290102EB051342F8018088
:100CD000159A28465A60694622469F605E7301F065
:100CE00045FD384605B0BDE8F08F0748FAE70748EC
:100CF000F8E70748F6E700BF1D580120E852012039
:100D0000E85101200F80FFF3028000F0018000F025
:100D1000078000F038B5124B05461B78DBB1E0B117
:100D200005F0E8FF0F4A00231146147B54B92B60ED
:100D300001251A0101EB03131D738C5005F0E0FF30
:100D4000204638BD0133082B02F11002EDD105F029
:100D5000D7FF0548F5E70548F3E70548F1E700BF89
:100D60001D580120E8520120048000F0028000F0AC
:100D7000018000F038B505F0BDFF002305460B4AA1
:100D8000147B6CB90133082B02F11002F8D101F089
:100D900065FC074B28461C7005F0B2FF204603E0B7
:100DA000284605F0ADFF034838BD00BFE8520120DA
:100DB0001D580120058000F00D4B10B51B7804462E
:100DC00093B1072812D805F095FF0A4B03EB0413E3
:100DD0001A7B2AB100241C7305F092FF204610BD37
:100DE00005F08EFF0448FAE70448F8E70448F6E700
:100DF0001D580120E8520120068000F0028000F01A
:100E0000018000F0154B13B51868002301908DF890
:100E1000043005F06FFF124B1C7824B105F070FF11
:100E2000104802B010BD01221A7005F069FF0E4B88
:100E300001A81C731C7783F82C4083F83C4083F88E
:100E40004C4083F85C4083F86C4083F87C40082376
:100E50008DF8073001F040FC2046E2E7497F0008AA
:100E60001D580120038000F0E85201200A4A08B50D
:100E700012785AB107280BD8084A02EB00131B7BE3
:100E800043B1002101F008FC002008BD0448FCE744
:100E90000448FAE70448F8E71D580120E852012009
:100EA000028000F0018000F0078000F00A4A08B5D7
:100EB00012785AB107280BD8084A02EB00131B7BA3
:100EC00043B1012101F0E8FB002008BD0448FCE724
:100ED0000448FAE70448F8E71D580120E8520120C9
:100EE000028000F0018000F0078000F00A4A08B597
:100EF000127852B107280AD8084A02EB00131B7B6C
:100F00003BB101F0B5FC002008BD0548FCE70548F1
:100F1000FAE70548F8E700BF1D580120E852012014
:100F2000028000F0018000F0078000F00D4B1B787C
:100F300093B1072812D889B10B4B03EB00131B7B2D
:100F400073B10A4B1A6D01238340134214BF01236E
:100F5000002300200B707047054870470548704714
:100F6000054870471D580120E85201200000045038
:100F7000028000F0018000F0078000F00B4A10B5FD
:100F800012780C4662B107280CD859B1084A02EB16
:100F900000131B7B43B101F087FC2070002010BDC3
:100FA0000448FCE70448FAE70448F8E71D58012024
:100FB000E8520120028000F0018000F0078000F07C
:100FC000184B2DE9F0411F6D5B6D1F4000D5FEE70A
:100FD00001260025144CDFF85880374218D02368CA
:100FE000C8F85060A3B1A168284601316268A160C9
:100FF0009847637B012B0BD150B90C4B03EB451386
:101000001A7B60F341021A731A7F60F341021A7768
:101010000135082D4FEA460604F11004DDD1BDE884
:10102000F08100BF00000450E8520120E851012087
:1010300000200450044BD3F88420D206FBD4D3F80C
:101040008400C0F3811070470040005008B5334B56
:1010500098424FD027D8324B984245D017D8314BC1
:1010600098423ED00AD838B12F4B984239D041F23D
:1010700086312E4805F09AFD002034E02C4B984232
:101080002FD02C4B9842F2D12B4B586E2BE02B4B90
:1010900098422CD003F5371303F5D8639842E6D174
:1010A000254B986F1FE0264B98422FD00CD8254B2C
:1010B000984223D0244B984224D0244B9842D6D136
:1010C0001D4BD3F884000EE0214B984222D003F54B
:1010D000740303F510539842C9D1174BD3F8980005
:1010E00001E0154B986D08BD134B186FFBE7124BD1
:1010F000586FF8E7104BD3F88000F4E70E4BD3F8A5
:101100008800F0E70C4BD3F88C00ECE70A4BD3F8DF
:101110009000E8E7084BD3F89400E4E780BA8C012C
:10112000405DC60080841E0040420F004D7F0008D5
:1011300000093D00C0CF6A000080E00F0024F400E9
:10114000007E560380D54302006CDC020048E801B3
:101150000090D00338B5124B0546D3F880300C46CA
:1011600003F00303022B0BD0032B0DD0012B0FD167
:10117000FFF780FC0D2305B1286004B1236038BD62
:10118000FFF7C2FC0723F6E7FFF768FC0623F2E748
:10119000044841F2DF1105F009FD00231846EAE793
:1011A000008000504D7F000838B51A4B0546D3F833
:1011B00020010C4600F00700062821D8DFE800F0E7
:1011C00028040C1410181C00FFF748FC052305B177
:1011D000286004B1236038BDFFF77CFC0323F6E7E9
:1011E000FFF792FC0723F2E7FFF78AFC0223EEE702
:1011F000FFF734FC0623EAE7FFF76CFC0423E6E77D
:10120000054841F25C2105F0D1FC00231846DEE7D9
:101210000123DCE7008000504D7F000838B5194BF2
:101220000546D3F828310C4603F00703013B052B94
:1012300020D8DFE803F003131B0F0B17FFF70EFC9A
:10124000052305B1286004B1236038BDFFF706FC13
:101250000623F6E7FFF758FC0723F2E7FFF73AFC0F
:101260000323EEE7FFF736FC0423EAE7FFF748FC29
:101270000223E6E7044841F2640105F097FC0023ED
:101280001846DEE7008000504D7F0008F7B50027C4
:10129000144B0197D3F88041064604F00304022C56
:1012A0000D4614D0032C0DD0012C14D1394601A8C1
:1012B000FFF77AFF0F240EB1019B336005B12C605C
:1012C00003B0F0BDFFF720FC07240190F3E7FFF720
:1012D00017FC0190EFE741F2B131034805F066FCDD
:1012E0003C46E8E7008000504D7F000838B50F4BC2
:1012F0000546D3F890320C4603F00303012B09D0C6
:10130000022B0BD1FFF700FC072305B1286004B1C5
:10131000236038BDFFF7F4FB0223F6E7044841F2EF
:10132000501105F043FC00231846EEE70080005002
:101330004D7F0008002337B50193194B0546D3F8BC
:1013400020320C4603F00703042B1FD8DFE803F01C
:1013500025030F141900002101A8FFF75FFF1123D7
:101360000DB1019A2A6004B1236003B030BDFFF7CC
:10137000CBFB07230190F3E705F05EFC0A23019005
:10138000EEE7FFF703FC09230190E9E741F22301AF
:10139000044805F00BFC0023E2E70123E0E700BF6F
:1013A000008000504D7F000838B5104B0546D3F83B
:1013B00040310C4603F00303022B0BD0032B0DD05E
:1013C000012B0FD105F038FC0A2305B1286004B1C8
:1013D000236038BDFFF7DAFB0923F6E705F02FFCA1
:1013E0000B23F2E701230020EFE700BF008000504D
:1013F000002337B50193184B0546D3F860320C46ED
:1014000003F00703013B032B1FD8DFE803F0020EB4
:101410001914002101A8FFF7C7FE0F230DB1019A8F
:101420002A6004B1236003B030BD002101A8FFF79A
:10143000BBFF1023F2E7FFF767FB07230190EDE7FF
:10144000FFF75EFB02230190E8E741F2C801034881
:1014500005F0ACFB0023E1E7008000504D7F000861
:1014600073B500240F4B0194D3F87032064603F095
:101470000303012B0D4607D0022B11D041F2261198
:10148000094805F093FB04E0214601A8FFF78CFF13
:1014900010240EB1019B336005B12C6002B070BD09
:1014A0001424F6E7008000504D7F000838B5164B35
:1014B0000546D3F800020C4600F00700042819D8AE
:1014C000DFE800F020030B0F130005F0B5FB0A2343
:1014D00005B1286004B1236038BDFFF757FB09232D
:1014E000F6E705F0ACFB0B23F2E7FFF7DDFA0E237E
:1014F000800AEDE7054841F26F4105F057FB0023F4
:101500001846E5E70123E3E7008000504D7F00081F
:1015100038B5164B0546D3F808020C4600F0070014
:10152000042819D8DFE800F020030B0F130005F0A2
:1015300083FB0A2305B1286004B1236038BDFFF79F
:1015400025FB0923F6E705F07AFB0B23F2E7FFF70B
:10155000ABFA0E23800AEDE7054841F2A74105F0FA
:1015600025FB00231846E5E70123E3E70080005050
:101570004D7F000838B5104B0546D3F840320C4675
:1015800003F00303022B0BD0032B0DD0012B0FD143
:1015900005F052FB0A2305B1286004B1236038BD71
:1015A000FFF7F4FA0923F6E705F049FB0B23F2E70E
:1015B00001230020EFE700BF0080005038B5124B38
:1015C0000546D3F850320C4603F00303022B0FD02C
:1015D000032B05D0012B0FD105F02EFB0A2302E0CF
:1015E00005F02DFB0B2305B1286004B1236038BD45
:1015F000FFF7CCFA0923F6E7044841F2940105F01D
:10160000D5FA00231846EEE7008000504D7F000811
:1016100038B5104B0546D3F860310C4603F0030390
:10162000022B0BD0032B0DD0012B0FD105F004FBA7
:101630000A2305B1286004B1236038BDFFF7A6FA7C
:101640000923F6E705F0FBFA0B23F2E7012300205C
:10165000EFE700BF00800050B0F5207F10B52ED01E
:1016600009D8B0F5007F24D003D868B1B0F5C07FA9
:101670000AD000241BE0B0F5607FFAD1124BD3F8FA
:101680008040C4F3011412E00F4B1C6F230B13F0C6
:101690000E0FC4F303340AD0072C08D00F2C06D049
:1016A000032C04D040F28521084805F07FFA601C25
:1016B00010BD054BD3F89040C4F30464F7E7024B28
:1016C0001C6FC4F38024F2E7008000504D7F0008B7
:1016D0004FF4803238B5104B04469A6600200D4610
:1016E000FFF7BAFF41F671320C4B6043DC69DA63F5
:1016F0005A6804F4803422F440125DB908498842E3
:1017000094BF00200120000502435A600CB1002262
:10171000DA6338BD0349F2E700900050000003503F
:10172000005A6202002D310138B5430904460D46C6
:101730000ED140F22F310D4805F038FA002304F0A5
:101740001F0485B103F580530122A2401A6038BD01
:10175000012B04D0022B04D040F23D31EBE7044BC7
:10176000EDE7044BEBE703F50053EDE74D7F000891
:101770006480005068800050002130B5B0F5807F53
:1017800085B00446CDE9001100F006816BD8002831
:1017900000F0DB80A0F12004602C75D8602C73D899
:1017A000DFE814F0D300E000D300E000F000F00028
:1017B000F000F000F000E000F5007E000B019E005C
:1017C0007E00E000E000E000720072007200720033
:1017D0007200720072000B01E000E000E0002301E3
:1017E0001001E0007200720072007200720072005C
:1017F0007200720072007200720072001501F00037
:10180000D300D300D300B1007E007E00B9001A01DE
:101810009300C800C800720072007200720072006B
:101820007200720072007200720072007200720028
:101830007200720072007200720072007200720018
:101840007200720072007200720072007200720008
:1018500072007200720072007200720072007200F8
:1018600072007200CD00B0F5E06F00F0AB803CD8A4
:10187000B0F5607F00F081801DD8B0F5007F67D0A3
:1018800008D8B0F5C07F60D040F29441594805F0C7
:101890008DF957E0B0F5207F64D0B0F5407FF3D1EB
:1018A000FFF702F904464FF42070FFF7D5FEB4FBB2
:1018B000F0F464085FE0B0F5B06F68D00AD8B0F516
:1018C000806F5FD0B0F5A06FDED100216846FFF7D2
:1018D00031FD37E0B0F5C06F6FD0B0F5D06FD3D128
:1018E00000216846FFF7E2FD2CE0B0F5286F73D0C9
:1018F00016D8B0F5186F6AD00AD8B0F5F06F74D06A
:10190000B0F5106FC0D100216846FFF701FE19E065
:10191000B0F5206FB8D100216846FFF769FD11E0EE
:10192000B0F5306F5DD0AFD3B0F5386F45D0B0F5BE
:10193000406FA9D100216846FFF770FC02E0FFF775
:1019400099F80090009805B030BDFFF7ADF8F8E7C2
:10195000FFF790F805462046FFF77EFEB5FBF0F551
:101960000095EFE7FFF7A0F804464FF42070FFF76B
:1019700073FEB4FBF0F40094E4E701A8FFF7EAFB80
:10198000019DE8E700216846FFF70EFCDAE7002139
:101990006846FFF77BFCD5E74FF0E02302911B6917
:1019A0005B0705D5FFF780F80290029B0093C9E71B
:1019B00003A902A8FFF7F8FCF7E700216846FFF744
:1019C000F3FCBFE700216846FFF7D4FDBAE700212A
:1019D0006846FFF7F3FDB5E700216846FFF740FDD5
:1019E000B0E76846FFF782FCACE700216846FFF7E6
:1019F0000FFEA7E74D7F000808B58020FFF7BCFE6B
:101A0000034B98429EBF4FF48032024B1A6708BDC9
:101A1000005A620200A000501FB503460020B3F533
:101A2000607F019000F00E817BD8582B68D8382B4E
:101A300005D8243B092B49D940F27951CEE0393BF6
:101A40001F2BF9D801A252F823F000BFFF1B00089A
:101A5000391A0008391A0008391A0008091C000848
:101A6000571C0008391A0008391A0008391A0008EA
:101A7000391A0008391A0008391A0008391A0008FA
:101A8000391A0008391A0008391A0008391A0008EA
:101A9000391A0008391A0008611C0008491B00089F
:101AA000391A0008391A0008391A00088D1B000875
:101AB000391A0008391A00086B1C0008751C000848
:101AC0004D1C0008AF1B0008AF1B0008092BB3D842
:101AD00001A252F823F000BF491B0008491B00086F
:101AE000491B0008491B0008491B0008391A000857
:101AF000E51B0008391A0008FF1B0008671B0008D7
:101B0000802B59D0B3F5807F96D14FF0E02302901F
:101B10001B695B076ED5FEF7C7FF0C230393039B7E
:101B200056E0B3F5086F74D022D8B3F5C06F66D015
:101B30000FD8B3F5A06F00F08980B3F5B06F51D026
:101B4000B3F5806F7FF478AF002001A9FFF72CFB7D
:101B50004CE0B3F5E06F7ED0B3F5F06F54D0B3F541
:101B6000D06F7FF469AF002001A9FFF79FFC3DE033
:101B7000B3F5286F7ED00ED8B3F5186F70D0B3F5DB
:101B8000206F72D0B3F5106F7FF456AF002001A91B
:101B9000FFF7BEFC2AE0B3F5306F70D0FFF44CAF16
:101BA000B3F5386F2BD0B3F5406F7FF445AF00200D
:101BB00001A9FFF733FB19E0334B1B6F03F0070359
:101BC000013B032B08D8DFE803F005023139052378
:101BD00001930BE00223FBE740F2C6412B4804F0DF
:101BE000E5FF03E0002001A9FFF750FB019805B0D5
:101BF0005DF804FB03A902A8FFF7D6FB8FE70020DE
:101C000001A9FFF7D1FBF1E7002001A9FFF700FDD3
:101C1000ECE71D4BD3F8003103F00303022B07D090
:101C2000032B09D0012B0BD1FEF754FF0323CFE781
:101C3000FEF7ACFF0923CBE704F0FCFF0823C7E75E
:101C40000123C5E701A9FFF785FACFE7002001A925
:101C5000FFF770FBCAE7002001A9FFF78BFCC5E77F
:101C6000002001A9FFF7AAFCC0E7002001A9FFF7A7
:101C7000BFFBBBE7002001A9FFF7F2FBB6E701A914
:101C8000FFF734FBB2E700BF008000504D7F000833
:101C9000F8B5036804460F2B04D940F66D3180482F
:101CA00004F084FF63680F2B04D94FF437617C483C
:101CB00004F07CFFA3680F2B04D940F673317848F9
:101CC00004F074FF237B0F2B04D940F6763174485F
:101CD00004F06CFF637B0F2B04D940F67931704818
:101CE00004F064FFA37B3F2B04D940F67C316C48A1
:101CF00004F05CFFE37B3F2B04D940F67F3168485A
:101D000004F054FF2369032B04D940F68231644860
:101D100004F04CFF6369032B04D940F68531604819
:101D200004F044FFE369032B04D940F688315C4892
:101D300004F03CFF8020FFF76FFE032800F08A804C
:101D40004FF48012574B584D5A6645F60E034FF02C
:101D5000A062C5F88030554B9A624FF4803203F58B
:101D600080539A62AB6DDA03FCD4AE6D16F08046F8
:101D7000FBD1D4E900231B0543EA0263E27B4C4814
:101D80001343227B4B4F43EA0243627B43EA023315
:101D9000A27B43EA82132B61AA69D4E904131B06D0
:101DA00043EA816302F000421343A27E4FF4406194
:101DB0001343227E43EA0243627E43EA0223AB617D
:101DC0004FF4006204F058FF2B6AE17EE26923F0D1
:101DD0000F0343EA8103002A3DD12B6294F824309B
:101DE00094F82010AA6ADB0043EA41133A401343F7
:101DF00094F82120304943EA021343F480332A4AFD
:101E0000AB62936D31EA0303FBD14FF08071274839
:101E100081621369A56823F4700343EA05531361D3
:101E20004FF00043836194F822300BB9234B996241
:101E300094F823303BB94FF48032204B9A621A4A0F
:101E4000936D5B00FCD494F825301BB1164B1C4AF3
:101E5000C3F88020F8BD134343F00803022A2B6225
:101E600008D12E614FF408524FF47F411548AE61FE
:101E700004F002FF0C4994F822308A6A94F820009A
:101E80001B063A4043EA4013134394F8242043EAE4
:101E9000C20394F8232043EA02438B62D3E700BFD6
:101EA0004D7F0008009000500040005A0050005A3A
:101EB0003840005AC7FFFEFE030001000060005AD0
:101EC000F1A7FFFF3440005A014B93F9000070471F
:101ED0007C110020436810B5072B044604D940F656
:101EE000B3512A4804F062FEA368032B04D940F6DC
:101EF000B551264804F05AFE2378032B04D940F646
:101F0000B751224804F052FE94F90130002B04DA54
:101F100040F6B9511D4804F049FE4FF400011C4A37
:101F2000637851664FF4D151022002F5B832516204
:101F300018494F2B48604FF0010028BF4F2301F58F
:101F4000805148601169C903FCD4217843EA012318
:101F50005361D4E901131B0143EA0123617B0B4365
:101F6000217B43EA41039360E37BA17B1B0143EAAE
:101F70004113617C0B43217C43EA41035360A37C02
:101F800013B16FF4D153536210BD00BF4D7F0008F1
:101F90000090005000100250014B1880704700BFA5
:101FA0007A110020014B1880704700BF7811002083
:101FB000B0F5207F38B577D00ED8B0F5007F61D06E
:101FC00003D890B3B0F5C07F2FD040F21231BDE8F6
:101FD00038403D4804F0EABDB0F5607FF5D13B4A9A
:101FE0004C1ED2F8FC5015F080751EBFD2F8FC30A4
:101FF00023F08073C2F8FC30032C04D940F2F221A4
:10200000314804F0D3FD324AD2F8803023F0300357
:1020100043EA0413C2F8803035B12C4AD2F8FC30C0
:1020200043F08073C2F8FC3038BD4C1E012C0AD935
:10203000102903D8274BCB40DB0704D440F2C7213B
:10204000214804F0B3FD04F026FE04F032FE4FF404
:102050008031214B1E4A1967136F23F4704343EA02
:1020600004331367FEF720FD0446FEF7E3FFC0F1DB
:102070000201204604F017FE00F040F8BDE83840A9
:10208000FFF7BABC4C1E1F2C04D940F206310E4893
:1020900004F08CFD0E4AD2F8903023F0F85343EA56
:1020A0000463C2F89030BFE74C1E012C04D94FF4F2
:1020B0004371054804F07AFD054A136F23F48063E9
:1020C00043EA84231367AFE74D7F000800ED00E08B
:1020D00000800050100101000090005008B501215F
:1020E000022000F073F904F0D6FD04F0E2FD4FF495
:1020F0008032014B1A6708BD0090005008B54FF4BC
:10210000C070FFF739FBBDE808400449884294BF1E
:10211000012102214FF42070FFF74ABF80F0FA023C
:102120004FF4C02201212DE9F0470446944B5A6632
:10213000944A03F598335F6851605D6815F00205B5
:10214000FBD12268904B9A4204D84FF426618F4805
:1021500004F02CFD22688E4B9A4204D940F661218E
:102160008A4804F023FDA388B3F5967F04D840F68F
:102170006421864804F01AFDA388B3F5805F04D378
:1021800040F66521814804F011FDE388B3F5805FD6
:1021900004D340F666217D4804F008FDFEF74AFFAF
:1021A000012820680AD17B4B984207D940F66B2161
:1021B000764804F0FBFC0020BDE8F087764A002357
:1021C00011461668B04202D35668B04205D90133B1
:1021D000192B02F11002F4D1002301EB0313D3E910
:1021E000029028B1FEF732FF00F07F0049EA0009B3
:1021F0008020FFF711FC052840F0988004F04BFD8B
:1022000004F057FD4FF480325D4B4FF4C0701A67F5
:10221000FFF722FA0128054640F0848002214FF49E
:10222000C070FFF7C5FE0126DFF87881D8F80C30C2
:1022300013F0060FFAD1D8F808A0C8F80890D8F81B
:10224000083083EA090313F4F81F71D1A288E388E8
:1022500043EA0243514AD360A368032B7BD1504A1F
:10226000D2F8003123F0030343F00103C2F8003138
:10227000637D227D9B0143EA820322694FF00008BF
:102280001343227B43EA4203444A93602068FEF7EB
:10229000EBFB07223B4B1A610122A3F580535A60E6
:1022A000A3F580531F6917F00707FBD08020FFF7C5
:1022B000B3FB05282ED126B129464FF4C070FFF795
:1022C00077FEFEF7F1FB23680546834204D240F611
:1022D000E6212E4804F06AFCFEF7C0FBA84204D2B7
:1022E00040F6E721294804F061FC2468FEF7B6FBBC
:1022F000844204D040F6E821244804F057FCFEF75D
:1023000099FEC0F10201284604F0CDFCFFF7F6FE6D
:10231000FFF772FBB8F1000F7FF44DAF7B1E584200
:10232000584149E7022801D1042178E700267BE7DC
:1023300040F6B221154804F039FC17F00107C8F83F
:1023400008A01AD18020FFF767FB05287FF433AF80
:102350004FF00108AFE7092B07D1114AD2F800313D
:1023600023F0030343F0020380E7082B80D10C4ADB
:10237000D2F8003143F0030378E74FF0010888E713
:102380000090005000E001509FBB0D004D7F000801
:1023900000B4C404005A6202B47F000800C00150B7
:1023A0000080005000000150024A536B0342FCD1F0
:1023B000704700BF00400950034A0179D36E23F0F3
:1023C00030030B43D366704700400050F8B5044615
:1023D000244BD3F88420D006FBD4D3F88430C3F345
:1023E00081139C423CD0FEF745FB012C05460BD1E6
:1023F0001D4B984204D940F292711C4804F0D6FB60
:102400000121284604F04FFC04F06DFC4FF00072EF
:10241000174B07465A66204604F075FC4FF480635C
:10242000104E621E93403367736E9A0103D4D6F840
:1024300084309B060AD5384604F059FC022C0FD193
:102440002846BDE8F840002104F02DBCD6F88430C1
:102450009906E9D54FF4F461044804F0A7FBE3E7DB
:10246000F8BD00BF00400050005A620244810008DD
:102470000060005010B50C4608B9FEF7FBFA074B98
:1024800021461B783BB1064B984204D80120BDE899
:102490001040FFF79BBF0220F9E700BF1E58012044
:1024A000005A62024FF0004238B5244B244C5A6661
:1024B0004AF6CD33656C014605F00105236428BB5F
:1024C0000120FFF771FF6368DB0715D51D4B5860CE
:1024D00008461D4B226BD2070CD4984208D1072422
:1024E00015B1174B194A1A6404F00EFC204638BD8A
:1024F0000130EFE79842F2D00024F1E70132236B7C
:1025000013F0080305D08A42F8D1E8E700220E490B
:10251000F5E78A42E3D020210A4A91620121A2F51F
:10252000805251600649084A886A800603D4934263
:10253000D5D00133F8E79342DDE700BF00900050AB
:10254000004009500060095040420F003254FFFF24
:10255000032838B504460D4605D8094B33F810302A
:10256000CB40DB0704D440F22D41064804F01EFBAB
:10257000302301225C43044BAA401A5138BD00BFEE
:1025800078820008AA81000840D00350032838B59B
:1025900004460D4605D8094B33F81030CB40DB0715
:1025A00004D440F2FE31064804F000FB302301223F
:1025B0005C43044BAA401A5138BD00BF7882000822
:1025C000AA81000840E0035003282DE9F0410446A9
:1025D0000D461746984605D81D4B33F81030CB40B2
:1025E000DB0704D44FF4B0711A4804F0DFFA37B1B6
:1025F00029462046B8F1000F20D0FFF7A9FF0F2190
:10260000072D04EB440688BFA5F108034FEA061620
:10261000114895BFAB009B0004360C3607FA03F255
:102620009940304404F077FB7FB929462046B8F141
:10263000000F06D0BDE8F041FFF78ABFFFF7A6FF05
:10264000DDE7BDE8F041FFF7A1BFBDE8F08100BFC5
:10265000788200081182000830C003504FF48002D5
:102660000B4B10B5C3F88020BFF34F8FBFF36F8FB4
:102670000024FF22074B21465C6520209A625C60A3
:10268000FFF752F82146BDE810402120FFF74CB873
:1026900000E100E000000450072838B504460D466C
:1026A00003DD7721084804F081FA1F2C03D991211A
:1026B000064804F07BFA064A064B002D08BF134675
:1026C0000122A2401A6038BD80820008E78200081B
:1026D000401004504020045010B5044618B9912110
:1026E0001F4804F063FA23781B0613F0604F03D0F1
:1026F00092211B4804F05AFAE3780F2B03D9A32147
:10270000174804F053FA01212020FFF70DF80121AA
:102710002120FFF709F80122124B5A602278120695
:102720009A606178A27842EA01429A61FF229A6235
:1027300000229A631A644FF000425A654FF0FF324C
:102740004FF4800103F500531A65074AC2F880115F
:10275000E3781B01DBB282F81633116010BD00BFB5
:10276000808200080000045000E100E02DE9F04103
:102770000126C3B2072805460C46904606FA03F622
:1027800003DDEC21364804F011FA1CB9ED21344880
:1027900004F00CFA236823F47C1323F00F031BB11D
:1027A000F0212F4804F002FAA37A1B0413F47C0FE3
:1027B00004D040F209112A4804F0F8F9E37A1B0525
:1027C00013F07E6F04D040F20B11254804F0EEF9AF
:1027D000237B5B0513F0FE5F04D040F20D1120480F
:1027E00004F0E4F91F4B204F1E65AB00226803F193
:1027F000A04303F588235A60302202FB0575637BF2
:102800002B66E37AA27A1B0543EA0243227B43EA62
:102810004253EB6528F003032B6704F06BFA7B6DE2
:1028200033437B65237A13B13B6C33433B64637A58
:1028300013B1BB6B3343BB632279A37943EA0243F1
:10284000084A93616179E37943EA014307498B615F
:10285000054B56639E64BDE8F04104F051BA00BFD9
:102860008082000800200450000004500010045032
:1028700010B50124C3B2072804FA03F404DD40F2C2
:102880009711074804F092F904F034FA054B5A6D99
:1028900022EA04025A659C62BDE8104004F030BA96
:1028A000808200080000045010B50124C3B207283C
:1028B00004FA03F404DD40F2B5110A4804F076F995
:1028C00004F018FA084BDA6A224208D15B6B9C4389
:1028D0000CBF0124002404F013FA204610BD00248C
:1028E000F9E700BF80820008000004500B4B9842BB
:1028F00011D003F5804398420DD003F580439842F0
:1029000009D003F58043984205D003F58043C31AEC
:102910005842584170470120704700BF0080045062
:1029200030B4184CA04214D004F58044A0421BD00F
:1029300004F58044A04219D004F58044A04217D089
:1029400004F58044A04215D030BC8F210E4804F01D
:102950002DB9002006250D4C73B105FB001004EBCA
:102960008004626530BC70470120F3E70220F1E784
:102970000320EFE70420EDE705FB0011120204EB52
:102980008104EEE7008004504D830008008103506D
:1029900038B505460C46FFF7A9FF18B9B421214800
:1029A00004F004F9284604F0C5F9012205F50053A6
:1029B0001A632B6B9B07FCD4237962881B0243EAC2
:1029C0008243A27A1343627843EA8213E27A43EAAB
:1029D000C213227B43EA4213627B43EA0213A27BC7
:1029E00043EAC203E27B43EAC223A27943EA0243F9
:1029F000E27943EA424301226B6005F580531A6392
:102A000022780AB90223EB6000236B626379217A92
:102A10001B0143EA8103617A0B43AB600AB10123D6
:102A2000EB6038BD4D830008F8B506460F461446E6
:102A3000FFF75CFF20B94FF48671254804F0B6F823
:102A4000022F04D940F20D11214804F0AFF83046AE
:102A500004F070F9012206F500531A63336B9B07EB
:102A6000FCD4637AE2791B0143EA0253A27906EBB4
:102A700047151343E27A43EAC2432B66237A1BB31A
:102A8000237B2A6E394642EA43422A66013B18BF3D
:102A900001233046A278FFF743FF012306F5805655
:102AA0003363637822781B0643EA8263E27843EA61
:102AB0000233227943EA8223627943EA0223A27A2B
:102AC00043EA82036B66F8BD2B6E2B66E5E700BF19
:102AD0004D830008F8B507460C461D4616464AB910
:102AE0004FF4A171314804F061F824B1402D09D1AF
:102AF000062328E021B94FF42070FEF73DFE04467E
:102B0000402D42D0402D09D87DB1202D17D040F264
:102B10008911BDE8F840254804F048B8602DF6D189
:102B2000B6EB940F3CD804230DE0B6EB141F04D988
:102B30004FF4BA711D4804F039F8102303E0B6EBE6
:102B4000D40F1CD808235E43730803EB4413B3FB74
:102B5000F6F3174E203BB6EBC30F4FEAC30404D283
:102B60004FF4D071114804F021F8BB68344023F0D1
:102B70006003BB60BB681D43BD60FC61F8BD40F2F3
:102B800079110A4804F012F8DCE70623B4FBF3F3EA
:102B9000B342ADD24FF4BF71044804F007F8A7E781
:102BA00040F28311014804F001F8BCE7B583000846
:102BB000F8FF7F0038B50C4B044698420D4604D010
:102BC0004FF43371094803F0F1FF012204F58053FB
:102BD0005A60EB43934003F00A036361656115B9E2
:102BE00004F50054626038BD00C00550B58300088C
:102BF000124B10B59842044604D040F242411048AE
:102C000003F0D4FF012104F58053596040F6AA6314
:102C100041F20502636100230A48A360E365E260B4
:102C200004F500522361E361E36490640348A36503
:102C3000844204BF23656365516010BD00C0055028
:102C4000B5830008FFFF0100304B70B59842044681
:102C50000D4604D040F2FD212D4803F0A7FF204689
:102C6000FFF7C6FF012304F580567360AB7C1BB1F0
:102C7000A36843F08043A360EB7C5BB1234B9C4291
:102C800002BF2A7DA3F51033C3F8D421E36D43F0CE
:102C90008003E3652A8A6B7B20461343EA8913434A
:102CA000E3602B7BD5E90112FFF714FF6B7D1BB1AD
:102CB000A36843F48033A360AB7D1BB1A36843F4E6
:102CC0000043A360EB7D2A7E1B07120502F4E0029D
:102CD00003F0E0431343A3656B7E9A1E012A4FF075
:102CE000020209D80B49032BC1F8982709D1042304
:102CF000F3652B78636170BD0749012BC1F89827F4
:102D0000F4E7042204F50053DA65F2E700C0055049
:102D1000B583000800D0035000E0035010B54FF415
:102D20002F720021044605F062F88023C4F88C302D
:102D3000054B04F19C00C4F88430012384F88830EA
:102D4000BDE8104003F033BF1D84000810B5D0F873
:102D5000A0400A4684B904F0AFF9044610B9002433
:102D6000204610BD2D2896BF064B074953F820106A
:102D7000064804F0E7FAF3E7D0F8A4101046A0479D
:102D8000EDE700BFC484000820840008548C0008CC
:102D9000F8B590F88060044616B100263046F8BDBC
:102DA00003F0D7FF0028F8D1012384F8803094F88D
:102DB000883033B1D4F88410194884F8886004F05E
:102DC000C1FA4FF0FF37D4F8B402421C1CD0C4F84B
:102DD000B47210F0FF0520D0204603F0B7FF29465B
:102DE000204600F0AFFB0028EDD0204603F0B3FFF3
:102DF00094F888306BB1D4F88410094804F0A2FA32
:102E0000002384F8883004E004F081FA431CE0D108
:102E10000126002384F88030C0E70126D3E700BFF5
:102E2000F7850008F8B50B780446302B0D4616469A
:102E300004D14B7803F0DF03582B11D0284F6A1EC2
:102E400012F8011F002934D128460A2203F07AFE25
:102E5000202C03460D4631D1B1FA81F040091AE029
:102E60004A1C1F4912F8013F8BB9284605F00BF8A0
:102E70001C4B02382340032B12D10134A41084428E
:102E80000AD1A87837288CBF0020012003E0CB5C52
:102E900013F04400E6D1F8BDCCBF01200020FAE7D2
:102EA000002CB8BF0334B0EBA40FD4BF0120002026
:102EB000F1E77B5C13F00400C2D1ECE726B10843D4
:102EC00002D0013B61F100050122A240013A1A4003
:102ED000002D08BF9A420CBF01200020DBE700BF95
:102EE000D291000803000080F0B5037801467B2BE7
:102EF00017D10646022400220B4F16F8015F7D2DE4
:102F000005D10B5D6BB9D24302F0010008E07B5D97
:102F100013F0440002D001320134EEE7202DFBD043
:102F2000F0BD0020FCE700BFD291000870B5064656
:102F30000D4604F0A8FF0446304604F003FA044EA0
:102F4000AC4200D370BD304604F0FCF90134F7E721
:102F5000EA8500082DE9F84F044602216048FFF792
:102F6000E5FF1E212068FFF7E1FF6368586804F061
:102F7000E9F95C4804F0E6F967683B7BFD2B12D861
:102F8000D7F808804FF0FF34404604F07CFF064637
:102F9000DFF84C91DFF8A8A1DFF864B10C3717F81F
:102FA000013BFF2B01D1BDE8F88F212B14D8212B39
:102FB00014D8DFE803F0178C8884807C78741313AE
:102FC000131313131313706C6864605C5854131359
:102FD000131313131313504CFE2B34D006B10134CA
:102FE000414D02E006B10134404D02214846FFF751
:102FF0009DFF1E214846FFF799FF504604F0A2F9B5
:103000005946284604F020FF3949002818BF2946B0
:10301000384804F097F93B78202B02D12B2004F09C
:1030200085F9354804F08EF94EB118F804301F2B9D
:1030300005D018F804001F2801D0B4424BDB294802
:1030400004F080F9ABE706B101342C4DCDE706B1B1
:1030500001342B4DC9E7002EA1D001349FE706B102
:103060000134284DC1E706B10134274DBDE706B153
:103070000134264DB9E706B10134254DB5E706B157
:103080000134244DB1E706B10134234DADE706B15B
:103090000134224DA9E706B10134214DA5E706B15F
:1030A0000134204DA1E706B101341F4D9DE706B163
:1030B00001341E4D99E706B101341D4D95E706B167
:1030C00001341C4D91E706B101341B4D8DE706B16B
:1030D00001341A4D89E704F029F90134A9E700BF4A
:1030E000FE850008958C0008898500088385000806
:1030F000E0850008F7850008E48500089185000850
:1031000097850008A0850008A7850008B2850008FB
:10311000BC850008C6850008B1850008BB8500088D
:10312000C5850008CE850008D2850008DA8500082C
:103130007D85000884850008D98500087C85000805
:10314000E28500082DE9F04F93B005468B46002438
:103150000092049304F097FE1C9F049B05901C6052
:1031600028463C600AAA09A904F00DF9064658B998
:103170000A9804F088FE3446B146049B1860D5F8DE
:103180009C300393039B1BB9204613B0BDE8F08F1E
:10319000039B9B680193002B69D02E4416F8013BDA
:1031A000202B12D000260C237343019A02EB030A52
:1031B000D3580293002B55D0DDF82480C84551DB4D
:1031C0009AF808302BB1721C35E03B6801333B6044
:1031D000E4E73B68D5F894200299D21A049B1A6060
:1031E00012AB03EB890353F8203C1846069304F016
:1031F00006FE07900028E6D1029804F044FEDAF8B3
:1032000004100346087BD7F800A0FE28079A16D1C1
:1032100008F1FF38C8452ED00B680698029201933A
:1032200004F031FE0AF10103029A0344E95C21B182
:103230003B6009F101091646B5E70133F6E7D5F819
:103240009420A2EB0A029A42BDDC5846069304F091
:103250001AFE069B03447B2B1DD958461E4A009933
:1032600003F0C8FC2B46059A2A449A422AD1039BB4
:103270001B68039386E7D5F89420A2EB0A029A42D2
:10328000E3DDD1F8008058F80C2B82B9059B3B6038
:10329000049B1A60E6E75846029A009903F0AAFCDC
:1032A00058460E4A0099013403F0A4FC8BE75846B7
:1032B000009903F09FFC5846084A009903F09AFCD5
:1032C0000134E0E713F8011B0029CED14FF02001B3
:1032D00003F8011CC9E700BFE7850008EA8500087C
:1032E0002DE9F047002486B01C60DDE90EA80646F3
:1032F00089468AF800401168154888F8004017464A
:103300001D468DF81740FDF713FB18B901242B68F3
:1033100001332B600020D6F89C6036B914B101232C
:1033200088F8003006B0BDE8F087B06868B14B4659
:103330000021CDE902A8CDE900750DF1170203F0D7
:1033400058FE9DF81730002BE8D13668E5E700BF3E
:10335000EC8500082DE9F04300260446ADF5457DD7
:103360007C22314605A802AF049604F040FD80227D
:103370002046009703AB04A9FFF7E4FE01283ED1E5
:1033800004A804F080FD03993B68A0EB01080B44FE
:10339000234428EAE878054604A801444246184632
:1033A00004F064FD00F80860D4F89060039B39686D
:1033B000D4F890201944B14212DCD4F89410E81AE1
:1033C0000244C4F89020014404AAC4F89410D4180C
:1033D00025182B1B002B0DDC0DF5457DBDE8F0837A
:1033E000A05C03F0A3FFD4F8903001360133C4F899
:1033F0009030DBE714F8010B03F098FFE9E7EBDD11
:1034000024AD80223146284604F0F1FC44AB4FF451
:1034100000723146184604F0EAFC0DF1100903462B
:103420004A464FF00108314612F8016B002E49D18F
:1034300004A843F8281004F026FD2946334619F85D
:10344000016B0DF5887C5CF8042B824243D101337B
:10345000984501F8016BF2DAD4F89060039BB3420F
:1034600042DC2346354A04A9354803F06BFF284661
:1034700004F009FD0646039B3F68F61A1F44E01955
:103480001D4426EAE67204F198031744984204EBBF
:1034900007014ED204F1900399424AD96A1E81195C
:1034A0000B1A002B39DD12F8013F00F8013BD4F86C
:1034B00090300133C4F89030D4F894300133C4F81C
:1034C0009430EDE7202E01F1010104BF43F82810EC
:1034D00008F10108A8E70DF1100E7244D25CB24267
:1034E000B1D00022EA54B7E7D4F890300136E05C5E
:1034F00003F01CFFD4F890300133C4F89030ADE7EE
:10350000D4F89020013B0132C4F89020D4F89420E4
:103510000132C4F89420002BF2DC00232E44E35542
:10352000731B002B7FF758AF15F8010B03F0FEFE5D
:10353000F6E7294604F09AFC3346ECE71D840008C0
:10354000F18500082DE9F843D0E9245604460F46DA
:10355000002294F89830012B07D10A2F07D10023BD
:1035600084F898300020BDE8F88300F29F801B2F7C
:1035700001D10223F4E70D2F0DD1012384F89830F7
:103580000D2003F0D3FE0A2003F0D0FE002301201B
:10359000C4E92433E7E74FF00008082F84F8988047
:1035A00034D1454530DDB5420FD1384603F0BEFE7B
:1035B000202003F0BBFE013D384603F0B7FE013E7C
:1035C00004F80580C4E92456CCE7FBDA05F1FF399D
:1035D000384603F0ABFE04EB0903A6EB09026119C0
:1035E000184604F0EAFB04F806800146013E48480C
:1035F00003F0A8FE35464D4501DC4D46E2E70820C4
:1036000003F094FE013DF6E7ACD0DBE77F2F1CD141
:10361000002EA7DDB542A5DA6319691C21441846BE
:10362000721B04F0CAFB04F806800146394803F017
:1036300089FE0820013E03F079FEB542F9D1D4F8A5
:103640009430013BC4F894308CE70A2F98D0092FAE
:1036500003D12046FFF77EFE84E7D4F88C30013B8F
:10366000B3427FF77FAFB54204EB050805F10109CE
:103670000CDB384688F80070D4F89430C4F8909089
:103680000133C4F8943003F051FE6BE74146721BDE
:1036900004EB090004F091FB404603F053FE0820C0
:1036A000013E03F043FEB542F9DDE2E7022B06D10D
:1036B0005B2F01D1032353E784F8982049E7032BBC
:1036C0007FF450AF413F84F89820032F3FF64AAF74
:1036D000DFE807F002070A160121204603F0D7FDB4
:1036E00040E74FF0FF31F8E7B542BFF63BAF605D12
:1036F00003F01CFED4F890300133C4F8903031E769
:10370000002D7FF72FAF013D0820C4F89050BAE795
:10371000FA850008FF85000830B587B06C461B4D60
:103720000FCD0FC495E8030084E803008020FEF766
:1037300073F905280CD001213120FDF7F5FF68460B
:10374000FEF7EEFC044684F00100C0B207B030BDC5
:103750000F4DFEF7C3FC2B6F23F0070343F001036B
:103760002B6703F0ABFA01213120FDF7DDFF68463E
:10377000FEF7D6FC0446FEF7B1FC2B6F23F00703DF
:1037800043F002032B6703F099FADCE70486000894
:103790000080005013B50024064A6846536F43F07A
:1037A0000103536700948DF80440FEF705FE2046A0
:1037B00002B010BD0040005030B58BB06C46174DC4
:1037C0000FCD0FC40FCD0FC495E8030084E80300AC
:1037D000134BD3F84C2112031CD5A3F5FE431C88D0
:1037E0004FF6FF739C4208BF8C248DF81940FEF7FA
:1037F0006BFB204480F308008DF818000948FDF7A2
:103800006FF96846FEF744FA0A20FEF7CBFB00206A
:103810000BB030BDD3F85041E4B2E6E71C86000897
:103820000080E00F00F0490230B5094D87B001ACCF
:103830000FCD0FC42B6801A823603F238DF80530FE
:10384000FEF748FB1420FEF7A7FB002007B030BDB1
:10385000448600086FF00403502110B50A480B4C51
:1038600013F0800F03F1010207D123444F2A83F89C
:1038700000131346F4D1002010BD03F00F03043BE6
:10388000034419761346EBE700ED00E000E100E0A9
:1038900010B5044603F027FA024B1C6003F027FA28
:1038A000002010BD7053012010B503F01CFA034B2B
:1038B0001C6803F01CFA204610BD00BF70530120A5
:1038C000302238B5037A0446534303F1A04303F58D
:1038D0008023DD6ED0E9032313449D4201D8AA4220
:1038E00004D94FF43E71054803F060F9D4E90303AD
:1038F00003449D4218BF284638BD00BF58860008C3
:1039000030B51446054687B01046FFF7D9FF636906
:10391000024683423CBFD4E903315B181B1AABB1AA
:103920001249049403910021CDE901310123009350
:103930002846D4E9001303F085F920B14FF434711F
:103940000B4803F033F9002007B030BD0122627646
:1039500094F82D20002AF6D084F835301321E3693D
:10396000204698472046636A9847ECE701390008EB
:10397000588600082DE9F04788B004460F461646E1
:10398000984603F0B7F98146002E00F0AD80237E03
:1039900003F0FF02002B00F0E0802046FFF790FFCD
:1039A00063698246984206D1637E23B940F27F3133
:1039B0006B4803F0FBF86569AA459DBFD4E9033263
:1039C0009B185D1BAAEB0505B54228BF354603F0E1
:1039D00091F994F82D308246002B40F096802A46CB
:1039E0003846616904F042FA63692E462B446361EC
:1039F0002CE06069037803F0FD01112940F082801A
:103A0000216B884205D1A3F111014B424B4184F84F
:103A10003430013E6369216B01328B4203F10103B3
:103A200008BF236363619542E3D1D4E90323216B8B
:103A30001344994208BF2263216B8A4201D88B420A
:103A400004D84FF46D71464803F0B0F8D4E903236D
:103A500061691344994208BF626161698A4201D871
:103A60008B4204D84FF471713D4803F09FF8002356
:103A7000207A6376FDF7FAF920B140F21131384827
:103A800003F094F82046FFF71BFF636983423FD1A0
:103A90000023E568237694F82D30656103B1256332
:103AA0002046636A98472F4B0494039300230293A4
:103AB00023692A4601930123009363682168207AD1
:103AC00003F0C0F820B140F22D31254803F06EF824
:103AD000207AFDF7EBF920B140F25131204803F094
:103AE00065F8504603F00CF94846C8F8006003F04A
:103AF00007F9D8F80030002B0CBF1B20002008B0BD
:103B0000BDE8F08707F8013B84E72E4600228AE7EC
:103B10000123207A23760DF11E01FDF72FFA20B143
:103B20004FF450710E4803F041F89DF81E30207A92
:103B3000002BCDD00DF11F01FDF7F8F920B140F2B7
:103B40004631074803F032F89DF81F10207A00290B
:103B5000BED12246FFF7D4FEBAE71646C4E700BF3F
:103B6000588600080139000870B504460568FFF75B
:103B70009BFE844202D10020FFF78AFE95F9363081
:103B8000002B11DB012203F01F015B099B0003F1F5
:103B900060438A4003F56143C3F88021C3F8802065
:103BA000BFF34F8FBFF36F8F287AFDF79FF920B1D6
:103BB0004FF4ED71104802F0F9FF287AFDF7FCF898
:103BC00020B14FF4EF710C4802F0F0FFFDF7D2F88E
:103BD00038B10A4B984204D04FF4F171064802F014
:103BE000E5FF00232846C4E90033C4E90433A36099
:103BF000AB6ABDE87040184758860008058000F0A1
:103C00002DE9F84304460D4690F82C80DFF8AC907F
:103C10008E18AE4228D094F82D3083B103F06AF8A4
:103C2000237E07461BBB226B63699A4204D040F295
:103C3000F911484602F0BAFF384603F061F894F8EB
:103C40003430002BE5D0B8F1000F06D02B780A2BCA
:103C500003D10D212046E36998472046E36915F812
:103C6000011B98470028D4D00020BDE8F8832046E7
:103C7000FFF726FEE1680138884238BF2069D4F892
:103C800030C03CBF00F1FF30401803469C450BD0CC
:103C900013F80129112A01D0132A07D1A2F1110327
:103CA0005A425A4184F834202063C5E7994282BFC2
:103CB000236903F1FF335B18E8E700BF588600086B
:103CC000F0B50C460646154687B03822002120463E
:103CD0001F4604F08CF895E8030000232A69237638
:103CE000EB6884E80300C4E904232A7DE36084F8D8
:103CF0002C20AA7D2363012384F8343084F83530E6
:103D00000C9B84F82D2023620D9BE76163620E9B60
:103D1000A3622B7A84F83630204B34607360204BDA
:103D2000B360204B3361204B7361204BF360FDF790
:103D300069F830B11E4B984203D01024204607B0DA
:103D4000F0BD002104F10800FCF7E4FF0028F4D1E5
:103D50000127184B0494CDE90203236900970193CE
:103D60006368E2682168207A02F06CFF044600284C
:103D7000E3D195F90830002B0BDB03F01F025B0940
:103D80009B0003F16043974003F56143C3F88071E2
:103D90001F603046FFF77CFDD0E700BF013C000804
:103DA00075390008E3740008E9740008693B0008ED
:103DB000038000F0013900082DE9F0411C46574B03
:103DC00086B00293564B0127019300230C9D00936C
:103DD0009046CDE903770A46524B2946FFF770FF1C
:103DE0000646002840F0918023683946AB6363683B
:103DF0003A20EB63637A85F84130237A85F84030C6
:103E0000E37A85F84330A37A85F84230637B85F8FE
:103E10004530237B85F84430E37B85F84730A37B2E
:103E200085F84630FDF780FC3B460422617A207A13
:103E3000FEF7CAFB3B460222E17AA07AFEF7C4FBFA
:103E400039466068FDF770FC88F8006041462068DC
:103E5000FEF7FAFE1422637C5B0103F1A04303F535
:103E60007033C3F89827617A227A42EA0142C3F894
:103E7000B027E17AA27A42EA0142C3F8A82785F87E
:103E8000486098F81930032B45D8DFE803F0354235
:103E9000021C022385F8483000230422E17BA07B2A
:103EA000FEF792FB022741F29871627C1E4B03EBF6
:103EB00042104750E07BA17BBD3241EA004103EB59
:103EC0004213596018E0012785F848300222002388
:103ED000617B207BFEF778FB617B637C227BBD33BB
:103EE00042EA014210495B01CA500422236803F5EB
:103EF0008053DA65002FCFD1AA6B0521D36C2068DF
:103F000043F00403D364FEF755FE304606B0BDE827
:103F1000F0810027D8E72326F7E700BFFB740008ED
:103F2000EF7400087375000800C003502DE9F04FCE
:103F30009B4691B00B1E0A93AD4B904614BF814631
:103F4000994600241A9E9BF8000070B9444538BF7A
:103F5000224643464FF000000A9928BF08F1FF327D
:103F6000C847204611B0BDE8F08F25280BF1010BA2
:103F700006D0224643460A99651CC8472C46E2E70C
:103F800000230DE02D2A2AD0302A06D0303A092A03
:103F90004FF0000711D80A2532E043F001038B46A9
:103FA000594611F8012B2B2A1CD0EBD8202A1CD003
:103FB000232A1DD02A2A2BD000279BF800202E2A46
:103FC00064D19BF801100BF10102A1F13000092826
:103FD00043F4806351D800254FF00A0C26E043F0EB
:103FE0000203DCE743F00403D9E743F00803D6E714
:103FF00043F01003D3E78B4605FB0722A2F13007FD
:10400000594611F8012BA2F130000928F3D9D4E761
:1040100056F8047B8B46002FBCBF43F002037F425F
:10402000CBE702460CFB0511A1F13005104610F854
:10403000011BA1F1300EBEF1090FF2D9114611F8A2
:10404000010B6C282CD024D8682830D06A2837D0AF
:1040500011468B461BF8010B672875D857284BD89B
:10406000452807D085D9462800F03181472880D1DE
:1040700043F4006343F020033FE12A2907D156F8B7
:10408000045B0BF1020225EAE575D7E75A460025E5
:10409000D4E7742801D07A28DAD143F48073D8E7C2
:1040A00050786C28F9D143F44073911CD1E75078D3
:1040B000682802D043F08003CBE743F0C003F4E765
:1040C00043F40073C5E70A2A00F06281072A7FF4EF
:1040D00050AF43F0210305930823CDE90353102388
:1040E000CDE9011356F8043B224600934846434667
:1040F0000A9903F075FBFAE0A0F158020F2A3FF687
:1041000038AF01A151F822F079410008733F00084F
:10411000733F0008733F0008733F0008733F0008B7
:10412000733F0008733F0008733F0008733F0008A7
:10413000794100081943000879410008F34200085A
:10414000D3420008F3420008A0F16902D2B20F2A5C
:104150003FF60FAF012149F2410C914011EA0C01E9
:10416000B1D0782803F4806122D1002900F090803A
:1041700023F00D02102307E0622803F4806220D1AF
:1041800042BB23F00C02022312F4007100F0838082
:10419000CDE907720022CDE9043206F1070A2AF0C0
:1041A000070A06950292FAE80223CDE900233DE0D2
:1041B0006F2812D123F00C0209B123F00D0208235D
:1041C000E2E7582816D1002A39D123F00C0242F038
:1041D0002002CFE723F00D02D5E7692823F0100273
:1041E00030D023F01C0209B123F01D020A23CBE7D3
:1041F0001F76000842BB23F01002930527D507362F
:1042000026F00706B24671685AF8083B0A26CDE93F
:1042100007720027CA0F0029CDE9046706950292AC
:1042200002DA5B4261EB4101CDE9003143462246AF
:1042300048460A9903F017FB0446564683E623F0E6
:104240000D02C4E70029D8D023F01102D5E7D0052C
:1042500006F1040A01D5336802E0510613D533781C
:10426000CDE904720A22002B02924FEAD372039521
:104270000192B8BF5B4200934346224648460A99E2
:1042800003F0AEFAD8E71306E5D5B6F90030E7E754
:1042900023F00C026EE7D00506F1040A06D5CDE93D
:1042A0000472CDE9023501913368E4E7510608D57F
:1042B0003178CDE902350023CDE90472CDE9001350
:1042C000DAE7316812F0800F18BF89B2F1E743F0E6
:1042D0002003CDE90173073626F007060095B6ECFA
:1042E000020B4346224648460A99FCF705F9044664
:1042F00029E6672801D143F40063CDE9017307364D
:1043000026F007060095B6EC020B434622464846C7
:104310000A99FBF735FFEAE713F0020523D04FF0C7
:10432000010A631C0B93224643460A9916F8040BB4
:10433000C8475DB354460B9A1EE0434620200A99B5
:10434000C8470AEB04020AF1010A5745F5D8002FC5
:1043500007F1FF3308BF002307F1010A1C4408BF1F
:104360004FF0020ADDE7AA46EBE7551C4346202042
:104370000A99C8472A460134BC42F6D3A7EB0A0380
:10438000574538BF00230B9A1A440B920B9CDAE571
:104390003246002D52F8046B14BF29464FF0FF310E
:1043A0000B9232463144107808B18A4211D1A2EB07
:1043B000060A13F480620C9202D0AA4528BFAA46CE
:1043C00013F002030D931BD1AAEB040322460F93B3
:1043D00008E00132E7E7531C0E93202043460A9978
:1043E000C8470E9A0F9BD3189F42F4D8A7EB0A0335
:1043F000574538BF00230AF101021C4403EB020AAF
:10440000A31B0E9304E01D46434622460A99C84763
:104410000E9BF41816F8010B28B10C9B002BF3D05F
:104420006B1E002DEFD10D9B93B12246AAEB040524
:1044300005E0561C434620200A99C84732465319C6
:104440009F42F6D8A7EB0A03574538BF00231C4408
:104450000B9E78E50FB41FB506AA52F8043B02A9DB
:104460000392009204484FF0FF32FFF75FFD05B062
:104470005DF804EB04B07047057900081FB50346EA
:1044800000914FF0FF3203A90248FFF74FFD05B03E
:104490005DF804FB0579000830B50A4C0A4B226828
:1044A0000A4D1A600A4B85B02B600A4B0193FFF747
:1044B000FBF92B68029001A92068039302F05EFCCF
:1044C00005B030BD1C1000206C5301206853012042
:1044D000101000203887000838B54FF06900FFF74A
:1044E000E3F90446064D2B68D3F8B002FFF7D0F984
:1044F000286802F057FC2046BDE83840FFF7C8B9ED
:104500001C10002010B5224CFDF7E8FD236F23F0AE
:10451000070343F00203236702F0D0FBD4F82031F5
:10452000002023F0070343F00103C4F82031D4F83E
:10453000283123F0070343F00103C4F82831D4F8ED
:10454000403123F0030343F00203C4F84031D4F8B0
:10455000603123F0030343F00203C4F86031D4F860
:10456000403223F0030343F00203C4F84032D4F88E
:10457000003223F0070343F00203C4F80032D4F8FA
:10458000083223F0070343F00203C4F8083210BDD9
:104590000080005030B51F4D95B00DAC0FCD0FC44D
:1045A00095E80700292384E807001B4A0021CDE98C
:1045B00002230523CDE904118DF8113004230E22C6
:1045C0000DF1260006918DF8133003F010FC4FF426
:1045D0008021124B1248CDE9071309238DF82430AE
:1045E0000A238DF825300F4B0DAA0A9320230B9335
:1045F00001238DF831300C4B07A9009302ABFFF774
:10460000DBFB044618B18621084802F0CFFA2046A9
:1046100015B030BDB487000800C0055024C0055057
:10462000805601201F580120345601204C87000875
:1046300008B5FFF7AFFF28B1BDE808409A2102484E
:1046400002F0B4BA08BD00BF4C870008014802F070
:1046500096BF00BF80560120002300B5354A89B0BF
:104660000393039B934260DD02F0C1FF03F052F914
:1046700000F086FA00F002F90022FF20114600F057
:10468000A1F80A2000F0D6F8012000F0E5F801F0CA
:10469000BDF82948FFF7DEFE4E2228492848FFF7DB
:1046A000D9FE4F2225492748FFF7D4FE264B274A3B
:1046B000D968274821F4E0610904090C0A43DA604B
:1046C00020211022DA751A7683F823105A769A760A
:1046D0004FF4806214211F4B009200F03DFB20B18B
:1046E0005B2216491C48FFF7B5FE0023049305938F
:1046F000EFF309830493EFF308830593049B143BC2
:104700000693059B143B0793079B83F30A8801F0EC
:1047100037F8044601F034F8031BB3F57A7FF9D378
:1047200002F072FF03F0F7F8FAE7039B01330393FB
:1047300097E700BF1FA10700958C0008D0870008ED
:10474000D7870008F587000800ED00E00003FA05B0
:1047500016880008118800081B88000870B5074CEF
:104760000646236B0D46DB0704D440F24231044871
:1047700002F01CFA04EB4614A56670BD000005505B
:1047800035880008014B1878704700BF7D11002064
:10479000014B1878704700BF4258012010B1064BFA
:1047A0001B78037011B1054B1B780B7012B1044BD1
:1047B0001B781370704700BF4158012040580120FA
:1047C0003F580120164B70B51870164B0C461970E7
:1047D000154B1A70154B1D78F5B16426144B1B78D8
:1047E00013FB04F4B4FBF6F410FB03F0E5B213FB87
:1047F00002F4B0FBF6F0B4FBF6F4C1B2E4B2002070
:10480000FFF7ACFF29460120FFF7A8FF2146BDE8CE
:1048100070400220FFF7A2BF29462C46EFE700BFF9
:1048200041580120405801203F58012042580120A2
:104830007D110020044B1870044B1A78044B197832
:10484000044B1878FFF7BEBF7D1100203F580120B0
:104850004058012041580120044B1870044B1A782D
:10486000044B1978044B1878FFF7ACBF425801206D
:104870003F580120405801204158012030B5012106
:1048800089B03A20FCF750FF01212620FCF74CFFAD
:104890000023042218460821FDF796FE0023042277
:1048A00018460921FDF790FE002300251846042232
:1048B0000A21FDF789FE0F2200210DF1110003F0FE
:1048C00096FA0D220021684603F091FA26208DF811
:1048D0001050FCF751FF2A4B2A4CB0FBF3F0032396
:1048E0000138ADF8120004A920468DF80630FEF715
:1048F0004FF80722244B2946C3F838274FF40022EB
:10490000C3F83C274FF41022C3F840274FF420226D
:104910002046C3F844276A46FEF786F86A46012116
:104920002046FEF781F86A4602212046FEF77CF811
:10493000236BDB0704D440F2B641144802F036F989
:104940004FF480730021E3610846FFF707FF002161
:104950000120FFF703FF00210220FFF7FFFE0023E5
:104960000B4A13700B4A13700B4A13700B4A1370E7
:1049700064220B4B1A700123E36009B030BD00BF05
:10498000A08601000000055000C0035035880008D3
:10499000425801203F580120405801204158012031
:1049A0007D11002008B5104B984216D003F58043C6
:1049B000984215D003F58043984211D003F5804307
:1049C00098420DD003F58043984209D0074840F241
:1049D000D22102F0EBF8002008BD4FF0FF30FBE7DA
:1049E0004FF6FF70F8E700BF0080045035880008DC
:1049F00070B5154604460E46FFF7D4FFA84204D210
:104A00004FF45071074802F0D1F8236BDB0704D450
:104A100040F24231034802F0C9F804EB4614A5669F
:104A200070BD00BF35880008032810B50A4604464B
:104A300006D9BDE8104026220E490F48FFF70ABDEF
:104A4000642905D92B220B490C48FFF703FD64228A
:104A500014B921460A4805E0012C07D0022C07D0E2
:104A600000210848BDE81040FFF7C2BF2146F8E723
:104A70000121EFE7518900089D880008C1880008DE
:104A80000080045000C0045010B503281DD8DFE892
:104A900000F0020C181A0E4C236BDB0703D4112113
:104AA0000C4802F083F8A06E09E00B4C236BDA0788
:104AB00003D41121074802F079F8D4F88800C0B275
:104AC00010BD034CF2E7044CE6E70020F8E700BF16
:104AD000008004500189000800C0045007B5204937
:104AE0000870002100910191EFF309810091EFF32B
:104AF000088101910099914229D8009A3AB3012284
:104B0000184B1A704FF0E023174AD3F8281D116094
:104B1000D3F8341D154A1160D3F8382D144B1A60A0
:104B200000F026FE30B100F023FE32224168114829
:104B300003F077F9BFF34F8F0F49104BCA6802F4A7
:104B4000E0621343CB60BFF34F8F00BFFDE7019AD4
:104B50009A42D7D8019B002BD4D00222014BD0E738
:104B6000C8110020BA110020C4110020C01100207B
:104B7000BC1100208811002000ED00E00400FA05BF
:104B800010B5554B86B05548D3F89440FFF762FCFA
:104B9000712253495348FFF75DFC8020FCF7ECFD80
:104BA000722203464E495048FFF754FC73224C4989
:104BB0004E48FFF74FFC630504D5752248494C4821
:104BC000FFF748FCA00504D5762245494948FFF780
:104BD00041FC210604D5772241494748FFF73AFCBA
:104BE000E20504D578223E494448FFF733FC6307C9
:104BF00004D579223A494248FFF72CFC200504D518
:104C00007A2237493F48FFF725FCA10604D57B22CD
:104C100033493D48FFF71EFC220704D57C2230496A
:104C20003A48FFF717FCE30604D57D222C493848A3
:104C3000FFF710FCA00704D57E2229493548FFF76D
:104C400009FCE10704D57F2225493348FFF702FC20
:104C5000A20404D5802222493048FFF7FBFB6306FB
:104C600004D581221E492E48FFF7F4FB002C04DAFC
:104C700082221B492B48FFF7EDFB842218492A4862
:104C8000FFF7E8FB852216492748FFF7E3FB274B90
:104C900086220493264B12491B7826480393264B01
:104CA0001B680293254B1B680193254B1B680093DF
:104CB000244B1B78FFF7CEFB872209491A48FFF7E0
:104CC000C9FB882206492048FFF7C4FB4FF4003295
:104CD000014B1A6706B010BD00400050948C0008CC
:104CE0005989000867890008A4890008C789000855
:104CF000E3890008098A0008338A0008628A0008EC
:104D0000918A0008B78A0008DE8A0008038B000831
:104D1000258B0008478B0008678B00088C8B0008E8
:104D2000AD8B0008D98B0008F78B00088811002094
:104D3000BA110020048C0008BC110020C011002012
:104D4000C4110020C8110020588C0008014B1878AD
:104D5000704700BF435801202DE9F04FDFF8C090A5
:104D60001E4699F8003085B007468A469346DDF81E
:104D70003880002B4CD14FF0E024D4F8883D254DED
:104D800043F47003C4F8883D6B6B802043F000430C
:104D90006B636B6B43F080436B63236923F0010308
:104DA0002361D4F8203D43F00073C4F8203DD4F8CB
:104DB000203D43F47023C4F8203DFCF7DDFC4FF4A4
:104DC0007A73B0FBF3F06061236943F0040323615D
:104DD000236943F002032361236943F00103236144
:104DE00000F02AF843465A465146384600F022FA67
:104DF00058B90123314689F80030074ACDE902004D
:104E0000CDE90008054800F0A9FB05B0BDE8F08F2A
:104E10000520FAE700EF00E0AF790008D456012042
:104E20004358012010B103680BB1181A7047014BA9
:104E3000FBE700BFD05101204FF4A0320021014810
:104E400002F0D5BFD011002073B540B3EFF310834B
:104E5000019372B6BFF36F8F264C4FF0FF350021E0
:104E60002646073020F007022046FFF7DBFF636885
:104E700033B90838A84203D282429CBF0546214676
:104E80002468002CF0D1B14202D31B4B994209D9BE
:104E900002F08FFD019B83F31088BFF36F8F00201A
:104EA00002B070BD312A12D80AB30868083253180C
:104EB00083421EBF88500B605C60012301F1080033
:104EC0004B60019B83F31088BFF36F8FE8E70846C0
:104ED000FFF7A8FF8A1A0244A2F1080399421EBFF5
:104EE000086842F8080CC1E90034012159601046F5
:104EF000E7E700BFD0110020CF51012037B50028CF
:104F00003AD01E4B984237D31D4CA04234D8EFF311
:104F10001082019272B6BFF36F8F083B00211D46CD
:104F2000AB420AD3A34208D883421A6802D862B1BE
:104F3000824218D219461346F2E7019B83F3108888
:104F4000BFF36F8F022003B030BD5A6021B14A68B1
:104F500012B9186808601A60019B83F31088BFF3C8
:104F60006F8F0020EFE70020586050680028EDD1D7
:104F700014681C601060E9E70120E4E7D811002004
:104F8000CF510120044B1B680BB9184603E0986809
:104F9000027A002AF7D07047985601202DE9F04F89
:104FA000064685B0EFF31083039372B6BFF36F8F9D
:104FB0004FF0FF384FF0010BC246A6B9B8F1000F11
:104FC00008DD614B1B68986802F0DCFE4045ACBF11
:104FD00000260126039B83F31088BFF36F8F3046B2
:104FE00005B0BDE8F08F706902F0F7FDF368304658
:104FF000984707467369D3F80090B9F1000F05D1BF
:1050000086F80890FFF7BEFF0646D6E7D9F80840B5
:10501000237E042B25D0012B23D094F84050002D63
:105020006CD1A16BA9421FD1E26B27B3954210D27C
:10503000914288BF636B07F1FF3784BF53F822307A
:1050400083F808B00223BA1C08BF4FF0FF37E563AE
:105050002376237E022B04D194F94C309845B8BFB7
:105060009846D9F80090C8E7636B53F82530B342EF
:10507000DAD00135D6E79542EBD1A36B0135AB42CF
:105080000AD9636B214653F8250002F0EDFD002894
:10509000F3D0A36BAB420CD8E3694FF0FF35002B84
:1050A0000CBF02230323237694F84030E563012BE1
:1050B0000AE0022301222376636BE56353F825306F
:1050C0001A7294F840309342C3D1E3690027002B51
:1050D00014BF03230223C4F83CA02376E36BAB4246
:1050E000B7D00022A16B9142B3D0636B53F822304A
:1050F0000132B34218BF83F808B0F4E7012DA8D1FC
:10510000E56B002FE1D0002305E0626B52F823002D
:10511000B0420AD10133A26B9A42F6D80023E3636E
:105120007B1C00D0013F0223D7E72146019302F008
:105130009BFD019B0028EDD1E369C4F83CA0002B46
:1051400014BF03230223C8E7B45601202DE9F74F0B
:10515000324B1B78012B3AD172B600230193EFF347
:1051600009832F4C0193D4F80090B9F1000F03D0BC
:10517000019AD9F808301A62DFF8A88000254FF0AC
:10518000FF3AD8F80060276823689E4222D10026A3
:105190004FF0FF3B67BB002E38D125601DB962B6CA
:1051A00002F006FC72B62368002BE7D09B681B6AEE
:1051B0000193019B83F30988B9F1000F06D0D9F858
:1051C0000800037E042B01D100F0EEF862B603B0B4
:1051D000BDE8F08FB068037E022B03D102F0D2FD50
:1051E000504503DA504682463668CDE73546FAE741
:1051F000B868037E022B03D102F0C4FD584503DAE0
:10520000584683463F68C5E73E46FAE70DB9266033
:10521000C9E7DA45A8BF2E46F9E700BF4458012088
:10522000B4560120B8560120014B1878704700BFD2
:105230004458012073B50D1E06461446C0F28780FF
:10524000B2F5C07FC0F08380B3F5C07F7FD3104636
:10525000FFF7FAFD18B90325284602B070BD40B526
:10526000EFF3088686F30988044424F007040194C8
:10527000019B1E4686F30888EFF3148646F002066B
:1052800086F31488BDE840405820FFF7DDFD044652
:105290000028E0D000230372012303702D4BC3606C
:1052A00002F0DDFB2C4B6061236130461EB102F041
:1052B000EAFDFFF7C9FD0223657684F84C5000250E
:1052C0002376C4E90755C4E90D556060A585A5623C
:1052D000A56402F0C4FB6369C4E914556064002B43
:1052E00033D0002831D0606818BB76BB1B4E00223B
:1052F0002146304602F0D7FB636902462BB3636C4C
:105300001BB310BB2146164802F0CDFB0546B0B1D9
:105310002146304602F001FC606902F044FC606CFA
:1053200002F041FC6068FFF7E9FD2046FFF7E6FD6B
:1053300092E7002EDAD0314602F090FDD6E7094B15
:1053400032681A60084B1C6086E70325E4E70125F4
:1053500082E700BF997D00086F7D0008B8560120E4
:1053600098560120B4560120D856012013B50446A2
:10537000FFF75AFF0128034610D1EFF31082019284
:1053800072B6BFF36F8F074A126890680376846421
:10539000FFF704FE02F0EDFC62B6FBE7042002B06A
:1053A00010BD00BFB456012073B5044601464948FC
:1053B00002F062FB002C00F08A80002800F085805B
:1053C0002378012B40F08380434D2B689B68A342D8
:1053D00014D0EFF31083019372B6BFF36F8F0123E4
:1053E00020462376FFF7DAFD2B689B689C420BD1A1
:1053F0000423237602F0BDFC62B6FBE7FFF714FF3F
:105400000128E6D004203CE0636B002B52D12146FA
:10541000324802F082FB21462E4802F07EFB606992
:1054200002F0C1FB606C02F0BEFB236D002B0CDDB3
:105430000025206BFFF762FD2E46D4E914309D4213
:1054400001DA002838D1FFF759FDD4E90930C01A34
:10545000FFF754FD00250123C4E90D552376C4E967
:105460000955C4E9145560682562E561FFF746FDFA
:105470002046FFF743FD019B83F31088BFF36F8F36
:10548000284602B070BD636B53F825306BB12146DE
:10549000586902F042FB636B53F8250002F08AFA68
:1054A000636B53F82500FFF779FD0135A36B9D422F
:1054B000E9D3ACE70025F9E750F82500FFF71EFD1A
:1054C000636D43F825600135B7E70220D9E7012075
:1054D000D7E700BFB8560120B456012098560120E6
:1054E000024B1B689868FFF75FBF00BFB4560120EE
:1054F00010B5044608B9002010BD0378012BFAD17D
:105500000146074802F0B8FA0028F4D0207E0428AB
:10551000F1D00228F0D1636B002B18BF0320EBE71A
:10552000B856012082B00346EFF31082019272B6A2
:10553000BFF36F8F084A106818B18268928D9A4243
:1055400008D1019B83F31088BFF36F8F00B180688F
:1055500002B070470068EFE7B85601202DE9F74F19
:105560000D46174699469DF930B00190002800F08D
:10557000ED80002A00F0EA80BBF1000FC0F2E68067
:10558000B9F1010F00F2E2800D9BB3F5C07FC0F0CE
:10559000DD80FFF7DBFB002800F0DA805820FFF702
:1055A00053FC824620B90324204603B0BDE8F08FA7
:1055B0000D98FFF749FC064618B95046FFF79EFCC8
:1055C000F1E74FF0000800F0DBF800EB080484EA94
:1055D0001444E4B22046FFF7A5FF10B108F101081A
:1055E000F1E701228AF800205A4A8AF80800CAF82E
:1055F0000C2002F034FA584ACAF81400CAF81020F5
:1056000028461DB102F03FFCFFF71EFC0222AAF85B
:105610002C4000240D9B8AF81820F218CAE90932A0
:1056200022F00702CAF82020CAF83070CAE90D44F7
:10563000CAF804008AF819B08AF84CB0CAF81C40BD
:10564000CAF8484002F00BFA0F9B4FF08071A3425A
:105650000E9B0CBF22461A460F9BCAF85020DAF860
:105660002020CAF85430CAF8440042E902713B498C
:105670003B4F42F81C3CA14508BF394642E9044172
:105680006FF002010E9B42E90A41A2F1440142E996
:10569000064442E90C4442E90E4442E9104442F80F
:1056A000203CCAF8201042F8444CDAF81420002AB2
:1056B0004AD0002848D0DAF8040030BB002D43D18E
:1056C00000225146274802F0EEF9024600283BD15D
:1056D0005146254802F0E7F90446E0B15146214819
:1056E00002F01BFADAF8140002F05DFADAF844006E
:1056F00002F059FADAF80400FFF700FC5046FFF711
:10570000FDFB3046FFF7FAFB4EE7002DD8D02946C7
:1057100002F0A4FBD4E7504602F034FB13490246E2
:10572000096871B1886802F02DFB904205DAFFF735
:105730007BFD012801D102F01CFB019BC3F800A0F6
:1057400032E74FF0FF30F0E70324CBE701242BE7EB
:10575000042429E7997D00086F7D0008E1540008C2
:105760006D530008B856012098560120B456012008
:10577000024B186800B18068704700BFB456012022
:10578000014B1868704700BFDC56012008B5142291
:105790000A490B48FEF75EFE00210846FFF744F970
:1057A00000210120FFF740F900210220FFF73CF91A
:1057B000BDE8084000210320FFF736B9978C0008A8
:1057C0009D8C00081F2208B50C490D48FEF742FECB
:1057D000FFF7D6FF0446FFF7D3FF031BB3F5FA7FAD
:1057E000F9D3BFF34F8F0749074BCA6802F4E06251
:1057F0001343CB60BFF34F8F00BFFDE7978C0008CA
:10580000BC8C000800ED00E00400FA0510B5074C60
:105810000749206801F043FC0649206801F03FFC7D
:1058200020680549BDE8104001F039BC1C1000207B
:105830002010002050100020B010002013B51E4C86
:105840000DF107020DF106010DF10500FEF7A6FFAF
:105850001A48FEF7FFFD21462C221948FEF7FAFDF3
:10586000FEF796FF214603462D221648FEF7F2FD6D
:10587000FEF788FF214603462E221348FEF7EAFD75
:1058800021469DF805302F221048FEF7E3FD214602
:105890009DF8063030220E48FEF7DCFD21469DF8CB
:1058A000073031220B48FEF7D5FD322221460A4847
:1058B000FEF7D0FD02B010BD198D0008958C0008D0
:1058C000238D00086C8D00088E8D0008B08D0008B7
:1058D000D28D0008F48D0008168E00082DE9F041E5
:1058E000D0E9022352F8231002EB830253680F78A9
:1058F0001E7893680D4C1D7831462A463846FEF7CF
:1059000061FF3B46214620220948FEF7A3FD3346AE
:10591000214621220748FEF79DFD2B462146BDE882
:10592000F04122220448FEF795BD00BF198D000802
:10593000B08D0008D28D0008F48D000810B5D0E9B4
:10594000023253F822301878FEF774FFFEF71AFF80
:10595000BDE810400346152201490248FEF77ABD12
:10596000198D00088E8D000810B5D0E9023253F869
:1059700022301878003818BF0120FEF76DFFFEF7BF
:1059800007FFBDE8104003460E2202490248FEF719
:1059900061BD00BF198D00086C8D000810B51A4C50
:1059A0001A48FEF757FD214634221948FEF752FDEA
:1059B0000020FFF769F82146034635221548FEF717
:1059C00049FD0120FFF760F82146034636221248C0
:1059D000FEF740FD0220FFF757F821460346372225
:1059E0000E48FEF737FD0320FFF74EF82146034629
:1059F00038220B48FEF72EFD2146BDE81040392223
:105A00000848FEF727BD00BF298F0008958C0008C5
:105A1000358F00087B8F0008A58F0008CF8F000806
:105A2000F98F00082390000810B5D0E9023204462F
:105A300053F8223000201978FEF7F6FFE368A268D9
:105A4000013352F8233001201978FEF7EDFFE368A7
:105A5000A268023352F8233002201978FEF7E4FFDF
:105A6000E368A268033352F8233003201978FEF765
:105A7000DBFF0020FFF708F8114C034621462922DE
:105A80001048FEF7E7FC0120FEF7FEFF2146034623
:105A90002A220D48FEF7DEFC0220FEF7F5FF214624
:105AA00003462B220948FEF7D5FC0320FEF7ECFF46
:105AB0002146BDE8104003462C220548FEF7CABC2B
:105AC000298F00087B8F0008A58F0008CF8F000862
:105AD000F98F0008D0E9023253F8223010B5197856
