:020000040800F2
:1000000000100020910900084D6200084D620008B0
:100010004D6200084D6200084D6200084D62000804
:100020004D6200084D6200084D6200084D620008F4
:100030004D6200084D620008F1720008636F00080D
:100040004D6200084D6200084D6200084D620008D4
:100050004D6200084D6200084D6200084D620008C4
:100060004D620008D93C00085F6F00084D6200082F
:100070004D6200084D6200084D6200084D620008A4
:100080004D6200084D6200084D6200084D62000894
:100090004D6200084D620008950F00084D6200088F
:1000A0004D6200084D6200084D6200084D62000874
:1000B0004D6200084D6200084D6200084D62000864
:1000C0004D6200084D6200084D6200084D62000854
:1000D0004D6200084D6200084D6200084D62000844
:1000E0004D6200084D6200084D6200084D62000834
:1000F0004D6200084D6200084D6200084D62000824
:100100004D6200084D6200084D6200084D62000813
:100110004D6200084D6200084D6200084D62000803
:100120004D6200084D6200084D6200084D620008F3
:100130004D6200084D6200084D6200084D620008E3
:100140004D6200084D6200084D6200084D620008D3
:100150004D6200084D6200084D6200084D620008C3
:100160004D6200084D6200084D6200084D620008B3
:100170004D6200084D6200084D620008000000005A
:100180002DE9F04F93B0CDE90A32DDE91C530E930F
:1001900053EC102BCDE90801104619468DED060BE6
:1001A0001E9E05F033FC80B1DDE906014FF0FF3201
:1001B000C54B05F053FC40B9DDE906014FF0FF32B5
:1001C0006FF4801305F02CFC70B1DDE908019DEDA2
:1001D000060B0E9B1E96CDE91C53DDE90A3213B0C7
:1001E000BDE8F04F00F088B90022DDE906010023E8
:1001F00005F016FC002800F03381DDE906A303F1C9
:10020000004BCBF30A5016F48063A0F2FF3008BF16
:1002100006250F9305F028F99BA3D3E9002305F0E9
:100220008DF99BA3D3E9002304F0D2FFCBF3130491
:10023000894644F07F5180460022A44B504641F449
:10024000401104F0C3FF94A3D3E9002305F076F92D
:1002500002460B464046494604F0BAFF05F008FC4A
:10026000044605F001F98EA3D3E9002380468946B0
:1002700005F064F90022964B04F0AAFF05F0F8FBA4
:1002800089A3D3E9002307464946404605F056F9BD
:1002900080463846894605F0E7F885A3D3E9002370
:1002A00005F04CF902460B464046494604F08EFFE5
:1002B00002460B46CDE90C2305F040F9DDE90C239D
:1002C000804689461046194604F082FF0022CDE997
:1002D0001001804B4046494605F05AFA00227E4BF9
:1002E00004F076FF02460B464046494605F050FAB8
:1002F00000227A4B04F06CFF02460B46404649460A
:1003000005F046FADDE90C238046894600204FF0CF
:10031000804104F05BFF02460B464046494604F02C
:1003200057FF02460B46DDE9100105F031FA07F2EE
:10033000FF3700226A4B04F04BFF00223B0505F01B
:10034000FDF852465B468046894605F087FB00284B
:1003500040F08980CDE90C8904F16303C72B34BFD9
:100360000427052731051BD553A3D3E900235046A5
:10037000594605F069FB00287FD051A3D3E900233B
:100380005046594605F04CFB002876D00027A54280
:10039000C6BF2C1B04F1FF3500253C4646F48066A1
:1003A0000E9B9F422CBF4FF00008A3EB070816F0EE
:1003B000020903D0002F18BF4FF000083CB1DDE95F
:1003C0000C235046594605F0E3F982468B46DDE999
:1003D00006010022002305F023FB10B10BF10043BE
:1003E0009B46DDE9080126F40063CDE90183DDE9E0
:1003F0000A324BEC10AB009500F07EF802465FB37A
:10040000DDE9091316F0200F00F10105089E0CBF6D
:1004100065204520B047DDE908010523002205934A
:100420000A23002CCDE9023207F1FF374FEAD473DB
:10043000B8BF64422A46019304970A9B009406F0D1
:10044000D6FC0246B9F1000F06D00B9BC41A0B9BD9
:100450001A190E9BA34245D8104613B0BDE8F08F81
:10046000DDE906ABCDE60022404649461A4B05F0D1
:100470008FF9013CCDE90C016EE7002D90D00F9B68
:10048000002B8DD0013D8BE7FB799F501344D33F68
:10049000B3C8608B288AC63F61436F63A787D23F8A
:1004A00071A379094F930A401655B5BBB16B024051
:1004B000EF39FAFE422EE63F2D431CEBE2361A3F9F
:1004C0000000000080842E41FFFFEF7F0000F83F16
:1004D0000000E03F00002C400000244000001840D5
:1004E0000000F03F2020DDE90913089DA8470134F2
:1004F000ADE700BF000000002DE9F04F5BEC10AB52
:1005000097B0CDE90501DDE92057CDE90723504635
:1005100052465B465946229E05F078FA70B903238D
:10052000CDE902760193B04B0093DDE90501DDE9E9
:10053000072306F07CFB17B0BDE8F08F4FF0FF32C9
:100540006FF480135046594605F06AFA28B1042327
:10055000CDE902760193A54BE6E74FF0FF32504616
:100560005946A34B05F07AFA68B1A24A06F0040393
:10057000002B08BF0322A04B1CBF13460422CDE969
:1005800002760192D0E7504693A3D3E9002359465F
:1005900005F064FA38B992A3D3E9002350465946CE
:1005A00005F03EFA68B1DDE90723DDE905014BEC12
:1005B00010ABCDE92176209517B0BDE8F04FFFF7DD
:1005C000DFBD002200235046594605F029FA0028D5
:1005D00000F09A805B4652460020002104F0F6FDB0
:1005E000012382468B46099316F4806400F08E80C6
:1005F000092D40F28E80002430210EABA5F10902B6
:100600000134202C03F8011BA5EB040901D094420E
:10061000F6D15946504605F02BFA784B054603EBC8
:10062000C90393ED007B8DED0A7B04F01DFF0246AC
:100630000B465046594604F0C9FDDDE90A2304F093
:100640007DFF02460B46CDE90C2305F039FA8046C2
:1006500004F0FAFE02460B46DDE90C0104F0B6FD9B
:1006600002460B46CDE90C230022654B05F0F6F956
:10067000002851D008F10108404604F0E5FE02468A
:100680000B46DDE90A0105F0D5F910B14FF000087D
:100690000135B9F1000F50D1284604F0E5FE0246BD
:1006A0000B465046594604F091FD0022544B8046BB
:1006B000894605F0B5F930B1002240464946504B15
:1006C00005F0CCF910B1E80700D501350A210EABD1
:1006D0001A19202C0AD095FBF1F001FB105530358A
:1006E00002F8015B013405460028F2D106F003024E
:1006F000012A57D1002F55D0099A12B916F00C0FC4
:1007000000D0013F302245E009906DE74FF0060927
:100710007FE7A94600247CE70022DDE90C01384B85
:1007200005F07EF90028B4D1B8F1000F02D018F01E
:10073000010FAED008F10108ABE70A210EAB23444C
:10074000202C0ED0B8FBF1F001FB1082B8F1090F9C
:1007500002F1300209F1FF3904F1010403F8012B21
:1007600011D83021A1440EAA202CAFD0A14504F10C
:1007700001030AD11C4609F158030DEB03092E238E
:1007800009F8203CA2E78046DAE7A1541C46EBE7D3
:100790001A550134A74205D9202CF9D1CDE90276AA
:1007A0000194C1E6202CF9D0099A3AB12D2104F127
:1007B00058026A4402F8201C0134EFE7710704D59F
:1007C00004F158022B216A44F4E73207E6D504F11C
:1007D000580220216A44EDE70000000065CDCD41BC
:1007E0000000000065CDCDC1B07A0008B47A0008E1
:1007F000FFFFEF7FA77A0008AC7A0008C07A0008F4
:100800000000E03F0348044B834202D0034B03B196
:100810001847704778110020781100200000000070
:10082000064B0749C91A891048BF0131491003D046
:10083000044B0BB101481847704700BF78110020E6
:10084000781100200000000010B5064C237843B951
:10085000FFF7D8FF044B13B10448AFF30080012326
:10086000237010BDC457012000000000E082000882
:1008700008B5054B1BB105490548AFF30080BDE83D
:100880000840FFF7CDBF00BF0000000078510120F5
:10089000E0820008A3F5803A704700BF174B002B99
:1008A00008BF134B9D46FFF7F5FF00218B460F460F
:1008B0001348144A121A06F077FD0E4B002B00D095
:1008C00098470D4B002B00D09847002000210400D2
:1008D0000D000D48002802D00C48AFF3008005F051
:1008E00059FC2000290003F0FDF905F099FA00BF3A
:1008F00000000800000000000000000000100020C0
:1009000078110020F05701200000000000000000D6
:1009100038B504460D4601B118B93721034805F032
:100920005DFC23682B60256038BD00BF8074000823
:1009300070B5D0B1C9B10E4E431E013913F8014F45
:100940002046325D02F00302012A11F8012F08BF90
:1009500004F12000B55C05F00305012D08BF20322D
:10096000801A01D1002CE9D170BD0120FCE700BF45
:10097000DE8100080348044A0449121A921005F067
:1009800066BC00BF6C8400086C840008F05701202E
:1009900008B500F02FF8FFF7EDFF124B12498B421C
:1009A00012D30020114B12498B4218D3FFF776FF68
:1009B000186850F82240586840F822400132986880
:1009C0008242F5D30C33EAE70022F8E71C6844F8CA
:1009D000220001325C68A242F8D30833E4E7002227
:1009E000F8E700BFE8820008F4820008F4820008FB
:1009F000F48200084FF480414FF0FF30114B124A4F
:100A000010B59A60D3F8882042F47002C3F88820A9
:100A10000E4A91660E4901F5005210660D48506667
:100A20000220C3F8D000BFF34F8FBFF36F8F0124B4
:100A30004FF440330848C0F88041D36004600B6134
:100A400010BD00BF00ED00E0000000080090005065
:100A5000008000447FFF7F0300E100E0014B186845
:100A6000704700BF04100020084B1B6F03F0070302
:100A7000022B04D0032B05D0012B05D0FEE7044B3D
:100A800018687047034BFBE703487047008000502D
:100A9000041000200C100020002D310108B5FFF7D4
:100AA000E3FF054B1B6FC3F303330133B0FBF3F0DC
:100AB000024B186008BD00BF0080005000100020ED
:100AC0000048704700B4C404014B1868704700BF69
:100AD0000C10002000487047002D31014FF0B44346
:100AE0009868C0F304400C280AD8DFE800F00B092E
:100AF00009090909072119091B1D1F000F48704723
:100B0000002070479B6803F04073B3F1807F11D0E1
:100B1000B3F1007F10D00A4A002B08BF104670477F
:100B200008487047084870470848704708487047A9
:100B3000084870470848704708487047405DC6003D
:100B400000093D00C0EA210180BA8C010048E8019B
:100B5000005A62020024F40080841E0040420F000C
:100B6000014B1868704700BF081000202DE9F04FB6
:100B70009A46564B85B01B7806460F461546DDF85B
:100B80003C909DF844B0DDF85080002B00F0978039
:100B9000072A00F296800E9B002B00F09280B9F19C
:100BA000000F00F08E80129BB3F5006F00F3898078
:100BB000012803D1109B002B00F08380444B03EBF2
:100BC00005131B7B002B7ED0424C1022002168466F
:100BD00006F0EAFB04EB45141022A7BB3946204679
:100BE00006F0E2FB43F210036380BBF1000F03D178
:100BF000E37843F00303E370364A0E9B02EB451C97
:100C0000CCE90193129B6901581E9DF84C30C0F34A
:100C10000A0003F003039B0643EA001E53582E48C4
:100C2000012E00EA03004EEA0003CDF800A0535065
:100C300017D0B8F1000F2ED19CF8023068F30413DE
:100C40008CF8023027E00021204606F0ADFB4FF47F
:100C500044736380BBF1000FCED1E37843F03003DF
:100C6000C9E713230CF1100ECCF80C309CE80F00F0
:100C70008EE80F006FF00301DCF81C20109B61F37D
:100C80009F02012FCCF81C20CCF8143003D1CCF8F3
:100C90001890CCF8043000270D4A290102EB051307
:100CA00042F80180159A28465A60694622469F609C
:100CB0005E7301F019F9384605B0BDE8F08F0748BA
:100CC000FAE70748F8E70748F6E700BFC5570120ED
:100CD00090520120905101200F80FFF3028000F01C
:100CE000018000F0078000F038B5124B05461B78F4
:100CF000DBB1E0B105F005FB0F4A00231146147B80
:100D000054B92B6001251A0101EB03131D738C509C
:100D100005F0FDFA204638BD0133082B02F1100220
:100D2000EDD105F0F4FA0548F5E70548F3E7054885
:100D3000F1E700BFC557012090520120048000F068
:100D4000028000F0018000F038B505F0DAFA0023E7
:100D500005460B4A147B6CB90133082B02F11002D3
:100D6000F8D101F039F8074B28461C7005F0CFFA8E
:100D7000204603E0284605F0CAFA034838BD00BF04
:100D800090520120C5570120058000F00D4B10B591
:100D90001B78044693B1072812D805F0B2FA0A4B23
:100DA00003EB04131A7B2AB100241C7305F0AFFA7D
:100DB000204610BD05F0ABFA0448FAE70448F8E70E
:100DC0000448F6E7C557012090520120068000F044
:100DD000028000F0018000F0154B13B51868002365
:100DE00001908DF8043005F08CFA124B1C7824B178
:100DF00005F08DFA104802B010BD01221A7005F0FE
:100E000086FA0E4B01A81C731C7783F82C4083F8DC
:100E10003C4083F84C4083F85C4083F86C4083F896
:100E20007C4008238DF8073001F014F82046E2E7F3
:100E3000E9740008C5570120038000F0905201209A
:100E40000A4A08B512785AB107280BD8084A02EBAB
:100E500000131B7B43B1002100F0DCFF002008BD24
:100E60000448FCE70448FAE70448F8E7C5570120BE
:100E700090520120028000F0018000F0078000F015
:100E80000A4A08B512785AB107280BD8084A02EB6B
:100E900000131B7B43B1012100F0BCFF002008BD03
:100EA0000448FCE70448FAE70448F8E7C55701207E
:100EB00090520120028000F0018000F0078000F0D5
:100EC0000A4A08B5127852B107280AD8084A02EB34
:100ED00000131B7B3BB101F089F8002008BD0548D9
:100EE000FCE70548FAE70548F8E700BFC5570120C9
:100EF00090520120028000F0018000F0078000F095
:100F00000D4B1B7893B1072812D889B10B4B03EB1B
:100F100000131B7B73B10A4B1A6D012383401342EC
:100F200014BF0123002300200B7070470548704751
:100F30000548704705487047C55701209052012069
:100F400000000450028000F0018000F0078000F0F3
:100F50000B4A10B512780C4662B107280CD859B16B
:100F6000084A02EB00131B7B43B101F05BF82070D1
:100F7000002010BD0448FCE70448FAE70448F8E7FD
:100F8000C557012090520120028000F0018000F03E
:100F9000078000F0184B2DE9F0411F6D5B6D1F407D
:100FA00000D5FEE701260025144CDFF858803742B3
:100FB00018D02368C8F85060A3B1A1682846013151
:100FC0006268A1609847637B012B0BD150B90C4B31
:100FD00003EB45131A7B60F341021A731A7F60F327
:100FE00041021A770135082D4FEA460604F1100434
:100FF000DDD1BDE8F08100BF000004509052012017
:101000009051012000200450044BD3F88420D206D4
:10101000FBD4D3F88400C0F3811070470040005027
:1010200038B5124B0546D3F880300C4603F0030365
:10103000022B0BD0032B0DD0012B0FD1FFF714FD8A
:101040000D2305B1286004B1236038BDFFF746FDCC
:101050000723F6E7FFF702FD0623F2E7044841F213
:10106000DF1105F0BBF800231846EAE700800050C6
:10107000ED74000838B51A4B0546D3F820010C462C
:1010800000F00700062821D8DFE800F028040C143F
:1010900010181C00FFF7E2FC052305B1286004B11D
:1010A000236038BDFFF710FD0323F6E7FFF716FDB9
:1010B0000723F2E7FFF70EFD0223EEE7FFF7CEFC72
:1010C0000623EAE7FFF700FD0423E6E7054841F2BF
:1010D0005C2105F083F800231846DEE70123DCE7F6
:1010E00000800050ED74000838B5194B0546D3F860
:1010F00028310C4603F00703013B052B20D8DFE81D
:1011000003F003131B0F0B17FFF7A8FC052305B112
:10111000286004B1236038BDFFF7A0FC0623F6E782
:10112000FFF7DCFC0723F2E7FFF7CEFC0323EEE733
:10113000FFF7CAFC0423EAE7FFF7CCFC0223E6E74B
:10114000044841F2640105F049F800231846DEE73F
:1011500000800050ED740008F7B50027144B01978C
:10116000D3F88041064604F00304022C0D4614D047
:10117000032C0DD0012C14D1394601A8FFF77AFFBA
:101180000F240EB1019B336005B12C6003B0F0BD9C
:10119000FFF7A4FC07240190F3E7FFF79BFC019005
:1011A000EFE741F2B131034805F018F83C46E8E7B3
:1011B00000800050ED74000838B50F4B0546D3F899
:1011C00090320C4603F00303012B09D0022B0BD104
:1011D000FFF784FC072305B1286004B1236038BD04
:1011E000FFF778FC0223F6E7044841F2501104F0BF
:1011F000F5FF00231846EEE700800050ED7400086C
:10120000002337B50193194B0546D3F820320C461D
:1012100003F00703042B1FD8DFE803F025030F14A6
:101220001900002101A8FFF75FFF11230DB1019AFA
:101230002A6004B1236003B030BDFFF74FFC0723E1
:101240000190F3E705F00EF80A230190EEE7FFF7AF
:1012500087FC09230190E9E741F22301044804F0E7
:10126000BDFF0023E2E70123E0E700BF008000505C
:10127000ED74000838B5104B0546D3F840310C46E4
:1012800003F00303022B0BD0032B0DD0012B0FD146
:1012900004F0E8FF0A2305B1286004B1236038BDDB
:1012A000FFF75EFC0923F6E704F0DFFF0B23F2E70C
:1012B00001230020EFE700BF00800050002337B576
:1012C0000193184B0546D3F860320C4603F0070330
:1012D000013B032B1FD8DFE803F0020E1914002195
:1012E00001A8FFF7C7FE0F230DB1019A2A6004B1D0
:1012F000236003B030BD002101A8FFF7BBFF10231E
:10130000F2E7FFF7EBFB07230190EDE7FFF7E2FBC6
:1013100002230190E8E741F2C801034804F05EFFB0
:101320000023E1E700800050ED74000873B500244D
:101330000F4B0194D3F87032064603F00303012BE0
:101340000D4607D0022B11D041F22611094804F0B6
:1013500045FF04E0214601A8FFF78CFF10240EB1E1
:10136000019B336005B12C6002B070BD1424F6E718
:1013700000800050ED74000838B5164B0546D3F8D0
:1013800000020C4600F00700042819D8DFE800F03E
:1013900020030B0F130004F065FF0A2305B128603A
:1013A00004B1236038BDFFF7DBFB0923F6E704F047
:1013B0005CFF0B23F2E7FFF771FB0E23800AEDE7DA
:1013C000054841F26F4104F009FF00231846E5E7A4
:1013D0000123E3E700800050ED74000838B5164B98
:1013E0000546D3F808020C4600F00700042819D877
:1013F000DFE800F020030B0F130004F033FF0A2393
:1014000005B1286004B1236038BDFFF7A9FB0923AB
:10141000F6E704F02AFF0B23F2E7FFF73FFB0E236A
:10142000800AEDE7054841F2A74104F0D7FE00230A
:101430001846E5E70123E3E700800050ED7400085B
:1014400038B5104B0546D3F840320C4603F0030381
:10145000022B0BD0032B0DD0012B0FD104F002FF78
:101460000A2305B1286004B1236038BDFFF778FB7B
:101470000923F6E704F0F9FE0B23F2E7012300202D
:10148000EFE700BF0080005038B5124B0546D3F897
:1014900050320C4603F00303022B0FD0032B05D070
:1014A000012B0FD104F0DEFE0A2302E004F0DDFE82
:1014B0000B2305B1286004B1236038BDFFF750FB52
:1014C0000923F6E7044841F2940104F087FE002363
:1014D0001846EEE700800050ED74000838B5104B58
:1014E0000546D3F860310C4603F00303022B0BD002
:1014F000032B0DD0012B0FD104F0B4FE0A2305B14C
:10150000286004B1236038BDFFF72AFB0923F6E702
:1015100004F0ABFE0B23F2E701230020EFE700BF4E
:1015200000800050B0F5207F10B52ED009D8B0F55E
:10153000007F24D003D868B1B0F5C07F0AD0002462
:101540001BE0B0F5607FFAD1124BD3F88040C4F3B2
:10155000011412E00F4B1C6F230B13F00E0FC4F39A
:1015600003340AD0072C08D00F2C06D0032C04D04B
:1015700040F28521084804F031FE601C10BD054B87
:10158000D3F89040C4F30464F7E7024B1C6FC4F334
:101590008024F2E700800050ED7400084FF48032A0
:1015A00038B5104B04469A6600200D46FFF7BAFF87
:1015B00041F671320C4B6043DC69DA635A6804F41B
:1015C000803422F440125DB90849884294BF00205B
:1015D0000120000502435A600CB10022DA6338BDD5
:1015E0000349F2E70090005000000350005A6202E5
:1015F000002D310138B5430904460D460ED140F2A5
:101600002F310D4804F0EAFD002304F01F0485B1DA
:1016100003F580530122A2401A6038BD012B04D08B
:10162000022B04D040F23D31EBE7044BEDE7044BD5
:10163000EBE703F50053EDE7ED740008648000501C
:1016400068800050002130B5B0F5807F85B0044639
:10165000CDE9001100F006816BD8002800F0DB8096
:10166000A0F12004602C75D8602C73D8DFE814F04A
:10167000D300E000D300E000F000F000F000F00044
:10168000F000E000F5007E000B019E007E00E0000F
:10169000E000E000720072007200720072007200DE
:1016A00072000B01E000E000E00023011001E00007
:1016B000720072007200720072007200720072009A
:1016C00072007200720072001501F000D300D300A6
:1016D000D300B1007E007E00B9001A019300C8005B
:1016E000C800720072007200720072007200720014
:1016F000720072007200720072007200720072005A
:101700007200720072007200720072007200720049
:101710007200720072007200720072007200720039
:101720007200720072007200720072007200720029
:10173000CD00B0F5E06F00F0AB803CD8B0F5607F35
:1017400000F081801DD8B0F5007F67D008D8B0F5D3
:10175000C07F60D040F29441594804F03FFD57E00B
:10176000B0F5207F64D0B0F5407FF3D1FFF796F954
:1017700004464FF42070FFF7D5FEB4FBF0F4640884
:101780005FE0B0F5B06F68D00AD8B0F5806F5FD079
:10179000B0F5A06FDED100216846FFF731FD37E0DC
:1017A000B0F5C06F6FD0B0F5D06FD3D100216846CF
:1017B000FFF7E2FD2CE0B0F5286F73D016D8B0F536
:1017C000186F6AD00AD8B0F5F06F74D0B0F5106F0A
:1017D000C0D100216846FFF701FE19E0B0F5206F87
:1017E000B8D100216846FFF769FD11E0B0F5306F10
:1017F0005DD0AFD3B0F5386F45D0B0F5406FA9D10B
:1018000000216846FFF770FC02E0FFF72DF9009019
:10181000009805B030BDFFF741F9F8E7FFF724F96C
:1018200005462046FFF77EFEB5FBF0F50095EFE795
:10183000FFF734F904464FF42070FFF773FEB4FB52
:10184000F0F40094E4E701A8FFF7EAFB019DE8E764
:1018500000216846FFF70EFCDAE700216846FFF733
:101860007BFCD5E74FF0E02302911B695B0705D5B0
:10187000FFF714F90290029B0093C9E703A902A89D
:10188000FFF7F8FCF7E700216846FFF7F3FCBFE736
:1018900000216846FFF7D4FDBAE700216846FFF74C
:1018A000F3FDB5E700216846FFF740FDB0E7684665
:1018B000FFF782FCACE700216846FFF70FFEA7E7C1
:1018C000ED74000808B58020FFF7BCFE034B98427A
:1018D0009EBF4FF48032024B1A6708BD005A620265
:1018E00000A00050436810B5072B044604D940F609
:1018F000B3512A4804F072FCA368032B04D940F6C4
:10190000B551264804F06AFC2378032B04D940F62D
:10191000B751224804F062FC94F90130002B04DA3C
:1019200040F6B9511D4804F059FC4FF400011C4A1F
:10193000637851664FF4D151022002F5B8325162FA
:1019400018494F2B48604FF0010028BF4F2301F585
:10195000805148601169C903FCD4217843EA01230E
:101960005361D4E901131B0143EA0123617B0B435B
:10197000217B43EA41039360E37BA17B1B0143EAA4
:101980004113617C0B43217C43EA41035360A37CF8
:1019900013B16FF4D153536210BD00BFED74000852
:1019A0000090005000100250014B1880704700BF9B
:1019B0006C110020B0F5207F38B577D00ED8B0F587
:1019C000007F61D003D890B3B0F5C07F2FD040F234
:1019D0001231BDE838403D4804F000BCB0F5607FEE
:1019E000F5D13B4A4C1ED2F8FC5015F080751EBF55
:1019F000D2F8FC3023F08073C2F8FC30032C04D9F9
:101A000040F2F221314804F0E9FB324AD2F880304A
:101A100023F0300343EA0413C2F8803035B12C4A76
:101A2000D2F8FC3043F08073C2F8FC3038BD4C1E55
:101A3000012C0AD9102903D8274BCB40DB0704D44B
:101A400040F2C721214804F0C9FB04F02BFC04F04C
:101A500037FC4FF48031214B1E4A1967136F23F472
:101A6000704343EA04331367FFF718F80446FFF79F
:101A7000CBFAC0F10201204604F01CFC00F040F853
:101A8000BDE83840FFF71EBF4C1E1F2C04D940F2A2
:101A900006310E4804F0A2FB0E4AD2F8903023F033
:101AA000F85343EA0463C2F89030BFE74C1E012CA0
:101AB00004D94FF44371054804F090FB054A136FB5
:101AC00023F4806343EA84231367AFE7ED740008CF
:101AD00000ED00E000800050100101000090005077
:101AE00008B50121022000F02FF804F0DBFB04F020
:101AF000E7FB4FF48032014B1A6708BD009000509D
:101B000008B54FF4C070FFF79DFDBDE808400449DB
:101B1000884294BF012102214FF42070FFF74ABF91
:101B200080F0FA02024A536B0342FCD1704700BFB7
:101B300000400950034A0179D36E23F030030B4370
:101B4000D366704700400050F8B50446244BD3F8E4
:101B50008420D006FBD4D3F88430C3F381139C4295
:101B60003CD0FEF781FF012C05460BD11D4B98425E
:101B700004D940F292711C4804F030FB0121284640
:101B800004F098FB04F0B6FB4FF00072174B0746C9
:101B90005A66204604F0BEFB4FF48063104E621E6E
:101BA00093403367736E9A0103D4D6F884309B0652
:101BB0000AD5384604F0A2FB022C0FD12846BDE816
:101BC000F840002104F076BBD6F884309906E9D5B8
:101BD0004FF4F461044804F001FBE3E7F8BD00BFF3
:101BE00000400050005A6202537500080060005027
:101BF00010B50C4608B9FEF737FF074B21461B7896
:101C00003BB1064B984204D80120BDE81040FFF7D5
:101C10009BBF0220F9E700BFC6570120005A6202AD
:101C20004FF0004238B5244B244C5A664AF6CD3367
:101C3000656C014605F00105236428BB0120FFF710
:101C400071FF6368DB0715D51D4B586008461D4BB7
:101C5000226BD2070CD4984208D1072415B1174B38
:101C6000194A1A6404F057FB204638BD0130EFE7EB
:101C70009842F2D00024F1E70132236B13F00803FD
:101C800005D08A42F8D1E8E700220E49F5E78A42FA
:101C9000E3D020210A4A91620121A2F580525160CD
:101CA0000649084A886A800603D49342D5D0013396
:101CB000F8E79342DDE700BF009000500040095074
:101CC0000060095040420F003254FFFF032838B52E
:101CD00004460D4605D8094B33F81030CB40DB07DE
:101CE00004D440F22D41064804F078FA3023012252
:101CF0005C43044BAA401A5138BD00BF88760008E7
:101D0000B975000840D00350032838B504460D4685
:101D100005D8094B33F81030CB40DB0704D440F230
:101D2000FE31064804F05AFA302301225C43044B8A
:101D3000AA401A5138BD00BF88760008B97500085E
:101D400040E0035003282DE9F04104460D461746B4
:101D5000984605D81D4B33F81030CB40DB0704D430
:101D60004FF4B0711A4804F039FA37B129462046C9
:101D7000B8F1000F20D0FFF7A9FF0F21072D04EBCA
:101D8000440688BFA5F108034FEA0616114895BF1F
:101D9000AB009B0004360C3607FA03F2994030443E
:101DA00004F0C0FA7FB929462046B8F1000F06D0EA
:101DB000BDE8F041FFF78ABFFFF7A6FFDDE7BDE80A
:101DC000F041FFF7A1BFBDE8F08100BF88760008B1
:101DD0002076000830C003504FF480020B4B10B542
:101DE000C3F88020BFF34F8FBFF36F8F0024FF2213
:101DF000074B21465C6520209A625C60FFF7FAFB86
:101E00002146BDE810402120FFF7F4BB00E100E0CF
:101E100000000450072838B504460D4603DD77213D
:101E2000084804F0DBF91F2C03D99121064804F07F
:101E3000D5F9064A064B002D08BF13460122A240E1
:101E40001A6038BD90760008F776000840100450FC
:101E50004020045010B5044618B991211F4804F0E1
:101E6000BDF923781B0613F0604F03D092211B4865
:101E700004F0B4F9E3780F2B03D9A321174804F039
:101E8000ADF901212020FFF7B5FB01212120FFF74B
:101E9000B1FB0122124B5A60227812069A606178D7
:101EA000A27842EA01429A61FF229A6200229A6372
:101EB0001A644FF000425A654FF0FF324FF4800130
:101EC00003F500531A65074AC2F88011E3781B0135
:101ED000DBB282F81633116010BD00BF90760008A7
:101EE0000000045000E100E02DE9F0410126C3B2FA
:101EF000072805460C46904606FA03F603DDEC215A
:101F0000364804F06BF91CB9ED21344804F066F949
:101F1000236823F47C1323F00F031BB1F0212F4817
:101F200004F05CF9A37A1B0413F47C0F04D040F294
:101F300009112A4804F052F9E37A1B0513F07E6F69
:101F400004D040F20B11254804F048F9237B5B05CF
:101F500013F0FE5F04D040F20D11204804F03EF96A
:101F60001F4B204F1E65AB00226803F1A04303F511
:101F700088235A60302202FB0575637B2B66E37A67
:101F8000A27A1B0543EA0243227B43EA4253EB65F4
:101F900028F003032B6704F0B4F97B6D33437B65B2
:101FA000237A13B13B6C33433B64637A13B1BB6B4D
:101FB0003343BB632279A37943EA0243084A93611E
:101FC0006179E37943EA014307498B61054B566325
:101FD0009E64BDE8F04104F09AB900BF9076000815
:101FE00000200450000004500010045010B50124DB
:101FF000C3B2072804FA03F404DD40F2971107483E
:1020000004F0ECF804F07DF9054B5A6D22EA040265
:102010005A659C62BDE8104004F079B990760008DA
:102020000000045010B50124C3B2072804FA03F4D9
:1020300004DD40F2B5110A4804F0D0F804F061F96B
:10204000084BDA6A224208D15B6B9C430CBF012427
:10205000002404F05CF9204610BD0024F9E700BF1D
:1020600090760008000004500B4B984211D003F505
:10207000804398420DD003F58043984209D003F580
:102080008043984205D003F58043C31A5842584113
:1020900070470120704700BF0080045030B4184CD6
:1020A000A04214D004F58044A0421BD004F5804423
:1020B000A04219D004F58044A04217D004F5804412
:1020C000A04215D030BC8F210E4804F087B8002004
:1020D00006250D4C73B105FB001004EB800462650E
:1020E00030BC70470120F3E70220F1E70320EFE75F
:1020F0000420EDE705FB0011120204EB8104EEE77A
:10210000008004505D7700080081035038B5054613
:102110000C46FFF7A9FF18B9B421214804F05EF876
:10212000284604F00EF9012205F500531A632B6BC3
:102130009B07FCD4237962881B0243EA8243A27A7C
:102140001343627843EA8213E27A43EAC213227BA2
:1021500043EA4213627B43EA0213A27B43EAC203CF
:10216000E27B43EAC223A27943EA0243E27943EAEB
:10217000424301226B6005F580531A6322780AB945
:102180000223EB6000236B626379217A1B0143EA2F
:102190008103617A0B43AB600AB10123EB6038BD68
:1021A0005D770008F8B506460F461446FFF75CFF5A
:1021B00020B94FF48671254804F010F8022F04D995
:1021C00040F20D11214804F009F8304604F0B9F846
:1021D000012206F500531A63336B9B07FCD4637A24
:1021E000E2791B0143EA0253A27906EB4715134338
:1021F000E27A43EAC2432B66237A1BB3237B2A6E1F
:10220000394642EA43422A66013B18BF0123304661
:10221000A278FFF743FF012306F580563363637806
:1022200022781B0643EA8263E27843EA023322798A
:1022300043EA8223627943EA0223A27A43EA8203D1
:102240006B66F8BD2B6E2B66E5E700BF5D77000877
:10225000F8B507460C461D4616464AB94FF4A1711B
:10226000314803F0BBFF24B1402D09D1062328E0FB
:1022700021B94FF42070FFF7E5F90446402D42D014
:10228000402D09D87DB1202D17D040F28911BDE82D
:10229000F840254803F0A2BF602DF6D1B6EB940FAD
:1022A0003CD804230DE0B6EB141F04D94FF4BA71E7
:1022B0001D4803F093FF102303E0B6EBD40F1CD8A6
:1022C00008235E43730803EB4413B3FBF6F3174E86
:1022D000203BB6EBC30F4FEAC30404D24FF4D071D6
:1022E000114803F07BFFBB68344023F06003BB6000
:1022F000BB681D43BD60FC61F8BD40F279110A481E
:1023000003F06CFFDCE70623B4FBF3F3B342ADD27A
:102310004FF4BF71044803F061FFA7E740F2831157
:10232000014803F05BFFBCE7C5770008F8FF7F00BA
:1023300038B50C4B044698420D4604D04FF4337127
:10234000094803F04BFF012204F580535A60EB4328
:10235000934003F00A036361656115B904F5005405
:10236000626038BD00C00550C5770008124B10B53B
:102370009842044604D040F24241104803F02EFF38
:10238000012104F58053596040F6AA6341F2050229
:10239000636100230A48A360E365E26004F500522C
:1023A0002361E361E36490640348A365844204BF4E
:1023B00023656365516010BD00C00550C5770008F6
:1023C000FFFF0100304B70B5984204460D4604D023
:1023D00040F2FD212D4803F001FF2046FFF7C6FF24
:1023E000012304F580567360AB7C1BB1A36843F0F6
:1023F0008043A360EB7C5BB1234B9C4202BF2A7DF0
:10240000A3F51033C3F8D421E36D43F08003E365F3
:102410002A8A6B7B20461343EA891343E3602B7BB4
:10242000D5E90112FFF714FF6B7D1BB1A36843F4DC
:102430008033A360AB7D1BB1A36843F40043A3606A
:10244000EB7D2A7E1B07120502F4E00203F0E04355
:102450001343A3656B7E9A1E012A4FF0020209D82E
:102460000B49032BC1F8982709D10423F3652B7876
:10247000636170BD0749012BC1F89827F4E7042276
:1024800004F50053DA65F2E700C00550C57700088F
:1024900000D0035000E0035010B54FF42F7200211C
:1024A000044604F081FF8023C4F88C30054B04F10E
:1024B0009C00C4F88430012384F88830BDE81040C3
:1024C00003F08DBE2D78000810B5D0F8A0400A4664
:1024D00084B904F0F8F8044610B90024204610BD71
:1024E0002D2896BF064B074953F82010064804F0E4
:1024F00030FAF3E7D0F8A4101046A047EDE700BF8C
:10250000D8780008307800083E780008F8B590F8D0
:102510008060044616B100263046F8BD03F020FF67
:102520000028F8D1012384F8803094F8883033B142
:10253000D4F88410194884F8886004F00AFA4FF03F
:10254000FF37D4F8B402421C1CD0C4F8B47210F0A7
:10255000FF0520D0204603F000FF2946204600F06A
:10256000AFFB0028EDD0204603F0FCFE94F8883045
:102570006BB1D4F88410094804F0EBF9002384F817
:10258000883004E004F0CAF9431CE0D1012600239E
:1025900084F88030C0E70126D3E700BF0B7A00083B
:1025A000F8B50B780446302B0D46164604D14B780F
:1025B00003F0DF03582B11D0284F6A1E12F8011FB9
:1025C000002934D128460A2203F0D4FD202C0346EA
:1025D0000D4631D1B1FA81F040091AE04A1C1F4979
:1025E00012F8013F8BB9284604F017FF1C4B023844
:1025F0002340032B12D10134A41084420AD1A878BD
:1026000037288CBF0020012003E0CB5C13F044008E
:10261000E6D1F8BDCCBF01200020FAE7002CB8BFFE
:102620000334B0EBA40FD4BF01200020F1E77B5CA2
:1026300013F00400C2D1ECE726B1084302D0013BFD
:1026400061F100050122A240013A1A40002D08BFA5
:102650009A420CBF01200020DBE700BFDE810008AA
:1026600003000080F0B5037801467B2B17D10646A6
:10267000022400220B4F16F8015F7D2D05D10B5D62
:102680006BB9D24302F0010008E07B5D13F0440017
:1026900002D001320134EEE7202DFBD0F0BD002046
:1026A000FCE700BFDE81000870B506460D4604F069
:1026B000B4FE0446304604F04CF9044EAC4200D35C
:1026C00070BD304604F045F90134F7E7FE790008A3
:1026D0002DE9F84F044602216048FFF7E5FF1E216F
:1026E0002068FFF7E1FF6368586804F032F95C483E
:1026F00004F02FF967683B7BFD2B12D8D7F80880D0
:102700004FF0FF34404604F088FE0646DFF84C9157
:10271000DFF8A8A1DFF864B10C3717F8013BFF2BF5
:1027200001D1BDE8F88F212B14D8212B14D8DFE874
:1027300003F0178C8884807C78741313131313139D
:102740001313706C6864605C5854131313131313E1
:102750001313504CFE2B34D006B10134414D02E02E
:1027600006B10134404D02214846FFF79DFF1E216E
:102770004846FFF799FF504604F0EBF859462846C3
:1027800004F02CFE3949002818BF2946384804F0C7
:10279000E0F83B78202B02D12B2004F0CEF835480E
:1027A00004F0D7F84EB118F804301F2B05D018F8F4
:1027B00004001F2801D0B4424BDB294804F0C9F8BB
:1027C000ABE706B101342C4DCDE706B101342B4DFA
:1027D000C9E7002EA1D001349FE706B10134284D8E
:1027E000C1E706B10134274DBDE706B10134264DDE
:1027F000B9E706B10134254DB5E706B10134244DE2
:10280000B1E706B10134234DADE706B10134224DE5
:10281000A9E706B10134214DA5E706B10134204DE9
:10282000A1E706B101341F4D9DE706B101341E4DED
:1028300099E706B101341D4D95E706B101341C4DF1
:1028400091E706B101341B4D8DE706B101341A4DF5
:1028500089E704F072F80134A9E700BF127A000892
:10286000857F00089D79000897790008F4790008B1
:102870000B7A0008F8790008A5790008AB79000800
:10288000B4790008BB790008C6790008D07900083F
:10289000DA790008C5790008CF790008D9790008ED
:1028A000E2790008E6790008EE79000891790008DD
:1028B00098790008ED79000890790008F679000809
:1028C0002DE9F04F93B005468B4600240092049307
:1028D00004F0A3FD1C9F049B05901C6028463C60EF
:1028E0000AAA09A904F056F8064658B90A9804F04D
:1028F00094FD3446B146049B1860D5F89C30039390
:10290000039B1BB9204613B0BDE8F08F039B9B6867
:102910000193002B69D02E4416F8013B202B12D0D6
:1029200000260C237343019A02EB030AD358029347
:10293000002B55D0DDF82480C84551DB9AF80830CB
:102940002BB1721C35E03B6801333B60E4E73B6828
:10295000D5F894200299D21A049B1A6012AB03EBAB
:10296000890353F8203C1846069304F025FD079090
:102970000028E6D1029804F050FDDAF8041003466E
:10298000087BD7F800A0FE28079A16D108F1FF3877
:10299000C8452ED00B6806980292019304F03DFDC5
:1029A0000AF10103029A0344E95C21B13B6009F199
:1029B00001091646B5E70133F6E7D5F89420A2EBF6
:1029C0000A029A42BDDC5846069304F026FD069B97
:1029D00003447B2B1DD958461E4A009903F022FC64
:1029E0002B46059A2A449A422AD1039B1B680393DB
:1029F00086E7D5F89420A2EB0A029A42E3DDD1F8EB
:102A0000008058F80C2B82B9059B3B60049B1A6030
:102A1000E6E75846029A009903F004FC58460E4A2D
:102A20000099013403F0FEFB8BE75846009903F050
:102A3000F9FB5846084A009903F0F4FB0134E0E73B
:102A400013F8011B0029CED14FF0200103F8011C1F
:102A5000C9E700BFFB790008FE7900082DE9F047BF
:102A6000002486B01C60DDE90EA8064689468AF877
:102A700000401168154888F8004017461D468DF83B
:102A80001740FDF755FF18B901242B6801332B605F
:102A90000020D6F89C6036B914B1012388F80030C4
:102AA00006B0BDE8F087B06868B14B460021CDE9BB
:102AB00002A8CDE900750DF1170203F0A1FD9DF804
:102AC0001730002BE8D13668E5E700BF007A000830
:102AD0002DE9F04300260446ADF5457D7C223146C4
:102AE00005A802AF049604F05FFC80222046009700
:102AF00003AB04A9FFF7E4FE01283ED104A804F0CB
:102B00008CFC03993B68A0EB01080B44234428EAA2
:102B1000E878054604A801444246184604F070FCD3
:102B200000F80860D4F89060039B3968D4F89020CE
:102B30001944B14212DCD4F89410E81A0244C4F8E3
:102B40009020014404AAC4F89410D41825182B1B13
:102B5000002B0DDC0DF5457DBDE8F083A05C03F096
:102B6000ECFED4F8903001360133C4F89030DBE746
:102B700014F8010B03F0E1FEE9E7EBDD24AD802260
:102B80003146284604F010FC44AB4FF40072314645
:102B9000184604F009FC0DF1100903464A464FF0AF
:102BA0000108314612F8016B002E49D104A843F800
:102BB000281004F032FC2946334619F8016B0DF554
:102BC000887C5CF8042B824243D10133984501F89C
:102BD000016BF2DAD4F89060039BB34242DC2346E7
:102BE000354A04A9354803F0B4FE284604F015FC24
:102BF0000646039B3F68F61A1F44E0191D4426EA67
:102C0000E67204F198031744984204EB07014ED290
:102C100004F1900399424AD96A1E81190B1A002BBC
:102C200039DD12F8013F00F8013BD4F89030013350
:102C3000C4F89030D4F894300133C4F89430EDE700
:102C4000202E01F1010104BF43F8281008F101080A
:102C5000A8E70DF1100E7244D25CB242B1D000224E
:102C6000EA54B7E7D4F890300136E05C03F065FE33
:102C7000D4F890300133C4F89030ADE7D4F8902008
:102C8000013B0132C4F89020D4F894200132C4F8FA
:102C90009420002BF2DC00232E44E355731B002B01
:102CA0007FF758AF15F8010B03F047FEF6E729460A
:102CB00004F0A6FB3346ECE72D780008057A0008FF
:102CC0002DE9F843D0E9245604460F46002294F833
:102CD0009830012B07D10A2F07D1002384F89830B0
:102CE0000020BDE8F88300F29F801B2F01D1022352
:102CF000F4E70D2F0DD1012384F898300D2003F057
:102D00001CFE0A2003F019FE00230120C4E924332D
:102D1000E7E74FF00008082F84F8988034D1454544
:102D200030DDB5420FD1384603F007FE202003F016
:102D300004FE013D384603F000FE013E04F8058024
:102D4000C4E92456CCE7FBDA05F1FF39384603F035
:102D5000F4FD04EB0903A6EB09026119184604F01F
:102D600009FB04F806800146013E484803F0F1FDE6
:102D700035464D4501DC4D46E2E7082003F0DDFD18
:102D8000013DF6E7ACD0DBE77F2F1CD1002EA7DD9D
:102D9000B542A5DA6319691C21441846721B04F078
:102DA000E9FA04F806800146394803F0D2FD08200C
:102DB000013E03F0C2FDB542F9D1D4F89430013B95
:102DC000C4F894308CE70A2F98D0092F03D12046FD
:102DD000FFF77EFE84E7D4F88C30013BB3427FF7E7
:102DE0007FAFB54204EB050805F101090CDB38465D
:102DF00088F80070D4F89430C4F890900133C4F887
:102E0000943003F09AFD6BE74146721B04EB090016
:102E100004F0B0FA404603F09CFD0820013E03F0A8
:102E20008CFDB542F9DDE2E7022B06D15B2F01D123
:102E3000032353E784F8982049E7032B7FF450AF2E
:102E4000413F84F89820032F3FF64AAFDFE807F0B0
:102E500002070A160121204603F020FD40E74FF04B
:102E6000FF31F8E7B542BFF63BAF605D03F065FDAB
:102E7000D4F890300133C4F8903031E7002D7FF75B
:102E80002FAF013D0820C4F89050BAE70E7A000831
:102E9000137A000813B50024064A6846536F43F0BE
:102EA0000103536700948DF80440FEF743FE20466B
:102EB00002B010BD0040005030B5094D87B001ACE4
:102EC0000FCD0FC42B6801A823603F238DF8053078
:102ED000FEF708FD1420FEF767FD002007B030BDA7
:102EE000187A00086FF00403502110B50A480B4C03
:102EF00013F0800F03F1010207D123444F2A83F816
:102F000000131346F4D1002010BD03F00F03043B5F
:102F1000034419761346EBE700ED00E000E100E022
:102F200010B5044603F0E6F9024B1C6003F0E6F925
:102F3000002010BD1853012010B503F0DBF9034B3E
:102F40001C6803F0DBF9204610BD00BF18530120B8
:102F5000302238B5037A0446534303F1A04303F506
:102F60008023DD6ED0E9032313449D4201D8AA4299
:102F700004D94FF43E71054803F030F9D4E9030356
:102F800003449D4218BF284638BD00BF2C7A000874
:102F900030B51446054687B01046FFF7D9FF636980
:102FA000024683423CBFD4E903315B181B1AABB124
:102FB0001249049403910021CDE9013101230093CA
:102FC0002846D4E9001303F053F920B14FF43471CB
:102FD0000B4803F003F9002007B030BD01226276F0
:102FE00094F82D20002AF6D084F835301321E369B7
:102FF000204698472046636A9847ECE7912F0008DF
:103000002C7A00082DE9F04788B004460F46164692
:10301000984603F076F98146002E00F0AD80237EBD
:1030200003F0FF02002B00F0E0802046FFF790FF46
:1030300063698246984206D1637E23B940F27F31AC
:103040006B4803F0CBF86569AA459DBFD4E903320C
:103050009B185D1BAAEB0505B54228BF354603F05A
:1030600050F994F82D308246002B40F096802A4685
:103070003846616904F0C4F963692E462B446361E4
:103080002CE06069037803F0FD01112940F0828093
:10309000216B884205D1A3F111014B424B4184F8C9
:1030A0003430013E6369216B01328B4203F101032D
:1030B00008BF236363619542E3D1D4E90323216B05
:1030C0001344994208BF2263216B8A4201D88B4284
:1030D00004D84FF46D71464803F080F8D4E9032317
:1030E00061691344994208BF626161698A4201D8EB
:1030F0008B4204D84FF471713D4803F06FF8002300
:10310000207A6376FDF79CFE20B140F211313848F9
:1031100003F064F82046FFF71BFF636983423FD149
:103120000023E568237694F82D30656103B12563AB
:103130002046636A98472F4B04940393002302931D
:1031400023692A4601930123009363682168207A4A
:1031500003F08EF820B140F22D31254803F03EF8FF
:10316000207AFDF78DFE20B140F25131204803F066
:1031700035F8504603F0CBF84846C8F8006003F035
:10318000C6F8D8F80030002B0CBF1B20002008B078
:10319000BDE8F08707F8013B84E72E4600228AE766
:1031A0000123207A23760DF11E01FDF7D1FE20B117
:1031B0004FF450710E4803F011F89DF81E30207A3C
:1031C000002BCDD00DF11F01FDF79AFE20B140F28A
:1031D0004631074803F002F89DF81F10207A0029B5
:1031E000BED12246FFF7D4FEBAE71646C4E700BFB9
:1031F0002C7A0008912F000870B504460568FFF787
:103200009BFE844202D10020FFF78AFE95F93630FA
:10321000002B11DB012203F01F015B099B0003F16E
:1032200060438A4003F56143C3F88021C3F88020DE
:10323000BFF34F8FBFF36F8F287AFDF741FE20B1A8
:103240004FF4ED71104802F0C9FF287AFDF79EFD9A
:1032500020B14FF4EF710C4802F0C0FFFDF774FD90
:1032600038B10A4B984204D04FF4F171064802F08D
:10327000B5FF00232846C4E90033C4E90433A36042
:10328000AB6ABDE8704018472C7A0008058000F052
:103290002DE9F84304460D4690F82C80DFF8AC90F9
:1032A0008E18AE4228D094F82D3083B103F029F85F
:1032B000237E07461BBB226B63699A4204D040F20F
:1032C000F911484602F08AFF384603F020F894F8D6
:1032D0003430002BE5D0B8F1000F06D02B780A2B44
:1032E00003D10D212046E36998472046E36915F88C
:1032F000011B98470028D4D00020BDE8F883204661
:10330000FFF726FEE1680138884238BF2069D4F80B
:1033100030C03CBF00F1FF30401803469C450BD045
:1033200013F80129112A01D0132A07D1A2F11103A0
:103330005A425A4184F834202063C5E7994282BF3B
:10334000236903F1FF335B18E8E700BF2C7A00081C
:10335000F0B50C460646154687B0382200212046B7
:103360001F4604F021F895E8030000232A6923761C
:10337000EB6884E80300C4E904232A7DE36084F851
:103380002C20AA7D2363012384F8343084F835305F
:103390000C9B84F82D2023620D9BE76163620E9BDA
:1033A000A3622B7A84F83630204B34607360204B54
:1033B000B360204B3361204B7361204BF360FDF70A
:1033C0000BFD30B11E4B984203D01024204607B0AD
:1033D000F0BD002104F10800FDF786FC0028F4D1BF
:1033E0000127184B0494CDE9020323690097019348
:1033F0006368E2682168207A02F03AFF04460028F8
:10340000E3D195F90830002B0BDB03F01F025B09B9
:103410009B0003F16043974003F56143C3F880715B
:103420001F603046FFF77CFDD0E700BF91320008F7
:1034300005300008F16A0008F76A0008F931000851
:10344000038000F0912F00082DE9F0411C46574BF6
:1034500086B00293564B0127019300230C9D0093E5
:103460009046CDE903770A46524B2946FFF770FF95
:103470000646002840F0918023683946AB636368B4
:103480003A20EB63637A85F84130237A85F840303F
:10349000E37A85F84330A37A85F84230637B85F878
:1034A0004530237B85F84430E37B85F84730A37BA8
:1034B00085F84630FEF79EF83B460422617A207A72
:1034C000FEF740FC3B460222E17AA07AFEF73AFC86
:1034D00039466068FEF78EF888F80060414620683B
:1034E000FEF770FF1422637C5B0103F1A04303F538
:1034F0007033C3F89827617A227A42EA0142C3F80E
:10350000B027E17AA27A42EA0142C3F8A82785F8F7
:10351000486098F81930032B45D8DFE803F03542AE
:10352000021C022385F8483000230422E17BA07BA3
:10353000FEF708FC022741F29871627C1E4B03EBF8
:1035400042104750E07BA17BBD3241EA004103EBD2
:103550004213596018E0012785F848300222002301
:10356000617B207BFEF7EEFB617B637C227BBD33BE
:1035700042EA014210495B01CA500422236803F564
:103580008053DA65002FCFD1AA6B0521D36C206858
:1035900043F00403D364FEF7CBFE304606B0BDE82B
:1035A000F0810027D8E72326F7E700BF096B000862
:1035B000FD6A0008816B000800C003502DE9F04F40
:1035C0009B4691B00B1E0A93AD4B904614BF8146AB
:1035D000994600241A9E9BF8000070B9444538BFF4
:1035E000224643464FF000000A9928BF08F1FF32F7
:1035F000C847204611B0BDE8F08F25280BF1010B1C
:1036000006D0224643460A99651CC8472C46E2E785
:1036100000230DE02D2A2AD0302A06D0303A092A7C
:103620004FF0000711D80A2532E043F001038B4622
:10363000594611F8012B2B2A1CD0EBD8202A1CD07C
:10364000232A1DD02A2A2BD000279BF800202E2ABF
:1036500064D19BF801100BF10102A1F1300009289F
:1036600043F4806351D800254FF00A0C26E043F064
:103670000203DCE743F00403D9E743F00803D6E78D
:1036800043F01003D3E78B4605FB0722A2F1300776
:10369000594611F8012BA2F130000928F3D9D4E7DB
:1036A00056F8047B8B46002FBCBF43F002037F42D9
:1036B000CBE702460CFB0511A1F13005104610F8CE
:1036C000011BA1F1300EBEF1090FF2D9114611F81C
:1036D000010B6C282CD024D8682830D06A2837D029
:1036E00011468B461BF8010B672875D857284BD815
:1036F000452807D085D9462800F03181472880D158
:1037000043F4006343F020033FE12A2907D156F830
:10371000045B0BF1020225EAE575D7E75A4600255E
:10372000D4E7742801D07A28DAD143F48073D8E73B
:1037300050786C28F9D143F44073911CD1E750784C
:10374000682802D043F08003CBE743F0C003F4E7DE
:1037500043F40073C5E70A2A00F06281072A7FF468
:1037600050AF43F0210305930823CDE90353102301
:10377000CDE9011356F8043B2246009348464346E0
:103780000A9903F034FBFAE0A0F158020F2A3FF641
:1037900038AF01A151F822F00938000803360008BB
:1037A0000336000803360008033600080336000815
:1037B0000336000803360008033600080336000805
:1037C00009380008A93900080938000883390008B9
:1037D0006339000883390008A0F16902D2B20F2AC8
:1037E0003FF60FAF012149F2410C914011EA0C0163
:1037F000B1D0782803F4806122D1002900F09080B4
:1038000023F00D02102307E0622803F4806220D128
:1038100042BB23F00C02022312F4007100F08380FB
:10382000CDE907720022CDE9043206F1070A2AF039
:10383000070A06950292FAE80223CDE900233DE04B
:103840006F2812D123F00C0209B123F00D020823D6
:10385000E2E7582816D1002A39D123F00C0242F0B1
:103860002002CFE723F00D02D5E7692823F01002EC
:1038700030D023F01C0209B123F01D020A23CBE74C
:103880002D6C000842BB23F01002930527D50736A4
:1038900026F00706B24671685AF8083B0A26CDE9B9
:1038A00007720027CA0F0029CDE904670695029226
:1038B00002DA5B4261EB4101CDE900314346224629
:1038C00048460A9903F0D6FA0446564683E623F0A2
:1038D0000D02C4E70029D8D023F01102D5E7D005A6
:1038E00006F1040A01D5336802E0510613D5337896
:1038F000CDE904720A22002B02924FEAD37203959B
:103900000192B8BF5B4200934346224648460A995B
:1039100003F06DFAD8E71306E5D5B6F90030E7E70E
:1039200023F00C026EE7D00506F1040A06D5CDE9B6
:103930000472CDE9023501913368E4E7510608D5F8
:103940003178CDE902350023CDE90472CDE90013C9
:10395000DAE7316812F0800F18BF89B2F1E743F05F
:103960002003CDE90173073626F007060095B6EC73
:10397000020B4346224648460A99FCF7BDFD044621
:1039800029E6672801D143F40063CDE901730736C6
:1039900026F007060095B6EC020B43462246484641
:1039A0000A99FCF7EDFBEAE713F0020523D04FF08C
:1039B000010A631C0B93224643460A9916F8040B2E
:1039C000C8475DB354460B9A1EE0434620200A992F
:1039D000C8470AEB04020AF1010A5745F5D8002F3F
:1039E00007F1FF3308BF002307F1010A1C4408BF99
:1039F0004FF0020ADDE7AA46EBE7551C43462020BC
:103A00000A99C8472A460134BC42F6D3A7EB0A03F9
:103A1000574538BF00230B9A1A440B920B9CDAE5EA
:103A20003246002D52F8046B14BF29464FF0FF3187
:103A30000B9232463144107808B18A4211D1A2EB80
:103A4000060A13F480620C9202D0AA4528BFAA4647
:103A500013F002030D931BD1AAEB040322460F932C
:103A600008E00132E7E7531C0E93202043460A99F1
:103A7000C8470E9A0F9BD3189F42F4D8A7EB0A03AE
:103A8000574538BF00230AF101021C4403EB020A28
:103A9000A31B0E9304E01D46434622460A99C847DD
:103AA0000E9BF41816F8010B28B10C9B002BF3D0D9
:103AB0006B1E002DEFD10D9B93B12246AAEB04059E
:103AC00005E0561C434620200A99C8473246531940
:103AD0009F42F6D8A7EB0A03574538BF00231C4482
:103AE0000B9E78E50FB41FB506AA52F8043B02A955
:103AF0000392009204484FF0FF32FFF75FFD05B0DC
:103B00005DF804EB04B07047136F00081FB503465F
:103B100000914FF0FF3203A90248FFF74FFD05B0B7
:103B20005DF804FB136F000830B50A4C0A4B22689D
:103B30000A4D1A600A4B85B02B600A4B0193FFF7C0
:103B4000FBF92B68029001A92068039302F01DFC89
:103B500005B030BD1C10002014530120105301206B
:103B600010100020107B000838B5FFF7E5F9044677
:103B7000064D2B68D3F8B002FFF7D2F9286802F09F
:103B800018FC2046BDE83840FFF7CAB91C100020D9
:103B900010B5224CFDF7A4FF236F23F0070343F079
:103BA0000203236702F091FBD4F82031002023F0B8
:103BB000070343F00103C4F82031D4F8283123F07F
:103BC000070343F00103C4F82831D4F8403123F04F
:103BD000030343F00203C4F84031D4F8603123F00A
:103BE000030343F00203C4F86031D4F8403223F0F9
:103BF000030343F00203C4F84032D4F8003223F048
:103C0000070343F00203C4F80032D4F8083223F06B
:103C1000070343F00203C4F8083210BD00800050CF
:103C200030B51F4D95B00DAC0FCD0FC495E8070012
:103C3000292384E807001B4A0021CDE9022305233C
:103C4000CDE904118DF8113004230E220DF1260068
:103C500006918DF8133003F0A7FB4FF48021124B2F
:103C60001248CDE9071309238DF824300A238DF873
:103C700025300F4B0DAA0A9320230B9301238DF8B7
:103C800031300C4B07A9009302ABFFF7DDFB044674
:103C900018B18621084802F0A1FA204615B030BDBF
:103CA0008C7B000800C0055024C005502856012018
:103CB000C7570120DC550120247B000808B5FFF719
:103CC000AFFF28B1BDE808409A21024802F086BA49
:103CD00008BD00BF247B0008014802F057BF00BFA9
:103CE0002856012007B502F089FF03F01AF900F009
:103CF000DFF80022FF20114600F07EF80A2000F0D5
:103D0000B3F8012000F0C2F800F004FA01F096F8D0
:103D10001748FFF7E7FE8020FDF794FC3F2203469B
:103D200014491548FFF7DEFE402212491348FFF7F9
:103D3000D9FE41220F491248FFF7D4FE4FF48062AA
:103D40001421104B1048009200F082FA20B1432257
:103D500008490E48FFF7C6FE00F0E2FC4FF47A7007
:103D600000F096FE02F057FF03F0DCF8FAE700BF20
:103D7000857F0008A87B0008AF7B0008C47B000893
:103D8000E27B0008FE7B0008037C0008087C00083A
:103D900070B5074C0646236B0D46DB0704D440F292
:103DA0004231044802F01AFA04EB4614A56670BDCD
:103DB00000000550227C0008014B1878704700BFB6
:103DC0006E110020014B1878704700BFEA570120A0
:103DD00010B1064B1B78037011B1054B1B780B70AB
:103DE00012B1044B1B781370704700BFE9570120D4
:103DF000E8570120E7570120164B70B51870164B95
:103E00000C461970154B1A70154B1D78F5B16426C8
:103E1000144B1B7813FB04F4B4FBF6F410FB03F013
:103E2000E5B213FB02F4B0FBF6F0B4FBF6F4C1B25A
:103E3000E4B20020FFF7ACFF29460120FFF7A8FFFE
:103E40002146BDE870400220FFF7A2BF29462C465C
:103E5000EFE700BFE9570120E8570120E7570120AD
:103E6000EA5701206E110020044B1870044B1A7899
:103E7000044B1978044B1878FFF7BEBF6E11002071
:103E8000E7570120E8570120E9570120044B18703B
:103E9000044B1A78044B1978044B1878FFF7ACBF21
:103EA000EA570120E7570120E8570120E957012090
:103EB00030B5012189B03A20FDF79CFB0121262075
:103EC000FDF798FB0023042218460821FDF73AFF6E
:103ED0000023042218460921FDF734FF00230025A2
:103EE000184604220A21FDF72DFF0F2200210DF1B3
:103EF000110003F059FA0D220021684603F054FA2C
:103F000026208DF81050FDF79DFB2A4B2A4CB0FB64
:103F1000F3F003230138ADF8120004A920468DF810
:103F20000630FEF7F3F80722244B2946C3F838275A
:103F30004FF40022C3F83C274FF41022C3F8402767
:103F40004FF420222046C3F844276A46FEF72AF998
:103F50006A4601212046FEF725F96A4602212046DD
:103F6000FEF720F9236BDB0704D440F2B641144876
:103F700002F034F94FF480730021E3610846FFF743
:103F800007FF00210120FFF703FF00210220FFF7B8
:103F9000FFFE00230B4A13700B4A13700B4A137079
:103FA0000B4A137064220B4B1A700123E36009B0B3
:103FB00030BD00BFA08601000000055000C00350C6
:103FC000227C0008EA570120E7570120E85701202A
:103FD000E95701206E11002008B5104B984216D009
:103FE00003F58043984215D003F58043984211D0E1
:103FF00003F5804398420DD003F58043984209D0E1
:10400000074840F2D22102F0E9F8002008BD4FF045
:10401000FF30FBE74FF6FF70F8E700BF0080045069
:10402000227C000870B5154604460E46FFF7D4FF03
:10403000A84204D24FF45071074802F0CFF8236B26
:10404000DB0704D440F24231034802F0C7F804EB26
:104050004614A56670BD00BF227C000810B504465A
:10406000FFF7BAFFB0F57A7F04D240F2B4410748B7
:1040700002F0B4F8236BDB0704D440F2B6410348E6
:1040800002F0ACF84FF47A73E36110BD227C0008B3
:104090000A46014610B90848FFF7C4BF012801D1FC
:1040A0000648F9E7022801D10121F4E7032801D1EC
:1040B0000021F5E7704700BF0080045000C00450A5
:1040C00010B503281DD8DFE800F0020C181A0E4CBA
:1040D000236BDB0703D411210C4802F07FF8A06E9C
:1040E00009E00B4C236BDA0703D41121074802F0D7
:1040F00075F8D4F8880080B210BD034CF2E7044C88
:10410000E6E70020F8E700BF008004508A7C000842
:1041100000C00450F0B5002489B001213A20FDF719
:1041200069FA01212420FDF765FA01212520FDF718
:1041300061FA0023042206210220FDF703FE00237A
:10414000042209210220FDF7FDFD0023042207219E
:104150000220FDF7F7FD0023042208210220FDF7CD
:10416000F1FD0F2200210DF1110003F01DF90D22C8
:104170000021684603F018F925208DF81040FDF75E
:1041800061FA2B4B0327B0FBF3F02A4E2A4D01387E
:10419000ADF8120004A930468DF80670FDF7B6FFA1
:1041A000284604A9FDF7B2FF244B254AC3F8F87648
:1041B000C3F81877C3F8FC2602F58032C3F800274D
:1041C00002F58032C3F81C2702F58032C3F820279D
:1041D00021466A463046FDF7E5FF6A463046012132
:1041E000FDF7E0FF6A4621462846FDF7DBFF6A46F9
:1041F00001212846FDF7D6FF3046FFF72FFF28465E
:10420000FFF72CFF21462046FFF742FF2146012001
:10421000FFF73EFF21460220FFF73AFF22462146E4
:104220002846FFF7FFFE0123F360EB6009B0F0BD05
:1042300040420F000080045000C0045000C00350F2
:1042400002000600014B1878704700BFEB570120B1
:104250002DE9F04FDFF8C0901E4699F8003085B088
:1042600007468A469346DDF83880002B4CD14FF044
:10427000E024D4F8883D254D43F47003C4F8883D0C
:104280006B6B802043F000436B636B6B43F08043A8
:104290006B63236923F001032361D4F8203D43F0CD
:1042A0006063C4F8203DD4F8203D43F47023C4F883
:1042B000203DFDF7C7F94FF47A73B0FBF3F060616E
:1042C000236943F004032361236943F0020323615C
:1042D000236943F00103236100F02AF843465A465C
:1042E0005146384600F048FA58B90123314689F85A
:1042F0000030074ACDE90200CDE90008054800F08A
:104300001DFC05B0BDE8F08F0520FAE700EF00E0E6
:10431000696F00087C560120EB57012010B103683B
:104320000BB1181A7047014BFBE700BF7851012011
:104330004FF4A0320021014803F036B87811002074
:1043400073B540B3EFF31083019372B6BFF36F8F71
:10435000264C4FF0FF3500212646073020F007029B
:104360002046FFF7DBFF636833B90838A84203D261
:1043700082429CBF054621462468002CF0D1B14200
:1043800002D31B4B994209D902F0F0FD019B83F344
:104390001088BFF36F8F002002B070BD312A12D891
:1043A0000AB308680832531883421EBF88500B6056
:1043B0005C60012301F108004B60019B83F31088CE
:1043C000BFF36F8FE8E70846FFF7A8FF8A1A024499
:1043D000A2F1080399421EBF086842F8080CC1E91F
:1043E0000034012159601046E7E700BF7811002032
:1043F0007751012037B500283AD01E4B984237D369
:104400001D4CA04234D8EFF31082019272B6BFF374
:104410006F8F083B00211D46AB420AD3A34208D848
:1044200083421A6802D862B1824218D219461346F2
:10443000F2E7019B83F31088BFF36F8F022003B074
:1044400030BD5A6021B14A6812B9186808601A6014
:10445000019B83F31088BFF36F8F0020EFE70020EC
:10446000586050680028EDD114681C601060E9E7BE
:104470000120E4E78011002077510120044B1B68E4
:104480000BB9184603E09868027A002AF7D0704703
:10449000405601202DE9F04F064685B0EFF310831A
:1044A000039372B6BFF36F8F4FF0FF384FF0010BDD
:1044B000C246A6B9B8F1000F08DD614B1B689868C9
:1044C00002F03DFF4045ACBF00260126039B83F36D
:1044D0001088BFF36F8F304605B0BDE8F08F70696C
:1044E00002F058FEF3683046984707467369D3F8E0
:1044F0000090B9F1000F05D186F80890FFF7BEFFD4
:104500000646D6E7D9F80840237E042B25D0012B98
:1045100023D094F84050002D6CD1A16BA9421FD13B
:10452000E26B27B3954210D2914288BF636B07F1CB
:10453000FF3784BF53F8223083F808B00223BA1C37
:1045400008BF4FF0FF37E5632376237E022B04D1AB
:1045500094F94C309845B8BF9846D9F80090C8E710
:10456000636B53F82530B342DAD00135D6E7954274
:10457000EBD1A36B0135AB420AD9636B214653F8EB
:10458000250002F04EFE0028F3D0A36BAB420CD8FE
:10459000E3694FF0FF35002B0CBF02230323237682
:1045A00094F84030E563012B0AE0022301222376D0
:1045B000636BE56353F825301A7294F840309342E8
:1045C000C3D1E3690027002B14BF03230223C4F8DF
:1045D0003CA02376E36BAB42B7D00022A16B9142A3
:1045E000B3D0636B53F822300132B34218BF83F863
:1045F00008B0F4E7012DA8D1E56B002FE1D000232E
:1046000005E0626B52F82300B0420AD10133A26B7D
:104610009A42F6D80023E3637B1C00D0013F0223BB
:10462000D7E72146019302F0FCFD019B0028EDD164
:10463000E369C4F83CA0002B14BF03230223C8E79E
:104640005C5601202DE9F74F324B1B78012B3AD1F4
:1046500072B600230193EFF309832F4C0193D4F832
:104660000090B9F1000F03D0019AD9F808301A620E
:10467000DFF8A88000254FF0FF3AD8F800602768DF
:1046800023689E4222D100264FF0FF3B67BB002EDD
:1046900038D125601DB962B602F067FC72B6236896
:1046A000002BE7D09B681B6A0193019B83F3098869
:1046B000B9F1000F06D0D9F80800037E042B01D110
:1046C00000F014F962B603B0BDE8F08FB068037E65
:1046D000022B03D102F033FE504503DA50468246E6
:1046E0003668CDE73546FAE7B868037E022B03D17A
:1046F00002F025FE584503DA584683463F68C5E771
:104700003E46FAE70DB92660C9E7DA45A8BF2E464E
:10471000F9E700BFEC5701205C56012060560120EC
:1047200007B5FFF78FFDE0B1EFF31083019372B689
:10473000BFF36F8F01220C4B1A7000F07BF938B178
:104740004FF0E022D2F8043D43F08053C2F8043D1C
:10475000019B83F31088BFF36F8F002003B05DF8D7
:1047600004FB0420FAE700BFEC570120014B187846
:10477000704700BFEC57012073B50D1E0646144666
:10478000C0F28780B2F5C07FC0F08380B3F5C07FF0
:104790007FD31046FFF7D4FD18B90325284602B091
:1047A00070BD40B5EFF3088686F30988044424F011
:1047B00007040194019B1E4686F30888EFF31486D4
:1047C00046F0020686F31488BDE840405820FFF703
:1047D000B7FD04460028E0D00023037201230370D4
:1047E0002D4BC36002F018FC2C4B606123613046F6
:1047F0001EB102F012FEFFF7A3FD0223657684F8D6
:104800004C5000252376C4E90755C4E90D55606076
:10481000A585A562A56402F0FFFB6369C4E9145590
:104820006064002B33D0002831D0606818BB76BBA1
:104830001B4E00222146304602F012FC63690246FC
:104840002BB3636C1BB310BB2146164802F008FC67
:104850000546B0B12146304602F03CFC606902F0EA
:104860007FFC606C02F07CFC6068FFF7C3FD2046B3
:10487000FFF7C0FD92E7002EDAD0314602F0B8FD16
:10488000D6E7094B32681A60084B1C6086E703259F
:10489000E4E7012582E700BF53730008297300088D
:1048A00060560120405601205C56012080560120B0
:1048B00013B50446FFF75AFF0128034610D1EFF362
:1048C0001082019272B6BFF36F8F074A1268906828
:1048D00003768464FFF7DEFD02F028FD62B6FBE795
:1048E000042002B010BD00BF5C56012073B5044621
:1048F0000146494802F09DFB002C00F08A80002808
:1049000000F085802378012B40F08380434D2B6895
:104910009B68A34214D0EFF31083019372B6BFF3E8
:104920006F8F012320462376FFF7B4FD2B689B6829
:104930009C420BD10423237602F0F8FC62B6FBE71D
:10494000FFF714FF0128E6D004203CE0636B002B46
:1049500052D12146324802F0BDFB21462E4802F0DA
:10496000B9FB606902F0FCFB606C02F0F9FB236D9F
:10497000002B0CDD0025206BFFF73CFD2E46D4E913
:1049800014309D4201DA002838D1FFF733FDD4E915
:104990000930C01AFFF72EFD00250123C4E90D558B
:1049A0002376C4E90955C4E9145560682562E561B8
:1049B000FFF720FD2046FFF71DFD019B83F31088C4
:1049C000BFF36F8F284602B070BD636B53F825307C
:1049D0006BB12146586902F07DFB636B53F82500EB
:1049E00002F0C5FA636B53F82500FFF753FD01355C
:1049F000A36B9D42E9D3ACE70025F9E750F8250009
:104A0000FFF7F8FC636D43F825600135B7E7022036
:104A1000D9E70120D7E700BF605601205C5601208E
:104A200040560120024B1B689868FFF75FBF00BF2C
:104A30005C56012007B5EFF31083019372B6BFF304
:104A40006F8F114B1A68114B1B686BB1986802F09D
:104A500076FC01465AB9019B83F31088BFF36F8F30
:104A6000104603B05DF804FB4FF0FF31F2E79068A9
:104A7000037E022B03D102F062FC814201DB12684B
:104A8000E8E70120EDE700BF605601205C560120F9
:104A9000002313B504460193EFF303830193FFF75B
:104AA00065FE78B1019810F01F000DD172B6032297
:104AB000064B1B689B68DC611A7602F037FC62B615
:104AC00002B010BD0420FBE70520F9E75C56012089
:104AD00010B5044608B9002010BD0378012BFAD1A7
:104AE0000146074802F0A5FA0028F4D0207E0428E9
:104AF000F1D00228F0D1636B002B18BF0320EBE745
:104B00006056012082B00346EFF31082019272B624
:104B1000BFF36F8F084A106818B18268928D9A426D
:104B200008D1019B83F31088BFF36F8F00B18068B9
:104B300002B070470068EFE7605601202DE9F74F9B
:104B40000D46174699469DF930B00190002800F0B7
:104B5000ED80002A00F0EA80BBF1000FC0F2E68091
:104B6000B9F1010F00F2E2800D9BB3F5C07FC0F0F8
:104B7000DD80FFF767FB002800F0DA805820FFF7A0
:104B8000DFFB824620B90324204603B0BDE8F08F46
:104B90000D98FFF7D5FB064618B95046FFF72AFCDB
:104BA000F1E74FF0000800F0D3F800EB080484EAC6
:104BB0001444E4B22046FFF7A5FF10B108F1010844
:104BC000F1E701228AF800205A4A8AF80800CAF858
:104BD0000C2002F021FA584ACAF81400CAF8102032
:104BE00028461DB102F019FCFFF7AAFB0222AAF821
:104BF0002C4000240D9B8AF81820F218CAE90932CB
:104C000022F00702CAF82020CAF83070CAE90D4421
:104C1000CAF804008AF819B08AF84CB0CAF81C40E7
:104C2000CAF8484002F0F8F90F9B4FF08071A34298
:104C30000E9B0CBF22461A460F9BCAF85020DAF88A
:104C40002020CAF85430CAF8440042E902713B49B6
:104C50003B4F42F81C3CA14508BF394642E904419C
:104C60006FF002010E9B42E90A41A2F1440142E9C0
:104C7000064442E90C4442E90E4442E9104442F839
:104C8000203CCAF8201042F8444CDAF81420002ADC
:104C90004AD0002848D0DAF8040030BB002D43D1B8
:104CA00000225146274802F0DBF9024600283BD19A
:104CB0005146254802F0D4F90446E0B15146214856
:104CC00002F008FADAF8140002F04AFADAF84400BE
:104CD00002F046FADAF80400FFF78CFB5046FFF7C3
:104CE00089FB3046FFF786FB4EE7002DD8D02946DA
:104CF00002F07EFBD4E7504602F021FB1349024646
:104D0000096871B1886802F01AFB904205DAFFF772
:104D10002DFD012801D102F009FB019BC3F800A081
:104D200032E74FF0FF30F0E70324CBE701242BE715
:104D3000042429E75373000829730008254A000852
:104D4000B148000860560120405601205C56012001
:104D5000014B1868704700BF845601202DE9F743C6
:104D60000546EFF31083019372B6BFF36F8F224AAB
:104D7000DFF88C80136803441360204B1C68D8F85C
:104D80000030BBB1986802F0DAFA064600274FF00F
:104D9000020994B9012F05D1FFF7E8FC012801D1E0
:104DA00002F0C4FA019B83F31088BFF36F8F03B046
:104DB000BDE8F0834FF0FF36E8E7A068C3695A1EEC
:104DC000033204D8AB4234BF00235B1BC361C2690A
:104DD000037E6AB9032B0BD180F8189002F0AFFA6A
:104DE000864207DCD8F80030A34218BF012701E053
:104DF000022BF3D02468CCE78456012060560120B2
:104E00005C56012008B513220A490B48FEF76AFEDA
:104E100000210846FFF73CF900210120FFF738F98F
:104E200000210220FFF734F9BDE8084000210320EB
:104E3000FFF72EB9E27C0008E87C000810B5074CAB
:104E40000749206801F032FC0649206801F02EFC79
:104E500020680549BDE8104001F028BC1C10002066
:104E60002010002044100020A410002013B51E4C78
:104E70000DF107020DF106010DF10500FEF7A8FF87
:104E80001A48FEF72FFE21462C221948FEF72AFE6B
:104E9000FEF798FF214603462D221648FEF722FE14
:104EA000FEF78AFF214603462E221348FEF71AFE1C
:104EB00021469DF805302F221048FEF713FE2146AB
:104EC0009DF8063030220E48FEF70CFE21469DF874
:104ED000073031220B48FEF705FE322221460A48F0
:104EE000FEF700FE02B010BD257D0008857F00089A
:104EF0002F7D0008787D00089A7D0008BC7D0008A1
:104F0000DE7D0008007E0008227E00082DE9F041C9
:104F1000D0E9022352F8231002EB830253680F7882
:104F20001E7893680D4C1D7831462A463846FEF7A8
:104F300063FF3B46214620220948FEF7D3FD334656
:104F4000214621220748FEF7CDFD2B462146BDE82C
:104F5000F04122220448FEF7C5BD00BF257D0008B0
:104F6000BC7D0008DE7D0008007E000810B5D0E999
:104F7000023253F822301878FEF776FFFEF71CFF56
:104F8000BDE810400346152201490248FEF7AABDBC
:104F9000257D00089A7D000810B5D0E9023253F84B
:104FA00022301878003818BF0120FEF76FFFFEF797
:104FB00009FFBDE8104003460E2202490248FEF7F1
:104FC00091BD00BF257D0008787D000810B51A4C02
:104FD0001A48FEF787FD214634221948FEF782FD64
:104FE0000020FFF76DF82146034635221548FEF7ED
:104FF00079FD0120FFF764F8214603463622124866
:10500000FEF770FD0220FFF75BF8214603463722CA
:105010000E48FEF767FD0320FFF752F821460346CE
:1050200038220B48FEF75EFD2146BDE810403922CC
:105030000848FEF757BD00BF357F0008857F000890
:10504000417F0008877F0008B17F0008DB7F0008F0
:10505000058000082F80000810B5D0E90232044610
:1050600053F8223000201988FFF712F8E368A2688D
:10507000013352F8233001201988FFF709F8E3685B
:10508000A268023352F8233002201988FFF700F893
:10509000E368A268033352F8233003201988FEF72F
:1050A000F7FF0020FFF70CF8114C03462146292298
:1050B0001048FEF717FD0120FFF702F821460346CE
:1050C0002A220D48FEF70EFD0220FEF7F9FF2146C9
:1050D00003462B220948FEF705FD0320FEF7F0FFEB
:1050E0002146BDE8104003462C220548FEF7FABCD5
:1050F000357F0008877F0008B17F0008DB7F00084C
:1051000005800008D0E9023253F8223010B5198822
:105110000320FEF7BDFF0320FEF7D2FFBDE81040DD
:1051200003461F2201490248FEF7DCBC357F000818
:1051300005800008D0E9023253F8223010B51988F2
:105140000220FEF7A5FF0220FEF7BAFFBDE81040DF
:105150000346192201490248FEF7C4BC357F000806
:10516000DB7F0008D0E9023253F8223010B51988ED
:105170000120FEF78DFF0120FEF7A2FFBDE81040E1
:105180000346132201490248FEF7ACBC357F0008F4
:10519000B17F0008D0E9023253F8223010B51988E7
:1051A0000020FEF775FF0020FEF78AFFBDE81040E3
:1051B00003460D2201490248FEF794BC357F0008E2
:1051C000877F000881F0004102E000BF83F00043C8
:1051D00030B54FEA41044FEA430594EA050F08BF92
:1051E00090EA020F1FBF54EA000C55EA020C7FEA56
:1051F000645C7FEA655C00F0E2804FEA5454D4EBD3
:105200005555B8BF6D420CDD2C4480EA020281EA9C
:10521000030382EA000083EA010180EA020281EAD4
:105220000303362D88BF30BD11F0004F4FEA013126
:105230004FF4801C4CEA113102D0404261EB410135
:1052400013F0004F4FEA03334CEA133302D05242BB
:1052500063EB430394EA050F00F0A780A4F1010477
:10526000D5F1200E0DDB02FA0EFC22FA05F28018B1
:1052700041F1000103FA0EF2801843FA05F3594197
:105280000EE0A5F120050EF1200E012A03FA0EFC16
:1052900028BF4CF0020C43FA05F3C01851EBE37140
:1052A00001F0004507D54FF0000EDCF1000C7EEB5D
:1052B00000006EEB0101B1F5801F1BD3B1F5001F9B
:1052C0000CD349085FEA30004FEA3C0C04F10104BA
:1052D0004FEA445212F5800F80F09A80BCF1004FE3
:1052E00008BF5FEA500C50F1000041EB045141EA65
:1052F000050130BD5FEA4C0C404141EB0101013C2E
:1053000028BFB1F5801FE9D291F0000F04BF01461C
:105310000020B1FA81F308BF2033A3F10B03B3F1EE
:1053200020020CDA0C3208DD02F1140CC2F10C027E
:1053300001FA0CF021FA02F10CE002F11402D8BFDC
:10534000C2F1200C01FA02F120FA0CFCDCBF41EAA8
:105350000C019040E41AA2BF01EB0451294330BD77
:105360006FEA04041F3C1CDA0C340EDC04F1140454
:10537000C4F1200220FA04F001FA02F340EA03002B
:1053800021FA04F345EA030130BDC4F10C04C4F171
:10539000200220FA02F001FA04F340EA0300294651
:1053A00030BD21FA04F0294630BD94F0000F83F49B
:1053B000801306BF81F480110134013D4EE77FEA7E
:1053C000645C18BF7FEA655C29D094EA050F08BFCA
:1053D00090EA020F05D054EA000C04BF19461046AB
:1053E00030BD91EA030F1EBF0021002030BD5FEAEF
:1053F000545C05D14000494128BF41F0004130BD17
:1054000014F580043CBF01F5801130BD01F000456A
:1054100045F0FE4141F470014FF0000030BD7FEADD
:10542000645C1ABF194610467FEA655C1CBF0B46D8
:10543000024650EA013406BF52EA033591EA030FEF
:1054400041F4002130BD00BF90F0000F04BF0021E7
:10545000704730B54FF4806404F132044FF000051A
:105460004FF0000150E700BF90F0000F04BF002193
:10547000704730B54FF4806404F1320410F00045F9
:1054800048BF40424FF000013EE700BF42004FEAF4
:10549000E2014FEA31014FEA02701FBF12F07F4371
:1054A00093F07F4F81F06051704732F07F4208BF28
:1054B000704793F07F4F04BF41F40021704730B52F
:1054C0004FF4607401F0004521F000411CE700BF7B
:1054D00050EA010208BF704730B54FF000050AE0FE
:1054E00050EA010208BF704730B511F0004502D5FF
:1054F000404261EB41014FF4806404F132045FEA01
:10550000915C3FF4D8AE4FF003025FEADC0C18BFA9
:1055100003325FEADC0C18BF033202EBDC02C2F19B
:10552000200300FA03FC20FA02F001FA03FE40EA2D
:105530000E0021FA02F11444BDE600BF70B54FF031
:10554000FF0C4CF4E06C1CEA11541DBF1CEA13550F
:1055500094EA0C0F95EA0C0F00F0DEF82C4481EA77
:10556000030621EA4C5123EA4C5350EA013518BF97
:1055700052EA033541F4801143F4801338D0A0FB84
:1055800002CE4FF00005E1FB02E506F00042E0FB31
:1055900003E54FF00006E1FB03569CF0000F18BF37
:1055A0004EF0010EA4F1FF04B6F5007F64F54074DF
:1055B00004D25FEA4E0E6D4146EB060642EAC62172
:1055C00041EA55514FEAC52040EA5E504FEACE2EDF
:1055D000B4F1FD0C88BFBCF5E06F1ED8BEF1004FE2
:1055E00008BF5FEA500E50F1000041EB045170BD5E
:1055F00006F0004646EA010140EA020081EA0301A2
:10560000B4EB5C04C2BFD4EB0C0541EA045170BD9D
:1056100041F480114FF0000E013C00F3AB8014F117
:10562000360FDEBF002001F0004170BDC4F1000460
:10563000203C35DA0C341BDC04F11404C4F12005E1
:1056400000FA05F320FA04F001FA05F240EA02003C
:1056500001F0004221F0004110EBD37021FA04F672
:1056600042EB06015EEA430E08BF20EAD37070BD2C
:10567000C4F10C04C4F1200500FA04F320FA05F08B
:1056800001FA04F240EA020001F0004110EBD3708D
:1056900041F100015EEA430E08BF20EAD37070BDFD
:1056A000C4F1200500FA05F24EEA020E20FA04F3D6
:1056B00001FA05F243EA020321FA04F001F0004185
:1056C00021FA04F220EA020000EBD3705EEA430EF6
:1056D00008BF20EAD37070BD94F0000F0FD101F025
:1056E0000046400041EB010111F4801F08BF013C5E
:1056F000F7D041EA060195F0000F18BF704703F09C
:105700000046520043EB030313F4801F08BF013D22
:10571000F7D043EA0603704794EA0C0F0CEA1355DE
:1057200018BF95EA0C0F0CD050EA410618BF52EA98
:105730004306D1D181EA030101F000414FF000009E
:1057400070BD50EA410606BF1046194652EA4306AC
:1057500019D094EA0C0F02D150EA013613D195EA20
:105760000C0F05D152EA03361CBF104619460AD168
:1057700081EA030101F0004141F0FE4141F4700172
:105780004FF0000070BD41F0FE4141F4780170BD62
:1057900070B54FF0FF0C4CF4E06C1CEA11541DBFC7
:1057A0001CEA135594EA0C0F95EA0C0F00F0A7F8C9
:1057B000A4EB050481EA030E52EA03354FEA0131F6
:1057C00000F088804FEA03334FF0805545EA131309
:1057D00043EA12634FEA022245EA111545EA1065D1
:1057E0004FEA00260EF000419D4208BF964244F168
:1057F000FD0404F5407402D25B084FEA3202B61A87
:1058000065EB03055B084FEA32024FF480104FF45A
:10581000002CB6EB020E75EB030E22BFB61A7546CE
:1058200040EA0C005B084FEA3202B6EB020E75EB61
:10583000030E22BFB61A754640EA5C005B084FEAC9
:105840003202B6EB020E75EB030E22BFB61A754696
:1058500040EA9C005B084FEA3202B6EB020E75EBA1
:10586000030E22BFB61A754640EADC0055EA060E62
:1058700018D04FEA051545EA16754FEA06164FEAA5
:10588000C30343EA52734FEAC2025FEA1C1CC0D151
:1058900011F4801F0BD141EA00014FF000004FF0DE
:1058A000004CB6E711F4801F04BF01430020B4F19F
:1058B000FD0C88BFBCF5E06F3FF6AFAEB5EB030C57
:1058C00004BFB6EB020C5FEA500C50F1000041EB54
:1058D000045170BD0EF0004E4EEA113114EB5C0421
:1058E000C2BFD4EB0C0541EA045170BD41F48011F4
:1058F0004FF0000E013C90E645EA060E8DE60CEAFC
:10590000135594EA0C0F08BF95EA0C0F3FF43BAF18
:1059100094EA0C0F0AD150EA01347FF434AF95EACF
:105920000C0F7FF425AF104619462CE795EA0C0FB3
:1059300006D152EA03353FF4FDAE1046194622E780
:1059400050EA410618BF52EA43067FF4C5AE50EA5A
:1059500041047FF40DAF52EA43057FF4EBAE12E74A
:105960004FF0FF3C06E000BF4FF0010C02E000BF2B
:105970004FF0010C4DF804CD4FEA410C7FEA6C5C0E
:105980004FEA430C18BF7FEA6C5C1BD001B050EAB1
:10599000410C0CBF52EA430C91EA030F02BF90EA9C
:1059A000020F0020704710F1000F91EA030F58BF5B
:1059B000994208BF90422CBFD8176FEAE37040F0BD
:1059C000010070474FEA410C7FEA6C5C02D150EA5B
:1059D000013C07D14FEA430C7FEA6C5CD6D152EA16
:1059E000033CD3D05DF8040B704700BF84461046DB
:1059F00062468C461946634600E000BF01B5FFF7DA
:105A0000B7FF002848BF10F1000F01BD4DF808EDA9
:105A1000FFF7F4FF0CBF012000205DF808FB00BF7A
:105A20004DF808EDFFF7EAFF34BF012000205DF8D4
:105A300008FB00BF4DF808EDFFF7E0FF94BF012021
:105A400000205DF808FB00BF4DF808EDFFF7CEFF22
:105A500094BF012000205DF808FB00BF4DF808ED61
:105A6000FFF7C4FF34BF012000205DF808FB00BF32
:105A70004FEA410212F5001215D211D56FF4787376
:105A8000B3EB625212D94FEAC12343F0004343EA19
:105A9000505311F0004F23FA02F018BF40427047F4
:105AA0004FF00000704750EA013005D111F000407E
:105AB00008BF6FF0004070474FF00000704700BF14
:105AC0004A0011D212F5001211D20DD56FF478737D
:105AD000B3EB62520ED44FEAC12343F0004343EAD2
