:020000040800F2
:1000000000100020910900082D6E00082D6E0008D8
:100010002D6E00082D6E00082D6E00082D6E000854
:100020002D6E00082D6E00082D6E00082D6E000844
:100030002D6E00082D6E0008FB7E00086D7B000809
:100040002D6E00082D6E00082D6E00082D6E000824
:100050002D6E00082D6E00082D6E00082D6E000814
:100060002D6E000849460008697B00082D6E0008C7
:100070002D6E00082D6E00082D6E00082D6E0008F4
:100080002D6E00082D6E00082D6E00082D6E0008E4
:100090002D6E00082D6E0008C10F00082D6E00089F
:1000A0002D6E00082D6E00082D6E00082D6E0008C4
:1000B0002D6E00082D6E00082D6E00082D6E0008B4
:1000C0002D6E00082D6E00082D6E00082D6E0008A4
:1000D0002D6E00082D6E00082D6E00082D6E000894
:1000E0002D6E00082D6E00082D6E00082D6E000884
:1000F0002D6E00082D6E00082D6E00082D6E000874
:100100002D6E00082D6E00082D6E00082D6E000863
:100110002D6E00082D6E00082D6E00082D6E000853
:100120002D6E00082D6E00082D6E00082D6E000843
:100130002D6E00082D6E00082D6E00082D6E000833
:100140002D6E00082D6E00082D6E00082D6E000823
:100150002D6E00082D6E00082D6E00082D6E000813
:100160002D6E00082D6E00082D6E00082D6E000803
:100170002D6E00082D6E00082D6E00080000000096
:100180002DE9F04F93B0CDE90A32DDE91C530E930F
:1001900053EC102BCDE90801104619468DED060BE6
:1001A0001E9E06F023FA80B1DDE906014FF0FF3212
:1001B000C54B06F043FA40B9DDE906014FF0FF32C6
:1001C0006FF4801306F01CFA70B1DDE908019DEDB3
:1001D000060B0E9B1E96CDE91C53DDE90A3213B0C7
:1001E000BDE8F04F00F088B90022DDE906010023E8
:1001F00006F006FA002800F03381DDE906A303F1DA
:10020000004BCBF30A5016F48063A0F2FF3008BF16
:1002100006250F9305F018FF9BA3D3E9002305F0F3
:100220007DFF9BA3D3E9002305F0C2FDCBF31304AC
:10023000894644F07F5180460022A44B504641F449
:10024000401105F0B3FD94A3D3E9002305F066FF48
:1002500002460B464046494605F0AAFD06F0F8F96D
:10026000044605F0F1FE8EA3D3E9002380468946BB
:1002700005F054FF0022964B05F09AFD06F0E8F9D0
:1002800089A3D3E9002307464946404605F046FFC7
:1002900080463846894605F0D7FE85A3D3E900237A
:1002A00005F03CFF02460B464046494605F07EFD00
:1002B00002460B46CDE90C2305F030FFDDE90C23A7
:1002C000804689461046194605F072FD0022CDE9A8
:1002D0001001804B4046494606F04AF800227E4B0A
:1002E00005F066FD02460B464046494606F040F8DA
:1002F00000227A4B05F05CFD02460B46404649461B
:1003000006F036F8DDE90C238046894600204FF0E0
:10031000804105F04BFD02460B464046494605F03C
:1003200047FD02460B46DDE9100106F021F807F211
:10033000FF3700226A4B05F03BFD00223B0505F02C
:10034000EDFE52465B468046894606F077F9002866
:1003500040F08980CDE90C8904F16303C72B34BFD9
:100360000427052731051BD553A3D3E900235046A5
:10037000594606F059F900287FD051A3D3E900234C
:100380005046594606F03CF9002876D00027A54291
:10039000C6BF2C1B04F1FF3500253C4646F48066A1
:1003A0000E9B9F422CBF4FF00008A3EB070816F0EE
:1003B000020903D0002F18BF4FF000083CB1DDE95F
:1003C0000C235046594605F0D3FF82468B46DDE9A3
:1003D00006010022002306F013F910B10BF10043CF
:1003E0009B46DDE9080126F40063CDE90183DDE9E0
:1003F0000A324BEC10AB009500F07EF802465FB37A
:10040000DDE9091316F0200F00F10105089E0CBF6D
:1004100065204520B047DDE908010523002205934A
:100420000A23002CCDE9023207F1FF374FEAD473DB
:10043000B8BF64422A46019304970A9B009407F0D0
:10044000D7FA0246B9F1000F06D00B9BC41A0B9BDA
:100450001A190E9BA34245D8104613B0BDE8F08F81
:10046000DDE906ABCDE60022404649461A4B05F0D1
:100470007FFF013CCDE90C016EE7002D90D00F9B72
:10048000002B8DD0013D8BE7FB799F501344D33F68
:10049000B3C8608B288AC63F61436F63A787D23F8A
:1004A00071A379094F930A401655B5BBB16B024051
:1004B000EF39FAFE422EE63F2D431CEBE2361A3F9F
:1004C0000000000080842E41FFFFEF7F0000F83F16
:1004D0000000E03F00002C400000244000001840D5
:1004E0000000F03F2020DDE90913089DA8470134F2
:1004F000ADE700BF000000002DE9F04F5BEC10AB52
:1005000097B0CDE90501DDE92057CDE90723504635
:1005100052465B465946229E06F068F870B903239E
:10052000CDE902760193B04B0093DDE90501DDE9E9
:10053000072307F07DF917B0BDE8F08F4FF0FF32C9
:100540006FF480135046594606F05AF828B1042338
:10055000CDE902760193A54BE6E74FF0FF32504616
:100560005946A34B06F06AF868B1A24A06F00403A4
:10057000002B08BF0322A04B1CBF13460422CDE969
:1005800002760192D0E7504693A3D3E9002359465F
:1005900006F054F838B992A3D3E9002350465946DF
:1005A00006F02EF868B1DDE90723DDE905014BEC23
:1005B00010ABCDE92176209517B0BDE8F04FFFF7DD
:1005C000DFBD002200235046594606F019F80028E6
:1005D00000F09A805B4652460020002105F0E6FBC1
:1005E000012382468B46099316F4806400F08E80C6
:1005F000092D40F28E80002430210EABA5F10902B6
:100600000134202C03F8011BA5EB040901D094420E
:10061000F6D15946504606F01BF8784B054603EBD9
:10062000C90393ED007B8DED0A7B05F00DFD0246BD
:100630000B465046594605F0B9FBDDE90A2305F0A3
:100640006DFD02460B46CDE90C2306F029F88046E5
:1006500005F0EAFC02460B46DDE90C0105F0A6FBBD
:1006600002460B46CDE90C230022654B05F0E6FF60
:10067000002851D008F10108404605F0D5FC02469B
:100680000B46DDE90A0105F0C5FF10B14FF0000887
:100690000135B9F1000F50D1284605F0D5FC0246CE
:1006A0000B465046594605F081FB0022544B8046CC
:1006B000894605F0A5FF30B1002240464946504B1F
:1006C00005F0BCFF10B1E80700D501350A210EABDB
:1006D0001A19202C0AD095FBF1F001FB105530358A
:1006E00002F8015B013405460028F2D106F003024E
:1006F000012A57D1002F55D0099A12B916F00C0FC4
:1007000000D0013F302245E009906DE74FF0060927
:100710007FE7A94600247CE70022DDE90C01384B85
:1007200005F06EFF0028B4D1B8F1000F02D018F028
:10073000010FAED008F10108ABE70A210EAB23444C
:10074000202C0ED0B8FBF1F001FB1082B8F1090F9C
:1007500002F1300209F1FF3904F1010403F8012B21
:1007600011D83021A1440EAA202CAFD0A14504F10C
:1007700001030AD11C4609F158030DEB03092E238E
:1007800009F8203CA2E78046DAE7A1541C46EBE7D3
:100790001A550134A74205D9202CF9D1CDE90276AA
:1007A0000194C1E6202CF9D0099A3AB12D2104F127
:1007B00058026A4402F8201C0134EFE7710704D59F
:1007C00004F158022B216A44F4E73207E6D504F11C
:1007D000580220216A44EDE70000000065CDCD41BC
:1007E0000000000065CDCDC1808800088488000825
:1007F000FFFFEF7F778800087C880008908800085A
:100800000000E03F0348044B834202D0034B03B196
:100810001847704788110020881100200000000050
:10082000064B0749C91A891048BF0131491003D046
:10083000044B0BB101481847704700BF88110020D6
:10084000881100200000000010B5064C237843B941
:10085000FFF7D8FF044B13B10448AFF30080012326
:10086000237010BDD457012000000000F090000854
:1008700008B5054B1BB105490548AFF30080BDE83D
:100880000840FFF7CDBF00BF0000000088510120E5
:10089000F0900008A3F5803A704700BF174B002B7B
:1008A00008BF134B9D46FFF7F5FF00218B460F460F
:1008B0001348144A121A07F07CFB0E4B002B00D091
:1008C00098470D4B002B00D09847002000210400D2
:1008D0000D000D48002802D00C48AFF3008006F050
:1008E00049FA2000290003F0B5FE06F089F800BFA0
:1008F00000000800000000000000000000100020C0
:1009000088110020005801200000000000000000B5
:1009100038B504460D4601B118B93721034806F031
:100920004DFA23682B60256038BD00BF8080000829
:1009300070B5D0B1C9B10E4E431E013913F8014F45
:100940002046325D02F00302012A11F8012F08BF90
:1009500004F12000B55C05F00305012D08BF20322D
:10096000801A01D1002CE9D170BD0120FCE700BF45
:10097000EE8F00080348044A0449121A921006F048
:1009800056BA00BF8C9200088C92000800580120D3
:1009900008B500F02FF8FFF7EDFF124B12498B421C
:1009A00012D30020114B12498B4218D3FFF776FF68
:1009B000186850F82240586840F822400132986880
:1009C0008242F5D30C33EAE70022F8E71C6844F8CA
:1009D000220001325C68A242F8D30833E4E7002227
:1009E000F8E700BFF890000804910008049100089F
:1009F000049100084FF480414FF0FF30114B124A30
:100A000010B59A60D3F8882042F47002C3F88820A9
:100A10000E4A91660E4901F5005210660D48506667
:100A20000220C3F8D000BFF34F8FBFF36F8F0124B4
:100A30004FF440330848C0F88041D36004600B6134
:100A400010BD00BF00ED00E0000000080090005065
:100A5000008000447FFF7F0300E100E0014B186845
:100A6000704700BF04100020014B1860704700BFA2
:100A700004100020084B1B6F03F00703022B04D067
:100A8000032B05D0012B05D0FEE7044B18687047F7
:100A9000034BFBE703487047008000500410002020
:100AA0000C100020002D310108B5FFF7E3FF054BC6
:100AB0001B6FC3F303330133B0FBF3F0024B186039
:100AC00008BD00BF008000500010002000487047A3
:100AD00000B4C404014B1868704700BF0C1000201C
:100AE000054B1860054B1B6F03F00703032B01D167
:100AF000FFF7DABF704700BF0C10002000800050E5
:100B000000487047002D31014FF0B4439868C0F39E
:100B100004400C280AD8DFE800F00B09090909098C
:100B2000072119091B1D1F000F487047002070473F
:100B30009B6803F04073B3F1807F11D0B3F1007F65
:100B400010D00A4A002B08BF10467047084870476B
:100B50000848704708487047084870470848704779
:100B60000848704708487047405DC60000093D00CE
:100B7000C0EA210180BA8C010048E801005A6202F3
:100B80000024F40080841E0040420F00014B1868CE
:100B9000704700BF081000202DE9F04F9A46564BD1
:100BA00085B01B7806460F461546DDF83C909DF84B
:100BB00044B0DDF85080002B00F09780072A00F247
:100BC00096800E9B002B00F09280B9F1000F00F090
:100BD0008E80129BB3F5006F00F38980012803D14A
:100BE000109B002B00F08380444B03EB05131B7B11
:100BF000002B7ED0424C10220021684607F0D9F924
:100C000004EB45141022A7BB3946204607F0D1F962
:100C100043F210036380BBF1000F03D1E37843F08C
:100C20000303E370364A0E9B02EB451CCCE90193AB
:100C3000129B6901581E9DF84C30C0F30A0003F066
:100C400003039B0643EA001E53582E48012E00EA78
:100C500003004EEA0003CDF800A0535017D0B8F1BE
:100C6000000F2ED19CF8023068F304138CF8023088
:100C700027E00021204607F09CF94FF4447363807D
:100C8000BBF1000FCED1E37843F03003C9E7132363
:100C90000CF1100ECCF80C309CE80F008EE80F0021
:100CA0006FF00301DCF81C20109B61F39F02012F01
:100CB000CCF81C20CCF8143003D1CCF81890CCF828
:100CC000043000270D4A290102EB051342F8018088
:100CD000159A28465A60694622469F605E7301F065
:100CE00045FD384605B0BDE8F08F0748FAE70748EC
:100CF000F8E70748F6E700BFD5570120A0520120CA
:100D0000A05101200F80FFF3028000F0018000F06D
:100D1000078000F038B5124B05461B78DBB1E0B117
:100D200006F0F0F80F4A00231146147B54B92B60EB
:100D300001251A0101EB03131D738C5006F0E8F82E
:100D4000204638BD0133082B02F11002EDD106F028
:100D5000DFF80548F5E70548F3E70548F1E700BF88
:100D6000D5570120A0520120048000F0028000F03D
:100D7000018000F038B506F0C5F8002305460B4A9F
:100D8000147B6CB90133082B02F11002F8D101F089
:100D900065FC074B28461C7006F0BAF8204603E0B5
:100DA000284606F0B5F8034838BD00BFA052012020
:100DB000D5570120058000F00D4B10B51B78044677
:100DC00093B1072812D806F09DF80A4B03EB0413E1
:100DD0001A7B2AB100241C7306F09AF8204610BD35
:100DE00006F096F80448FAE70448F8E70448F6E7FE
:100DF000D5570120A0520120068000F0028000F0AB
:100E0000018000F0154B13B51868002301908DF890
:100E1000043006F077F8124B1C7824B106F078F80D
:100E2000104802B010BD01221A7006F071F80E4B86
:100E300001A81C731C7783F82C4083F83C4083F88E
:100E40004C4083F85C4083F86C4083F87C40082376
:100E50008DF8073001F040FC2046E2E7E980000809
:100E6000D5570120038000F0A05201200A4A08B59E
:100E700012785AB107280BD8084A02EB00131B7BE3
:100E800043B1002101F008FC002008BD0448FCE744
:100E90000448FAE70448F8E7D5570120A05201209A
:100EA000028000F0018000F0078000F00A4A08B5D7
:100EB00012785AB107280BD8084A02EB00131B7BA3
:100EC00043B1012101F0E8FB002008BD0448FCE724
:100ED0000448FAE70448F8E7D5570120A05201205A
:100EE000028000F0018000F0078000F00A4A08B597
:100EF000127852B107280AD8084A02EB00131B7B6C
:100F00003BB101F0B5FC002008BD0548FCE70548F1
:100F1000FAE70548F8E700BFD5570120A0520120A5
:100F2000028000F0018000F0078000F00D4B1B787C
:100F300093B1072812D889B10B4B03EB00131B7B2D
:100F400073B10A4B1A6D01238340134214BF01236E
:100F5000002300200B707047054870470548704714
:100F600005487047D5570120A052012000000450C9
:100F7000028000F0018000F0078000F00B4A10B5FD
:100F800012780C4662B107280CD859B1084A02EB16
:100F900000131B7B43B101F087FC2070002010BDC3
:100FA0000448FCE70448FAE70448F8E7D55701206D
:100FB000A0520120028000F0018000F0078000F0C4
:100FC000184B2DE9F0411F6D5B6D1F4000D5FEE70A
:100FD00001260025144CDFF85880374218D02368CA
:100FE000C8F85060A3B1A168284601316268A160C9
:100FF0009847637B012B0BD150B90C4B03EB451386
:101000001A7B60F341021A731A7F60F341021A7768
:101010000135082D4FEA460604F11004DDD1BDE884
:10102000F08100BF00000450A0520120A051012017
:1010300000200450044BD3F88420D206FBD4D3F80C
:101040008400C0F3811070470040005008B5334B56
:1010500098424FD027D8324B984245D017D8314BC1
:1010600098423ED00AD838B12F4B984239D041F23D
:1010700086312E4805F0A2FE002034E02C4B984229
:101080002FD02C4B9842F2D12B4B586E2BE02B4B90
:1010900098422CD003F5371303F5D8639842E6D174
:1010A000254B986F1FE0264B98422FD00CD8254B2C
:1010B000984223D0244B984224D0244B9842D6D136
:1010C0001D4BD3F884000EE0214B984222D003F54B
:1010D000740303F510539842C9D1174BD3F8980005
:1010E00001E0154B986D08BD134B186FFBE7124BD1
:1010F000586FF8E7104BD3F88000F4E70E4BD3F8A5
:101100008800F0E70C4BD3F88C00ECE70A4BD3F8DF
:101110009000E8E7084BD3F89400E4E780BA8C012C
:10112000405DC60080841E0040420F00ED80000834
:1011300000093D00C0CF6A000080E00F0024F400E9
:10114000007E560380D54302006CDC020048E801B3
:101150000090D00338B5124B0546D3F880300C46CA
:1011600003F00303022B0BD0032B0DD0012B0FD167
:10117000FFF780FC0D2305B1286004B1236038BD62
:10118000FFF7C2FC0723F6E7FFF768FC0623F2E748
:10119000044841F2DF1105F011FE00231846EAE78A
:1011A00000800050ED80000838B51A4B0546D3F892
:1011B00020010C4600F00700062821D8DFE800F0E7
:1011C00028040C1410181C00FFF748FC052305B177
:1011D000286004B1236038BDFFF77CFC0323F6E7E9
:1011E000FFF792FC0723F2E7FFF78AFC0223EEE702
:1011F000FFF734FC0623EAE7FFF76CFC0423E6E77D
:10120000054841F25C2105F0D9FD00231846DEE7D0
:101210000123DCE700800050ED80000838B5194B51
:101220000546D3F828310C4603F00703013B052B94
:1012300020D8DFE803F003131B0F0B17FFF70EFC9A
:10124000052305B1286004B1236038BDFFF706FC13
:101250000623F6E7FFF758FC0723F2E7FFF73AFC0F
:101260000323EEE7FFF736FC0423EAE7FFF748FC29
:101270000223E6E7044841F2640105F09FFD0023E4
:101280001846DEE700800050ED800008F7B5002723
:10129000144B0197D3F88041064604F00304022C56
:1012A0000D4614D0032C0DD0012C14D1394601A8C1
:1012B000FFF77AFF0F240EB1019B336005B12C605C
:1012C00003B0F0BDFFF720FC07240190F3E7FFF720
:1012D00017FC0190EFE741F2B131034805F06EFDD4
:1012E0003C46E8E700800050ED80000838B50F4B21
:1012F0000546D3F890320C4603F00303012B09D0C6
:10130000022B0BD1FFF700FC072305B1286004B1C5
:10131000236038BDFFF7F4FB0223F6E7044841F2EF
:10132000501105F04BFD00231846EEE700800050F9
:10133000ED800008002337B50193194B0546D3F81B
:1013400020320C4603F00703042B1FD8DFE803F01C
:1013500025030F141900002101A8FFF75FFF1123D7
:101360000DB1019A2A6004B1236003B030BDFFF7CC
:10137000CBFB07230190F3E705F066FD0A230190FC
:10138000EEE7FFF703FC09230190E9E741F22301AF
:10139000044805F013FD0023E2E70123E0E700BF66
:1013A00000800050ED80000838B5104B0546D3F89A
:1013B00040310C4603F00303022B0BD0032B0DD05E
:1013C000012B0FD105F040FD0A2305B1286004B1BF
:1013D000236038BDFFF7DAFB0923F6E705F037FD98
:1013E0000B23F2E701230020EFE700BF008000504D
:1013F000002337B50193184B0546D3F860320C46ED
:1014000003F00703013B032B1FD8DFE803F0020EB4
:101410001914002101A8FFF7C7FE0F230DB1019A8F
:101420002A6004B1236003B030BD002101A8FFF79A
:10143000BBFF1023F2E7FFF767FB07230190EDE7FF
:10144000FFF75EFB02230190E8E741F2C801034881
:1014500005F0B4FC0023E1E700800050ED800008B7
:1014600073B500240F4B0194D3F87032064603F095
:101470000303012B0D4607D0022B11D041F2261198
:10148000094805F09BFC04E0214601A8FFF78CFF0A
:1014900010240EB1019B336005B12C6002B070BD09
:1014A0001424F6E700800050ED80000838B5164B94
:1014B0000546D3F800020C4600F00700042819D8AE
:1014C000DFE800F020030B0F130005F0BDFC0A233A
:1014D00005B1286004B1236038BDFFF757FB09232D
:1014E000F6E705F0B4FC0B23F2E7FFF7DDFA0E2375
:1014F000800AEDE7054841F26F4105F05FFC0023EB
:101500001846E5E70123E3E700800050ED8000087E
:1015100038B5164B0546D3F808020C4600F0070014
:10152000042819D8DFE800F020030B0F130005F0A2
:101530008BFC0A2305B1286004B1236038BDFFF796
:1015400025FB0923F6E705F082FC0B23F2E7FFF702
:10155000ABFA0E23800AEDE7054841F2A74105F0FA
:101560002DFC00231846E5E70123E3E70080005047
:10157000ED80000838B5104B0546D3F840320C46D4
:1015800003F00303022B0BD0032B0DD0012B0FD143
:1015900005F05AFC0A2305B1286004B1236038BD68
:1015A000FFF7F4FA0923F6E705F051FC0B23F2E705
:1015B00001230020EFE700BF0080005038B5124B38
:1015C0000546D3F850320C4603F00303022B0FD02C
:1015D000032B05D0012B0FD105F036FC0A2302E0C6
:1015E00005F035FC0B2305B1286004B1236038BD3C
:1015F000FFF7CCFA0923F6E7044841F2940105F01D
:10160000DDFB00231846EEE700800050ED80000867
:1016100038B5104B0546D3F860310C4603F0030390
:10162000022B0BD0032B0DD0012B0FD105F00CFC9E
:101630000A2305B1286004B1236038BDFFF7A6FA7C
:101640000923F6E705F003FC0B23F2E70123002052
:10165000EFE700BF00800050B0F5207F10B52ED01E
:1016600009D8B0F5007F24D003D868B1B0F5C07FA9
:101670000AD000241BE0B0F5607FFAD1124BD3F8FA
:101680008040C4F3011412E00F4B1C6F230B13F0C6
:101690000E0FC4F303340AD0072C08D00F2C06D049
:1016A000032C04D040F28521084805F087FB601C1C
:1016B00010BD054BD3F89040C4F30464F7E7024B28
:1016C0001C6FC4F38024F2E700800050ED80000816
:1016D0004FF4803238B5104B04469A6600200D4610
:1016E000FFF7BAFF41F671320C4B6043DC69DA63F5
:1016F0005A6804F4803422F440125DB908498842E3
:1017000094BF00200120000502435A600CB1002262
:10171000DA6338BD0349F2E700900050000003503F
:10172000005A6202002D310138B5430904460D46C6
:101730000ED140F22F310D4805F040FB002304F09C
:101740001F0485B103F580530122A2401A6038BD01
:10175000012B04D0022B04D040F23D31EBE7044BC7
:10176000EDE7044BEBE703F50053EDE7ED800008F0
:101770006480005068800050002130B5B0F5807F53
:1017800085B00446CDE9001100F006816BD8002831
:1017900000F0DB80A0F12004602C75D8602C73D899
:1017A000DFE814F0D300E000D300E000F000F00028
:1017B000F000F000F000E000F5007E000B019E005C
:1017C0007E00E000E000E000720072007200720033
:1017D0007200720072000B01E000E000E0002301E3
:1017E0001001E0007200720072007200720072005C
:1017F0007200720072007200720072001501F00037
:10180000D300D300D300B1007E007E00B9001A01DE
:101810009300C800C800720072007200720072006B
:101820007200720072007200720072007200720028
:101830007200720072007200720072007200720018
:101840007200720072007200720072007200720008
:1018500072007200720072007200720072007200F8
:1018600072007200CD00B0F5E06F00F0AB803CD8A4
:10187000B0F5607F00F081801DD8B0F5007F67D0A3
:1018800008D8B0F5C07F60D040F29441594805F0C7
:1018900095FA57E0B0F5207F64D0B0F5407FF3D1E2
:1018A000FFF702F904464FF42070FFF7D5FEB4FBB2
:1018B000F0F464085FE0B0F5B06F68D00AD8B0F516
:1018C000806F5FD0B0F5A06FDED100216846FFF7D2
:1018D00031FD37E0B0F5C06F6FD0B0F5D06FD3D128
:1018E00000216846FFF7E2FD2CE0B0F5286F73D0C9
:1018F00016D8B0F5186F6AD00AD8B0F5F06F74D06A
:10190000B0F5106FC0D100216846FFF701FE19E065
:10191000B0F5206FB8D100216846FFF769FD11E0EE
:10192000B0F5306F5DD0AFD3B0F5386F45D0B0F5BE
:10193000406FA9D100216846FFF770FC02E0FFF775
:1019400099F80090009805B030BDFFF7ADF8F8E7C2
:10195000FFF790F805462046FFF77EFEB5FBF0F551
:101960000095EFE7FFF7A0F804464FF42070FFF76B
:1019700073FEB4FBF0F40094E4E701A8FFF7EAFB80
:10198000019DE8E700216846FFF70EFCDAE7002139
:101990006846FFF77BFCD5E74FF0E02302911B6917
:1019A0005B0705D5FFF780F80290029B0093C9E71B
:1019B00003A902A8FFF7F8FCF7E700216846FFF744
:1019C000F3FCBFE700216846FFF7D4FDBAE700212A
:1019D0006846FFF7F3FDB5E700216846FFF740FDD5
:1019E000B0E76846FFF782FCACE700216846FFF7E6
:1019F0000FFEA7E7ED80000808B58020FFF7BCFECA
:101A0000034B98429EBF4FF48032024B1A6708BDC9
:101A1000005A620200A000501FB503460020B3F533
:101A2000607F019000F00E817BD8582B68D8382B4E
:101A300005D8243B092B49D940F27951CEE0393BF6
:101A40001F2BF9D801A252F823F000BFFF1B00089A
:101A5000391A0008391A0008391A0008091C000848
:101A6000571C0008391A0008391A0008391A0008EA
:101A7000391A0008391A0008391A0008391A0008FA
:101A8000391A0008391A0008391A0008391A0008EA
:101A9000391A0008391A0008611C0008491B00089F
:101AA000391A0008391A0008391A00088D1B000875
:101AB000391A0008391A00086B1C0008751C000848
:101AC0004D1C0008AF1B0008AF1B0008092BB3D842
:101AD00001A252F823F000BF491B0008491B00086F
:101AE000491B0008491B0008491B0008391A000857
:101AF000E51B0008391A0008FF1B0008671B0008D7
:101B0000802B59D0B3F5807F96D14FF0E02302901F
:101B10001B695B076ED5FEF7C7FF0C230393039B7E
:101B200056E0B3F5086F74D022D8B3F5C06F66D015
:101B30000FD8B3F5A06F00F08980B3F5B06F51D026
:101B4000B3F5806F7FF478AF002001A9FFF72CFB7D
:101B50004CE0B3F5E06F7ED0B3F5F06F54D0B3F541
:101B6000D06F7FF469AF002001A9FFF79FFC3DE033
:101B7000B3F5286F7ED00ED8B3F5186F70D0B3F5DB
:101B8000206F72D0B3F5106F7FF456AF002001A91B
:101B9000FFF7BEFC2AE0B3F5306F70D0FFF44CAF16
:101BA000B3F5386F2BD0B3F5406F7FF445AF00200D
:101BB00001A9FFF733FB19E0334B1B6F03F0070359
:101BC000013B032B08D8DFE803F005023139052378
:101BD00001930BE00223FBE740F2C6412B4805F0DE
:101BE000EDF803E0002001A9FFF750FB019805B0D4
:101BF0005DF804FB03A902A8FFF7D6FB8FE70020DE
:101C000001A9FFF7D1FBF1E7002001A9FFF700FDD3
:101C1000ECE71D4BD3F8003103F00303022B07D090
:101C2000032B09D0012B0BD1FEF754FF0323CFE781
:101C3000FEF7ACFF0923CBE705F004F90823C7E75B
:101C40000123C5E701A9FFF785FACFE7002001A925
:101C5000FFF770FBCAE7002001A9FFF78BFCC5E77F
:101C6000002001A9FFF7AAFCC0E7002001A9FFF7A7
:101C7000BFFBBBE7002001A9FFF7F2FBB6E701A914
:101C8000FFF734FBB2E700BF00800050ED80000892
:101C9000F8B5036804460F2B04D940F66D3180482F
:101CA00005F08CF863680F2B04D94FF437617C483A
:101CB00005F084F8A3680F2B04D940F673317848F7
:101CC00005F07CF8237B0F2B04D940F6763174485D
:101CD00005F074F8637B0F2B04D940F67931704816
:101CE00005F06CF8A37B3F2B04D940F67C316C489F
:101CF00005F064F8E37B3F2B04D940F67F31684858
:101D000005F05CF82369032B04D940F6823164485E
:101D100005F054F86369032B04D940F68531604817
:101D200005F04CF8E369032B04D940F688315C4890
:101D300005F044F88020FFF76FFE032800F08A804A
:101D40004FF48012574B584D5A6645F60E034FF02C
:101D5000A062C5F88030554B9A624FF4803203F58B
:101D600080539A62AB6DDA03FCD4AE6D16F08046F8
:101D7000FBD1D4E900231B0543EA0263E27B4C4814
:101D80001343227B4B4F43EA0243627B43EA023315
:101D9000A27B43EA82132B61AA69D4E904131B06D0
:101DA00043EA816302F000421343A27E4FF4406194
:101DB0001343227E43EA0243627E43EA0223AB617D
:101DC0004FF4006205F060F82B6AE17EE26923F0CF
:101DD0000F0343EA8103002A3DD12B6294F824309B
:101DE00094F82010AA6ADB0043EA41133A401343F7
:101DF00094F82120304943EA021343F480332A4AFD
:101E0000AB62936D31EA0303FBD14FF08071274839
:101E100081621369A56823F4700343EA05531361D3
:101E20004FF00043836194F822300BB9234B996241
:101E300094F823303BB94FF48032204B9A621A4A0F
:101E4000936D5B00FCD494F825301BB1164B1C4AF3
:101E5000C3F88020F8BD134343F00803022A2B6225
:101E600008D12E614FF408524FF47F411548AE61FE
:101E700005F00AF80C4994F822308A6A94F8200098
:101E80001B063A4043EA4013134394F8242043EAE4
:101E9000C20394F8232043EA02438B62D3E700BFD6
:101EA000ED800008009000500040005A0050005A99
:101EB0003840005AC7FFFEFE030001000060005AD0
:101EC000F1A7FFFF3440005A014B93F9000070471F
:101ED0007C110020436810B5072B044604D940F656
:101EE000B3512A4804F06AFFA368032B04D940F6D3
:101EF000B551264804F062FF2378032B04D940F63D
:101F0000B751224804F05AFF94F90130002B04DA4B
:101F100040F6B9511D4804F051FF4FF400011C4A2E
:101F2000637851664FF4D151022002F5B832516204
:101F300018494F2B48604FF0010028BF4F2301F58F
:101F4000805148601169C903FCD4217843EA012318
:101F50005361D4E901131B0143EA0123617B0B4365
:101F6000217B43EA41039360E37BA17B1B0143EAAE
:101F70004113617C0B43217C43EA41035360A37C02
:101F800013B16FF4D153536210BD00BFED80000850
:101F90000090005000100250014B1880704700BFA5
:101FA0007A110020014B1880704700BF7811002083
:101FB000B0F5207F38B577D00ED8B0F5007F61D06E
:101FC00003D890B3B0F5C07F2FD040F21231BDE8F6
:101FD00038403D4804F0F2BEB0F5607FF5D13B4A91
:101FE0004C1ED2F8FC5015F080751EBFD2F8FC30A4
:101FF00023F08073C2F8FC30032C04D940F2F221A4
:10200000314804F0DBFE324AD2F8803023F030034E
:1020100043EA0413C2F8803035B12C4AD2F8FC30C0
:1020200043F08073C2F8FC3038BD4C1E012C0AD935
:10203000102903D8274BCB40DB0704D440F2C7213B
:10204000214804F0BBFE04F02EFF04F03AFF4FF4E9
:102050008031214B1E4A1967136F23F4704343EA02
:1020600004331367FEF720FD0446FEF7E3FFC0F1DB
:102070000201204604F01FFF00F040F8BDE83840A0
:10208000FFF7BABC4C1E1F2C04D940F206310E4893
:1020900004F094FE0E4AD2F8903023F0F85343EA4D
:1020A0000463C2F89030BFE74C1E012C04D94FF4F2
:1020B0004371054804F082FE054A136F23F48063E0
:1020C00043EA84231367AFE7ED80000800ED00E0EA
:1020D00000800050100101000090005008B501215F
:1020E000022000F073F904F0DEFE04F0EAFE4FF483
:1020F0008032014B1A6708BD0090005008B54FF4BC
:10210000C070FFF739FBBDE808400449884294BF1E
:10211000012102214FF42070FFF74ABF80F0FA023C
:102120004FF4C02201212DE9F0470446944B5A6632
:10213000944A03F598335F6851605D6815F00205B5
:10214000FBD12268904B9A4204D84FF426618F4805
:1021500004F034FE22688E4B9A4204D940F6612185
:102160008A4804F02BFEA388B3F5967F04D840F686
:102170006421864804F022FEA388B3F5805F04D36F
:1021800040F66521814804F019FEE388B3F5805FCD
:1021900004D340F666217D4804F010FEFEF74AFFA6
:1021A000012820680AD17B4B984207D940F66B2161
:1021B000764804F003FE0020BDE8F087764A00234D
:1021C00011461668B04202D35668B04205D90133B1
:1021D000192B02F11002F4D1002301EB0313D3E910
:1021E000029028B1FEF732FF00F07F0049EA0009B3
:1021F0008020FFF711FC052840F0988004F053FE82
:1022000004F05FFE4FF480325D4B4FF4C0701A67EC
:10221000FFF722FA0128054640F0848002214FF49E
:10222000C070FFF7C5FE0126DFF87881D8F80C30C2
:1022300013F0060FFAD1D8F808A0C8F80890D8F81B
:10224000083083EA090313F4F81F71D1A288E388E8
:1022500043EA0243514AD360A368032B7BD1504A1F
:10226000D2F8003123F0030343F00103C2F8003138
:10227000637D227D9B0143EA820322694FF00008BF
:102280001343227B43EA4203444A93602068FEF7EB
:10229000EBFB07223B4B1A610122A3F580535A60E6
:1022A000A3F580531F6917F00707FBD08020FFF7C5
:1022B000B3FB05282ED126B129464FF4C070FFF795
:1022C00077FEFEF7F1FB23680546834204D240F611
:1022D000E6212E4804F072FDFEF7C0FBA84204D2AE
:1022E00040F6E721294804F069FD2468FEF7B6FBB3
:1022F000844204D040F6E821244804F05FFDFEF754
:1023000099FEC0F10201284604F0D5FDFFF7F6FE64
:10231000FFF772FBB8F1000F7FF44DAF7B1E584200
:10232000584149E7022801D1042178E700267BE7DC
:1023300040F6B221154804F041FD17F00107C8F836
:1023400008A01AD18020FFF767FB05287FF433AF80
:102350004FF00108AFE7092B07D1114AD2F800313D
:1023600023F0030343F0020380E7082B80D10C4ADB
:10237000D2F8003143F0030378E74FF0010888E713
:102380000090005000E001509FBB0D00ED80000860
:1023900000B4C404005A62025481000800C0015015
:1023A0000080005000000150024A536B0342FCD1F0
:1023B000704700BF00400950034A0179D36E23F0F3
:1023C00030030B43D366704700400050F8B5044615
:1023D000244BD3F88420D006FBD4D3F88430C3F345
:1023E00081139C423CD0FEF745FB012C05460BD1E6
:1023F0001D4B984204D940F292711C4804F0DEFC57
:102400000121284604F057FD04F075FD4FF00072DD
:10241000174B07465A66204604F07DFD4FF4806353
:10242000104E621E93403367736E9A0103D4D6F840
:1024300084309B060AD5384604F061FD022C0FD18A
:102440002846BDE8F840002104F035BDD6F88430B8
:102450009906E9D54FF4F461044804F0AFFCE3E7D2
:10246000F8BD00BF00400050005A6202E48200083C
:102470000060005010B50C4608B9FEF7FBFA074B98
:1024800021461B783BB1064B984204D80120BDE899
:102490001040FFF79BBF0220F9E700BFD65701208D
:1024A000005A62024FF0004238B5244B244C5A6661
:1024B0004AF6CD33656C014605F00105236428BB5F
:1024C0000120FFF771FF6368DB0715D51D4B5860CE
:1024D00008461D4B226BD2070CD4984208D1072422
:1024E00015B1174B194A1A6404F016FD204638BD81
:1024F0000130EFE79842F2D00024F1E70132236B7C
:1025000013F0080305D08A42F8D1E8E700220E490B
:10251000F5E78A42E3D020210A4A91620121A2F51F
:10252000805251600649084A886A800603D4934263
:10253000D5D00133F8E79342DDE700BF00900050AB
:10254000004009500060095040420F003254FFFF24
:10255000032838B504460D4605D8094B33F810302A
:10256000CB40DB0704D440F22D41064804F026FCA2
:10257000302301225C43044BAA401A5138BD00BFEE
:10258000188400084A83000840D00350032838B557
:1025900004460D4605D8094B33F81030CB40DB0715
:1025A00004D440F2FE31064804F008FC3023012236
:1025B0005C43044BAA401A5138BD00BF1884000880
:1025C0004A83000840E0035003282DE9F041044607
:1025D0000D461746984605D81D4B33F81030CB40B2
:1025E000DB0704D44FF4B0711A4804F0E7FB37B1AD
:1025F00029462046B8F1000F20D0FFF7A9FF0F2190
:10260000072D04EB440688BFA5F108034FEA061620
:10261000114895BFAB009B0004360C3607FA03F255
:102620009940304404F07FFC7FB929462046B8F138
:10263000000F06D0BDE8F041FFF78ABFFFF7A6FF05
:10264000DDE7BDE8F041FFF7A1BFBDE8F08100BFC5
:1026500018840008B183000830C003504FF4800292
:102660000B4B10B5C3F88020BFF34F8FBFF36F8FB4
:102670000024FF22074B21465C6520209A625C60A3
:10268000FFF752F82146BDE810402120FFF74CB873
:1026900000E100E000000450072838B504460D466C
:1026A00003DD7721084804F089FB1F2C03D9912111
:1026B000064804F083FB064A064B002D08BF13466C
:1026C0000122A2401A6038BD2084000887840008D7
:1026D000401004504020045010B5044618B9912110
:1026E0001F4804F06BFB23781B0613F0604F03D0E8
:1026F00092211B4804F062FBE3780F2B03D9A3213E
:10270000174804F05BFB01212020FFF70DF80121A1
:102710002120FFF709F80122124B5A602278120695
:102720009A606178A27842EA01429A61FF229A6235
:1027300000229A631A644FF000425A654FF0FF324C
:102740004FF4800103F500531A65074AC2F880115F
:10275000E3781B01DBB282F81633116010BD00BFB5
:10276000208400080000045000E100E02DE9F04161
:102770000126C3B2072805460C46904606FA03F622
:1027800003DDEC21364804F019FB1CB9ED21344877
:1027900004F014FB236823F47C1323F00F031BB114
:1027A000F0212F4804F00AFBA37A1B0413F47C0FDA
:1027B00004D040F209112A4804F000FBE37A1B051B
:1027C00013F07E6F04D040F20B11254804F0F6FAA6
:1027D000237B5B0513F0FE5F04D040F20D1120480F
:1027E00004F0ECFA1F4B204F1E65AB00226803F18A
:1027F000A04303F588235A60302202FB0575637BF2
:102800002B66E37AA27A1B0543EA0243227B43EA62
:102810004253EB6528F003032B6704F073FB7B6DD9
:1028200033437B65237A13B13B6C33433B64637A58
:1028300013B1BB6B3343BB632279A37943EA0243F1
:10284000084A93616179E37943EA014307498B615F
:10285000054B56639E64BDE8F04104F059BB00BFD0
:102860002084000800200450000004500010045090
:1028700010B50124C3B2072804FA03F404DD40F2C2
:102880009711074804F09AFA04F03CFB054B5A6D87
:1028900022EA04025A659C62BDE8104004F038BB8D
:1028A000208400080000045010B50124C3B207289A
:1028B00004FA03F404DD40F2B5110A4804F07EFA8C
:1028C00004F020FB084BDA6A224208D15B6B9C4380
:1028D0000CBF0124002404F01BFB204610BD002483
:1028E000F9E700BF20840008000004500B4B984219
:1028F00011D003F5804398420DD003F580439842F0
:1029000009D003F58043984205D003F58043C31AEC
:102910005842584170470120704700BF0080045062
:1029200030B4184CA04214D004F58044A0421BD00F
:1029300004F58044A04219D004F58044A04217D089
:1029400004F58044A04215D030BC8F210E4804F01D
:1029500035BA002006250D4C73B105FB001004EBC1
:102960008004626530BC70470120F3E70220F1E784
:102970000320EFE70420EDE705FB0011120204EB52
:102980008104EEE700800450ED84000800810350CC
:1029900038B505460C46FFF7A9FF18B9B421214800
:1029A00004F00CFA284604F0CDFA012205F5005394
:1029B0001A632B6B9B07FCD4237962881B0243EAC2
:1029C0008243A27A1343627843EA8213E27A43EAAB
:1029D000C213227B43EA4213627B43EA0213A27BC7
:1029E00043EAC203E27B43EAC223A27943EA0243F9
:1029F000E27943EA424301226B6005F580531A6392
:102A000022780AB90223EB6000236B626379217A92
:102A10001B0143EA8103617A0B43AB600AB10123D6
:102A2000EB6038BDED840008F8B506460F46144645
:102A3000FFF75CFF20B94FF48671254804F0BEF91A
:102A4000022F04D940F20D11214804F0B7F93046A5
:102A500004F078FA012206F500531A63336B9B07E2
:102A6000FCD4637AE2791B0143EA0253A27906EBB4
:102A700047151343E27A43EAC2432B66237A1BB31A
:102A8000237B2A6E394642EA43422A66013B18BF3D
:102A900001233046A278FFF743FF012306F5805655
:102AA0003363637822781B0643EA8263E27843EA61
:102AB0000233227943EA8223627943EA0223A27A2B
:102AC00043EA82036B66F8BD2B6E2B66E5E700BF19
:102AD000ED840008F8B507460C461D4616464AB96F
:102AE0004FF4A171314804F069F924B1402D09D1A6
:102AF000062328E021B94FF42070FEF73DFE04467E
:102B0000402D42D0402D09D87DB1202D17D040F264
:102B10008911BDE8F840254804F050B9602DF6D180
:102B2000B6EB940F3CD804230DE0B6EB141F04D988
:102B30004FF4BA711D4804F041F9102303E0B6EBDD
:102B4000D40F1CD808235E43730803EB4413B3FB74
:102B5000F6F3174E203BB6EBC30F4FEAC30404D283
:102B60004FF4D071114804F029F9BB68344023F0C8
:102B70006003BB60BB681D43BD60FC61F8BD40F2F3
:102B800079110A4804F01AF9DCE70623B4FBF3F3E1
:102B9000B342ADD24FF4BF71044804F00FF9A7E778
:102BA00040F28311014804F009F9BCE7558500089B
:102BB000F8FF7F0038B50C4B044698420D4604D010
:102BC0004FF43371094804F0F9F8012204F58053F9
:102BD0005A60EB43934003F00A036361656115B9E2
:102BE00004F50054626038BD00C0055055850008EA
:102BF000124B10B59842044604D040F242411048AE
:102C000004F0DCF8012104F58053596040F6AA6312
:102C100041F20502636100230A48A360E365E260B4
:102C200004F500522361E361E36490640348A36503
:102C3000844204BF23656365516010BD00C0055028
:102C400055850008FFFF0100304B70B598420446DF
:102C50000D4604D040F2FD212D4804F0AFF8204687
:102C6000FFF7C6FF012304F580567360AB7C1BB1F0
:102C7000A36843F08043A360EB7C5BB1234B9C4291
:102C800002BF2A7DA3F51033C3F8D421E36D43F0CE
:102C90008003E3652A8A6B7B20461343EA8913434A
:102CA000E3602B7BD5E90112FFF714FF6B7D1BB1AD
:102CB000A36843F48033A360AB7D1BB1A36843F4E6
:102CC0000043A360EB7D2A7E1B07120502F4E0029D
:102CD00003F0E0431343A3656B7E9A1E012A4FF075
:102CE000020209D80B49032BC1F8982709D1042304
:102CF000F3652B78636170BD0749012BC1F89827F4
:102D0000F4E7042204F50053DA65F2E700C0055049
:102D10005585000800D0035000E0035010B54FF473
:102D20002F720021044605F044F98023C4F88C304A
:102D3000054B04F19C00C4F88430012384F88830EA
:102D4000BDE8104004F03BB8BD85000810B5D0F8D0
:102D5000A0400A4684B904F0B7FA044610B900242A
:102D6000204610BD2D2896BF064B074953F820106A
:102D7000064804F0EFFBF3E7D0F8A4101046A04794
:102D8000EDE700BF68860008C0850008CE85000812
:102D9000F8B590F88060044616B100263046F8BDBC
:102DA00004F0DFF80028F8D1012384F8803094F88B
:102DB000883033B1D4F88410194884F8886004F05E
:102DC000C9FB4FF0FF37D4F8B402421C1CD0C4F842
:102DD000B47210F0FF0520D0204604F0BFF8294659
:102DE000204600F0AFFB0028EDD0204604F0BBF8F1
:102DF00094F888306BB1D4F88410094804F0AAFB29
:102E0000002384F8883004E004F089FB431CE0D1FF
:102E10000126002384F88030C0E70126D3E700BFF5
:102E20009B870008F8B50B780446302B0D461646F4
:102E300004D14B7803F0DF03582B11D0284F6A1EC2
:102E400012F8011F002934D128460A2203F082FF1C
:102E5000202C03460D4631D1B1FA81F040091AE029
:102E60004A1C1F4912F8013F8BB9284605F0DAF8D1
:102E70001C4B02382340032B12D10134A41084428E
:102E80000AD1A87837288CBF0020012003E0CB5C52
:102E900013F04400E6D1F8BDCCBF01200020FAE7D2
:102EA000002CB8BF0334B0EBA40FD4BF0120002026
:102EB000F1E77B5C13F00400C2D1ECE726B10843D4
:102EC00002D0013B61F100050122A240013A1A4003
:102ED000002D08BF9A420CBF01200020DBE700BF95
:102EE000EE8F000803000080F0B5037801467B2BCD
:102EF00017D10646022400220B4F16F8015F7D2DE4
:102F000005D10B5D6BB9D24302F0010008E07B5D97
:102F100013F0440002D001320134EEE7202DFBD043
:102F2000F0BD0020FCE700BFEE8F000870B506463C
:102F30000D4605F077F80446304604F00BFB044ECE
:102F4000AC4200D370BD304604F004FB0134F7E717
:102F50008E8700082DE9F84F044602216048FFF7EC
:102F6000E5FF1E212068FFF7E1FF6368586804F061
:102F7000F1FA5C4804F0EEFA67683B7BFD2B12D84F
:102F8000D7F808804FF0FF34404605F04BF806466E
:102F9000DFF84C91DFF8A8A1DFF864B10C3717F81F
:102FA000013BFF2B01D1BDE8F88F212B14D8212B39
:102FB00014D8DFE803F0178C8884807C78741313AE
:102FC000131313131313706C6864605C5854131359
:102FD000131313131313504CFE2B34D006B10134CA
:102FE000414D02E006B10134404D02214846FFF751
:102FF0009DFF1E214846FFF799FF504604F0AAFAAC
:103000005946284604F0EFFF3949002818BF2946E1
:10301000384804F09FFA3B78202B02D12B2004F093
:103020008DFA354804F096FA4EB118F804301F2B8B
:1030300005D018F804001F2801D0B4424BDB294802
:1030400004F088FAABE706B101342C4DCDE706B1A8
:1030500001342B4DC9E7002EA1D001349FE706B102
:103060000134284DC1E706B10134274DBDE706B153
:103070000134264DB9E706B10134254DB5E706B157
:103080000134244DB1E706B10134234DADE706B15B
:103090000134224DA9E706B10134214DA5E706B15F
:1030A0000134204DA1E706B101341F4D9DE706B163
:1030B00001341E4D99E706B101341D4D95E706B167
:1030C00001341C4D91E706B101341B4D8DE706B16B
:1030D00001341A4D89E704F031FA0134A9E700BF41
:1030E000A2870008F68A00082D87000827870008B5
:1030F000848700089B8700088887000835870008B8
:103100003B870008448700084B8700085687000863
:10311000608700086A870008558700085F870008F5
:103120006987000872870008768700087E87000894
:1031300021870008288700087D870008208700086D
:10314000868700082DE9F04F93B005468B46002492
:103150000092049304F066FF1C9F049B05901C6082
:1031600028463C600AAA09A904F015FA064658B98F
:103170000A9804F057FF3446B146049B1860D5F80E
:103180009C300393039B1BB9204613B0BDE8F08F1E
:10319000039B9B680193002B69D02E4416F8013BDA
:1031A000202B12D000260C237343019A02EB030A52
:1031B000D3580293002B55D0DDF82480C84551DB4D
:1031C0009AF808302BB1721C35E03B6801333B6044
:1031D000E4E73B68D5F894200299D21A049B1A6060
:1031E00012AB03EB890353F8203C1846069304F016
:1031F000E8FE07900028E6D1029804F013FFDAF801
:1032000004100346087BD7F800A0FE28079A16D1C1
:1032100008F1FF38C8452ED00B680698029201933A
:1032200004F000FF0AF10103029A0344E95C21B1B2
:103230003B6009F101091646B5E70133F6E7D5F819
:103240009420A2EB0A029A42BDDC5846069304F091
:10325000E9FE069B03447B2B1DD958461E4A009964
:1032600003F0D0FD2B46059A2A449A422AD1039BAB
:103270001B68039386E7D5F89420A2EB0A029A42D2
:10328000E3DDD1F8008058F80C2B82B9059B3B6038
:10329000049B1A60E6E75846029A009903F0B2FDD3
:1032A00058460E4A0099013403F0ACFD8BE75846AE
:1032B000009903F0A7FD5846084A009903F0A2FDC3
:1032C0000134E0E713F8011B0029CED14FF02001B3
:1032D00003F8011CC9E700BF8B8700088E87000830
:1032E0002DE9F047002486B01C60DDE90EA80646F3
:1032F00089468AF800401168154888F8004017464A
:103300001D468DF81740FDF713FB18B901242B68F3
:1033100001332B600020D6F89C6036B914B101232C
:1033200088F8003006B0BDE8F087B06868B14B4659
:103330000021CDE902A8CDE900750DF1170203F0D7
:1033400060FF9DF81730002BE8D13668E5E700BF35
:10335000908700082DE9F04300260446ADF5457D31
:103360007C22314605A802AF049604F022FE80229A
:103370002046009703AB04A9FFF7E4FE01283ED1E5
:1033800004A804F04FFE03993B68A0EB01080B442E
:10339000234428EAE878054604A801444246184632
:1033A00004F033FE00F80860D4F89060039B39689D
:1033B000D4F890201944B14212DCD4F89410E81AE1
:1033C0000244C4F89020014404AAC4F89410D4180C
:1033D00025182B1B002B0DDC0DF5457DBDE8F0837A
:1033E000A05C04F0ABF8D4F8903001360133C4F897
:1033F0009030DBE714F8010B04F0A0F8E9E7EBDD0F
:1034000024AD80223146284604F0D3FD44AB4FF46E
:1034100000723146184604F0CCFD0DF11009034648
:103420004A464FF00108314612F8016B002E49D18F
:1034300004A843F8281004F0F5FD2946334619F88E
:10344000016B0DF5887C5CF8042B824243D101337B
:10345000984501F8016BF2DAD4F89060039BB3420F
:1034600042DC2346354A04A9354804F073F828465F
:1034700004F0D8FD0646039B3F68F61A1F44E01986
:103480001D4426EAE67204F198031744984204EBBF
:1034900007014ED204F1900399424AD96A1E81195C
:1034A0000B1A002B39DD12F8013F00F8013BD4F86C
:1034B00090300133C4F89030D4F894300133C4F81C
:1034C0009430EDE7202E01F1010104BF43F82810EC
:1034D00008F10108A8E70DF1100E7244D25CB24267
:1034E000B1D00022EA54B7E7D4F890300136E05C5E
:1034F00004F024F8D4F890300133C4F89030ADE7EC
:10350000D4F89020013B0132C4F89020D4F89420E4
:103510000132C4F89420002BF2DC00232E44E35542
:10352000731B002B7FF758AF15F8010B04F006F85A
:10353000F6E7294604F069FD3346ECE7BD8500084F
:10354000958700082DE9F843D0E9245604460F4634
:10355000002294F89830012B07D10A2F07D10023BD
:1035600084F898300020BDE8F88300F29F801B2F7C
:1035700001D10223F4E70D2F0DD1012384F89830F7
:103580000D2003F0DBFF0A2003F0D8FF0023012009
:10359000C4E92433E7E74FF00008082F84F8988047
:1035A00034D1454530DDB5420FD1384603F0C6FF72
:1035B000202003F0C3FF013D384603F0BFFF013E6A
:1035C00004F80580C4E92456CCE7FBDA05F1FF399D
:1035D000384603F0B3FF04EB0903A6EB09026119B7
:1035E000184604F0CCFC04F806800146013E484829
:1035F00003F0B0FF35464D4501DC4D46E2E70820BB
:1036000003F09CFF013DF6E7ACD0DBE77F2F1CD138
:10361000002EA7DDB542A5DA6319691C21441846BE
:10362000721B04F0ACFC04F806800146394803F034
:1036300091FF0820013E03F081FFB542F9D1D4F893
:103640009430013BC4F894308CE70A2F98D0092FAE
:1036500003D12046FFF77EFE84E7D4F88C30013B8F
:10366000B3427FF77FAFB54204EB050805F10109CE
:103670000CDB384688F80070D4F89430C4F8909089
:103680000133C4F8943003F059FF6BE74146721BD5
:1036900004EB090004F073FC404603F05BFF0820D4
:1036A000013E03F04BFFB542F9DDE2E7022B06D104
:1036B0005B2F01D1032353E784F8982049E7032BBC
:1036C0007FF450AF413F84F89820032F3FF64AAF74
:1036D000DFE807F002070A160121204603F0DFFEAB
:1036E00040E74FF0FF31F8E7B542BFF63BAF605D12
:1036F00003F024FFD4F890300133C4F8903031E760
:10370000002D7FF72FAF013D0820C4F89050BAE795
:103710009E870008A387000830B587B06C461B4D14
:103720000FCD0FC495E8030084E803008020FEF766
:1037300073F905280CD001213120FDF7F5FF68460B
:10374000FEF7EEFC044684F00100C0B207B030BDC5
:103750000F4DFEF7C3FC2B6F23F0070343F001036B
:103760002B6703F0B3FB01213120FDF7DDFF684635
:10377000FEF7D6FC0446FEF7B1FC2B6F23F00703DF
:1037800043F002032B6703F0A1FBDCE7A8870008E6
:103790000080005013B50024064A6846536F43F07A
:1037A0000103536700948DF80440FEF705FE2046A0
:1037B00002B010BD0040005030B58BB06C46174DC4
:1037C0000FCD0FC40FCD0FC495E8030084E80300AC
:1037D000134BD3F84C2112031CD5A3F5FE431C88D0
:1037E0004FF6FF739C4208BF32248DF81940FEF754
:1037F0006BFB204480F308008DF818000948FDF7A2
:103800006FF96846FEF744FA0A20FEF7CBFB00206A
:103810000BB030BDD3F85041E4B2E6E7C0870008F2
:103820000080E00FC017530230B5094D87B001ACDE
:103830000FCD0FC42B6801A823603F238DF80530FE
:10384000FEF748FB1420FEF7A7FB002007B030BDB1
:10385000E88700086FF00403502110B50A480B4CAC
:1038600013F0800F03F1010207D123444F2A83F89C
:1038700000131346F4D1002010BD03F00F03043BE6
:10388000034419761346EBE700ED00E000E100E0A9
:1038900010B5044603F02FFB024B1C6003F02FFB16
:1038A000002010BD2853012010B503F024FB034B6A
:1038B0001C6803F024FB204610BD00BF28530120E4
:1038C000302238B5037A0446534303F1A04303F58D
:1038D0008023DD6ED0E9032313449D4201D8AA4220
:1038E00004D94FF43E71054803F068FAD4E90303A4
:1038F00003449D4218BF284638BD00BFFC8700081E
:1039000030B51446054687B01046FFF7D9FF636906
:10391000024683423CBFD4E903315B181B1AABB1AA
:103920001249049403910021CDE901310123009350
:103930002846D4E9001303F08DFA20B14FF4347116
:103940000B4803F03BFA002007B030BD012262763D
:1039500094F82D20002AF6D084F835301321E3693D
:10396000204698472046636A9847ECE701390008EB
:10397000FC8700082DE9F04788B004460F4616463C
:10398000984603F0BFFA8146002E00F0AD80237EFA
:1039900003F0FF02002B00F0E0802046FFF790FFCD
:1039A00063698246984206D1637E23B940F27F3133
:1039B0006B4803F003FA6569AA459DBFD4E9033259
:1039C0009B185D1BAAEB0505B54228BF354603F0E1
:1039D00099FA94F82D308246002B40F096802A46C2
:1039E0003846616904F011FB63692E462B4463611C
:1039F0002CE06069037803F0FD01112940F082801A
:103A0000216B884205D1A3F111014B424B4184F84F
:103A10003430013E6369216B01328B4203F10103B3
:103A200008BF236363619542E3D1D4E90323216B8B
:103A30001344994208BF2263216B8A4201D88B420A
:103A400004D84FF46D71464803F0B8F9D4E9032364
:103A500061691344994208BF626161698A4201D871
:103A60008B4204D84FF471713D4803F0A7F900234D
:103A7000207A6376FDF7FAF920B140F21131384827
:103A800003F09CF92046FFF71BFF636983423FD197
:103A90000023E568237694F82D30656103B1256332
:103AA0002046636A98472F4B0494039300230293A4
:103AB00023692A4601930123009363682168207AD1
:103AC00003F0C8F920B140F22D31254803F076F912
:103AD000207AFDF7EBF920B140F25131204803F094
:103AE0006DF9504603F014FA4846C8F8006003F038
:103AF0000FFAD8F80030002B0CBF1B20002008B0B4
:103B0000BDE8F08707F8013B84E72E4600228AE7EC
:103B10000123207A23760DF11E01FDF72FFA20B143
:103B20004FF450710E4803F049F99DF81E30207A89
:103B3000002BCDD00DF11F01FDF7F8F920B140F2B7
:103B40004631074803F03AF99DF81F10207A002902
:103B5000BED12246FFF7D4FEBAE71646C4E700BF3F
:103B6000FC8700080139000870B504460568FFF7B6
:103B70009BFE844202D10020FFF78AFE95F9363081
:103B8000002B11DB012203F01F015B099B0003F1F5
:103B900060438A4003F56143C3F88021C3F8802065
:103BA000BFF34F8FBFF36F8F287AFDF79FF920B1D6
:103BB0004FF4ED71104803F001F9287AFDF7FCF895
:103BC00020B14FF4EF710C4803F0F8F8FDF7D2F88C
:103BD00038B10A4B984204D04FF4F171064803F013
:103BE000EDF800232846C4E90033C4E90433A36098
:103BF000AB6ABDE870401847FC870008058000F0FC
:103C00002DE9F84304460D4690F82C80DFF8AC907F
:103C10008E18AE4228D094F82D3083B103F072F99B
:103C2000237E07461BBB226B63699A4204D040F295
:103C3000F911484603F0C2F8384603F069F994F8E0
:103C40003430002BE5D0B8F1000F06D02B780A2BCA
:103C500003D10D212046E36998472046E36915F812
:103C6000011B98470028D4D00020BDE8F8832046E7
:103C7000FFF726FEE1680138884238BF2069D4F892
:103C800030C03CBF00F1FF30401803469C450BD0CC
:103C900013F80129112A01D0132A07D1A2F1110327
:103CA0005A425A4184F834202063C5E7994282BFC2
:103CB000236903F1FF335B18E8E700BFFC870008C6
:103CC000F0B50C460646154687B03822002120463E
:103CD0001F4604F06EF995E8030000232A69237655
:103CE000EB6884E80300C4E904232A7DE36084F8D8
:103CF0002C20AA7D2363012384F8343084F83530E6
:103D00000C9B84F82D2023620D9BE76163620E9B60
:103D1000A3622B7A84F83630204B34607360204BDA
:103D2000B360204B3361204B7361204BF360FDF790
:103D300069F830B11E4B984203D01024204607B0DA
:103D4000F0BD002104F10800FCF7E4FF0028F4D1E5
:103D50000127184B0494CDE90203236900970193CE
:103D60006368E2682168207A03F074F8044600284A
:103D7000E3D195F90830002B0BDB03F01F025B0940
:103D80009B0003F16043974003F56143C3F88071E2
:103D90001F603046FFF77CFDD0E700BF013C000804
:103DA00075390008F3760008F9760008693B0008C9
:103DB000038000F0013900082DE9F0411C46574B03
:103DC00086B00293564B0127019300230C9D00936C
:103DD0009046CDE903770A46524B2946FFF770FF1C
:103DE0000646002840F0918023683946AB6363683B
:103DF0003A20EB63637A85F84130237A85F84030C6
:103E0000E37A85F84330A37A85F84230637B85F8FE
:103E10004530237B85F84430E37B85F84730A37B2E
:103E200085F84630FDF780FC3B460422617A207A13
:103E3000FEF7CAFB3B460222E17AA07AFEF7C4FBFA
:103E400039466068FDF770FC88F8006041462068DC
:103E5000FEF7FAFE1422637C5B0103F1A04303F535
:103E60007033C3F89827617A227A42EA0142C3F894
:103E7000B027E17AA27A42EA0142C3F8A82785F87E
:103E8000486098F81930032B45D8DFE803F0354235
:103E9000021C022385F8483000230422E17BA07B2A
:103EA000FEF792FB022741F29871627C1E4B03EBF6
:103EB00042104750E07BA17BBD3241EA004103EB59
:103EC0004213596018E0012785F848300222002388
:103ED000617B207BFEF778FB617B637C227BBD33BB
:103EE00042EA014210495B01CA500422236803F5EB
:103EF0008053DA65002FCFD1AA6B0521D36C2068DF
:103F000043F00403D364FEF755FE304606B0BDE827
:103F1000F0810027D8E72326F7E700BF0B770008DA
:103F2000FF7600088377000800C003502DE9F04FAA
:103F30009B4691B00B1E0A93AD4B904614BF814631
:103F4000994600241A9E9BF8000070B9444538BF7A
:103F5000224643464FF000000A9928BF08F1FF327D
:103F6000C847204611B0BDE8F08F25280BF1010BA2
:103F700006D0224643460A99651CC8472C46E2E70C
:103F800000230DE02D2A2AD0302A06D0303A092A03
:103F90004FF0000711D80A2532E043F001038B46A9
:103FA000594611F8012B2B2A1CD0EBD8202A1CD003
:103FB000232A1DD02A2A2BD000279BF800202E2A46
:103FC00064D19BF801100BF10102A1F13000092826
:103FD00043F4806351D800254FF00A0C26E043F0EB
:103FE0000203DCE743F00403D9E743F00803D6E714
:103FF00043F01003D3E78B4605FB0722A2F13007FD
:10400000594611F8012BA2F130000928F3D9D4E761
:1040100056F8047B8B46002FBCBF43F002037F425F
:10402000CBE702460CFB0511A1F13005104610F854
:10403000011BA1F1300EBEF1090FF2D9114611F8A2
:10404000010B6C282CD024D8682830D06A2837D0AF
:1040500011468B461BF8010B672875D857284BD89B
:10406000452807D085D9462800F03181472880D1DE
:1040700043F4006343F020033FE12A2907D156F8B7
:10408000045B0BF1020225EAE575D7E75A460025E5
:10409000D4E7742801D07A28DAD143F48073D8E7C2
:1040A00050786C28F9D143F44073911CD1E75078D3
:1040B000682802D043F08003CBE743F0C003F4E765
:1040C00043F40073C5E70A2A00F06281072A7FF4EF
:1040D00050AF43F0210305930823CDE90353102388
:1040E000CDE9011356F8043B224600934846434667
:1040F0000A9903F07DFCFAE0A0F158020F2A3FF67E
:1041000038AF01A151F822F079410008733F00084F
:10411000733F0008733F0008733F0008733F0008B7
:10412000733F0008733F0008733F0008733F0008A7
:10413000794100081943000879410008F34200085A
:10414000D3420008F3420008A0F16902D2B20F2A5C
:104150003FF60FAF012149F2410C914011EA0C01E9
:10416000B1D0782803F4806122D1002900F090803A
:1041700023F00D02102307E0622803F4806220D1AF
:1041800042BB23F00C02022312F4007100F0838082
:10419000CDE907720022CDE9043206F1070A2AF0C0
:1041A000070A06950292FAE80223CDE900233DE0D2
:1041B0006F2812D123F00C0209B123F00D0208235D
:1041C000E2E7582816D1002A39D123F00C0242F038
:1041D0002002CFE723F00D02D5E7692823F0100273
:1041E00030D023F01C0209B123F01D020A23CBE7D3
:1041F0002F78000842BB23F01002930527D507361D
:1042000026F00706B24671685AF8083B0A26CDE93F
:1042100007720027CA0F0029CDE9046706950292AC
:1042200002DA5B4261EB4101CDE9003143462246AF
:1042300048460A9903F01FFC0446564683E623F0DD
:104240000D02C4E70029D8D023F01102D5E7D0052C
:1042500006F1040A01D5336802E0510613D533781C
:10426000CDE904720A22002B02924FEAD372039521
:104270000192B8BF5B4200934346224648460A99E2
:1042800003F0B6FBD8E71306E5D5B6F90030E7E74B
:1042900023F00C026EE7D00506F1040A06D5CDE93D
:1042A0000472CDE9023501913368E4E7510608D57F
:1042B0003178CDE902350023CDE90472CDE9001350
:1042C000DAE7316812F0800F18BF89B2F1E743F0E6
:1042D0002003CDE90173073626F007060095B6ECFA
:1042E000020B4346224648460A99FCF705F9044664
:1042F00029E6672801D143F40063CDE9017307364D
:1043000026F007060095B6EC020B434622464846C7
:104310000A99FBF735FFEAE713F0020523D04FF0C7
:10432000010A631C0B93224643460A9916F8040BB4
:10433000C8475DB354460B9A1EE0434620200A99B5
:10434000C8470AEB04020AF1010A5745F5D8002FC5
:1043500007F1FF3308BF002307F1010A1C4408BF1F
:104360004FF0020ADDE7AA46EBE7551C4346202042
:104370000A99C8472A460134BC42F6D3A7EB0A0380
:10438000574538BF00230B9A1A440B920B9CDAE571
:104390003246002D52F8046B14BF29464FF0FF310E
:1043A0000B9232463144107808B18A4211D1A2EB07
:1043B000060A13F480620C9202D0AA4528BFAA46CE
:1043C00013F002030D931BD1AAEB040322460F93B3
:1043D00008E00132E7E7531C0E93202043460A9978
:1043E000C8470E9A0F9BD3189F42F4D8A7EB0A0335
:1043F000574538BF00230AF101021C4403EB020AAF
:10440000A31B0E9304E01D46434622460A99C84763
:104410000E9BF41816F8010B28B10C9B002BF3D05F
:104420006B1E002DEFD10D9B93B12246AAEB040524
:1044300005E0561C434620200A99C84732465319C6
:104440009F42F6D8A7EB0A03574538BF00231C4408
:104450000B9E78E50FB41FB506AA52F8043B02A9DB
:104460000392009204484FF0FF32FFF75FFD05B062
:104470005DF804EB04B07047157B00081FB50346D8
:1044800000914FF0FF3203A90248FFF74FFD05B03E
:104490005DF804FB157B000830B50A4C0A4B226816
:1044A0000A4D1A600A4B85B02B600A4B0193FFF747
:1044B000FBF92B68029001A92068039302F066FDC6
:1044C00005B030BD1C1000202453012020530120D2
:1044D00010100020E088000838B5FFF7E5F9044621
:1044E000064D2B68D3F8B002FFF7D2F9286802F026
:1044F00061FD2046BDE83840FFF7CAB91C10002016
:1045000010B5224CFDF7EAFD236F23F0070343F0BB
:104510000203236702F0DAFCD4F82031002023F0F4
:10452000070343F00103C4F82031D4F8283123F005
:10453000070343F00103C4F82831D4F8403123F0D5
:10454000030343F00203C4F84031D4F8603123F090
:10455000030343F00203C4F86031D4F8403223F07F
:10456000030343F00203C4F84032D4F8003223F0CE
:10457000070343F00203C4F80032D4F8083223F0F2
:10458000070343F00203C4F8083210BD0080005056
:1045900030B51F4D95B00DAC0FCD0FC495E8070099
:1045A000292384E807001B4A0021CDE902230523C3
:1045B000CDE904118DF8113004230E220DF12600EF
:1045C00006918DF8133003F0F4FC4FF48021124B68
:1045D0001248CDE9071309238DF824300A238DF8FA
:1045E00025300F4B0DAA0A9320230B9301238DF83E
:1045F00031300C4B07A9009302ABFFF7DDFB0446FB
:1046000018B18621084802F0D9FB204615B030BD0C
:104610005C89000800C0055024C0055038560120B0
:10462000D7570120EC550120F488000808B5FFF7A2
:10463000AFFF28B1BDE808409A21024802F0BEBB96
:1046400008BD00BFF4880008014803F0A0B800BF0F
:104650003856012007B503F0D2F803F063FA00F0F2
:10466000DBF80022FF20114600F07AF80A2000F063
:10467000AFF8012000F0BEF800F00AFA01F0CEF920
:104680001548FFF7E7FE8020FDF776F83B2203464A
:1046900012491348FFF7DEFE3C2210491148FFF78C
:1046A000D9FE3D220D491048FFF7D4FE4FF4806239
:1046B00014210E4B0E48009200F0B6FB20B13F22B1
:1046C00006490C48FFF7C6FE00F016FE03F0A4F8FA
:1046D00003F029FAFAE700BFF68A00087889000893
:1046E0007F89000894890008B2890008CE890008F3
:1046F000D3890008D889000870B5074C0646236B9B
:104700000D46DB0704D440F24231044802F056FB68
:1047100004EB4614A56670BD00000550F289000840
:10472000014B1878704700BF7D110020014B1878AD
:10473000704700BFFA57012010B1064B1B78037079
:1047400011B1054B1B780B7012B1044B1B78137021
:10475000704700BFF9570120F8570120F757012093
:10476000164B70B51870164B0C461970154B1A7015
:10477000154B1D78F5B16426144B1B7813FB04F41C
:10478000B4FBF6F410FB03F0E5B213FB02F4B0FB4C
:10479000F6F0B4FBF6F4C1B2E4B20020FFF7ACFFD0
:1047A00029460120FFF7A8FF2146BDE870400220FE
:1047B000FFF7A2BF29462C46EFE700BFF9570120BB
:1047C000F8570120F7570120FA5701207D110020EA
:1047D000044B1870044B1A78044B1978044B187862
:1047E000FFF7BEBF7D110020F7570120F8570120C9
:1047F000F9570120044B1870044B1A78044B1978B0
:10480000044B1878FFF7ACBFFA570120F757012087
:10481000F8570120F957012030B5012189B03A201D
:10482000FCF782FF01212620FCF77EFF00230422F3
:1048300018460821FDF7C8FE002304221846092166
:10484000FDF7C2FE00230025184604220A21FDF7C9
:10485000BBFE0F2200210DF1110003F0AAFB0D2277
:104860000021684603F0A5FB26208DF81050FCF7C8
:1048700083FF2A4B2A4CB0FBF3F003230138ADF839
:10488000120004A920468DF80630FEF781F80722B1
:10489000244B2946C3F838274FF40022C3F83C279D
:1048A0004FF41022C3F840274FF420222046C3F8CB
:1048B00044276A46FEF7B8F86A4601212046FEF70B
:1048C000B3F86A4602212046FEF7AEF8236BDB07F9
:1048D00004D440F2B641144802F070FA4FF48073E9
:1048E0000021E3610846FFF707FF00210120FFF7E1
:1048F00003FF00210220FFF7FFFE00230B4A137085
:104900000B4A13700B4A13700B4A137064220B4B43
:104910001A700123E36009B030BD00BFA08601001A
:104920000000055000C00350F2890008FA5701202A
:10493000F7570120F8570120F95701207D11002079
:1049400008B5104B984216D003F58043984215D015
:1049500003F58043984211D003F5804398420DD06F
:1049600003F58043984209D0074840F2D22102F073
:1049700025FA002008BD4FF0FF30FBE74FF6FF702F
:10498000F8E700BF00800450F289000870B51546B2
:1049900004460E46FFF7D4FFA84204D24FF45071EC
:1049A000074802F00BFA236BDB0704D440F24231D4
:1049B000034802F003FA04EB4614A56670BD00BF7D
:1049C000F289000810B50446FFF7BAFFB0F57A7F08
:1049D00004D240F2B441074802F0F0F9236BDB0740
:1049E00004D440F2B641034802F0E8F94FF47A7378
:1049F000E36110BDF2890008034BD3F8A43023FA19
:104A000000F000F00100704700C003500A46014664
:104A100010B90848FFF7BABF012801D10648F9E7E5
:104A2000022801D10121F4E7032801D10021F5E793
:104A3000704700BF0080045000C0045010B5032828
:104A40001DD8DFE800F0020C181A0E4C236BDB07B0
:104A500003D411210C4802F0B1F9A06E09E00B4C0F
:104A6000236BDA0703D41121074802F0A7F9D4F821
:104A7000880080B210BD034CF2E7044CE6E700204A
:104A8000F8E700BF008004505A8A000800C00450B4
:104A90002DE9F04F002589B001213A20FCF744FEB2
:104AA00001212420FCF740FE01212520FCF73CFEDB
:104AB0000023042206210220FDF786FD00230422A4
:104AC00009210220FDF780FD002304220721022096
:104AD000FDF77AFD0023042208210220FDF774FD72
:104AE0000F2200210DF1110003F063FA0D220021C5
:104AF000684603F05EFA25208DF81050FCF73CFE66
:104B0000BA4B0324B0FBF3F0B94E0138ADF81200F4
:104B100004A9B8488DF80640FDF73AFF304604A9CD
:104B2000FDF736FFB44BB54AC3F8F846C3F818474B
:104B3000C3F8FC2602F58032B14CDFF8D0B2C3F8DE
:104B4000002702F58032C3F81C2702F58032C3F833
:104B50002027214670225846FFF77CFC0620FFF7ED
:104B60004BFFDFF8ACA20346214671225046FFF707
:104B700071FC0920FFF740FFDFF8989203462146B9
:104B800072224846FFF766FC0720FFF735FFDFF883
:104B900088820346214673224046FFF75BFC0820CB
:104BA000FFF72AFF974F0346214674223846FFF746
:104BB00051FC214675229448FFF74CFC6A46294671
:104BC0008C48FDF731FF6A4601218A48FDF72CFF2A
:104BD0006A4629463046FDF727FF6A4630460121DE
:104BE000FDF722FF21467E225846FFF733FC0620C0
:104BF000FFF702FF214603467F225046FFF72AFCBB
:104C00000920FFF7F9FE2146034680224846FFF7B8
:104C100021FC0720FFF7F0FE214603468122404693
:104C2000FFF718FC0820FFF7E7FE21460346822223
:104C30003846FFF70FFC214683227348FFF70AFC32
:104C40006C48FFF7BFFE3046FFF7BCFE21468B22C3
:104C50005846FFF7FFFB0620FFF7CEFE214603462E
:104C60008C225046FFF7F6FB0920FFF7C5FE2146D0
:104C700003468D224846FFF7EDFB0720FFF7BCFEF9
:104C8000214603468E224046FFF7E4FB0820FFF74B
:104C9000B3FE214603468F223846FFF7DBFB902206
:104CA00021465948FFF7D6FB29462846FFF7AEFEB6
:104CB00029460120FFF7AAFE214695225846FFF714
:104CC000C9FB0620FFF798FE214603469622504670
:104CD000FFF7C0FB0920FFF78FFE2146034697220E
:104CE0004846FFF7B7FB0720FFF786FE214603463D
:104CF00098224046FFF7AEFB0820FFF77DFE2146D5
:104D0000034699223846FFF7A5FB9A2221463E48E2
:104D1000FFF7A0FB29460220FFF778FE2A46294626
:104D20003046FFF733FE21469F225846FFF792FB9D
:104D30000620FFF761FE21460346A0225046FFF7FA
:104D400089FB0920FFF758FE21460346A122484669
:104D5000FFF780FB0720FFF74FFE21460346A22204
:104D60004046FFF777FB0820FFF746FE2146034643
:104D7000A3223846FFF76EFB2146A4222248FFF704
:104D800069FB01231B4A2146D3605846F360AB22DE
:104D9000FFF760FB0620FFF72FFE21460346AC22FB
:104DA0005046FFF757FB0920FFF726FE2146034632
:104DB000AD224846FFF74EFB0720FFF71DFE2146B8
:104DC0000346AE224046FFF745FB0820FFF714FEDE
:104DD00021460346AF223846FFF73CFBB02221466E
:104DE0000948FFF737FB09B0BDE8F08F40420F00DC
:104DF00000C004500080045000C0035002000600B0
:104E0000AA8A0008768B0008A08B0008B28A0008E6
:104E1000F88A0008228B00084C8B0008014B187898
:104E2000704700BFFB5701202DE9F04FDFF8C0901D
:104E30001E4699F8003085B007468A469346DDF84D
:104E40003880002B4CD14FF0E024D4F8883D254D1C
:104E500043F47003C4F8883D6B6B802043F000433B
:104E60006B636B6B43F080436B63236923F0010337
:104E70002361D4F8203D43F06063C4F8203DD4F8AA
:104E8000203D43F47023C4F8203DFCF775FC4FF43B
:104E90007A73B0FBF3F06061236943F0040323618C
:104EA000236943F002032361236943F00103236173
:104EB00000F02AF843465A465146384600F048FA70
:104EC00058B90123314689F80030074ACDE902007C
:104ED000CDE90008054800F0FDFB05B0BDE8F08F06
:104EE0000520FAE700EF00E0737B00088C560120F4
:104EF000FB57012010B103680BB1181A7047014B22
:104F0000FBE700BF885101204FF4A0320021014887
:104F100003F04FB88811002073B540B3EFF310834E
:104F2000019372B6BFF36F8F264C4FF0FF3500210F
:104F30002646073020F007022046FFF7DBFF6368B4
:104F400033B90838A84203D282429CBF05462146A5
:104F50002468002CF0D1B14202D31B4B994209D9ED
:104F600002F009FE019B83F31088BFF36F8F0020CE
:104F700002B070BD312A12D80AB30868083253183B
:104F800083421EBF88500B605C60012301F1080062
:104F90004B60019B83F31088BFF36F8FE8E70846EF
:104FA000FFF7A8FF8A1A0244A2F1080399421EBF24
:104FB000086842F8080CC1E9003401215960104624
:104FC000E7E700BF881100208751012037B500288E
:104FD0003AD01E4B984237D31D4CA04234D8EFF341
:104FE0001082019272B6BFF36F8F083B00211D46FD
:104FF000AB420AD3A34208D883421A6802D862B1EE
:10500000824218D219461346F2E7019B83F31088B7
:10501000BFF36F8F022003B030BD5A6021B14A68E0
:1050200012B9186808601A60019B83F31088BFF3F7
:105030006F8F0020EFE70020586050680028EDD106
:1050400014681C601060E9E70120E4E7901100207B
:1050500087510120044B1B680BB9184603E0986880
:10506000027A002AF7D07047505601202DE9F04F00
:10507000064685B0EFF31083039372B6BFF36F8FCC
:105080004FF0FF384FF0010BC246A6B9B8F1000F40
:1050900008DD614B1B68986802F056FF4045ACBFC5
:1050A00000260126039B83F31088BFF36F8F3046E1
:1050B00005B0BDE8F08F706902F071FEF36830460C
:1050C000984707467369D3F80090B9F1000F05D1EE
:1050D00086F80890FFF7BEFF0646D6E7D9F80840E5
:1050E000237E042B25D0012B23D094F84050002D93
:1050F0006CD1A16BA9421FD1E26B27B3954210D2AC
:10510000914288BF636B07F1FF3784BF53F82230A9
:1051100083F808B00223BA1C08BF4FF0FF37E563DD
:105120002376237E022B04D194F94C309845B8BFE6
:105130009846D9F80090C8E7636B53F82530B3421E
:10514000DAD00135D6E79542EBD1A36B0135AB42FE
:105150000AD9636B214653F8250002F067FE002848
:10516000F3D0A36BAB420CD8E3694FF0FF35002BB3
:105170000CBF02230323237694F84030E563012B10
:105180000AE0022301222376636BE56353F825309E
:105190001A7294F840309342C3D1E3690027002B80
:1051A00014BF03230223C4F83CA02376E36BAB4275
:1051B000B7D00022A16B9142B3D0636B53F8223079
:1051C0000132B34218BF83F808B0F4E7012DA8D12B
:1051D000E56B002FE1D0002305E0626B52F823005D
:1051E000B0420AD10133A26B9A42F6D80023E3639E
:1051F0007B1C00D0013F0223D7E72146019302F038
:1052000015FE019B0028EDD1E369C4F83CA0002BFA
:1052100014BF03230223C8E76C5601202DE9F74F82
:10522000324B1B78012B3AD172B600230193EFF376
:1052300009832F4C0193D4F80090B9F1000F03D0EB
:10524000019AD9F808301A62DFF8A88000254FF0DB
:10525000FF3AD8F80060276823689E4222D10026D2
:105260004FF0FF3B67BB002E38D125601DB962B6F9
:1052700002F080FC72B62368002BE7D09B681B6AA3
:105280000193019B83F30988B9F1000F06D0D9F887
:105290000800037E042B01D100F014F962B603B0BC
:1052A000BDE8F08FB068037E022B03D102F04CFE04
:1052B000504503DA504682463668CDE73546FAE770
:1052C000B868037E022B03D102F03EFE584503DA94
:1052D000584683463F68C5E73E46FAE70DB9266063
:1052E000C9E7DA45A8BF2E46F9E700BFFC57012001
:1052F0006C5601207056012007B5FFF78FFDE0B115
:10530000EFF31083019372B6BFF36F8F01220C4B42
:105310001A7000F07BF938B14FF0E022D2F8043D6A
:1053200043F08053C2F8043D019B83F31088BFF320
:105330006F8F002003B05DF804FB0420FAE700BF84
:10534000FC570120014B1878704700BFFC57012023
:1053500073B50D1E06461446C0F28780B2F5C07FB5
:10536000C0F08380B3F5C07F7FD31046FFF7D4FD34
:1053700018B90325284602B070BD40B5EFF3088682
:1053800086F30988044424F007040194019B1E4617
:1053900086F30888EFF3148646F0020686F3148835
:1053A000BDE840405820FFF7B7FD04460028E0D094
:1053B00000230372012303702D4BC36002F031FC04
:1053C0002C4B6061236130461EB102F02BFEFFF7CB
:1053D000A3FD0223657684F84C5000252376C4E9AA
:1053E0000755C4E90D556060A585A562A56402F066
:1053F00018FC6369C4E914556064002B33D000289D
:1054000031D0606818BB76BB1B4E00222146304667
:1054100002F02BFC636902462BB3636C1BB310BB19
:105420002146164802F021FC0546B0B1214630461F
:1054300002F055FC606902F098FC606C02F095FC8B
:105440006068FFF7C3FD2046FFF7C0FD92E7002E1E
:10545000DAD0314602F0D1FDD6E7094B32681A6046
:10546000084B1C6086E70325E4E7012582E700BFBF
:105470005D7F0008337F00087056012050560120E0
:105480006C5601209056012013B50446FFF75AFFD1
:105490000128034610D1EFF31082019272B6BFF3D8
:1054A0006F8F074A1268906803768464FFF7DEFD09
:1054B00002F041FD62B6FBE7042002B010BD00BF60
:1054C0006C56012073B504460146494802F0B6FB0C
:1054D000002C00F08A80002800F085802378012BC2
:1054E00040F08380434D2B689B68A34214D0EFF3B8
:1054F0001083019372B6BFF36F8F0123204623768A
:10550000FFF7B4FD2B689B689C420BD104232376E4
:1055100002F011FD62B6FBE7FFF714FF0128E6D0A9
:1055200004203CE0636B002B52D12146324802F04C
:10553000D6FB21462E4802F0D2FB606902F015FC32
:10554000606C02F012FC236D002B0CDD0025206B3B
:10555000FFF73CFD2E46D4E914309D4201DA0028C5
:1055600038D1FFF733FDD4E90930C01AFFF72EFD1B
:1055700000250123C4E90D552376C4E90955C4E982
:10558000145560682562E561FFF720FD2046FFF7AE
:105590001DFD019B83F31088BFF36F8F284602B077
:1055A00070BD636B53F825306BB12146586902F02A
:1055B00096FB636B53F8250002F0DEFA636B53F839
:1055C0002500FFF753FD0135A36B9D42E9D3ACE7FE
:1055D0000025F9E750F82500FFF7F8FC636D43F864
:1055E00025600135B7E70220D9E70120D7E700BFE2
:1055F000705601206C56012050560120024B1B684A
:105600009868FFF75FBF00BF6C56012007B5EFF346
:105610001083019372B6BFF36F8F114B1A68114B51
:105620001B686BB1986802F08FFC01465AB9019B68
:1056300083F31088BFF36F8F104603B05DF804FB4F
:105640004FF0FF31F2E79068037E022B03D102F0A6
:105650007BFC814201DB1268E8E70120EDE700BF37
:10566000705601206C56012010B5044608B9002080
:1056700010BD0378012BFAD10146074802F0DEFA8B
:105680000028F4D0207E0428F1D00228F0D1636BEA
:10569000002B18BF0320EBE77056012082B00346B1
:1056A000EFF31082019272B6BFF36F8F084A106851
:1056B00018B18268928D9A4208D1019B83F31088B9
:1056C000BFF36F8F00B1806802B070470068EFE7EA
:1056D000705601202DE9F74F0D46174699469DF962
:1056E00030B00190002800F0ED80002A00F0EA8040
:1056F000BBF1000FC0F2E680B9F1010F00F2E280C9
:105700000D9BB3F5C07FC0F0DD80FFF787FB00285D
:1057100000F0DA805820FFF7FFFB824620B903240F
:10572000204603B0BDE8F08F0D98FFF7F5FB064665
:1057300018B95046FFF74AFCF1E74FF0000800F0B7
:10574000D3F800EB080484EA1444E4B22046FFF7DF
:10575000A5FF10B108F10108F1E701228AF8002045
:105760005A4A8AF80800CAF80C2002F05AFA584A35
:10577000CAF81400CAF8102028461DB102F052FCE5
:10578000FFF7CAFB0222AAF82C4000240D9B8AF8DE
:105790001820F218CAE9093222F00702CAF82020BC
:1057A000CAF83070CAE90D44CAF804008AF819B082
:1057B0008AF84CB0CAF81C40CAF8484002F031FAE6
:1057C0000F9B4FF08071A3420E9B0CBF22461A46DE
:1057D0000F9BCAF85020DAF82020CAF85430CAF8D3
:1057E000440042E902713B493B4F42F81C3CA14551
:1057F00008BF394642E904416FF002010E9B42E9BD
:105800000A41A2F1440142E9064442E90C4442E95A
:105810000E4442E9104442F8203CCAF8201042F8F5
:10582000444CDAF81420002A4AD0002848D0DAF88C
:10583000040030BB002D43D100225146274802F01E
:1058400014FA024600283BD15146254802F00DFAD1
:105850000446E0B15146214802F041FADAF814005A
:1058600002F083FADAF8440002F07FFADAF8040072
:10587000FFF7ACFB5046FFF7A9FB3046FFF7A6FB4E
:105880004EE7002DD8D0294602F0B7FBD4E75046AA
:1058900002F05AFB13490246096871B1886802F0A8
:1058A00053FB904205DAFFF74DFD012801D102F0CC
:1058B00042FB019BC3F800A032E74FF0FF30F0E756
:1058C0000324CBE701242BE7042429E75D7F0008AC
:1058D000337F0008FD5500088954000870560120E8
:1058E000505601206C560120014B1868704700BFCC
:1058F000945601202DE9F7430546EFF310830193F9
:1059000072B6BFF36F8F224ADFF88C8013680344AE
:105910001360204B1C68D8F80030BBB1986802F0C7
:1059200013FB064600274FF0020994B9012F05D159
:10593000FFF708FD012801D102F0FDFA019B83F376
:105940001088BFF36F8F03B0BDE8F0834FF0FF36D0
:10595000E8E7A068C3695A1E033204D8AB4234BFDB
:1059600000235B1BC361C269037E6AB9032B0BD1A1
:1059700080F8189002F0E8FA864207DCD8F8003088
:10598000A34218BF012701E0022BF3D02468CCE723
:1059900094560120705601206C56012008B514223F
:1059A0000A490B48FEF756FD00210846FFF72EF87E
:1059B00000210120FFF72AF800210220FFF726F836
:1059C000BDE8084000210320FFF720B8E68B00085F
:1059D000EC8B00081F2208B50C490D48FEF73AFD74
:1059E000FFF782FF0446FFF77FFF031BB3F5FA7F43
:1059F000F9D3BFF34F8F0749074BCA6802F4E0623F
:105A00001343CB60BFF34F8F00BFFDE7E68B000869
:105A10000B8C000800ED00E00400FA0510B5074CFF
:105A20000749206801F043FC0649206801F03FFC6B
:105A300020680549BDE8104001F039BC1C10002069
:105A40002010002050100020B010002013B51E4C74
:105A50000DF107020DF106010DF10500FEF76CFED8
:105A60001A48FEF7F7FC21462C221948FEF7F2FCF3
:105A7000FEF75CFE214603462D221648FEF7EAFC9F
:105A8000FEF74EFE214603462E221348FEF7E2FCA7
:105A900021469DF805302F221048FEF7DBFC2146F9
:105AA0009DF8063030220E48FEF7D4FC21469DF8C2
:105AB000073031220B48FEF7CDFC322221460A483E
:105AC000FEF7C8FC02B010BD698C0008F68A000819
:105AD000738C0008BC8C0008DE8C0008008D000868
