:020000040800F2
:1000000000100020910900080D6B000845780008D9
:100010004D780008557800085D780008657800087C
:100020000D6B00080D6B00080D6B00080D6B0008D0
:100030000D6B00080D6B0008697C00082378000830
:100040000D6B00080D6B00080D6B00080D6B0008B0
:100050000D6B00080D6B00080D6B00080D6B0008A0
:100060000D6B0008D93C00081F7800080D6B0008D4
:100070000D6B00080D6B00080D6B00080D6B000880
:100080000D6B00080D6B00080D6B00080D6B000870
:100090000D6B00080D6B0008950F00080D6B000834
:1000A0000D6B00080D6B00080D6B00080D6B000850
:1000B0000D6B00080D6B00080D6B00080D6B000840
:1000C0000D6B00080D6B00080D6B00080D6B000830
:1000D0000D6B00080D6B00080D6B00080D6B000820
:1000E0000D6B00080D6B00080D6B00080D6B000810
:1000F0000D6B00080D6B00080D6B00080D6B000800
:100100000D6B00080D6B00080D6B00080D6B0008EF
:100110000D6B00080D6B00080D6B00080D6B0008DF
:100120000D6B00080D6B00080D6B00080D6B0008CF
:100130000D6B00080D6B00080D6B00080D6B0008BF
:100140000D6B00080D6B00080D6B00080D6B0008AF
:100150000D6B00080D6B00080D6B00080D6B00089F
:100160000D6B00080D6B00080D6B00080D6B00088F
:100170000D6B00080D6B00080D6B000800000000FF
:100180002DE9F04F93B0CDE90A32DDE91C530E930F
:1001900053EC102BCDE90801104619468DED060BE6
:1001A0001E9E06F093F880B1DDE906014FF0FF32A4
:1001B000C54B06F0B3F840B9DDE906014FF0FF3258
:1001C0006FF4801306F08CF870B1DDE908019DED45
:1001D000060B0E9B1E96CDE91C53DDE90A3213B0C7
:1001E000BDE8F04F00F088B90022DDE906010023E8
:1001F00006F076F8002800F03381DDE906A303F16C
:10020000004BCBF30A5016F48063A0F2FF3008BF16
:1002100006250F9305F088FD9BA3D3E9002305F085
:10022000EDFD9BA3D3E9002305F032FCCBF31304CF
:10023000894644F07F5180460022A44B504641F449
:10024000401105F023FC94A3D3E9002305F0D6FD6B
:1002500002460B464046494605F01AFC06F068F88F
:10026000044605F061FD8EA3D3E90023804689464C
:1002700005F0C4FD0022964B05F00AFC06F058F884
:1002800089A3D3E9002307464946404605F0B6FD59
:1002900080463846894605F047FD85A3D3E900230B
:1002A00005F0ACFD02460B464046494605F0EEFB24
:1002B00002460B46CDE90C2305F0A0FDDDE90C2339
:1002C000804689461046194605F0E2FB0022CDE93A
:1002D0001001804B4046494605F0BAFE00227E4B95
:1002E00005F0D6FB02460B464046494605F0B0FEF7
:1002F00000227A4B05F0CCFB02460B4640464946AD
:1003000005F0A6FEDDE90C238046894600204FF06B
:10031000804105F0BBFB02460B464046494605F0CE
:10032000B7FB02460B46DDE9100105F091FE07F22E
:10033000FF3700226A4B05F0ABFB00223B0505F0BE
:100340005DFD52465B468046894605F0E7FF002882
:1003500040F08980CDE90C8904F16303C72B34BFD9
:100360000427052731051BD553A3D3E900235046A5
:10037000594605F0C9FF00287FD051A3D3E90023D7
:100380005046594605F0ACFF002876D00027A5421C
:10039000C6BF2C1B04F1FF3500253C4646F48066A1
:1003A0000E9B9F422CBF4FF00008A3EB070816F0EE
:1003B000020903D0002F18BF4FF000083CB1DDE95F
:1003C0000C235046594605F043FE82468B46DDE934
:1003D00006010022002305F083FF10B10BF100435A
:1003E0009B46DDE9080126F40063CDE90183DDE9E0
:1003F0000A324BEC10AB009500F07EF802465FB37A
:10040000DDE9091316F0200F00F10105089E0CBF6D
:1004100065204520B047DDE908010523002205934A
:100420000A23002CCDE9023207F1FF374FEAD473DB
:10043000B8BF64422A46019304970A9B009407F0D0
:1004400036F90246B9F1000F06D00B9BC41A0B9B7C
:100450001A190E9BA34245D8104613B0BDE8F08F81
:10046000DDE906ABCDE60022404649461A4B05F0D1
:10047000EFFD013CCDE90C016EE7002D90D00F9B04
:10048000002B8DD0013D8BE7FB799F501344D33F68
:10049000B3C8608B288AC63F61436F63A787D23F8A
:1004A00071A379094F930A401655B5BBB16B024051
:1004B000EF39FAFE422EE63F2D431CEBE2361A3F9F
:1004C0000000000080842E41FFFFEF7F0000F83F16
:1004D0000000E03F00002C400000244000001840D5
:1004E0000000F03F2020DDE90913089DA8470134F2
:1004F000ADE700BF000000002DE9F04F5BEC10AB52
:1005000097B0CDE90501DDE92057CDE90723504635
:1005100052465B465946229E05F0D8FE70B9032329
:10052000CDE902760193B04B0093DDE90501DDE9E9
:10053000072306F0DCFF17B0BDE8F08F4FF0FF3265
:100540006FF480135046594605F0CAFE28B10423C3
:10055000CDE902760193A54BE6E74FF0FF32504616
:100560005946A34B05F0DAFE68B1A24A06F004032F
:10057000002B08BF0322A04B1CBF13460422CDE969
:1005800002760192D0E7504693A3D3E9002359465F
:1005900005F0C4FE38B992A3D3E90023504659466A
:1005A00005F09EFE68B1DDE90723DDE905014BECAE
:1005B00010ABCDE92176209517B0BDE8F04FFFF7DD
:1005C000DFBD002200235046594605F089FE002871
:1005D00000F09A805B4652460020002105F056FA52
:1005E000012382468B46099316F4806400F08E80C6
:1005F000092D40F28E80002430210EABA5F10902B6
:100600000134202C03F8011BA5EB040901D094420E
:10061000F6D15946504605F08BFE784B054603EB64
:10062000C90393ED007B8DED0A7B05F07DFB02464F
:100630000B465046594605F029FADDE90A2305F034
:10064000DDFB02460B46CDE90C2305F099FE804602
:1006500005F05AFB02460B46DDE90C0105F016FADF
:1006600002460B46CDE90C230022654B05F056FEF1
:10067000002851D008F10108404605F045FB02462C
:100680000B46DDE90A0105F035FE10B14FF0000818
:100690000135B9F1000F50D1284605F045FB02465F
:1006A0000B465046594605F0F1F90022544B80465E
:1006B000894605F015FE30B1002240464946504BB0
:1006C00005F02CFE10B1E80700D501350A210EAB6C
:1006D0001A19202C0AD095FBF1F001FB105530358A
:1006E00002F8015B013405460028F2D106F003024E
:1006F000012A57D1002F55D0099A12B916F00C0FC4
:1007000000D0013F302245E009906DE74FF0060927
:100710007FE7A94600247CE70022DDE90C01384B85
:1007200005F0DEFD0028B4D1B8F1000F02D018F0BA
:10073000010FAED008F10108ABE70A210EAB23444C
:10074000202C0ED0B8FBF1F001FB1082B8F1090F9C
:1007500002F1300209F1FF3904F1010403F8012B21
:1007600011D83021A1440EAA202CAFD0A14504F10C
:1007700001030AD11C4609F158030DEB03092E238E
:1007800009F8203CA2E78046DAE7A1541C46EBE7D3
:100790001A550134A74205D9202CF9D1CDE90276AA
:1007A0000194C1E6202CF9D0099A3AB12D2104F127
:1007B00058026A4402F8201C0134EFE7710704D59F
:1007C00004F158022B216A44F4E73207E6D504F11C
:1007D000580220216A44EDE70000000065CDCD41BC
:1007E0000000000065CDCDC13085000834850008CB
:1007F000FFFFEF7F278500082C8500084085000853
:100800000000E03F0348044B834202D0034B03B196
:1008100018477047CC110020CC11002000000000C8
:10082000064B0749C91A891048BF0131491003D046
:10083000044B0BB101481847704700BFCC11002092
:10084000CC1100200000000010B5064C237843B9FD
:10085000FFF7D8FF044B13B10448AFF30080012326
:10086000237010BD6458012000000000C0950008EE
:1008700008B5054B1BB105490548AFF30080BDE83D
:100880000840FFF7CDBF00BF000000001852012054
:10089000C0950008A3F5803A704700BF174B002BA6
:1008A00008BF134B9D46FFF7F5FF00218B460F460F
:1008B0001348144A121A07F0A0FA0E4B002B00D06E
:1008C00098470D4B002B00D09847002000210400D2
:1008D0000D000D48002802D00C48AFF3008006F050
:1008E000B9F82000290003F0FDF905F0F9FE00BF7A
:1008F00000000800000000000000000000100020C0
:100900001412002090580120000000000000000098
:1009100038B504460D4601B118B93721034806F031
:10092000BDF823682B60256038BD00BF007F00083C
:1009300070B5D0B1C9B10E4E431E013913F8014F45
:100940002046325D02F00302012A11F8012F08BF90
:1009500004F12000B55C05F00305012D08BF20322D
:10096000801A01D1002CE9D170BD0120FCE700BF45
:10097000BE9400080348044A0449121A921006F073
:10098000C6B800BFA0970008A097000890580120A3
:1009900008B500F02FF8FFF7EDFF124B12498B421C
:1009A00012D30020114B12498B4218D3FFF776FF68
:1009B000186850F82240586840F822400132986880
:1009C0008242F5D30C33EAE70022F8E71C6844F8CA
:1009D000220001325C68A242F8D30833E4E7002227
:1009E000F8E700BFC8950008D4950008D495000822
:1009F000D49500084FF480414FF0FF30114B124A5C
:100A000010B59A60D3F8882042F47002C3F88820A9
:100A10000E4A91660E4901F5005210660D48506667
:100A20000220C3F8D000BFF34F8FBFF36F8F0124B4
:100A30004FF440330848C0F88041D36004600B6134
:100A400010BD00BF00ED00E0000000080090005065
:100A5000008000447FFF7F0300E100E0014B186845
:100A6000704700BF04100020084B1B6F03F0070302
:100A7000022B04D0032B05D0012B05D0FEE7044B3D
:100A800018687047034BFBE703487047008000502D
:100A9000041000200C100020002D310108B5FFF7D4
:100AA000E3FF054B1B6FC3F303330133B0FBF3F0DC
:100AB000024B186008BD00BF0080005000100020ED
:100AC0000048704700B4C404014B1868704700BF69
:100AD0000C10002000487047002D31014FF0B44346
:100AE0009868C0F304400C280AD8DFE800F00B092E
:100AF00009090909072119091B1D1F000F48704723
:100B0000002070479B6803F04073B3F1807F11D0E1
:100B1000B3F1007F10D00A4A002B08BF104670477F
:100B200008487047084870470848704708487047A9
:100B3000084870470848704708487047405DC6003D
:100B400000093D00C0EA210180BA8C010048E8019B
:100B5000005A62020024F40080841E0040420F000C
:100B6000014B1868704700BF081000202DE9F04FB6
:100B70009A46564B85B01B7806460F461546DDF85B
:100B80003C909DF844B0DDF85080002B00F0978039
:100B9000072A00F296800E9B002B00F09280B9F19C
:100BA000000F00F08E80129BB3F5006F00F3898078
:100BB000012803D1109B002B00F08380444B03EBF2
:100BC00005131B7B002B7ED0424C1022002168466F
:100BD00007F013F904EB45141022A7BB3946204651
:100BE00007F00BF943F210036380BBF1000F03D150
:100BF000E37843F00303E370364A0E9B02EB451C97
:100C0000CCE90193129B6901581E9DF84C30C0F34A
:100C10000A0003F003039B0643EA001E53582E48C4
:100C2000012E00EA03004EEA0003CDF800A0535065
:100C300017D0B8F1000F2ED19CF8023068F30413DE
:100C40008CF8023027E00021204607F0D6F84FF458
:100C500044736380BBF1000FCED1E37843F03003DF
:100C6000C9E713230CF1100ECCF80C309CE80F00F0
:100C70008EE80F006FF00301DCF81C20109B61F37D
:100C80009F02012FCCF81C20CCF8143003D1CCF8F3
:100C90001890CCF8043000270D4A290102EB051307
:100CA00042F80180159A28465A60694622469F609C
:100CB0005E7301F019F9384605B0BDE8F08F0748BA
:100CC000FAE70748F8E70748F6E700BF655801204C
:100CD00030530120305201200F80FFF3028000F0DA
:100CE000018000F0078000F038B5124B05461B78F4
:100CF000DBB1E0B105F065FF0F4A00231146147B1C
:100D000054B92B6001251A0101EB03131D738C509C
:100D100005F05DFF204638BD0133082B02F11002BB
:100D2000EDD105F054FF0548F5E70548F3E7054820
:100D3000F1E700BF6558012030530120048000F026
:100D4000028000F0018000F038B505F03AFF002382
:100D500005460B4A147B6CB90133082B02F11002D3
:100D6000F8D101F039F8074B28461C7005F02FFF29
:100D7000204603E0284605F02AFF034838BD00BF9F
:100D80003053012065580120058000F00D4B10B54F
:100D90001B78044693B1072812D805F012FF0A4BBE
:100DA00003EB04131A7B2AB100241C7305F00FFF18
:100DB000204610BD05F00BFF0448FAE70448F8E7A9
:100DC0000448F6E76558012030530120068000F002
:100DD000028000F0018000F0154B13B51868002365
:100DE00001908DF8043005F0ECFE124B1C7824B114
:100DF00005F0EDFE104802B010BD01221A7005F09A
:100E0000E6FE0E4B01A81C731C7783F82C4083F878
:100E10003C4083F84C4083F85C4083F86C4083F896
:100E20007C4008238DF8073001F014F82046E2E7F3
:100E3000697F000865580120038000F030530120CD
:100E40000A4A08B512785AB107280BD8084A02EBAB
:100E500000131B7B43B1002100F0DCFF002008BD24
:100E60000448FCE70448FAE70448F8E7655801201D
:100E700030530120028000F0018000F0078000F074
:100E80000A4A08B512785AB107280BD8084A02EB6B
:100E900000131B7B43B1012100F0BCFF002008BD03
:100EA0000448FCE70448FAE70448F8E765580120DD
:100EB00030530120028000F0018000F0078000F034
:100EC0000A4A08B5127852B107280AD8084A02EB34
:100ED00000131B7B3BB101F089F8002008BD0548D9
:100EE000FCE70548FAE70548F8E700BF6558012028
:100EF00030530120028000F0018000F0078000F0F4
:100F00000D4B1B7893B1072812D889B10B4B03EB1B
:100F100000131B7B73B10A4B1A6D012383401342EC
:100F200014BF0123002300200B7070470548704751
:100F30000548704705487047655801203053012027
:100F400000000450028000F0018000F0078000F0F3
:100F50000B4A10B512780C4662B107280CD859B16B
:100F6000084A02EB00131B7B43B101F05BF82070D1
:100F7000002010BD0448FCE70448FAE70448F8E7FD
:100F80006558012030530120028000F0018000F0FC
:100F9000078000F0184B2DE9F0411F6D5B6D1F407D
:100FA00000D5FEE701260025144CDFF858803742B3
:100FB00018D02368C8F85060A3B1A1682846013151
:100FC0006268A1609847637B012B0BD150B90C4B31
:100FD00003EB45131A7B60F341021A731A7F60F327
:100FE00041021A770135082D4FEA460604F1100434
:100FF000DDD1BDE8F08100BF000004503053012076
:101000003052012000200450044BD3F88420D20633
:10101000FBD4D3F88400C0F3811070470040005027
:1010200038B5124B0546D3F880300C4603F0030365
:10103000022B0BD0032B0DD0012B0FD1FFF714FD8A
:101040000D2305B1286004B1236038BDFFF746FDCC
:101050000723F6E7FFF702FD0623F2E7044841F213
:10106000DF1105F01BFD00231846EAE70080005061
:101070006D7F000838B51A4B0546D3F820010C46A1
:1010800000F00700062821D8DFE800F028040C143F
:1010900010181C00FFF7E2FC052305B1286004B11D
:1010A000236038BDFFF710FD0323F6E7FFF716FDB9
:1010B0000723F2E7FFF70EFD0223EEE7FFF7CEFC72
:1010C0000623EAE7FFF700FD0423E6E7054841F2BF
:1010D0005C2105F0E3FC00231846DEE70123DCE792
:1010E000008000506D7F000838B5194B0546D3F8D5
:1010F00028310C4603F00703013B052B20D8DFE81D
:1011000003F003131B0F0B17FFF7A8FC052305B112
:10111000286004B1236038BDFFF7A0FC0623F6E782
:10112000FFF7DCFC0723F2E7FFF7CEFC0323EEE733
:10113000FFF7CAFC0423EAE7FFF7CCFC0223E6E74B
:10114000044841F2640105F0A9FC00231846DEE7DB
:10115000008000506D7F0008F7B50027144B019701
:10116000D3F88041064604F00304022C0D4614D047
:10117000032C0DD0012C14D1394601A8FFF77AFFBA
:101180000F240EB1019B336005B12C6003B0F0BD9C
:10119000FFF7A4FC07240190F3E7FFF79BFC019005
:1011A000EFE741F2B131034805F078FC3C46E8E74F
:1011B000008000506D7F000838B50F4B0546D3F80E
:1011C00090320C4603F00303012B09D0022B0BD104
:1011D000FFF784FC072305B1286004B1236038BD04
:1011E000FFF778FC0223F6E7044841F2501105F0BE
:1011F00055FC00231846EEE7008000506D7F000884
:10120000002337B50193194B0546D3F820320C461D
:1012100003F00703042B1FD8DFE803F025030F14A6
:101220001900002101A8FFF75FFF11230DB1019AFA
:101230002A6004B1236003B030BDFFF74FFC0723E1
:101240000190F3E705F06EFC0A230190EEE7FFF74B
:1012500087FC09230190E9E741F22301044805F0E6
:101260001DFC0023E2E70123E0E700BF00800050FF
:101270006D7F000838B5104B0546D3F840310C4659
:1012800003F00303022B0BD0032B0DD0012B0FD146
:1012900005F048FC0A2305B1286004B1236038BD7D
:1012A000FFF75EFC0923F6E705F03FFC0B23F2E7AE
:1012B00001230020EFE700BF00800050002337B576
:1012C0000193184B0546D3F860320C4603F0070330
:1012D000013B032B1FD8DFE803F0020E1914002195
:1012E00001A8FFF7C7FE0F230DB1019A2A6004B1D0
:1012F000236003B030BD002101A8FFF7BBFF10231E
:10130000F2E7FFF7EBFB07230190EDE7FFF7E2FBC6
:1013100002230190E8E741F2C801034805F0BEFB53
:101320000023E1E7008000506D7F000873B50024C2
:101330000F4B0194D3F87032064603F00303012BE0
:101340000D4607D0022B11D041F22611094805F0B5
:10135000A5FB04E0214601A8FFF78CFF10240EB185
:10136000019B336005B12C6002B070BD1424F6E718
:10137000008000506D7F000838B5164B0546D3F845
:1013800000020C4600F00700042819D8DFE800F03E
:1013900020030B0F130005F0C5FB0A2305B12860DD
:1013A00004B1236038BDFFF7DBFB0923F6E705F046
:1013B000BCFB0B23F2E7FFF771FB0E23800AEDE77E
:1013C000054841F26F4105F069FB00231846E5E747
:1013D0000123E3E7008000506D7F000838B5164B0D
:1013E0000546D3F808020C4600F00700042819D877
:1013F000DFE800F020030B0F130005F093FB0A2336
:1014000005B1286004B1236038BDFFF7A9FB0923AB
:10141000F6E705F08AFB0B23F2E7FFF73FFB0E230D
:10142000800AEDE7054841F2A74105F037FB0023AC
:101430001846E5E70123E3E7008000506D7F0008D0
:1014400038B5104B0546D3F840320C4603F0030381
:10145000022B0BD0032B0DD0012B0FD105F062FB1B
:101460000A2305B1286004B1236038BDFFF778FB7B
:101470000923F6E705F059FB0B23F2E701230020CF
:10148000EFE700BF0080005038B5124B0546D3F897
:1014900050320C4603F00303022B0FD0032B05D070
:1014A000012B0FD105F03EFB0A2302E005F03DFBC6
:1014B0000B2305B1286004B1236038BDFFF750FB52
:1014C0000923F6E7044841F2940105F0E7FA002306
:1014D0001846EEE7008000506D7F000838B5104BCD
:1014E0000546D3F860310C4603F00303022B0BD002
:1014F000032B0DD0012B0FD105F014FB0A2305B1EE
:10150000286004B1236038BDFFF72AFB0923F6E702
:1015100005F00BFB0B23F2E701230020EFE700BFF0
:1015200000800050B0F5207F10B52ED009D8B0F55E
:10153000007F24D003D868B1B0F5C07F0AD0002462
:101540001BE0B0F5607FFAD1124BD3F88040C4F3B2
:10155000011412E00F4B1C6F230B13F00E0FC4F39A
:1015600003340AD0072C08D00F2C06D0032C04D04B
:1015700040F28521084805F091FA601C10BD054B2A
:10158000D3F89040C4F30464F7E7024B1C6FC4F334
:101590008024F2E7008000506D7F00084FF4803215
:1015A00038B5104B04469A6600200D46FFF7BAFF87
:1015B00041F671320C4B6043DC69DA635A6804F41B
:1015C000803422F440125DB90849884294BF00205B
:1015D0000120000502435A600CB10022DA6338BDD5
:1015E0000349F2E70090005000000350005A6202E5
:1015F000002D310138B5430904460D460ED140F2A5
:101600002F310D4805F04AFA002304F01F0485B17C
:1016100003F580530122A2401A6038BD012B04D08B
:10162000022B04D040F23D31EBE7044BEDE7044BD5
:10163000EBE703F50053EDE76D7F00086480005091
:1016400068800050002130B5B0F5807F85B0044639
:10165000CDE9001100F006816BD8002800F0DB8096
:10166000A0F12004602C75D8602C73D8DFE814F04A
:10167000D300E000D300E000F000F000F000F00044
:10168000F000E000F5007E000B019E007E00E0000F
:10169000E000E000720072007200720072007200DE
:1016A00072000B01E000E000E00023011001E00007
:1016B000720072007200720072007200720072009A
:1016C00072007200720072001501F000D300D300A6
:1016D000D300B1007E007E00B9001A019300C8005B
:1016E000C800720072007200720072007200720014
:1016F000720072007200720072007200720072005A
:101700007200720072007200720072007200720049
:101710007200720072007200720072007200720039
:101720007200720072007200720072007200720029
:10173000CD00B0F5E06F00F0AB803CD8B0F5607F35
:1017400000F081801DD8B0F5007F67D008D8B0F5D3
:10175000C07F60D040F29441594805F09FF957E0AE
:10176000B0F5207F64D0B0F5407FF3D1FFF796F954
:1017700004464FF42070FFF7D5FEB4FBF0F4640884
:101780005FE0B0F5B06F68D00AD8B0F5806F5FD079
:10179000B0F5A06FDED100216846FFF731FD37E0DC
:1017A000B0F5C06F6FD0B0F5D06FD3D100216846CF
:1017B000FFF7E2FD2CE0B0F5286F73D016D8B0F536
:1017C000186F6AD00AD8B0F5F06F74D0B0F5106F0A
:1017D000C0D100216846FFF701FE19E0B0F5206F87
:1017E000B8D100216846FFF769FD11E0B0F5306F10
:1017F0005DD0AFD3B0F5386F45D0B0F5406FA9D10B
:1018000000216846FFF770FC02E0FFF72DF9009019
:10181000009805B030BDFFF741F9F8E7FFF724F96C
:1018200005462046FFF77EFEB5FBF0F50095EFE795
:10183000FFF734F904464FF42070FFF773FEB4FB52
:10184000F0F40094E4E701A8FFF7EAFB019DE8E764
:1018500000216846FFF70EFCDAE700216846FFF733
:101860007BFCD5E74FF0E02302911B695B0705D5B0
:10187000FFF714F90290029B0093C9E703A902A89D
:10188000FFF7F8FCF7E700216846FFF7F3FCBFE736
:1018900000216846FFF7D4FDBAE700216846FFF74C
:1018A000F3FDB5E700216846FFF740FDB0E7684665
:1018B000FFF782FCACE700216846FFF70FFEA7E7C1
:1018C0006D7F000808B58020FFF7BCFE034B9842EF
:1018D0009EBF4FF48032024B1A6708BD005A620265
:1018E00000A00050436810B5072B044604D940F609
:1018F000B3512A4805F0D2F8A368032B04D940F667
:10190000B551264805F0CAF82378032B04D940F6D0
:10191000B751224805F0C2F894F90130002B04DADF
:1019200040F6B9511D4805F0B9F84FF400011C4AC2
:10193000637851664FF4D151022002F5B8325162FA
:1019400018494F2B48604FF0010028BF4F2301F585
:10195000805148601169C903FCD4217843EA01230E
:101960005361D4E901131B0143EA0123617B0B435B
:10197000217B43EA41039360E37BA17B1B0143EAA4
:101980004113617C0B43217C43EA41035360A37CF8
:1019900013B16FF4D153536210BD00BF6D7F0008C7
:1019A0000090005000100250014B1880704700BF9B
:1019B000C0110020B0F5207F38B577D00ED8B0F533
:1019C000007F61D003D890B3B0F5C07F2FD040F234
:1019D0001231BDE838403D4805F060B8B0F5607F91
:1019E000F5D13B4A4C1ED2F8FC5015F080751EBF55
:1019F000D2F8FC3023F08073C2F8FC30032C04D9F9
:101A000040F2F221314805F049F8324AD2F88030EC
:101A100023F0300343EA0413C2F8803035B12C4A76
:101A2000D2F8FC3043F08073C2F8FC3038BD4C1E55
:101A3000012C0AD9102903D8274BCB40DB0704D44B
:101A400040F2C721214805F029F805F08BF805F090
:101A500097F84FF48031214B1E4A1967136F23F416
:101A6000704343EA04331367FFF718F80446FFF79F
:101A7000CBFAC0F10201204605F07CF800F040F8F6
:101A8000BDE83840FFF71EBF4C1E1F2C04D940F2A2
:101A900006310E4805F002F80E4AD2F8903023F0D5
:101AA000F85343EA0463C2F89030BFE74C1E012CA0
:101AB00004D94FF44371054804F0F0FF054A136F51
:101AC00023F4806343EA84231367AFE76D7F000844
:101AD00000ED00E000800050100101000090005077
:101AE00008B50121022000F02FF805F03BF805F0C1
:101AF00047F84FF48032014B1A6708BD0090005040
:101B000008B54FF4C070FFF79DFDBDE808400449DB
:101B1000884294BF012102214FF42070FFF74ABF91
:101B200080F0FA02024A536B0342FCD1704700BFB7
:101B300000400950034A0179D36E23F030030B4370
:101B4000D366704700400050F8B50446244BD3F8E4
:101B50008420D006FBD4D3F88430C3F381139C4295
:101B60003CD0FEF781FF012C05460BD11D4B98425E
:101B700004D940F292711C4804F090FF01212846DC
:101B800004F0F8FF05F016F84FF00072174B074607
:101B90005A66204605F01EF84FF48063104E621E10
:101BA00093403367736E9A0103D4D6F884309B0652
:101BB0000AD5384605F002F8022C0FD12846BDE8B8
:101BC000F840002104F0D6BFD6F884309906E9D554
:101BD0004FF4F461044804F061FFE3E7F8BD00BF8F
:101BE00000400050005A6202D37F0008006000509D
:101BF00010B50C4608B9FEF737FF074B21461B7896
:101C00003BB1064B984204D80120BDE81040FFF7D5
:101C10009BBF0220F9E700BF66580120005A62020C
:101C20004FF0004238B5244B244C5A664AF6CD3367
:101C3000656C014605F00105236428BB0120FFF710
:101C400071FF6368DB0715D51D4B586008461D4BB7
:101C5000226BD2070CD4984208D1072415B1174B38
:101C6000194A1A6404F0B7FF204638BD0130EFE787
:101C70009842F2D00024F1E70132236B13F00803FD
:101C800005D08A42F8D1E8E700220E49F5E78A42FA
:101C9000E3D020210A4A91620121A2F580525160CD
:101CA0000649084A886A800603D49342D5D0013396
:101CB000F8E79342DDE700BF009000500040095074
:101CC0000060095040420F003254FFFF032838B52E
:101CD00004460D4605D8094B33F81030CB40DB07DE
:101CE00004D440F22D41064804F0D8FE30230122EE
:101CF0005C43044BAA401A5138BD00BF088100085C
:101D00003980000840D00350032838B504460D46FA
:101D100005D8094B33F81030CB40DB0704D440F230
:101D2000FE31064804F0BAFE302301225C43044B26
:101D3000AA401A5138BD00BF088100083980000848
:101D400040E0035003282DE9F04104460D461746B4
:101D5000984605D81D4B33F81030CB40DB0704D430
:101D60004FF4B0711A4804F099FE37B12946204665
:101D7000B8F1000F20D0FFF7A9FF0F21072D04EBCA
:101D8000440688BFA5F108034FEA0616114895BF1F
:101D9000AB009B0004360C3607FA03F2994030443E
:101DA00004F020FF7FB929462046B8F1000F06D085
:101DB000BDE8F041FFF78ABFFFF7A6FFDDE7BDE80A
:101DC000F041FFF7A1BFBDE8F08100BF0881000826
:101DD000A080000830C003504FF480020B4B10B5B8
:101DE000C3F88020BFF34F8FBFF36F8F0024FF2213
:101DF000074B21465C6520209A625C60FFF7FAFB86
:101E00002146BDE810402120FFF7F4BB00E100E0CF
:101E100000000450072838B504460D4603DD77213D
:101E2000084804F03BFE1F2C03D99121064804F01A
:101E300035FE064A064B002D08BF13460122A2407C
:101E40001A6038BD108100087781000840100450E6
:101E50004020045010B5044618B991211F4804F0E1
:101E60001DFE23781B0613F0604F03D092211B4800
:101E700004F014FEE3780F2B03D9A321174804F0D4
:101E80000DFE01212020FFF7B5FB01212120FFF7E6
:101E9000B1FB0122124B5A60227812069A606178D7
:101EA000A27842EA01429A61FF229A6200229A6372
:101EB0001A644FF000425A654FF0FF324FF4800130
:101EC00003F500531A65074AC2F88011E3781B0135
:101ED000DBB282F81633116010BD00BF108100081C
:101EE0000000045000E100E02DE9F0410126C3B2FA
:101EF000072805460C46904606FA03F603DDEC215A
:101F0000364804F0CBFD1CB9ED21344804F0C6FD81
:101F1000236823F47C1323F00F031BB1F0212F4817
:101F200004F0BCFDA37A1B0413F47C0F04D040F230
:101F300009112A4804F0B2FDE37A1B0513F07E6F05
:101F400004D040F20B11254804F0A8FD237B5B056B
:101F500013F0FE5F04D040F20D11204804F09EFD06
:101F60001F4B204F1E65AB00226803F1A04303F511
:101F700088235A60302202FB0575637B2B66E37A67
:101F8000A27A1B0543EA0243227B43EA4253EB65F4
:101F900028F003032B6704F014FE7B6D33437B654D
:101FA000237A13B13B6C33433B64637A13B1BB6B4D
:101FB0003343BB632279A37943EA0243084A93611E
:101FC0006179E37943EA014307498B61054B566325
:101FD0009E64BDE8F04104F0FABD00BF1081000826
:101FE00000200450000004500010045010B50124DB
:101FF000C3B2072804FA03F404DD40F2971107483E
:1020000004F04CFD04F0DDFD054B5A6D22EA04029C
:102010005A659C62BDE8104004F0D9BD10810008EB
:102020000000045010B50124C3B2072804FA03F4D9
:1020300004DD40F2B5110A4804F030FD04F0C1FDA2
:10204000084BDA6A224208D15B6B9C430CBF012427
:10205000002404F0BCFD204610BD0024F9E700BFB9
:1020600010810008000004500B4B984211D003F57A
:10207000804398420DD003F58043984209D003F580
:102080008043984205D003F58043C31A5842584113
:1020900070470120704700BF0080045030B4184CD6
:1020A000A04214D004F58044A0421BD004F5804423
:1020B000A04219D004F58044A04217D004F5804412
:1020C000A04215D030BC8F210E4804F0E7BC0020A0
:1020D00006250D4C73B105FB001004EB800462650E
:1020E00030BC70470120F3E70220F1E70320EFE75F
:1020F0000420EDE705FB0011120204EB8104EEE77A
:1021000000800450DD8100080081035038B5054689
:102110000C46FFF7A9FF18B9B421214804F0BEFC12
:10212000284604F06EFD012205F500531A632B6B5F
:102130009B07FCD4237962881B0243EA8243A27A7C
:102140001343627843EA8213E27A43EAC213227BA2
:1021500043EA4213627B43EA0213A27B43EAC203CF
:10216000E27B43EAC223A27943EA0243E27943EAEB
:10217000424301226B6005F580531A6322780AB945
:102180000223EB6000236B626379217A1B0143EA2F
:102190008103617A0B43AB600AB10123EB6038BD68
:1021A000DD810008F8B506460F461446FFF75CFFD0
:1021B00020B94FF48671254804F070FC022F04D931
:1021C00040F20D11214804F069FC304604F019FD7D
:1021D000012206F500531A63336B9B07FCD4637A24
:1021E000E2791B0143EA0253A27906EB4715134338
:1021F000E27A43EAC2432B66237A1BB3237B2A6E1F
:10220000394642EA43422A66013B18BF0123304661
:10221000A278FFF743FF012306F580563363637806
:1022200022781B0643EA8263E27843EA023322798A
:1022300043EA8223627943EA0223A27A43EA8203D1
:102240006B66F8BD2B6E2B66E5E700BFDD810008ED
:10225000F8B507460C461D4616464AB94FF4A1711B
:10226000314804F01BFC24B1402D09D1062328E09D
:1022700021B94FF42070FFF7E5F90446402D42D014
:10228000402D09D87DB1202D17D040F28911BDE82D
:10229000F840254804F002BC602DF6D1B6EB940F4F
:1022A0003CD804230DE0B6EB141F04D94FF4BA71E7
:1022B0001D4804F0F3FB102303E0B6EBD40F1CD849
:1022C00008235E43730803EB4413B3FBF6F3174E86
:1022D000203BB6EBC30F4FEAC30404D24FF4D071D6
:1022E000114804F0DBFBBB68344023F06003BB60A3
:1022F000BB681D43BD60FC61F8BD40F279110A481E
:1023000004F0CCFBDCE70623B4FBF3F3B342ADD21D
:102310004FF4BF71044804F0C1FBA7E740F28311FA
:10232000014804F0BBFBBCE745820008F8FF7F00D2
:1023300038B50C4B044698420D4604D04FF4337127
:10234000094804F0ABFB012204F580535A60EB43CB
:10235000934003F00A036361656115B904F5005405
:10236000626038BD00C0055045820008124B10B5B0
:102370009842044604D040F24241104804F08EFBDB
:10238000012104F58053596040F6AA6341F2050229
:10239000636100230A48A360E365E26004F500522C
:1023A0002361E361E36490640348A365844204BF4E
:1023B00023656365516010BD00C00550458200086B
:1023C000FFFF0100304B70B5984204460D4604D023
:1023D00040F2FD212D4804F061FB2046FFF7C6FFC7
:1023E000012304F580567360AB7C1BB1A36843F0F6
:1023F0008043A360EB7C5BB1234B9C4202BF2A7DF0
:10240000A3F51033C3F8D421E36D43F08003E365F3
:102410002A8A6B7B20461343EA891343E3602B7BB4
:10242000D5E90112FFF714FF6B7D1BB1A36843F4DC
:102430008033A360AB7D1BB1A36843F40043A3606A
:10244000EB7D2A7E1B07120502F4E00203F0E04355
:102450001343A3656B7E9A1E012A4FF0020209D82E
:102460000B49032BC1F8982709D10423F3652B7876
:10247000636170BD0749012BC1F89827F4E7042276
:1024800004F50053DA65F2E700C005504582000804
:1024900000D0035000E0035010B54FF42F7200211C
:1024A000044605F0AAFC8023C4F88C30054B04F1E7
:1024B0009C00C4F88430012384F88830BDE81040C3
:1024C00004F0EDBAAD82000810B5D0F8A0400A467D
:1024D00084B904F058FD044610B90024204610BD0C
:1024E0002D2896BF064B074953F82010064804F0E4
:1024F00090FEF3E7D0F8A4101046A047EDE700BF28
:1025000058830008B0820008BE820008F8B590F831
:102510008060044616B100263046F8BD04F080FB0A
:102520000028F8D1012384F8803094F8883033B142
:10253000D4F88410194884F8886004F06AFE4FF0DB
:10254000FF37D4F8B402421C1CD0C4F8B47210F0A7
:10255000FF0520D0204604F060FB2946204600F00D
:10256000AFFB0028EDD0204604F05CFB94F88830E7
:102570006BB1D4F88410094804F04BFE002384F8B2
:10258000883004E004F02AFE431CE0D10126002339
:1025900084F88030C0E70126D3E700BF8B840008B1
:1025A000F8B50B780446302B0D46164604D14B780F
:1025B00003F0DF03582B11D0284F6A1E12F8011FB9
:1025C000002934D128460A2204F034FA202C03468C
:1025D0000D4631D1B1FA81F040091AE04A1C1F4979
:1025E00012F8013F8BB9284605F053FC1C4B02380A
:1025F0002340032B12D10134A41084420AD1A878BD
:1026000037288CBF0020012003E0CB5C13F044008E
:10261000E6D1F8BDCCBF01200020FAE7002CB8BFFE
:102620000334B0EBA40FD4BF01200020F1E77B5CA2
:1026300013F00400C2D1ECE726B1084302D0013BFD
:1026400061F100050122A240013A1A40002D08BFA5
:102650009A420CBF01200020DBE700BFBE940008B7
:1026600003000080F0B5037801467B2B17D10646A6
:10267000022400220B4F16F8015F7D2D05D10B5D62
:102680006BB9D24302F0010008E07B5D13F0440017
:1026900002D001320134EEE7202DFBD0F0BD002046
:1026A000FCE700BFBE94000870B506460D4605F075
:1026B000F0FB0446304604F0ACFD044EAC4200D3BF
:1026C00070BD304604F0A5FD0134F7E77E840008B4
:1026D0002DE9F84F044602216048FFF7E5FF1E216F
:1026E0002068FFF7E1FF6368586804F092FD5C48DA
:1026F00004F08FFD67683B7BFD2B12D8D7F808806C
:102700004FF0FF34404605F0C4FB0646DFF84C911D
:10271000DFF8A8A1DFF864B10C3717F8013BFF2BF5
:1027200001D1BDE8F88F212B14D8212B14D8DFE874
:1027300003F0178C8884807C78741313131313139D
:102740001313706C6864605C5854131313131313E1
:102750001313504CFE2B34D006B10134414D02E02E
:1027600006B10134404D02214846FFF79DFF1E216E
:102770004846FFF799FF504604F04BFD594628465E
:1027800005F068FB3949002818BF2946384804F08D
:1027900040FD3B78202B02D12B2004F02EFD354844
:1027A00004F037FD4EB118F804301F2B05D018F88F
:1027B00004001F2801D0B4424BDB294804F029FD56
:1027C000ABE706B101342C4DCDE706B101342B4DFA
:1027D000C9E7002EA1D001349FE706B10134284D8E
:1027E000C1E706B10134274DBDE706B10134264DDE
:1027F000B9E706B10134254DB5E706B10134244DE2
:10280000B1E706B10134234DADE706B10134224DE5
:10281000A9E706B10134214DA5E706B10134204DE9
:10282000A1E706B101341F4D9DE706B101341E4DED
:1028300099E706B101341D4D95E706B101341C4DF1
:1028400091E706B101341B4D8DE706B101341A4DF5
:1028500089E704F0D2FC0134A9E700BF92840008A4
:102860003F8E00081D840008178400087484000847
:102870008B84000878840008258400082B840008D5
:10288000348400083B840008468400085084000813
:102890005A840008458400084F84000859840008C1
:1028A00062840008668400086E84000811840008B1
:1028B000188400086D8400081084000876840008DD
:1028C0002DE9F04F93B005468B4600240092049307
:1028D00005F0DFFA1C9F049B05901C6028463C60B5
:1028E0000AAA09A904F0B6FC064658B90A9805F0E8
:1028F000D0FA3446B146049B1860D5F89C30039357
:10290000039B1BB9204613B0BDE8F08F039B9B6867
:102910000193002B69D02E4416F8013B202B12D0D6
:1029200000260C237343019A02EB030AD358029347
:10293000002B55D0DDF82480C84551DB9AF80830CB
:102940002BB1721C35E03B6801333B60E4E73B6828
:10295000D5F894200299D21A049B1A6012AB03EBAB
:10296000890353F8203C1846069305F04EFA079069
:102970000028E6D1029805F08CFADAF80410034634
:10298000087BD7F800A0FE28079A16D108F1FF3877
:10299000C8452ED00B6806980292019305F079FA8B
:1029A0000AF10103029A0344E95C21B13B6009F199
:1029B00001091646B5E70133F6E7D5F89420A2EBF6
:1029C0000A029A42BDDC5846069305F062FA069B5D
:1029D00003447B2B1DD958461E4A009904F082F807
:1029E0002B46059A2A449A422AD1039B1B680393DB
:1029F00086E7D5F89420A2EB0A029A42E3DDD1F8EB
:102A0000008058F80C2B82B9059B3B60049B1A6030
:102A1000E6E75846029A009904F064F858460E4AD0
:102A20000099013404F05EF88BE75846009904F0F1
:102A300059F85846084A009904F054F80134E0E780
:102A400013F8011B0029CED14FF0200103F8011C1F
:102A5000C9E700BF7B8400087E8400082DE9F047A9
:102A6000002486B01C60DDE90EA8064689468AF877
:102A700000401168154888F8004017461D468DF83B
:102A80001740FDF755FF18B901242B6801332B605F
:102A90000020D6F89C6036B914B1012388F80030C4
:102AA00006B0BDE8F087B06868B14B460021CDE9BB
:102AB00002A8CDE900750DF1170204F001FA9DF8A6
:102AC0001730002BE8D13668E5E700BF80840008A6
:102AD0002DE9F04300260446ADF5457D7C223146C4
:102AE00005A802AF049605F088F9802220460097D9
:102AF00003AB04A9FFF7E4FE01283ED104A805F0CA
:102B0000C8F903993B68A0EB01080B44234428EA69
:102B1000E878054604A801444246184605F0ACF999
:102B200000F80860D4F89060039B3968D4F89020CE
:102B30001944B14212DCD4F89410E81A0244C4F8E3
:102B40009020014404AAC4F89410D41825182B1B13
:102B5000002B0DDC0DF5457DBDE8F083A05C04F095
:102B60004CFBD4F8903001360133C4F89030DBE7E9
:102B700014F8010B04F041FBE9E7EBDD24AD802202
:102B80003146284605F039F944AB4FF4007231461E
:102B9000184605F032F90DF1100903464A464FF088
:102BA0000108314612F8016B002E49D104A843F800
:102BB000281005F06EF92946334619F8016B0DF51A
:102BC000887C5CF8042B824243D10133984501F89C
:102BD000016BF2DAD4F89060039BB34242DC2346E7
:102BE000354A04A9354804F014FB284605F051F98C
:102BF0000646039B3F68F61A1F44E0191D4426EA67
:102C0000E67204F198031744984204EB07014ED290
:102C100004F1900399424AD96A1E81190B1A002BBC
:102C200039DD12F8013F00F8013BD4F89030013350
:102C3000C4F89030D4F894300133C4F89430EDE700
:102C4000202E01F1010104BF43F8281008F101080A
:102C5000A8E70DF1100E7244D25CB242B1D000224E
:102C6000EA54B7E7D4F890300136E05C04F0C5FAD6
:102C7000D4F890300133C4F89030ADE7D4F8902008
:102C8000013B0132C4F89020D4F894200132C4F8FA
:102C90009420002BF2DC00232E44E355731B002B01
:102CA0007FF758AF15F8010B04F0A7FAF6E72946AD
:102CB00005F0E2F83346ECE7AD82000885840008B1
:102CC0002DE9F843D0E9245604460F46002294F833
:102CD0009830012B07D10A2F07D1002384F89830B0
:102CE0000020BDE8F88300F29F801B2F01D1022352
:102CF000F4E70D2F0DD1012384F898300D2004F056
:102D00007CFA0A2004F079FA00230120C4E9243374
:102D1000E7E74FF00008082F84F8988034D1454544
:102D200030DDB5420FD1384604F067FA202004F0B8
:102D300064FA013D384604F060FA013E04F805806B
:102D4000C4E92456CCE7FBDA05F1FF39384604F034
:102D500054FA04EB0903A6EB09026119184605F0C1
:102D600032F804F806800146013E484804F051FA62
:102D700035464D4501DC4D46E2E7082004F03DFABA
:102D8000013DF6E7ACD0DBE77F2F1CD1002EA7DD9D
:102D9000B542A5DA6319691C21441846721B05F077
:102DA00012F804F806800146394804F032FA082087
:102DB000013E04F022FAB542F9D1D4F89430013B37
:102DC000C4F894308CE70A2F98D0092F03D12046FD
:102DD000FFF77EFE84E7D4F88C30013BB3427FF7E7
:102DE0007FAFB54204EB050805F101090CDB38465D
:102DF00088F80070D4F89430C4F890900133C4F887
:102E0000943004F0FAF96BE74146721B04EB0900B9
:102E100004F0D9FF404604F0FCF90820013E04F01C
:102E2000ECF9B542F9DDE2E7022B06D15B2F01D1C7
:102E3000032353E784F8982049E7032B7FF450AF2E
:102E4000413F84F89820032F3FF64AAFDFE807F0B0
:102E500002070A160121204604F080F940E74FF0EE
:102E6000FF31F8E7B542BFF63BAF605D04F0C5F94E
:102E7000D4F890300133C4F8903031E7002D7FF75B
:102E80002FAF013D0820C4F89050BAE78E840008A7
:102E90009384000813B50024064A6846536F43F034
:102EA0000103536700948DF80440FEF743FE20466B
:102EB00002B010BD0040005030B5094D87B001ACE4
:102EC0000FCD0FC42B6801A823603F238DF8053078
:102ED000FEF708FD3220FEF767FD002007B030BD89
:102EE000988400086FF00403502110B50A480B4C79
:102EF00013F0800F03F1010207D123444F2A83F816
:102F000000131346F4D1002010BD03F00F03043B5F
:102F1000034419761346EBE700ED00E000E100E022
:102F200010B5044603F046FE024B1C6003F046FE5B
:102F3000002010BDB853012010B503F03BFE034B39
:102F40001C6803F03BFE204610BD00BFB8530120B3
:102F5000302238B5037A0446534303F1A04303F506
:102F60008023DD6ED0E9032313449D4201D8AA4299
:102F700004D94FF43E71054803F090FDD4E90303F2
:102F800003449D4218BF284638BD00BFAC840008EA
:102F900030B51446054687B01046FFF7D9FF636980
:102FA000024683423CBFD4E903315B181B1AABB124
:102FB0001249049403910021CDE9013101230093CA
:102FC0002846D4E9001303F0B3FD20B14FF4347167
:102FD0000B4803F063FD002007B030BD012262768C
:102FE00094F82D20002AF6D084F835301321E369B7
:102FF000204698472046636A9847ECE7912F0008DF
:10300000AC8400082DE9F04788B004460F46164608
:10301000984603F0D6FD8146002E00F0AD80237E59
:1030200003F0FF02002B00F0E0802046FFF790FF46
:1030300063698246984206D1637E23B940F27F31AC
:103040006B4803F02BFD6569AA459DBFD4E90332A7
:103050009B185D1BAAEB0505B54228BF354603F05A
:10306000B0FD94F82D308246002B40F096802A4621
:103070003846616904F000FF63692E462B446361A2
:103080002CE06069037803F0FD01112940F0828093
:10309000216B884205D1A3F111014B424B4184F8C9
:1030A0003430013E6369216B01328B4203F101032D
:1030B00008BF236363619542E3D1D4E90323216B05
:1030C0001344994208BF2263216B8A4201D88B4284
:1030D00004D84FF46D71464803F0E0FCD4E90323B3
:1030E00061691344994208BF626161698A4201D8EB
:1030F0008B4204D84FF471713D4803F0CFFC00239C
:10310000207A6376FDF79CFE20B140F211313848F9
:1031100003F0C4FC2046FFF71BFF636983423FD1E5
:103120000023E568237694F82D30656103B12563AB
:103130002046636A98472F4B04940393002302931D
:1031400023692A4601930123009363682168207A4A
:1031500003F0EEFC20B140F22D31254803F09EFC37
:10316000207AFDF78DFE20B140F25131204803F066
:1031700095FC504603F02BFD4846C8F8006003F06C
:1031800026FDD8F80030002B0CBF1B20002008B013
:10319000BDE8F08707F8013B84E72E4600228AE766
:1031A0000123207A23760DF11E01FDF7D1FE20B117
:1031B0004FF450710E4803F071FC9DF81E30207AD8
:1031C000002BCDD00DF11F01FDF79AFE20B140F28A
:1031D0004631074803F062FC9DF81F10207A002951
:1031E000BED12246FFF7D4FEBAE71646C4E700BFB9
:1031F000AC840008912F000870B504460568FFF7FD
:103200009BFE844202D10020FFF78AFE95F93630FA
:10321000002B11DB012203F01F015B099B0003F16E
:1032200060438A4003F56143C3F88021C3F88020DE
:10323000BFF34F8FBFF36F8F287AFDF741FE20B1A8
:103240004FF4ED71104803F029FC287AFDF79EFD3C
:1032500020B14FF4EF710C4803F020FCFDF774FD32
:1032600038B10A4B984204D04FF4F171064803F08C
:1032700015FC00232846C4E90033C4E90433A360E5
:10328000AB6ABDE870401847AC840008058000F0C8
:103290002DE9F84304460D4690F82C80DFF8AC90F9
:1032A0008E18AE4228D094F82D3083B103F089FCFB
:1032B000237E07461BBB226B63699A4204D040F20F
:1032C000F911484603F0EAFB384603F080FC94F815
:1032D0003430002BE5D0B8F1000F06D02B780A2B44
:1032E00003D10D212046E36998472046E36915F88C
:1032F000011B98470028D4D00020BDE8F883204661
:10330000FFF726FEE1680138884238BF2069D4F80B
:1033100030C03CBF00F1FF30401803469C450BD045
:1033200013F80129112A01D0132A07D1A2F11103A0
:103330005A425A4184F834202063C5E7994282BF3B
:10334000236903F1FF335B18E8E700BFAC84000892
:10335000F0B50C460646154687B0382200212046B7
:103360001F4604F04AFD95E8030000232A692376EE
:10337000EB6884E80300C4E904232A7DE36084F851
:103380002C20AA7D2363012384F8343084F835305F
:103390000C9B84F82D2023620D9BE76163620E9BDA
:1033A000A3622B7A84F83630204B34607360204B54
:1033B000B360204B3361204B7361204BF360FDF70A
:1033C0000BFD30B11E4B984203D01024204607B0AD
:1033D000F0BD002104F10800FDF786FC0028F4D1BF
:1033E0000127184B0494CDE9020323690097019348
:1033F0006368E2682168207A03F09AFB044600289B
:10340000E3D195F90830002B0BDB03F01F025B09B9
:103410009B0003F16043974003F56143C3F880715B
:103420001F603046FFF77CFDD0E700BF91320008F7
:1034300005300008B1730008B7730008F9310008BF
:10344000038000F0912F00082DE9F0411C46574BF6
:1034500086B00293564B0127019300230C9D0093E5
:103460009046CDE903770A46524B2946FFF770FF95
:103470000646002840F0918023683946AB636368B4
:103480003A20EB63637A85F84130237A85F840303F
:10349000E37A85F84330A37A85F84230637B85F878
:1034A0004530237B85F84430E37B85F84730A37BA8
:1034B00085F84630FEF79EF83B460422617A207A72
:1034C000FEF740FC3B460222E17AA07AFEF73AFC86
:1034D00039466068FEF78EF888F80060414620683B
:1034E000FEF770FF1422637C5B0103F1A04303F538
:1034F0007033C3F89827617A227A42EA0142C3F80E
:10350000B027E17AA27A42EA0142C3F8A82785F8F7
:10351000486098F81930032B45D8DFE803F03542AE
:10352000021C022385F8483000230422E17BA07BA3
:10353000FEF708FC022741F29871627C1E4B03EBF8
:1035400042104750E07BA17BBD3241EA004103EBD2
:103550004213596018E0012785F848300222002301
:10356000617B207BFEF7EEFB617B637C227BBD33BE
:1035700042EA014210495B01CA500422236803F564
:103580008053DA65002FCFD1AA6B0521D36C206858
:1035900043F00403D364FEF7CBFE304606B0BDE82B
:1035A000F0810027D8E72326F7E700BFC97300089A
:1035B000BD7300084174000800C003502DE9F04FAE
:1035C0009B4691B00B1E0A93AD4B904614BF8146AB
:1035D000994600241A9E9BF8000070B9444538BFF4
:1035E000224643464FF000000A9928BF08F1FF32F7
:1035F000C847204611B0BDE8F08F25280BF1010B1C
:1036000006D0224643460A99651CC8472C46E2E785
:1036100000230DE02D2A2AD0302A06D0303A092A7C
:103620004FF0000711D80A2532E043F001038B4622
:10363000594611F8012B2B2A1CD0EBD8202A1CD07C
:10364000232A1DD02A2A2BD000279BF800202E2ABF
:1036500064D19BF801100BF10102A1F1300009289F
:1036600043F4806351D800254FF00A0C26E043F064
:103670000203DCE743F00403D9E743F00803D6E78D
:1036800043F01003D3E78B4605FB0722A2F1300776
:10369000594611F8012BA2F130000928F3D9D4E7DB
:1036A00056F8047B8B46002FBCBF43F002037F42D9
:1036B000CBE702460CFB0511A1F13005104610F8CE
:1036C000011BA1F1300EBEF1090FF2D9114611F81C
:1036D000010B6C282CD024D8682830D06A2837D029
:1036E00011468B461BF8010B672875D857284BD815
:1036F000452807D085D9462800F03181472880D158
:1037000043F4006343F020033FE12A2907D156F830
:10371000045B0BF1020225EAE575D7E75A4600255E
:10372000D4E7742801D07A28DAD143F48073D8E73B
:1037300050786C28F9D143F44073911CD1E750784C
:10374000682802D043F08003CBE743F0C003F4E7DE
:1037500043F40073C5E70A2A00F06281072A7FF468
:1037600050AF43F0210305930823CDE90353102301
:10377000CDE9011356F8043B2246009348464346E0
:103780000A9903F094FFFAE0A0F158020F2A3FF6DD
:1037900038AF01A151F822F00938000803360008BB
:1037A0000336000803360008033600080336000815
:1037B0000336000803360008033600080336000805
:1037C00009380008A93900080938000883390008B9
:1037D0006339000883390008A0F16902D2B20F2AC8
:1037E0003FF60FAF012149F2410C914011EA0C0163
:1037F000B1D0782803F4806122D1002900F09080B4
:1038000023F00D02102307E0622803F4806220D128
:1038100042BB23F00C02022312F4007100F08380FB
:10382000CDE907720022CDE9043206F1070A2AF039
:10383000070A06950292FAE80223CDE900233DE04B
:103840006F2812D123F00C0209B123F00D020823D6
:10385000E2E7582816D1002A39D123F00C0242F0B1
:103860002002CFE723F00D02D5E7692823F01002EC
:1038700030D023F01C0209B123F01D020A23CBE74C
:10388000ED74000842BB23F01002930527D50736DC
:1038900026F00706B24671685AF8083B0A26CDE9B9
:1038A00007720027CA0F0029CDE904670695029226
:1038B00002DA5B4261EB4101CDE900314346224629
:1038C00048460A9903F036FF0446564683E623F03D
:1038D0000D02C4E70029D8D023F01102D5E7D005A6
:1038E00006F1040A01D5336802E0510613D5337896
:1038F000CDE904720A22002B02924FEAD37203959B
:103900000192B8BF5B4200934346224648460A995B
:1039100003F0CDFED8E71306E5D5B6F90030E7E7AA
:1039200023F00C026EE7D00506F1040A06D5CDE9B6
:103930000472CDE9023501913368E4E7510608D5F8
:103940003178CDE902350023CDE90472CDE90013C9
:10395000DAE7316812F0800F18BF89B2F1E743F05F
:103960002003CDE90173073626F007060095B6EC73
:10397000020B4346224648460A99FCF7BDFD044621
:1039800029E6672801D143F40063CDE901730736C6
:1039900026F007060095B6EC020B43462246484641
:1039A0000A99FCF7EDFBEAE713F0020523D04FF08C
:1039B000010A631C0B93224643460A9916F8040B2E
:1039C000C8475DB354460B9A1EE0434620200A992F
:1039D000C8470AEB04020AF1010A5745F5D8002F3F
:1039E00007F1FF3308BF002307F1010A1C4408BF99
:1039F0004FF0020ADDE7AA46EBE7551C43462020BC
:103A00000A99C8472A460134BC42F6D3A7EB0A03F9
:103A1000574538BF00230B9A1A440B920B9CDAE5EA
:103A20003246002D52F8046B14BF29464FF0FF3187
:103A30000B9232463144107808B18A4211D1A2EB80
:103A4000060A13F480620C9202D0AA4528BFAA4647
:103A500013F002030D931BD1AAEB040322460F932C
:103A600008E00132E7E7531C0E93202043460A99F1
:103A7000C8470E9A0F9BD3189F42F4D8A7EB0A03AE
:103A8000574538BF00230AF101021C4403EB020A28
:103A9000A31B0E9304E01D46434622460A99C847DD
:103AA0000E9BF41816F8010B28B10C9B002BF3D0D9
:103AB0006B1E002DEFD10D9B93B12246AAEB04059E
:103AC00005E0561C434620200A99C8473246531940
:103AD0009F42F6D8A7EB0A03574538BF00231C4482
:103AE0000B9E78E50FB41FB506AA52F8043B02A955
:103AF0000392009204484FF0FF32FFF75FFD05B0DC
:103B00005DF804EB04B07047D37700081FB5034697
:103B100000914FF0FF3203A90248FFF74FFD05B0B7
:103B20005DF804FBD377000830B50A4C0A4B2268D5
:103B30000A4D1A600A4B85B02B600A4B0193FFF7C0
:103B4000FBF92B68029001A92068039303F07DF82C
:103B500005B030BD1C100020B4530120B05301202B
:103B6000101000209085000838B5FFF7E5F90446ED
:103B7000064D2B68D3F8B002FFF7D2F9286803F09E
:103B800078F82046BDE83840FFF7CAB91C1000207D
:103B900010B5224CFDF7A4FF236F23F0070343F079
:103BA0000203236702F0F1FFD4F82031002023F054
:103BB000070343F00103C4F82031D4F8283123F07F
:103BC000070343F00103C4F82831D4F8403123F04F
:103BD000030343F00203C4F84031D4F8603123F00A
:103BE000030343F00203C4F86031D4F8403223F0F9
:103BF000030343F00203C4F84032D4F8003223F048
:103C0000070343F00203C4F80032D4F8083223F06B
:103C1000070343F00203C4F8083210BD00800050CF
:103C200030B51F4D95B00DAC0FCD0FC495E8070012
:103C3000292384E807001B4A0021CDE9022305233C
:103C4000CDE904118DF8113004230E220DF1260068
:103C500006918DF8133004F0D0F84FF48021124B08
:103C60001248CDE9071309238DF824300A238DF873
:103C700025300F4B0DAA0A9320230B9301238DF8B7
:103C800031300C4B07A9009302ABFFF7DDFB044674
:103C900018B18621084802F001FF204615B030BD5A
:103CA0000C86000800C0055024C00550C8560120ED
:103CB000675801207C560120A485000808B5FFF74D
:103CC000AFFF28B1BDE808409A21024802F0E6BEE5
:103CD00008BD00BFA4850008014803F0B7BB00BFC2
:103CE000C85601201FB500232F4A0393039B93421C
:103CF00056DD03F0E3FB03F074FD00F037FB00F04A
:103D0000F9F80022FF20114600F098F80A2000F090
:103D1000CDF8012000F0DCF8412224492448FFF7C7
:103D2000E1FE00F02FFA462220492248FFF7DAFE92
:103D300001F050FC4B221D491F48FFF7D3FE1F4BDB
:103D40001F4AD9681F4821F4E0610904090C0A439D
:103D5000DA60202283F8232010225A769A764FF4D4
:103D6000A052194B1421009200F006FD034620B129
:103D700059220E491548FFF7B5FE01F019F8034620
:103D800020B15A2209491148FFF7ACFE5C220749CD
:103D90000F48FFF7A7FE03F09EFB03F023FDFAE7B1
:103DA000039B01330393A1E71FA1070028860008A6
:103DB0002F8600084E8600086F86000800ED00E0A0
:103DC0000003FA05938600088E860008988600088E
:103DD000CD86000870B5074C0646236B0D46DB0701
:103DE00004D440F24231044802F058FE04EB461479
:103DF000A56670BD00000550EB860008014B1878E1
:103E0000704700BFC2110020014B1878704700BFF7
:103E10008A58012010B1064B1B78037011B1054B75
:103E20001B780B7012B1044B1B781370704700BFE6
:103E3000895801208858012087580120164B70B5F9
:103E40001870164B0C461970154B1A70154B1D78CF
:103E5000F5B16426144B1B7813FB04F4B4FBF6F4A1
:103E600010FB03F0E5B213FB02F4B0FBF6F0B4FB79
:103E7000F6F4C1B2E4B20020FFF7ACFF29460120FE
:103E8000FFF7A8FF2146BDE870400220FFF7A2BF60
:103E900029462C46EFE700BF8958012088580120A9
:103EA000875801208A580120C2110020044B187045
:103EB000044B1A78044B1978044B1878FFF7BEBFEF
:103EC000C2110020875801208858012089580120FC
:103ED000044B1870044B1A78044B1978044B18786B
:103EE000FFF7ACBF8A58012087580120885801206D
:103EF0008958012030B5012189B03A20FDF77AFBBD
:103F000001212620FDF776FB002304221846082114
:103F1000FDF718FF0023042218460921FDF712FFC0
:103F200000230025184604220A21FDF70BFF0F226B
:103F300000210DF1110003F060FF0D220021684601
:103F400003F05BFF26208DF81050FDF77BFB2A4B1A
:103F50002A4CB0FBF3F003230138ADF8120004A99A
:103F600020468DF80630FEF7D1F80722244B29466B
:103F7000C3F838274FF40022C3F83C274FF410222F
:103F8000C3F840274FF420222046C3F844276A464E
:103F9000FEF708F96A4601212046FEF703F96A4652
:103FA00002212046FEF7FEF8236BDB0704D440F223
:103FB000B641144802F072FD4FF480730021E361B2
:103FC0000846FFF707FF00210120FFF703FF00214C
:103FD0000220FFF7FFFE00230B4A13700B4A1370F9
:103FE0000B4A13700B4A137064220B4B1A70012397
:103FF000E36009B030BD00BFA0860100000005509D
:1040000000C00350EB8600088A5801208758012021
:104010008858012089580120C211002008B5104B92
:10402000984216D003F58043984215D003F580439B
:10403000984211D003F5804398420DD003F5804398
:10404000984209D0074840F2D22102F027FD002013
:1040500008BD4FF0FF30FBE74FF6FF70F8E700BFF9
:1040600000800450EB86000870B5154604460E46E5
:10407000FFF7D4FFA84204D24FF45071074802F072
:104080000DFD236BDB0704D440F24231034802F0FC
:1040900005FD04EB4614A56670BD00BFEB86000865
:1040A00010B50446FFF7BAFF632804D840F2B441C4
:1040B000064802F0F3FC236BDB0704D440F2B64160
:1040C000024802F0EBFC6423E36110BDEB860008BC
:1040D000032810B50A46044606D9BDE8104026223A
:1040E0000E490F48FFF7FEBC642905D92B220B4966
:1040F0000C48FFF7F7FC642214B921460A4805E092
:10410000012C07D0022C07D000210848BDE8104040
:10411000FFF7AABF2146F8E70121EFE7078800086B
:1041200053870008778700080080045000C00450BF
:1041300010B503281DD8DFE800F0020C181A0E4C49
:10414000236BDB0703D411210C4802F0A7FCA06EFF
:1041500009E00B4C236BDA0703D41121074802F066
:104160009DFCD4F88800C0B210BD034CF2E7044CAB
:10417000E6E70020F8E700BF00800450B78700089A
:1041800000C00450F0B5002489B001213A20FDF7A9
:1041900031FA01212420FDF72DFA01212520FDF718
:1041A00029FA0023042206210220FDF7CBFD00237B
:1041B000042209210220FDF7C5FD00230422072166
:1041C0000220FDF7BFFD0023042208210220FDF795
:1041D000B9FD0F2200210DF1110003F00EFE0D229A
:1041E0000021684603F009FE25208DF81040FDF7F8
:1041F00029FA2B4B0327B0FBF3F02A4E2A4D013846
:10420000ADF8120004A930468DF80670FDF77EFF68
:10421000284604A9FDF77AFF244B254AC3F8F8760F
:10422000C3F81877C3F8FC2602F58032C3F80027DC
:1042300002F58032C3F81C2702F58032C3F820272C
:1042400021466A463046FDF7ADFF6A4630460121F9
:10425000FDF7A8FF6A4621462846FDF7A3FF6A46F8
:1042600001212846FDF79EFF3046FFF719FF28463B
:10427000FFF716FF21462046FFF72AFF21460120BF
:10428000FFF726FF21460220FFF722FF214638468E
:10429000FFF71EFF0123F360EB6009B0F0BD00BF24
:1042A000808D5B000080045000C0045000C00350AB
:1042B00002000600244C07B520702448016000214C
:1042C00000910191EFF309810091EFF308810191D1
:1042D000009991422FD8009A6AB301221C4B1A70A0
:1042E0004FF0E0231B4AD3F8281D1B4C1160D3F874
:1042F000341D1A4A1160D3F8382D194B1A60002367
:10430000237000F033FA48B101F058F830B101F0F1
:1043100055F832224168204603F089FDBFF34F8FE4
:104320001049114BCA6802F4E0621343CB60BFF33B
:104330004F8F00BFFDE7019A9A42D1D8019B002B15
:10434000CED00222024BCAE7101200200C1200202D
:10435000FE11002008120020CC11002004120020C1
:104360000012002000ED00E00400FA0538B59A4B79
:104370009A48D3F89440FFF7B5FBBD229849994875
:10438000FFF7B0FB8020FDF75DF9BE22034694499C
:104390009548FFF7A7FBBF2291499448FFF7A2FB7E
:1043A000630504D5C3228E499148FFF79BFBA50501
:1043B00004D5C4228A498F48FFF794FB200604D510
:1043C000C52287498C48FFF78DFBE10504D5C6223D
:1043D00083498A48FFF786FB620704D5C7228049D4
:1043E0008748FFF77FFB230504D5C8227C49854811
:1043F000FFF778FBA50604D5C92279498248FFF763
:1044000071FB200704D5CA2275498048FFF76AFB73
:10441000E10604D5CB2272497D48FFF763FBA20772
:1044200004D5CC226E497B48FFF75CFBA30404D57E
:10443000CD226B497848FFF755FB002C04DACE22D9
:1044400067497648FFF74EFBE50704D5CF2264495C
:104450007348FFF747FB14F04003724D724C00F0B5
:104460006681D2225E497148FFF73CFBD8225C4945
:104470006F48FFF737FB2B78002B00F04A81DD22D5
:1044800057496B48FFF72EFB2A786A4B544953F87B
:1044900022306948DE22FFF725FB236813F0BB0FAB
:1044A0003BD0E4224E496548FFF71CFB2368D80740
:1044B00004D5E5224A496248FFF714FB23689907AF
:1044C00004D5E62246495F48FFF70CFB23681A072C
:1044D00004D5E72242495C48FFF704FB2368DB066A
:1044E00004D5E8223E495948FFF7FCFA23689806AC
:1044F00004D5E9223A495648FFF7F4FA2368190629
:1045000006D5544BEB221B6835495348FFF7EAFAAE
:10451000EC2233494648FFF7E5FA236813F43B4F92
:104520003BD0F3222E494D48FFF7DCFA2368DA0529
:1045300004D5F4222A494A48FFF7D4FA23689B0598
:1045400004D5F52226494748FFF7CCFA2368180519
:1045500004D5F62222493C48FFF7C4FA2368D9045F
:1045600004D5F7221E493948FFF7BCFA23689A049C
:1045700004D5F8221A493648FFF7B4FA23681B0419
:1045800006D5394BFA221B6815493348FFF7AAFABA
:10459000FB2213492648FFF7A5FA2368334A1A423B
:1045A00000F0A6804FF481720D493148FFF79AFA66
:1045B0002368D80305D540F2031209492D48FFF7B7
:1045C00091FA2368990359D54FF4827204492A4815
:1045D000FFF788FA52E000BF004000503E8E00080E
:1045E000208800082E8800086B8800088E88000844
:1045F000AA880008D0880008FA88000829890008DD
:10460000588900087E890008A5890008CA89000821
:10461000EC8900080E8A00082E8A00084F8A0008DC
:104620006D8A00081012002008120020928A0008EB
:10463000BE8A0008908E0008CB8A0008038B000811
:10464000298B0008558B00087A8B0008B78B00086F
:10465000E98B000804120020228C00085D8C000801
:104660007C8C0008A18C00080012002000001F03B1
:10467000C78C0008E88C00080D8D000823685A03D9
:1046800005D540F205122B492B48FFF72BFA23687A
:104690001B0305D54FF4837226492848FFF722FAF9
:1046A0002368D80105D54FF4847222492448FFF7C6
:1046B00019FA2368990105D540F209121D492148CC
:1046C000FFF710FA2368DA020CD51F4B1F4A19783E
:1046D0001F4B2048012908BF134640F20D1215490F
:1046E000FFF700FA40F20F1212491B48FFF7FAF9E0
:1046F0002368DB020DD4194B40F215120D491B68DB
:104700001748FFF7EFF94FF48B720A491248FFF789
:10471000E9F94FF48E7207491248FFF7E3F90023D5
:104720004FF400322B7023600F4B1A6738BD2B708B
:1047300023609BE6208800082A8D0008448D00082D
:10474000628D0008878D0008FE110020CC1100202A
:104750000F880008A78D0008BE8A00080C120020F0
:10476000D28D0008028E000800400050014B1878DE
:10477000704700BF8B5801202DE9F04FDFF8C09043
:104780001E4699F8003085B007468A469346DDF804
:104790003880002B4CD14FF0E024D4F8883D254DD3
:1047A00043F47003C4F8883D6B6B802043F00043F2
:1047B0006B636B6B43F080436B63236923F00103EE
:1047C0002361D4F8203D43F00073C4F8203DD4F8B1
:1047D000203D43F47023C4F8203DFCF733FF4FF431
:1047E0007A73B0FBF3F06061236943F00403236143
:1047F000236943F002032361236943F0010323612A
:1048000000F02AF843465A465146384600F0FCFA72
:1048100058B90123314689F80030074ACDE9020032
:10482000CDE90008054800F0B3FC05B0BDE8F08F05
:104830000520FAE700EF00E06D7800081C57012022
:104840008B58012010B103680BB1181A7047014B47
:10485000FBE700BF185201204FF4A03200210148AD
:1048600003F0CBBA1812002073B540B3EFF31083F6
:10487000019372B6BFF36F8F264C4FF0FF350021C6
:104880002646073020F007022046FFF7DBFF63686B
:1048900033B90838A84203D282429CBF054621465C
:1048A0002468002CF0D1B14202D31B4B994209D9A4
:1048B00002F0DEFF019B83F31088BFF36F8F0020AF
:1048C00002B070BD312A12D80AB3086808325318F2
:1048D00083421EBF88500B605C60012301F1080019
:1048E0004B60019B83F31088BFF36F8FE8E70846A6
:1048F000FFF7A8FF8A1A0244A2F1080399421EBFDB
:10490000086842F8080CC1E90034012159601046DA
:10491000E7E700BF181200201752012037B5002822
:104920003AD01E4B984237D31D4CA04234D8EFF3F7
:104930001082019272B6BFF36F8F083B00211D46B3
:10494000AB420AD3A34208D883421A6802D862B1A4
:10495000824218D219461346F2E7019B83F310886E
:10496000BFF36F8F022003B030BD5A6021B14A6897
:1049700012B9186808601A60019B83F31088BFF3AE
:104980006F8F0020EFE70020586050680028EDD1BD
:1049900014681C601060E9E70120E4E720120020A1
:1049A00017520120044B1B680BB9184603E09868A6
:1049B000027A002AF7D07047E05601202DE9F74F20
:1049C0000646EFF31083019372B6BFF36F8F4FF07B
:1049D000FF374FF001089EB9002F08DD6D4B1B68B3
:1049E000986803F068F9B842ACBF00260126019B25
:1049F00083F31088BFF36F8F304603B0BDE8F08FAC
:104A0000706903F06DF83378062B10D00021304622
:104A1000F368984783467369D3F80090B9F1000FA3
:104A200008D186F80890FFF7BDFF0646D3E74FF0A0
:104A3000000BF0E7D9F80840237E042B30D0012B7F
:104A40002ED03378062B04D121463046F3689847A0
:104A5000834694F84050002D71D1A06BA84222D11A
:104A6000E16BBBF1000F25D08D4211D2884288BF87
:104A7000636B0BF1FF3B84BF53F8213083F8088050
:104A800002231BF1020F08BF4FF0FF3BE5632376C3
:104A9000237E022B04D194F94C309F42B8BF1F46AD
:104AA000D9F80090BAE7636B53F82530B342D7D0FA
:104AB0000135D3E78D42EBD1A36B0135AB420AD967
:104AC000636B214653F8250003F054F80028F3D017
:104AD000A36BAB420CD8E3694FF0FF35002B0CBF42
:104AE00002230323237694F84030E563012B0AE088
:104AF000022301212376636BE56353F82530197295
:104B000094F840308B42C3D14FF0FF33E363E36945
:104B10004FF0000B002B14BF032302232376E36B1B
:104B2000AB42B5D00021A06B8842B1D0636B53F883
:104B300021300131B34218BF83F80880F4E7012D1A
:104B4000A6D1E56BBBF1000FDED04FF0000A06E006
:104B5000616B51F82A00B0420DD10AF1010AA16B34
:104B60005145F5D80023BBF1FF3FE36301D00BF1C2
:104B7000FF3B0223D2E7214602F0FCFF0028ECD1E4
:104B80004FF0FF33E363E369002B14BF03230223D9
:104B9000C4E700BFFC560120F8B50F46154606468F
:104BA00000285AD0012958D8FFF7E0FD002856D038
:104BB00055B12A4605212B4802F0D4FE20B1846865
:104BC000002534602846F8BD2020FFF74DFE04463E
:104BD00038B30523037000230372234BC360234BB8
:104BE000036102F09BFE606128461DB103F051F99C
:104BF000FFF73AFE606002F091FE0346A061606933
:104C0000277718B113B163686BB98DB102F04EFF0D
:104C1000A06902F04BFF6068FFF780FE2046FFF7B7
:104C20007DFE0325CEE71DB12946184603F01CF989
:104C3000002221460B4802F0B9FE05460028BFD0ED
:104C4000606902F033FFA06902F030FF6068FFF78F
:104C500065FE2046FFF762FEB4E70125B2E70425B2
:104C6000B0E700BFE0560120657C00084D7C0008DD
:104C700010B50446A0B10378052B11D101460948AF
:104C800002F0CEFE606902F011FFA06902F00EFF93
:104C90006068FFF743FE2046BDE81040FFF73EBEC8
:104CA000012010BDE05601202DE9F04F3D4B85B0AD
:104CB0001B78012B72D172B600230193EFF30983A5
:104CC000394C0193D4F80080B8F1000F03D0019A59
:104CD000D8F808301A62DFF8D49000254FF0FF3A78
:104CE000D9F80060276823689E421DD100264FF046
:104CF000FF3B3FBB002E33D1256035B962B602F0D1
:104D0000B6FD72B62368002BE7D000230293EFF3C1
:104D10000B83029323689A68D2E909135B1A0299FC
:104D2000994224D3194623E0B068037E022B03D1B5
:104D300002F0C1FF504503DA504682463668D2E79A
:104D40003546FAE7B868037E022B03D102F0B3FFC1
:104D5000584503DA584683463F68CAE73E46FAE7B5
:104D60000DB92660D1E7DA45A8BF2E46F9E70299CA
:104D70000391039981F30B88126A0192019A82F3DD
:104D8000098883F30B88B8F1000F06D0D8F8080023
:104D9000037E042B01D100F0F3F862B605B0BDE844
:104DA000F08F00BF8C580120FC56012000570120D5
:104DB00007B5FFF7DBFCE0B1EFF31083019372B6A8
:104DC000BFF36F8F01220C4B1A7000F07DF938B1E0
:104DD0004FF0E022D2F8043D43F08053C2F8043D86
:104DE000019B83F31088BFF36F8F002003B05DF841
:104DF00004FB0420FAE700BF8C580120014B18780F
:104E0000704700BF8C58012073B50D1E064614462E
:104E1000C0F28A80B2F5C07FC0F08680B3F5C07F53
:104E2000C0F082801046FFF71FFD18B90325284601
:104E300002B070BD044424F007040094EFF308812D
:104E400081F30988009B194681F30888EFF31481E8
:104E500041F0020181F314880190019B194681F30E
:104E60000A885820FFF700FD04460028DED0002302
:104E70000372012303702D4BC36002F04FFD2C4BD6
:104E80006061236130461EB103F003F8FFF7ECFCCC
:104E90000223657684F84C5000252376C4E9075533
:104EA000C4E90D556060A585A562A56402F036FDD4
:104EB0006369C4E914556064002B33D0002831D0F5
:104EC000606818BB76BB1B4E00222146304602F0BC
:104ED0006DFD636902462BB3636C1BB310BB2146A7
:104EE000154802F063FD0546B0B12146304602F098
:104EF00097FD606902F0DAFD606C02F0D7FD606832
:104F0000FFF70CFD2046FFF709FD90E7002EDAD0F1
:104F1000314602F0A9FFD6E7084B32681A60084B09
:104F20001C6084E70325E4E7012580E7CB7C0008CB
:104F3000A17C000800570120E0560120FC5601200A
:104F40002057012013B50446FFF758FF01280346F8
:104F500010D1EFF31082019272B6BFF36F8F074A40
:104F60001268906803768464FFF728FD02F09AFEC9
:104F700062B6FBE7042002B010BD00BFFC56012062
:104F800073B504460146494802F0D5FC002C00F0F8
:104F90008A80002800F085802378012B40F08380F0
:104FA000434D2B689B68A34214D0EFF31083019309
:104FB00072B6BFF36F8F012320462376FFF7FEFC06
:104FC0002B689B689C420BD10423237602F06AFE77
:104FD00062B6FBE7FFF712FF0128E6D004203CE0B1
:104FE000636B002B52D12146324802F019FD214655
:104FF0002E4802F015FD606902F058FD606C02F069
:1050000055FD236D002B0CDD0025206BFFF786FC82
:105010002E46D4E914309D4201DA002838D1FFF73A
:105020007DFCD4E90930C01AFFF778FC0025012384
:10503000C4E90D552376C4E90955C4E914556068DF
:105040002562E561FFF76AFC2046FFF767FC019BDC
:1050500083F31088BFF36F8F284602B070BD636B77
:1050600053F825306BB12146586902F0D9FC636BC7
:1050700053F8250002F0FDFB636B53F82500FFF7A2
:105080009DFC0135A36B9D42E9D3ACE70025F9E710
:1050900050F82500FFF742FC636D43F825600135A9
:1050A000B7E70220D9E70120D7E700BF005701206A
:1050B000FC560120E0560120024B1B689868FFF760
:1050C0005FBF00BFFC56012007B5EFF310830193CB
:1050D00072B6BFF36F8F114B1A68114B1B686BB11F
:1050E000986802F0E8FD01465AB9019B83F31088E5
:1050F000BFF36F8F104603B05DF804FB4FF0FF3134
:10510000F2E79068037E022B03D102F0D4FD8142C6
:1051100001DB1268E8E70120EDE700BF005701203E
:10512000FC56012010B5044608B9002010BD0378D4
:10513000012BFAD10146074802F0FDFB0028F4D00C
:10514000207E0428F1D00228F0D1636B002B18BF19
:105150000320EBE70057012082B00346EFF31082F3
:10516000019272B6BFF36F8F084A106818B1826857
:10517000928D9A4208D1019B83F31088BFF36F8F01
:1051800000B1806802B070470068EFE70057012067
:105190002DE9F74F0C46174699469DF930B001901E
:1051A000002800F0F980002A00F0F680BBF1000F23
:1051B000C0F2F280B9F1010F00F2EE800D9BB3F561
:1051C000C07FC0F0E980FFF7D1FA002800F0E68048
:1051D0007CB122460121724802F0C4FB48B1D0F8EC
:1051E00008A00024019BC3F800A0204603B0BDE83E
:1051F000F08F5820FFF738FB824638B10D98FFF743
:1052000033FB064620B95046FFF788FB0324ECE742
:105210004FF0000800F0DAF800EB080585EA1545C4
:10522000EDB22846FFF798FF10B108F10108F1E749
:1052300001228AF800205B4A8AF80800CAF80C208C
:1052400002F06CFB584ACAF81400CAF81020204635
:105250001CB102F01EFEFFF707FB0222AAF82C5039
:1052600000250D9B8AF81820F218CAE9093222F0AD
:105270000702CAF82020CAF83070CAE90D55CAF8EA
:1052800004008AF819B08AF84CB0CAF81C50CAF861
:10529000485002F043FB0F9B4FF08071AB420E9BD6
:1052A0000CBF2A461A460F9BCAF85020DAF8202075
:1052B000CAF85430CAF8440042E902713B493C4FF5
:1052C00042F81C3CA94508BF394642E904516FF039
:1052D00002010E9B42E90A51A2F1440142E906553E
:1052E00042E90C5542E90E5542E9105542F8203C7E
:1052F000CAF8201042F8445CDAF81420002A49D099
:10530000002847D0DAF8040030BB002C42D100223C
:105310005146284802F04AFB024600283AD151463D
:105320001F4802F043FB0446E0B15146214802F019
:1053300077FBDAF8140002F0B9FBDAF8440002F067
:10534000B5FBDAF80400FFF7E9FA5046FFF7E6FA92
:105350003046FFF7E3FA48E7002CD8D0214602F0A8
:1053600083FDD4E7504602F0A6FC134902460968C3
:1053700069B1886802F09FFC9042BFF632AFFFF738
:105380003DFD01287FF42DAF02F08CFC29E74FF0A2
:10539000FF30F1E70324CCE7012426E7042424E7C7
:1053A000E0560120CB7C0008A17C0008B950000821
:1053B000454F000800570120FC560120024B186899
:1053C00000B18068704700BFFC560120014B18688F
:1053D000704700BF245701202DE9F7430546FFF72A
:1053E000C5F928B3EFF31083019372B6BFF36F8F43
:1053F000224ADFF8908013682B441360204B1C680E
:10540000D8F80030BBB1986802F055FC064600277A
:105410004FF0020994B9012F05D1FFF7EFFC0128E5
:1054200001D102F03FFC019B83F31088BFF36F8F23
:1054300003B0BDE8F0834FF0FF36E8E7A068C3692A
:105440005A1E033204D8AB4234BF00235B1BC36136
:10545000C269037E6AB9032B0BD180F8189002F061
:105460002AFC864207DCD8F80030A34218BF012787
:1054700001E0022BF3D02468CCE700BF24570120C1
:1054800000570120FC560120F8B50E4607460028BB
:1054900054D0002952D0FFF769F9002850D0324685
:1054A0000621284802F05EFA054620B184680025EE
:1054B0003C602846F8BD1C20FFF7D6F9044618B317
:1054C00006230370204B0572C36002F027FA1F4BBE
:1054D00060612361304602F0DCFCFFF7C5F96060D3
:1054E00002F01CFAA06118B163690BB1606868B979
:1054F000606902F0DBFAA06902F0D8FA6068FFF791
:10550000ABF92046FFF70AFA0325D2E7314602F04D
:10551000ABFC2A4621460B4802F048FA0546002813
:10552000C5D0606902F0C2FAA06902F0BFFA6068F3
:10553000FFF7F4F92046FFF7F1F9BAE70125B8E7DC
:105540000425B6E7E0560120097D0008ED7C00083F
:1055500008B515220A490B48FEF7C4FA002108468F
:10556000FEF7B6FD00210120FEF7B2FD002102206A
:10557000FEF7AEFDBDE8084000210320FEF7A8BD00
:10558000A88E0008AE8E000807B520220D490E48EF
:10559000FEF7A8FAFFF71AFF0190FFF717FF019B2C
:1055A000C01AB0F5FA7FF8D3BFF34F8F0749084B05
:1055B000CA6802F4E0621343CB60BFF34F8F00BFB1
:1055C000FDE700BFA88E0008CD8E000800ED00E0CA
:1055D0000400FA0510B5094C0949206801F0C6FC21
:1055E0000849206801F0C2FC0749206801F0BEFCB0
:1055F00020680649BDE8104001F0B8BC1C1000202E
:105600002010002050100020B01000202811002091
:1056100013B51E4C0DF107020DF106010DF1050049
:10562000FEF7F8FB1A48FEF75DFA21462C221948CE
:10563000FEF758FAFEF7E8FB214603462D221648EE
:10564000FEF750FAFEF7DAFB214603462E221348F6
:10565000FEF748FA21469DF805302F221048FEF744
:1056600041FA21469DF8063030220E48FEF73AFAFC
:1056700021469DF8073031220B48FEF733FA3222DB
:1056800021460A48FEF72EFA02B010BD2D8F000801
:105690003F8E0008378F0008808F0008A28F000817
:1056A000C48F0008E68F0008089000082A900008C0
:1056B0002DE9F041D0E9022352F8231002EB8302D6
:1056C00053680F781E7893680D4C1D7831462A4632
:1056D0003846FEF7B3FB3B46214620220948FEF739
:1056E00001FA3346214621220748FEF7FBF92B46F3
:1056F0002146BDE8F04122220448FEF7F3B900BF7D
:105700002D8F0008C48F0008E68F0008089000085D
:1057100010B5D0E9023253F822301878FEF7C6FBF4
:10572000FEF76CFBBDE81040034615220149024814
:10573000FEF7D8B92D8F0008A28F000810B5D0E968
:10574000023253F822301878003818BF0120FEF7D3
:10575000BFFBFEF759FBBDE8104003460E2202498D
:105760000248FEF7BFB900BF2D8F0008808F0008E8
:1057700010B51A4C1A48FEF7B5F9214634221948DB
:10578000FEF7B0F90020FEF7D3FC21460346352290
:105790001548FEF7A7F90120FEF7CAFC214603468B
:1057A00036221248FEF79EF90220FEF7C1FC214680
:1057B000034637220E48FEF795F90320FEF7B8FCA2
:1057C0002146034638220B48FEF78CF92146BDE8F6
:1057D000104039220848FEF785B900BF3D91000806
:1057E0003F8E0008499100088F910008B991000888
:1057F000E39100080D9200083792000810B5D0E937
:105800000232044653F8223000201978FEF760FC7B
:10581000E368A268013352F8233001201978FEF7BB
:1058200057FCE368A268023352F82330022019784B
:10583000FEF74EFCE368A268033352F823300320DE
:105840001978FEF745FC0020FEF772FC114C034668
:10585000214629221048FEF745F90120FEF768FC91
:10586000214603462A220D48FEF73CF90220FEF7A6
:105870005FFC214603462B220948FEF733F903203B
:10588000FEF756FC2146BDE8104003462C22054891
:10589000FEF728B93D9100088F910008B9910008E2
:1058A000E39100080D920008D0E9023253F822304B
:1058B00010B519780320FEF70BFC0320FEF738FC27
:1058C000BDE8104003461F2201490248FEF70AB90D
:1058D0003D9100080D920008D0E9023253F82230C1
:1058E00010B519780220FEF7F3FB0220FEF720FC2A
:1058F000BDE810400346192201490248FEF7F2B8FC
:105900003D910008E3910008D0E9023253F82230BB
:1059100010B519780120FEF7DBFB0120FEF708FC2B
:10592000BDE810400346132201490248FEF7DAB8E9
:105930003D910008B9910008D0E9023253F82230B5
:1059400010B519780020FEF7C3FB0020FEF7F0FB2E
:10595000BDE8104003460D2201490248FEF7C2B8D7
:105960003D9100088F9100087FB500234FF44072ED
:10597000CDE9023305230949CDE9003205A8012309
:10598000074AFFF705FC034620B1252205490648D2
:10599000FEF7A8F807B05DF804FB00BFE593000828
:1059A000355A0008F5930008988600087FB5002353
:1059B0004FF44072CDE9023305231949CDE9003295
:1059C00004A80123174AFFF7E3FB034620B12D2269
:1059D00015491648FEF786F8154905A8FFF754FD46
:1059E000034620B12E2210491048FEF77BF8DDE96E
:1059F000041002F0C9F9034620B130220A490B48CD
:105A0000FEF770F80498FFF7BBFA034620B1312285
:105A100005490648FEF766F807B05DF804FB00BFCD
:105A2000E5930008355A0008F593000898860008A9
:105A30007F94000807B5FFF7C1FC0F2243680D49AA
:105A40000D48FEF74FF80D4901A8FFF71DFD03466D
:105A500020B1112207490A48FEF744F8019802F0E4
:105A600061F9034620B1122202490548FEF73AF8CF
:105A7000FEE700BFF5930008029400087F94000839
:105A80009886000881F0004102E000BF83F00043E7
:105A900030B54FEA41044FEA430594EA050F08BFC9
:105AA00090EA020F1FBF54EA000C55EA020C7FEA8D
:105AB000645C7FEA655C00F0E2804FEA5454D4EB0A
:105AC0005555B8BF6D420CDD2C4480EA020281EAD4
:105AD000030382EA000083EA010180EA020281EA0C
