S02B0000433A2F55736572732F5075626C69632F446F63756D656E74732F416C7469756D2F50726F6A65637406
S3150800000000100020910900083951000839510008EC
S31508000010395100083951000839510008395100088A
S31508000020395100083951000839510008395100087A
S31508000030395100083951000839510008395100086A
S31508000040395100083951000839510008395100085A
S31508000050395100083951000839510008395100084A
S315080000603951000885400008635E000839510008C8
S31508000070395100083951000839510008395100082A
S31508000080395100083951000839510008395100081A
S315080000903951000839510008B50F000839510008D0
S315080000A039510008395100083951000839510008FA
S315080000B039510008395100083951000839510008EA
S315080000C039510008395100083951000839510008DA
S315080000D039510008395100083951000839510008CA
S315080000E039510008395100083951000839510008BA
S315080000F039510008395100083951000839510008AA
S315080001003951000839510008395100083951000899
S315080001103951000839510008395100083951000889
S315080001203951000839510008395100083951000879
S315080001303951000839510008395100083951000869
S315080001403951000839510008395100083951000859
S315080001503951000839510008395100083951000849
S315080001603951000839510008395100083951000839
S3150800017039510008395100083951000800000000BB
S315080001802DE9F04F93B0CDE90A32DDE91C530E9301
S3150800019053EC102BCDE90801104619468DED060BD8
S315080001A01E9E04F0A9FB80B1DDE906014FF0FF327F
S315080001B0C54B04F0C9FB40B9DDE906014FF0FF3233
S315080001C06FF4801304F0A2FB70B1DDE908019DED20
S315080001D0060B0E9B1E96CDE91C53DDE90A3213B0B9
S315080001E0BDE8F04F00F088B90022DDE906010023DA
S315080001F004F08CFB002800F03381DDE906A303F147
S31508000200004BCBF30A5016F48063A0F2FF3008BF08
S3150800021006250F9304F09EF89BA3D3E9002304F068
S3150800022003F99BA3D3E9002303F048FFCBF3130498
S31508000230894644F07F5180460022A44B504641F43B
S31508000240401103F039FF94A3D3E9002304F0ECF836
S3150800025002460B464046494603F030FF04F07EFB53
S31508000260044604F077F88EA3D3E90023804689462E
S3150800027004F0DAF80022964B03F020FF04F06EFB38
S3150800028089A3D3E9002307464946404604F0CCF83B
S3150800029080463846894604F05DF885A3D3E90023ED
S315080002A004F0C2F802460B464046494603F004FFEE
S315080002B002460B46CDE90C2304F0B6F8DDE90C231B
S315080002C0804689461046194603F0F8FE0022CDE915
S315080002D01001804B4046494604F0D0F900227E4B77
S315080002E003F0ECFE02460B464046494604F0C6F9C2
S315080002F000227A4B03F0E2FE02460B464046494688
S3150800030004F0BCF9DDE90C238046894600204FF04D
S31508000310804103F0D1FE02460B464046494603F0AB
S31508000320CDFE02460B46DDE9100104F0A7F907F2F7
S31508000330FF3700226A4B03F0C1FE00223B0504F09A
S3150800034073F852465B468046894604F0FDFA002853
S3150800035040F08980CDE90C8904F16303C72B34BFCB
S315080003600427052731051BD553A3D3E90023504697
S31508000370594604F0DFFA00287FD051A3D3E90023B9
S315080003805046594604F0C2FA002876D00027A542FE
S31508000390C6BF2C1B04F1FF3500253C4646F4806693
S315080003A00E9B9F422CBF4FF00008A3EB070816F0E0
S315080003B0020903D0002F18BF4FF000083CB1DDE951
S315080003C00C235046594604F059F982468B46DDE916
S315080003D006010022002304F099FA10B10BF100433C
S315080003E09B46DDE9080126F40063CDE90183DDE9D2
S315080003F00A324BEC10AB009500F07EF802465FB36C
S31508000400DDE9091316F0200F00F10105089E0CBF5F
S3150800041065204520B047DDE908010523002205933C
S315080004200A23002CCDE9023207F1FF374FEAD473CD
S31508000430B8BF64422A46019304970A9B009405F0C4
S3150800044056FC0246B9F1000F06D00B9BC41A0B9B4B
S315080004501A190E9BA34245D8104613B0BDE8F08F73
S31508000460DDE906ABCDE60022404649461A4B04F0C4
S3150800047005F9013CCDE90C016EE7002D90D00F9BE4
S31508000480002B8DD0013D8BE7FB799F501344D33F5A
S31508000490B3C8608B288AC63F61436F63A787D23F7C
S315080004A071A379094F930A401655B5BBB16B024043
S315080004B0EF39FAFE422EE63F2D431CEBE2361A3F91
S315080004C00000000080842E41FFFFEF7F0000F83F08
S315080004D00000E03F00002C400000244000001840C7
S315080004E00000F03F2020DDE90913089DA8470134E4
S315080004F0ADE700BF000000002DE9F04F5BEC10AB44
S3150800050097B0CDE90501DDE92057CDE90723504627
S3150800051052465B465946229E04F0EEF970B903230B
S31508000520CDE902760193B04B0093DDE90501DDE9DB
S31508000530072305F0FCFA17B0BDE8F08F4FF0FF323D
S315080005406FF480135046594604F0E0F928B10423A5
S31508000550CDE902760193A54BE6E74FF0FF32504608
S315080005605946A34B04F0F0F968B1A24A06F0040311
S31508000570002B08BF0322A04B1CBF13460422CDE95B
S3150800058002760192D0E7504693A3D3E90023594651
S3150800059004F0DAF938B992A3D3E90023504659464C
S315080005A004F0B4F968B1DDE90723DDE905014BEC90
S315080005B010ABCDE92176209517B0BDE8F04FFFF7CF
S315080005C0DFBD002200235046594604F09FF9002853
S315080005D000F09A805B4652460020002103F06CFD2D
S315080005E0012382468B46099316F4806400F08E80B8
S315080005F0092D40F28E80002430210EABA5F10902A8
S315080006000134202C03F8011BA5EB040901D0944200
S31508000610F6D15946504604F0A1F9784B054603EB46
S31508000620C90393ED007B8DED0A7B03F093FE02462A
S315080006300B465046594603F03FFDDDE90A2303F011
S31508000640F3FE02460B46CDE90C2304F0AFF98046CB
S3150800065003F070FE02460B46DDE90C0103F02CFDA3
S3150800066002460B46CDE90C230022654B04F06CF9D3
S31508000670002851D008F10108404603F05BFE024607
S315080006800B46DDE90A0104F04BF910B14FF00008FA
S315080006900135B9F1000F50D1284603F05BFE02463A
S315080006A00B465046594603F007FD0022544B804638
S315080006B0894604F02BF930B1002240464946504B92
S315080006C004F042F910B1E80700D501350A210EAB4E
S315080006D01A19202C0AD095FBF1F001FB105530357C
S315080006E002F8015B013405460028F2D106F0030240
S315080006F0012A57D1002F55D0099A12B916F00C0FB6
S3150800070000D0013F302245E009906DE74FF0060919
S315080007107FE7A94600247CE70022DDE90C01384B77
S3150800072004F0F4F80028B4D1B8F1000F02D018F09C
S31508000730010FAED008F10108ABE70A210EAB23443E
S31508000740202C0ED0B8FBF1F001FB1082B8F1090F8E
S3150800075002F1300209F1FF3904F1010403F8012B13
S3150800076011D83021A1440EAA202CAFD0A14504F1FE
S3150800077001030AD11C4609F158030DEB03092E2380
S3150800078009F8203CA2E78046DAE7A1541C46EBE7C5
S315080007901A550134A74205D9202CF9D1CDE902769C
S315080007A00194C1E6202CF9D0099A3AB12D2104F119
S315080007B058026A4402F8201C0134EFE7710704D591
S315080007C004F158022B216A44F4E73207E6D504F10E
S315080007D0580220216A44EDE70000000065CDCD41AE
S315080007E00000000065CDCDC15065000854650008BD
S315080007F0FFFFEF7F476500084C6500086065000845
S315080008000000E03F0348044B834202D0034B03B188
S315080008101847704780100020801000200000000054
S31508000820064B0749C91A891048BF0131491003D038
S31508000830044B0BB101481847704700BF80100020D1
S31508000840801000200000000010B5064C237843B93C
S31508000850FFF7D8FF044B13B10448AFF30080012318
S31508000860237010BD8416002000000000546700089D
S3150800087008B5054B1BB105490548AFF30080BDE82F
S315080008800840FFF7CDBF00BF000000008010002021
S3150800089054670008A3F5803A704700BF174B002B32
S315080008A008BF134B9D46FFF7F5FF00218B460F4601
S315080008B01348144A121A05F0F0FA0E4B002B00D012
S315080008C098470D4B002B00D09847002000210400C4
S315080008D00D000D48002802D00C48AFF3008004F044
S315080008E0CFFB2000290003F0D3FB04F00FFA00BF6A
S315080008F000000800000000000000000000100020B2
S3150800090080100020A816002000000000000000004B
S3150800091038B504460D4601B118B93721034804F025
S31508000920D3FB23682B60256038BD00BF605F0008D5
S3150800093070B5D0B1C9B10E4E431E013913F8014F37
S315080009402046325D02F00302012A11F8012F08BF82
S3150800095004F12000B55C05F00305012D08BF20321F
S31508000960801A01D1002CE9D170BD0120FCE700BF37
S31508000970526600080348044A0449121A921004F001
S31508000980DCBB00BFE8670008E8670008A816002077
S3150800099008B500F02FF8FFF7EDFF124B12498B420E
S315080009A012D30020114B12498B4218D3FFF776FF5A
S315080009B0186850F82240586840F822400132986872
S315080009C08242F5D30C33EAE70022F8E71C6844F8BC
S315080009D0220001325C68A242F8D30833E4E7002219
S315080009E0F8E700BF5C6700086867000868670008E2
S315080009F0686700084FF480414FF0FF30114B124AE8
S31508000A0010B59A60D3F8882042F47002C3F888209B
S31508000A100E4A91660E4901F5005210660D48506659
S31508000A200220C3F8D000BFF34F8FBFF36F8F0124A6
S31508000A304FF440330848C0F88041D36004600B6126
S31508000A4010BD00BF00ED00E0000000080090005057
S31508000A50008000447FFF7F0300E100E0014B186837
S31508000A60704700BF04100020084B1B6F03F00703F4
S31508000A70022B04D0032B05D0012B05D0FEE7044B2F
S31508000A8018687047034BFBE703487047008000501F
S31508000A90041000200C100020002D310108B5FFF7C6
S31508000AA0E3FF054B1B6FC3F303330133B0FBF3F0CE
S31508000AB0024B186008BD00BF0080005000100020DF
S31508000AC00048704700B4C404014B1868704700BF5B
S31508000AD00C100020054B1860054B1B6F03F007032D
S31508000AE0032B01D1FFF7DABF704700BF0C100020B7
S31508000AF00080005000487047002D31014FF0B44384
S31508000B009868C0F304400C280AD8DFE800F00B09FF
S31508000B1009090909072119091B1D1F000F487047F4
S31508000B20002070479B6803F04073B3F1807F11D0B3
S31508000B30B3F1007F10D00A4A002B08BF1046704751
S31508000B40084870470848704708487047084870477B
S31508000B50084870470848704708487047405DC6000F
S31508000B6000093D00C0EA210180BA8C010048E8016D
S31508000B70005A62020024F40080841E0040420F00DE
S31508000B80014B1868704700BF081000202DE9F04F88
S31508000B909A46564B85B01B7806460F461546DDF82D
S31508000BA03C909DF844B0DDF85080002B00F097800B
S31508000BB0072A00F296800E9B002B00F09280B9F16E
S31508000BC0000F00F08E80129BB3F5006F00F389804A
S31508000BD0012803D1109B002B00F08380444B03EBC4
S31508000BE005131B7B002B7ED0424C10220021684641
S31508000BF005F053F904EB45141022A7BB39462046E5
S31508000C0005F04BF943F210036380BBF1000F03D1E3
S31508000C10E37843F00303E370364A0E9B02EB451C68
S31508000C20CCE90193129B6901581E9DF84C30C0F31C
S31508000C300A0003F003039B0643EA001E53582E4896
S31508000C40012E00EA03004EEA0003CDF800A0535037
S31508000C5017D0B8F1000F2ED19CF8023068F30413B0
S31508000C608CF8023027E00021204605F016F94FF4EB
S31508000C7044736380BBF1000FCED1E37843F03003B1
S31508000C80C9E713230CF1100ECCF80C309CE80F00C2
S31508000C908EE80F006FF00301DCF81C20109B61F34F
S31508000CA09F02012FCCF81C20CCF8143003D1CCF8C5
S31508000CB01890CCF8043000270D4A290102EB0513D9
S31508000CC042F80180159A28465A60694622469F606E
S31508000CD05E7301F08BFB384605B0BDE8F08F074818
S31508000CE0FAE70748F8E70748F6E700BF8516002041
S31508000CF098110020981000200F80FFF3028000F062
S31508000D00018000F0078000F038B5124B05461B78C5
S31508000D10DBB1E0B104F07CFA0F4A00231146147BDC
S31508000D2054B92B6001251A0101EB03131D738C506E
S31508000D3004F074FA204638BD0133082B02F110027C
S31508000D40EDD104F06BFA0548F5E70548F3E70548E1
S31508000D50F1E700BF8516002098110020048000F0F6
S31508000D60028000F0018000F038B504F051FA002343
S31508000D7005460B4A147B6CB90133082B02F11002A5
S31508000D80F8D101F0ABFA074B28461C7004F046FA76
S31508000D90204603E0284604F041FA034838BD00BF60
S31508000DA09811002085160020058000F00D4B10B51F
S31508000DB01B78044693B1072812D804F029FA0A4B7F
S31508000DC003EB04131A7B2AB100241C7304F026FAD9
S31508000DD0204610BD04F022FA0448FAE70448F8E76A
S31508000DE00448F6E78516002098110020068000F0D2
S31508000DF0028000F0018000F0154B13B51868002337
S31508000E0001908DF8043004F003FA124B1C7824B1D3
S31508000E1004F004FA104802B010BD01221A7004F05A
S31508000E20FDF90E4B01A81C731C7783F82C4083F838
S31508000E303C4083F84C4083F85C4083F86C4083F868
S31508000E407C4008238DF8073001F086FA2046E2E751
S31508000E50C95F000885160020038000F0981100205D
S31508000E600A4A08B512785AB107280BD8084A02EB7D
S31508000E7000131B7B43B1002101F04EFA002008BD88
S31508000E800448FCE70448FAE70448F8E78516002012
S31508000E9098110020028000F0018000F0078000F021
S31508000EA00A4A08B512785AB107280BD8084A02EB3D
S31508000EB000131B7B43B1012101F02EFA002008BD67
S31508000EC00448FCE70448FAE70448F8E785160020D2
S31508000ED098110020028000F0018000F0078000F0E1
S31508000EE00A4A08B5127852B107280AD8084A02EB06
S31508000EF000131B7B3BB101F0FBFA002008BD054837
S31508000F00FCE70548FAE70548F8E700BF851600201C
S31508000F1098110020028000F0018000F0078000F0A0
S31508000F200D4B1B7893B1072812D889B10B4B03EBED
S31508000F3000131B7B73B10A4B1A6D012383401342BE
S31508000F4014BF0123002300200B7070470548704723
S31508000F5005487047054870478516002098110020F7
S31508000F6000000450028000F0018000F0078000F0C5
S31508000F700B4A10B512780C4662B107280CD859B13D
S31508000F80084A02EB00131B7B43B101F0CDFA20702F
S31508000F90002010BD0448FCE70448FAE70448F8E7CF
S31508000FA08516002098110020028000F0018000F0CC
S31508000FB0078000F0184B2DE9F0411F6D5B6D1F404F
S31508000FC000D5FEE701260025144CDFF85880374285
S31508000FD018D02368C8F85060A3B1A1682846013123
S31508000FE06268A1609847637B012B0BD150B90C4B03
S31508000FF003EB45131A7B60F341021A731A7F60F3F9
S3150800100041021A770135082D4FEA460604F1100405
S31508001010DDD1BDE8F08100BF000004509811002022
S315080010209810002000200450044BD3F88420D206E0
S31508001030FBD4D3F88400C0F38110704700400050F9
S3150800104038B5124B0546D3F880300C4603F0030337
S31508001050022B0BD0032B0DD0012B0FD1FFF704FD6C
S315080010600D2305B1286004B1236038BDFFF746FD9E
S315080010700723F6E7FFF7F2FC0623F2E7044841F2F6
S31508001080DF1104F021F800231846EAE70080005033
S31508001090CD5F000838B51A4B0546D3F820010C4633
S315080010A000F00700062821D8DFE800F028040C1411
S315080010B010181C00FFF7D2FC052305B1286004B1FF
S315080010C0236038BDFFF700FD0323F6E7FFF716FD9B
S315080010D00723F2E7FFF70EFD0223EEE7FFF7BEFC54
S315080010E00623EAE7FFF7F0FC0423E6E7054841F2A2
S315080010F05C2103F0E9FF00231846DEE70123DCE75D
S3150800110000800050CD5F000838B5194B0546D3F866
S3150800111028310C4603F00703013B052B20D8DFE8EE
S3150800112003F003131B0F0B17FFF798FC052305B1F4
S31508001130286004B1236038BDFFF790FC0623F6E764
S31508001140FFF7DCFC0723F2E7FFF7BEFC0323EEE715
S31508001150FFF7BAFC0423EAE7FFF7CCFC0223E6E72D
S31508001160044841F2640103F0AFFF00231846DEE7A6
S3150800117000800050CD5F0008F7B50027144B019793
S31508001180D3F88041064604F00304022C0D4614D019
S31508001190032C0DD0012C14D1394601A8FFF77AFF8C
S315080011A00F240EB1019B336005B12C6003B0F0BD6E
S315080011B0FFF7A4FC07240190F3E7FFF79BFC0190D7
S315080011C0EFE741F2B131034803F07EFF3C46E8E71A
S315080011D000800050CD5F000838B50F4B0546D3F8A0
S315080011E090320C4603F00303012B09D0022B0BD1D6
S315080011F0FFF784FC072305B1286004B1236038BDD6
S31508001200FFF778FC0223F6E7044841F2501103F091
S315080012105BFF00231846EEE700800050CD5F00080C
S31508001220002337B50193194B0546D3F820320C46EF
S3150800123003F00703042B1FD8DFE803F025030F1478
S315080012401900002101A8FFF75FFF11230DB1019ACC
S315080012502A6004B1236003B030BDFFF74FFC0723B3
S315080012600190F3E703F076FF0A230190EEE7FFF714
S3150800127087FC09230190E9E741F22301044803F0BA
S3150800128023FF0023E2E70123E0E700BF00800050C8
S31508001290CD5F000838B5104B0546D3F840310C46EB
S315080012A003F00303022B0BD0032B0DD0012B0FD118
S315080012B003F050FF0A2305B1286004B1236038BD46
S315080012C0FFF75EFC0923F6E703F047FF0B23F2E777
S315080012D001230020EFE700BF00800050002337B548
S315080012E00193184B0546D3F860320C4603F0070302
S315080012F0013B032B1FD8DFE803F0020E1914002167
S3150800130001A8FFF7C7FE0F230DB1019A2A6004B1A1
S31508001310236003B030BD002101A8FFF7BBFF1023EF
S31508001320F2E7FFF7EBFB07230190EDE7FFF7E2FB98
S3150800133002230190E8E741F2C801034803F0C4FE1E
S315080013400023E1E700800050CD5F000873B5002454
S315080013500F4B0194D3F87032064603F00303012BB2
S315080013600D4607D0022B11D041F22611094803F089
S31508001370ABFE04E0214601A8FFF78CFF10240EB14E
S31508001380019B336005B12C6002B070BD1424F6E7EA
S3150800139000800050CD5F000838B5164B0546D3F8D7
S315080013A000020C4600F00700042819D8DFE800F010
S315080013B020030B0F130003F0CDFE0A2305B12860A6
S315080013C004B1236038BDFFF7DBFB0923F6E703F01A
S315080013D0C4FE0B23F2E7FFF761FB0E23800AEDE755
S315080013E0054841F26F4103F06FFE00231846E5E712
S315080013F00123E3E700800050CD5F000838B5164B9F
S315080014000546D3F808020C4600F00700042819D848
S31508001410DFE800F020030B0F130003F09BFE0A23FE
S3150800142005B1286004B1236038BDFFF7A9FB09237D
S31508001430F6E703F092FE0B23F2E7FFF72FFB0E23E6
S31508001440800AEDE7054841F2A74103F03DFE002377
S315080014501846E5E70123E3E700800050CD5F000862
S3150800146038B5104B0546D3F840320C4603F0030353
S31508001470022B0BD0032B0DD0012B0FD103F06AFEE4
S315080014800A2305B1286004B1236038BDFFF778FB4D
S315080014900923F6E703F061FE0B23F2E70123002098
S315080014A0EFE700BF0080005038B5124B0546D3F869
S315080014B050320C4603F00303022B0FD0032B05D042
S315080014C0012B0FD103F046FE0A2302E003F045FE86
S315080014D00B2305B1286004B1236038BDFFF750FB24
S315080014E00923F6E7044841F2940103F0EDFD0023D1
S315080014F01846EEE700800050CD5F000838B5104B5F
S315080015000546D3F860310C4603F00303022B0BD0D3
S31508001510032B0DD0012B0FD103F01CFE0A2305B1B6
S31508001520286004B1236038BDFFF72AFB0923F6E7D4
S3150800153003F013FE0B23F2E701230020EFE700BFB9
S3150800154000800050B0F5207F10B52ED009D8B0F530
S31508001550007F24D003D868B1B0F5C07F0AD0002434
S315080015601BE0B0F5607FFAD1124BD3F88040C4F384
S31508001570011412E00F4B1C6F230B13F00E0FC4F36C
S3150800158003340AD0072C08D00F2C06D0032C04D01D
S3150800159040F28521084803F097FD601C10BD054BF5
S315080015A0D3F89040C4F30464F7E7024B1C6FC4F306
S315080015B08024F2E700800050CD5F00084FF48032A7
S315080015C038B5104B04469A6600200D46FFF7BAFF59
S315080015D041F671320C4B6043DC69DA635A6804F4ED
S315080015E0803422F440125DB90849884294BF00202D
S315080015F00120000502435A600CB10022DA6338BDA7
S315080016000349F2E70090005000000350005A6202B6
S31508001610002D310138B5430904460D460ED140F276
S315080016202F310D4803F050FD002304F01F0485B147
S3150800163003F580530122A2401A6038BD012B04D05D
S31508001640022B04D040F23D31EBE7044BEDE7044BA7
S31508001650EBE703F50053EDE7CD5F00086480005023
S3150800166068800050002130B5B0F5807F85B004460B
S31508001670CDE9001100F006816BD8002800F0DB8068
S31508001680A0F12004602C75D8602C73D8DFE814F01C
S31508001690D300E000D300E000F000F000F000F00016
S315080016A0F000E000F5007E000B019E007E00E000E1
S315080016B0E000E000720072007200720072007200B0
S315080016C072000B01E000E000E00023011001E000D9
S315080016D0720072007200720072007200720072006C
S315080016E072007200720072001501F000D300D30078
S315080016F0D300B1007E007E00B9001A019300C8002D
S31508001700C8007200720072007200720072007200E5
S31508001710720072007200720072007200720072002B
S31508001720720072007200720072007200720072001B
S31508001730720072007200720072007200720072000B
S3150800174072007200720072007200720072007200FB
S31508001750CD00B0F5E06F00F0AB803CD8B0F5607F07
S3150800176000F081801DD8B0F5007F67D008D8B0F5A5
S31508001770C07F60D040F29441594803F0A5FC57E079
S31508001780B0F5207F64D0B0F5407FF3D1FFF786F936
S3150800179004464FF42070FFF7D5FEB4FBF0F4640856
S315080017A05FE0B0F5B06F68D00AD8B0F5806F5FD04B
S315080017B0B0F5A06FDED100216846FFF731FD37E0AE
S315080017C0B0F5C06F6FD0B0F5D06FD3D100216846A1
S315080017D0FFF7E2FD2CE0B0F5286F73D016D8B0F508
S315080017E0186F6AD00AD8B0F5F06F74D0B0F5106FDC
S315080017F0C0D100216846FFF701FE19E0B0F5206F59
S31508001800B8D100216846FFF769FD11E0B0F5306FE1
S315080018105DD0AFD3B0F5386F45D0B0F5406FA9D1DC
S3150800182000216846FFF770FC02E0FFF71DF90090FB
S31508001830009805B030BDFFF731F9F8E7FFF714F95E
S3150800184005462046FFF77EFEB5FBF0F50095EFE767
S31508001850FFF724F904464FF42070FFF773FEB4FB34
S31508001860F0F40094E4E701A8FFF7EAFB019DE8E736
S3150800187000216846FFF70EFCDAE700216846FFF705
S315080018807BFCD5E74FF0E02302911B695B0705D582
S31508001890FFF704F90290029B0093C9E703A902A87F
S315080018A0FFF7F8FCF7E700216846FFF7F3FCBFE708
S315080018B000216846FFF7D4FDBAE700216846FFF71E
S315080018C0F3FDB5E700216846FFF740FDB0E7684637
S315080018D0FFF782FCACE700216846FFF70FFEA7E793
S315080018E0CD5F000808B58020FFF7BCFE034B984281
S315080018F09EBF4FF48032024B1A6708BD005A620237
S3150800190000A000501FB503460020B3F5607F019084
S3150800191000F00E817BD8582B68D8382B05D8243B85
S31508001920092B49D940F27951CEE0393B1F2BF9D81A
S3150800193001A252F823F000BFEB1A00082519000887
S315080019402519000825190008F51A0008431B000880
S315080019502519000825190008251900082519000861
S315080019602519000825190008251900082519000851
S315080019702519000825190008251900082519000841
S31508001980251900084D1B0008351A000825190008F6
S315080019902519000825190008791A000825190008CC
S315080019A025190008571B0008611B0008391B000889
S315080019B09B1A00089B1A0008092BB3D801A252F8F3
S315080019C023F000BF351A0008351A0008351A000832
S315080019D0351A0008351A000825190008D11A000812
S315080019E025190008EB1A0008531A0008802B59D04D
S315080019F0B3F5807F96D14FF0E02302901B695B0711
S31508001A006ED5FFF74BF80C230393039B56E0B3F50B
S31508001A10086F74D022D8B3F5C06F66D00FD8B3F567
S31508001A20A06F00F08980B3F5B06F51D0B3F5806F21
S31508001A307FF478AF002001A9FFF72CFB4CE0B3F543
S31508001A40E06F7ED0B3F5F06F54D0B3F5D06F7FF466
S31508001A5069AF002001A9FFF79FFC3DE0B3F5286FA9
S31508001A607ED00ED8B3F5186F70D0B3F5206F72D04C
S31508001A70B3F5106F7FF456AF002001A9FFF7BEFC3F
S31508001A802AE0B3F5306F70D0FFF44CAFB3F5386F7A
S31508001A902BD0B3F5406F7FF445AF002001A9FFF7BF
S31508001AA033FB19E0334B1B6F03F00703013B032B92
S31508001AB008D8DFE803F005023139052301930BE066
S31508001AC00223FBE740F2C6412B4803F0FDFA03E088
S31508001AD0002001A9FFF750FB019805B05DF804FB4B
S31508001AE003A902A8FFF7D6FB8FE7002001A9FFF795
S31508001AF0D1FBF1E7002001A9FFF700FDECE71D4B3C
S31508001B00D3F8003103F00303022B07D0032B09D0C7
S31508001B10012B0BD1FEF7D8FF0323CFE7FFF730F8E9
S31508001B200923CBE703F014FB0823C7E70123C5E71E
S31508001B3001A9FFF785FACFE7002001A9FFF770FB97
S31508001B40CAE7002001A9FFF78BFCC5E7002001A919
S31508001B50FFF7AAFCC0E7002001A9FFF7BFFBBBE718
S31508001B60002001A9FFF7F2FBB6E701A9FFF734FB4E
S31508001B70B2E700BF00800050CD5F00084FF4801226
S31508001B80034B5A664FF48032024B9A62704700BF85
S31508001B90009000500050005AF8B5036804460F2B11
S31508001BA004D940F66D31804803F08EFA63680F2B2E
S31508001BB004D94FF437617C4803F086FAA3680F2BE3
S31508001BC004D940F67331784803F07EFA237B0F2B4D
S31508001BD004D940F67631744803F076FA637B0F2B06
S31508001BE004D940F67931704803F06EFAA37B3F2B8F
S31508001BF004D940F67C316C4803F066FAE37B3F2B48
S31508001C0004D940F67F31684803F05EFA2369032B4E
S31508001C1004D940F68231644803F056FA6369032B07
S31508001C2004D940F68531604803F04EFAE369032B80
S31508001C3004D940F688315C4803F046FA8020FFF75D
S31508001C4061FE032800F08A804FF48012574B584DE6
S31508001C505A6645F60E034FF0A062C5F88030554B1C
S31508001C609A624FF4803203F580539A62AB6DDA03B9
S31508001C70FCD4AE6D16F08046FBD1D4E900231B05D3
S31508001C8043EA0263E27B4C481343227B4B4F43EA09
S31508001C900243627B43EA0233A27B43EA82132B6147
S31508001CA0AA69D4E904131B0643EA816302F00042D9
S31508001CB01343A27E4FF440611343227E43EA024354
S31508001CC0627E43EA0223AB614FF4006203F062FAD4
S31508001CD02B6AE17EE26923F00F0343EA8103002AB7
S31508001CE03DD12B6294F8243094F82010AA6ADB00C0
S31508001CF043EA41133A40134394F82120304943EA12
S31508001D00021343F480332A4AAB62936D31EA030324
S31508001D10FBD14FF08071274881621369A56823F4C7
S31508001D20700343EA055313614FF00043836194F847
S31508001D3022300BB9234B996294F823303BB94FF400
S31508001D408032204B9A621A4A936D5B00FCD494F851
S31508001D5025301BB1164B1C4AC3F88020F8BD134327
S31508001D6043F00803022A2B6208D12E614FF4085269
S31508001D704FF47F411548AE6103F00CFA0C4994F80C
S31508001D8022308A6A94F820001B063A4043EA401338
S31508001D90134394F8242043EAC20394F8232043EA21
S31508001DA002438B62D3E700BFCD5F00080090005066
S31508001DB00040005A0050005A3840005AC7FFFEFE3D
S31508001DC0030001000060005AF1A7FFFF3440005AE3
S31508001DD0014B93F90000704774100020436810B552
S31508001DE0072B044604D940F6B3512A4803F06CF988
S31508001DF0A368032B04D940F6B551264803F064F9C5
S31508001E002378032B04D940F6B751224803F05CF92E
S31508001E1094F90130002B04DA40F6B9511D4803F055
S31508001E2053F94FF400011C4A637851664FF4D151B7
S31508001E30022002F5B832516218494F2B48604FF01C
S31508001E40010028BF4F2301F5805148601169C90375
S31508001E50FCD4217843EA01235361D4E901131B0119
S31508001E6043EA0123617B0B43217B43EA41039360E9
S31508001E70E37BA17B1B0143EA4113617C0B43217C75
S31508001E8043EA41035360A37C13B16FF4D153536201
S31508001E9010BD00BFCD5F0008009000500010025032
S31508001EA0014B1880704700BF72100020014B188044
S31508001EB0704700BF70100020B0F5207F38B577D086
S31508001EC00ED8B0F5007F61D003D890B3B0F5C07FC7
S31508001ED02FD040F21231BDE838403D4803F0F4B83F
S31508001EE0B0F5607FF5D13B4A4C1ED2F8FC5015F090
S31508001EF080751EBFD2F8FC3023F08073C2F8FC3020
S31508001F00032C04D940F2F221314803F0DDF8324AB5
S31508001F10D2F8803023F0300343EA0413C2F8803045
S31508001F2035B12C4AD2F8FC3043F08073C2F8FC3045
S31508001F3038BD4C1E012C0AD9102903D8274BCB4093
S31508001F40DB0704D440F2C721214803F0BDF803F0AB
S31508001F5030F903F03CF94FF48031214B1E4A1967DA
S31508001F60136F23F4704343EA04331367FEF796FDB1
S31508001F700446FFF759F8C0F10201204603F021F99B
S31508001F8000F040F8BDE83840FFF7ACBC4C1E1F2CEB
S31508001F9004D940F206310E4803F096F80E4AD2F8F4
S31508001FA0903023F0F85343EA0463C2F89030BFE751
S31508001FB04C1E012C04D94FF44371054803F084F8EC
S31508001FC0054A136F23F4806343EA84231367AFE754
S31508001FD0CD5F000800ED00E0008000501001010010
S31508001FE00090005008B50121022000F02FF803F0F8
S31508001FF0E0F803F0ECF84FF48032014B1A6708BD9D
S315080020000090005008B54FF4C070FFF72BFBBDE8F1
S3150800201008400449884294BF012102214FF42070E8
S31508002020FFF74ABF80F0FA02024A536B0342FCD11B
S31508002030704700BF00400950034A0179D36E23F068
S3150800204030030B43D366704700400050F8B504468A
S31508002050244BD3F88420D006FBD4D3F88430C3F3BA
S3150800206081139C423CD0FEF7FFFC012C05460BD1A0
S315080020701D4B984204D940F292711C4803F024F88B
S315080020800121284603F09DF803F0BBF84FF00072D3
S31508002090174B07465A66204603F0C3F84FF4806389
S315080020A0104E621E93403367736E9A0103D4D6F8B6
S315080020B084309B060AD5384603F0A7F8022C0FD1C0
S315080020C02846BDE8F840002103F07BB8D6F88430EE
S315080020D09906E9D54FF4F461044802F0F5FFE3E701
S315080020E0F8BD00BF00400050005A62023360000885
S315080020F00060005010B50C4608B9FEF7B5FC074B52
S3150800210021461B783BB1064B984204D80120BDE80E
S315080021101040FFF79BBF0220F9E700BF8616002094
S31508002120005A62024FF0004238B5244B244C5A66D6
S315080021304AF6CD33656C014605F00105236428BBD4
S315080021400120FFF771FF6368DB0715D51D4B586043
S3150800215008461D4B226BD2070CD4984208D1072497
S3150800216015B1174B194A1A6403F05CF8204638BDB6
S315080021700130EFE79842F2D00024F1E70132236BF1
S3150800218013F0080305D08A42F8D1E8E700220E4981
S31508002190F5E78A42E3D020210A4A91620121A2F595
S315080021A0805251600649084A886A800603D49342D9
S315080021B0D5D00133F8E79342DDE700BF0090005021
S315080021C0004009500060095040420F003254FFFF9A
S315080021D0032838B504460D4605D8094B33F81030A0
S315080021E0CB40DB0704D440F22D41064802F06CFFD1
S315080021F0302301225C43044BAA401A5138BD00BF64
S31508002200686100089960000840D00350032838B573
S3150800221004460D4605D8094B33F81030CB40DB078A
S3150800222004D440F2FE31064802F04EFF3023012264
S315080022305C43044BAA401A5138BD00BF68610008C8
S315080022409960000840E0035003282DE9F041044650
S315080022500D461746984605D81D4B33F81030CB4027
S31508002260DB0704D44FF4B0711A4802F02DFF37B1DA
S3150800227029462046B8F1000F20D0FFF7A9FF0F2105
S31508002280072D04EB440688BFA5F108034FEA061696
S31508002290114895BFAB009B0004360C3607FA03F2CB
S315080022A09940304402F0C5FF7FB929462046B8F167
S315080022B0000F06D0BDE8F041FFF78ABFFFF7A6FF7B
S315080022C0DDE7BDE8F041FFF7A1BFBDE8F08100BF3B
S315080022D0686100080061000830C003504FF48002AE
S315080022E00B4B10B5C3F88020BFF34F8FBFF36F8F2A
S315080022F00024FF22074B21465C6520209A625C6019
S31508002300FFF788F92146BDE810402120FFF782B97A
S3150800231000E100E000000450072838B504460D46E1
S3150800232003DD7721084802F0CFFE1F2C03D991213F
S31508002330064802F0C9FE064A064B002D08BF13469A
S315080023400122A2401A6038BD70610008D7610008F2
S31508002350401004504020045010B5044618B9912185
S315080023601F4802F0B1FE23781B0613F0604F03D016
S3150800237092211B4802F0A8FEE3780F2B03D9A3216C
S31508002380174802F0A1FE01212020FFF743F9012199
S315080023902120FFF73FF90122124B5A6022781206D4
S315080023A09A606178A27842EA01429A61FF229A62AB
S315080023B000229A631A644FF000425A654FF0FF32C2
S315080023C04FF4800103F500531A65074AC2F88011D5
S315080023D0E3781B01DBB282F81633116010BD00BF2B
S315080023E0706100080000045000E100E02DE9F041AA
S315080023F00126C3B2072805460C46904606FA03F698
S3150800240003DDEC21364802F05FFE1CB9ED213448A5
S3150800241002F05AFE236823F47C1323F00F031BB142
S31508002420F0212F4802F050FEA37A1B0413F47C0F08
S3150800243004D040F209112A4802F046FEE37A1B0549
S3150800244013F07E6F04D040F20B11254802F03CFED3
S31508002450237B5B0513F0FE5F04D040F20D11204884
S3150800246002F032FE1F4B204F1E65AB00226803F1B7
S31508002470A04303F588235A60302202FB0575637B67
S315080024802B66E37AA27A1B0543EA0243227B43EAD8
S315080024904253EB6528F003032B6702F0B9FE7B6D08
S315080024A033437B65237A13B13B6C33433B64637ACE
S315080024B013B1BB6B3343BB632279A37943EA024367
S315080024C0084A93616179E37943EA014307498B61D5
S315080024D0054B56639E64BDE8F04102F09FBE00BFFF
S315080024E070610008002004500000045000100450D9
S315080024F010B50124C3B2072804FA03F404DD40F238
S315080025009711074802F0E0FD02F082FE054B5A6D6E
S3150800251022EA04025A659C62BDE8104002F07EBEBB
S31508002520706100080000045010B50124C3B20728E2
S3150800253004FA03F404DD40F2B5110A4802F0C4FDBA
S3150800254002F066FE084BDA6A224208D15B6B9C43AE
S315080025500CBF0124002402F061FE204610BD0024B1
S31508002560F9E700BF7061000800000450F8B5074697
S315080025700C461D4616464AB94FF4A171314802F079
S31508002580A3FD24B1402D09D1062328E021B94FF433
S315080025902070FFF767F80446402D42D0402D09D831
S315080025A07DB1202D17D040F28911BDE8F8402548A5
S315080025B002F08ABD602DF6D1B6EB940F3CD8042301
S315080025C00DE0B6EB141F04D94FF4BA711D4802F09A
S315080025D07BFD102303E0B6EBD40F1CD808235E431B
S315080025E0730803EB4413B3FBF6F3174E203BB6EB25
S315080025F0C30F4FEAC30404D24FF4D071114802F056
S3150800260063FDBB68344023F06003BB60BB681D43B1
S31508002610BD60FC61F8BD40F279110A4802F054FD2C
S31508002620DCE70623B4FBF3F3B342ADD24FF4BF7134
S31508002630044802F049FDA7E740F28311014802F079
S3150800264043FDBCE73D620008F8FF7F0038B50C4B38
S31508002650044698420D4604D04FF43371094802F0F7
S3150800266033FD012204F580535A60EB43934003F08F
S315080026700A036361656115B904F50054626038BDE3
S3150800268000C005503D620008124B10B5984204463A
S3150800269004D040F24241104802F016FD012104F52B
S315080026A08053596040F6AA6341F20502636100232C
S315080026B00A48A360E365E26004F500522361E3611A
S315080026C0E36490640348A365844204BF2365636595
S315080026D0516010BD00C005503D620008FFFF0100B3
S315080026E0304B70B5984204460D4604D040F2FD21A1
S315080026F02D4802F0E9FC2046FFF7C6FF012304F542
S3150800270080567360AB7C1BB1A36843F08043A3601B
S31508002710EB7C5BB1234B9C4202BF2A7DA3F51033A9
S31508002720C3F8D421E36D43F08003E3652A8A6B7B03
S3150800273020461343EA891343E3602B7BD5E901124C
S31508002740FFF714FF6B7D1BB1A36843F48033A360C6
S31508002750AB7D1BB1A36843F40043A360EB7D2A7EDF
S315080027601B07120502F4E00203F0E0431343A365D6
S315080027706B7E9A1E012A4FF0020209D80B49032BD9
S31508002780C1F8982709D10423F3652B78636170BDD6
S315080027900749012BC1F89827F4E7042204F50053EA
S315080027A0DA65F2E700C005503D62000800D0035024
S315080027B000E0035010B54FF42F720021044603F0D1
S315080027C06CFB8023C4F88C30054B04F19C00C4F8DC
S315080027D08430012384F88830BDE8104002F075BCC7
S315080027E0A562000810B5D0F8A0400A4684B902F0E0
S315080027F0EAFE044610B90024204610BD2D2896BFCF
S31508002800064B074953F82010064803F022F8F3E769
S31508002810D0F8A4101046A047EDE700BF50630008A3
S31508002820A8620008B6620008F8B590F88060044609
S3150800283016B100263046F8BD02F012FD0028F8D180
S31508002840012384F8803094F8883033B1D4F88410A2
S31508002850194884F8886002F0FCFF4FF0FF37D4F877
S31508002860B402421C1CD0C4F8B47210F0FF0520D084
S31508002870204602F0F2FC2946204600F0AFFB00286D
S31508002880EDD0204602F0EEFC94F888306BB1D4F80F
S315080028908410094802F0DDFF002384F8883004E03C
S315080028A002F0BCFF431CE0D10126002384F88030E7
S315080028B0C0E70126D3E700BF83640008F8B50B78A4
S315080028C00446302B0D46164604D14B7803F0DF0339
S315080028D0582B11D0284F6A1E12F8011F002934D12F
S315080028E028460A2202F0BCFB202C03460D4631D1AD
S315080028F0B1FA81F040091AE04A1C1F4912F8013F53
S315080029008BB9284603F0FAFA1C4B02382340032BEE
S3150800291012D10134A41084420AD1A87837288CBF72
S315080029200020012003E0CB5C13F04400E6D1F8BD9B
S31508002930CCBF01200020FAE7002CB8BF0334B0EB67
S31508002940A40FD4BF01200020F1E77B5C13F004003C
S31508002950C2D1ECE726B1084302D0013B61F100057C
S315080029600122A240013A1A40002D08BF9A420CBF24
S3150800297001200020DBE700BF526600080300008044
S31508002980F0B5037801467B2B17D1064602240022B0
S315080029900B4F16F8015F7D2D05D10B5D6BB9D24340
S315080029A002F0010008E07B5D13F0440002D001321A
S315080029B00134EEE7202DFBD0F0BD0020FCE700BF78
S315080029C05266000870B506460D4603F097FA0446A7
S315080029D0304602F03EFF044EAC4200D370BD30468E
S315080029E002F037FF0134F7E7766400082DE9F84F5F
S315080029F0044602216048FFF7E5FF1E212068FFF71D
S31508002A00E1FF6368586802F024FF5C4802F021FF82
S31508002A1067683B7BFD2B12D8D7F808804FF0FF3448
S31508002A20404603F06BFA0646DFF84C91DFF8A8A19A
S31508002A30DFF864B10C3717F8013BFF2B01D1BDE86D
S31508002A40F88F212B14D8212B14D8DFE803F0178C24
S31508002A508884807C78741313131313131313706C00
S31508002A606864605C58541313131313131313504CF0
S31508002A70FE2B34D006B10134414D02E006B10134D3
S31508002A80404D02214846FFF79DFF1E214846FFF7A5
S31508002A9099FF504602F0DDFE5946284603F017FA1C
S31508002AA03949002818BF2946384802F0D2FE3B7833
S31508002AB0202B02D12B2002F0C0FE354802F0C9FEB9
S31508002AC04EB118F804301F2B05D018F804001F283B
S31508002AD001D0B4424BDB294802F0BBFEABE706B196
S31508002AE001342C4DCDE706B101342B4DC9E7002E34
S31508002AF0A1D001349FE706B10134284DC1E706B1DC
S31508002B000134274DBDE706B10134264DB9E706B1B4
S31508002B100134254DB5E706B10134244DB1E706B1B8
S31508002B200134234DADE706B10134224DA9E706B1BC
S31508002B300134214DA5E706B10134204DA1E706B1C0
S31508002B4001341F4D9DE706B101341E4D99E706B1C4
S31508002B5001341D4D95E706B101341C4D91E706B1C8
S31508002B6001341B4D8DE706B101341A4D89E702F091
S31508002B7064FE0134A9E700BF8A6400084F660008AE
S31508002B80156400080F6400086C6400088364000874
S31508002B90706400081D640008236400082C6400089B
S31508002BA0336400083E64000848640008526400085C
S31508002BB03D64000847640008516400085A64000828
S31508002BC05E6400086664000809640008106400086A
S31508002BD065640008086400086E6400082DE9F04F73
S31508002BE093B005468B4600240092049303F086F9B9
S31508002BF01C9F049B05901C6028463C600AAA09A9EC
S31508002C0002F048FE064658B90A9803F077F93446A2
S31508002C10B146049B1860D5F89C300393039B1BB9F7
S31508002C20204613B0BDE8F08F039B9B680193002BE9
S31508002C3069D02E4416F8013B202B12D000260C230F
S31508002C407343019A02EB030AD3580293002B55D01B
S31508002C50DDF82480C84551DB9AF808302BB1721C80
S31508002C6035E03B6801333B60E4E73B68D5F89420E0
S31508002C700299D21A049B1A6012AB03EB890353F824
S31508002C80203C1846069303F010F907900028E6D171
S31508002C90029803F033F9DAF804100346087BD7F8EC
S31508002CA000A0FE28079A16D108F1FF38C8452ED08D
S31508002CB00B6806980292019303F020F90AF10103C2
S31508002CC0029A0344E95C21B13B6009F10109164601
S31508002CD0B5E70133F6E7D5F89420A2EB0A029A4243
S31508002CE0BDDC5846069303F009F9069B03447B2B83
S31508002CF01DD958461E4A009902F00AFA2B46059A2B
S31508002D002A449A422AD1039B1B68039386E7D5F87F
S31508002D109420A2EB0A029A42E3DDD1F8008058F823
S31508002D200C2B82B9059B3B60049B1A60E6E7584664
S31508002D30029A009902F0ECF958460E4A00990134B5
S31508002D4002F0E6F98BE75846009902F0E1F9584691
S31508002D50084A009902F0DCF90134E0E713F8011B90
S31508002D600029CED14FF0200103F8011CC9E700BFA6
S31508002D7073640008766400082DE9F047002486B0DD
S31508002D801C60DDE90EA8064689468AF800401168E7
S31508002D90154888F8004017461D468DF81740FDF778
S31508002DA0C7FD18B901242B6801332B600020D6F81B
S31508002DB09C6036B914B1012388F8003006B0BDE826
S31508002DC0F087B06868B14B460021CDE902A8CDE985
S31508002DD000750DF1170202F093FB9DF81730002BD2
S31508002DE0E8D13668E5E700BF786400082DE9F043C6
S31508002DF000260446ADF5457D7C22314605A802AF7E
S31508002E00049603F04AF880222046009703AB04A9EB
S31508002E10FFF7E4FE01283ED104A803F06FF80399F2
S31508002E203B68A0EB01080B44234428EAE8780546EA
S31508002E3004A801444246184603F053F800F808600F
S31508002E40D4F89060039B3968D4F890201944B142AD
S31508002E5012DCD4F89410E81A0244C4F8902001440D
S31508002E6004AAC4F89410D41825182B1B002B0DDCC3
S31508002E700DF5457DBDE8F083A05C02F0DEFCD4F8D4
S31508002E80903001360133C4F89030DBE714F8010BB3
S31508002E9002F0D3FCE9E7EBDD24AD80223146284673
S31508002EA002F0FBFF44AB4FF400723146184602F0BD
S31508002EB0F4FF0DF1100903464A464FF00108314662
S31508002EC012F8016B002E49D104A843F8281003F024
S31508002ED015F82946334619F8016B0DF5887C5CF818
S31508002EE0042B824243D10133984501F8016BF2DA8B
S31508002EF0D4F89060039BB34242DC2346354A04A9C2
S31508002F00354802F0A6FC284602F0F8FF0646039B61
S31508002F103F68F61A1F44E0191D4426EAE67204F1D2
S31508002F2098031744984204EB07014ED204F1900324
S31508002F3099424AD96A1E81190B1A002B39DD12F8F3
S31508002F40013F00F8013BD4F890300133C4F89030C3
S31508002F50D4F894300133C4F89430EDE7202E01F10B
S31508002F60010104BF43F8281008F10108A8E70DF18C
S31508002F70100E7244D25CB242B1D00022EA54B7E7CE
S31508002F80D4F890300136E05C02F057FCD4F8903063
S31508002F900133C4F89030ADE7D4F89020013B0132F4
S31508002FA0C4F89020D4F894200132C4F89420002B59
S31508002FB0F2DC00232E44E355731B002B7FF758AF32
S31508002FC015F8010B02F039FCF6E7294602F089FFED
S31508002FD03346ECE7A56200087D6400082DE9F8434E
S31508002FE0D0E9245604460F46002294F89830012B5F
S31508002FF007D10A2F07D1002384F898300020BDE8AE
S31508003000F88300F29F801B2F01D10223F4E70D2FCE
S315080030100DD1012384F898300D2002F00EFC0A2009
S3150800302002F00BFC00230120C4E92433E7E74FF044
S315080030300008082F84F8988034D1454530DDB5421C
S315080030400FD1384602F0F9FB202002F0F6FB013DCD
S31508003050384602F0F2FB013E04F80580C4E924561E
S31508003060CCE7FBDA05F1FF39384602F0E6FB04EB5C
S315080030700903A6EB09026119184602F0F4FE04F8E2
S3150800308006800146013E484802F0E3FB35464D45B9
S3150800309001DC4D46E2E7082002F0CFFB013DF6E7EA
S315080030A0ACD0DBE77F2F1CD1002EA7DDB542A5DA11
S315080030B06319691C21441846721B02F0D4FE04F8F1
S315080030C006800146394802F0C4FB0820013E02F09A
S315080030D0B4FBB542F9D1D4F89430013BC4F8943026
S315080030E08CE70A2F98D0092F03D12046FFF77EFEDA
S315080030F084E7D4F88C30013BB3427FF77FAFB54203
S3150800310004EB050805F101090CDB384688F8007060
S31508003110D4F89430C4F890900133C4F8943002F08F
S315080031208CFB6BE74146721B04EB090002F09BFE21
S31508003130404602F08EFB0820013E02F07EFBB542B7
S31508003140F9DDE2E7022B06D15B2F01D1032353E712
S3150800315084F8982049E7032B7FF450AF413F84F861
S315080031609820032F3FF64AAFDFE807F002070A1652
S315080031700121204602F012FB40E74FF0FF31F8E745
S31508003180B542BFF63BAF605D02F057FBD4F890300E
S315080031900133C4F8903031E7002D7FF72FAF013D9A
S315080031A00820C4F89050BAE7866400088B640008C3
S315080031B013B50024064A6846536F43F00103536764
S315080031C000948DF80440FEF737FF204602B010BD84
S315080031D00040005030B58BB06C46174D0FCD0FC46C
S315080031E00FCD0FC495E8030084E80300134BD3F80A
S315080031F04C2112031CD5A3F5FE431C884FF6FF731A
S315080032009C4208BF8C248DF81940FEF7E1FD204446
S3150800321080F308008DF818000948FDF75BFC68463E
S31508003220FEF7BAFC0A20FEF741FE00200BB030BDBF
S31508003230D3F85041E4B2E6E7906400080080E00F56
S31508003240C017530230B5094D87B001AC0FCD0FC476
S315080032502B6801A823603F238DF80530FEF7BEFDD5
S315080032601420FEF71DFE002007B030BDB864000824
S315080032706FF00403502110B50A480B4C13F0800F69
S3150800328003F1010207D123444F2A83F8001313469A
S31508003290F4D1002010BD03F00F03043B0344197654
S315080032A01346EBE700ED00E000E100E010B5044648
S315080032B001F0A7FF024B1C6001F0A7FF002010BD1C
S315080032C02012002010B501F09CFF034B1C6801F08A
S315080032D09CFF204610BD00BF20120020302238B5C2
S315080032E0037A0446534303F1A04303F58023DD6EB6
S315080032F0D0E9032313449D4201D8AA4204D94FF4C6
S315080033003E71054801F0E0FED4E9030303449D42FB
S3150800331018BF284638BD00BFCC64000830B514462F
S31508003320054687B01046FFF7D9FF63690246834210
S315080033303CBFD4E903315B181B1AABB1124904949C
S3150800334003910021CDE90131012300932846D4E9F0
S31508003350001301F005FF20B14FF434710B4801F05A
S31508003360B3FE002007B030BD0122627694F82D2006
S31508003370002AF6D084F835301321E36920469847A9
S315080033802046636A9847ECE71D330008CC640008BA
S315080033902DE9F04788B004460F461646984601F0D0
S315080033A037FF8146002E00F0AD80237E03F0FF0232
S315080033B0002B00F0E0802046FFF790FF6369824605
S315080033C0984206D1637E23B940F27F316B4801F0FB
S315080033D07BFE6569AA459DBFD4E903329B185D1B30
S315080033E0AAEB0505B54228BF354601F011FF94F84A
S315080033F02D308246002B40F096802A463846616971
S3150800340002F06FFD63692E462B4463612CE0606908
S31508003410037803F0FD01112940F08280216B884270
S3150800342005D1A3F111014B424B4184F83430013EDA
S315080034306369216B01328B4203F1010308BF2363E1
S3150800344063619542E3D1D4E90323216B134499427E
S3150800345008BF2263216B8A4201D88B4204D84FF4F5
S315080034606D71464801F030FED4E9032361691344BF
S31508003470994208BF626161698A4201D88B4204D8C1
S315080034804FF471713D4801F01FFE0023207A6376E0
S31508003490FDF7E6FC20B140F21131384801F014FE80
S315080034A02046FFF71BFF636983423FD10023E56887
S315080034B0237694F82D30656103B125632046636A47
S315080034C098472F4B049403930023029323692A46B3
S315080034D001930123009363682168207A01F040FE76
S315080034E020B140F22D31254801F0EEFD207AFDF796
S315080034F0D7FC20B140F25131204801F0E5FD504695
S3150800350001F08CFE4846C8F8006001F087FED8F83E
S315080035100030002B0CBF1B20002008B0BDE8F08748
S3150800352007F8013B84E72E4600228AE70123207A22
S3150800353023760DF11E01FDF71BFD20B14FF45071E6
S315080035400E4801F0C1FD9DF81E30207A002BCDD023
S315080035500DF11F01FDF7E4FC20B140F246310748A2
S3150800356001F0B2FD9DF81F10207A0029BED122462F
S31508003570FFF7D4FEBAE71646C4E700BFCC640008D6
S315080035801D33000870B504460568FFF79BFE8442A4
S3150800359002D10020FFF78AFE95F93630002B11DBA1
S315080035A0012203F01F015B099B0003F160438A4077
S315080035B003F56143C3F88021C3F88020BFF34F8F1A
S315080035C0BFF36F8F287AFDF78BFC20B14FF4ED71AE
S315080035D0104801F079FD287AFDF7E8FB20B14FF491
S315080035E0EF710C4801F070FDFDF7BEFB38B10A4BD0
S315080035F0984204D04FF4F171064801F065FD0023A6
S315080036002846C4E90033C4E90433A360AB6ABDE8BD
S3150800361070401847CC640008058000F02DE9F8438F
S3150800362004460D4690F82C80DFF8AC908E18AE4212
S3150800363028D094F82D3083B101F0EAFD237E0746A1
S315080036401BBB226B63699A4204D040F2F9114846C3
S3150800365001F03AFD384601F0E1FD94F83430002BCC
S31508003660E5D0B8F1000F06D02B780A2B03D10D212F
S315080036702046E36998472046E36915F8011B9847F1
S315080036800028D4D00020BDE8F8832046FFF726FEA0
S31508003690E1680138884238BF2069D4F830C03CBF99
S315080036A000F1FF30401803469C450BD013F801295A
S315080036B0112A01D0132A07D1A2F111035A425A41FD
S315080036C084F834202063C5E7994282BF236903F151
S315080036D0FF335B18E8E700BFCC640008F0B50C467A
S315080036E00646154687B03822002120461F4602F0B6
S315080036F0D4FB95E8030000232A692376EB6884E85F
S315080037000300C4E904232A7DE36084F82C20AA7DFB
S315080037102363012384F8343084F835300C9B84F80D
S315080037202D2023620D9BE76163620E9BA3622B7AB1
S3150800373084F83630204B34607360204BB360204BDE
S315080037403361204B7361204BF360FDF755FB30B1B5
S315080037501E4B984203D01024204607B0F0BD002126
S3150800376004F10800FDF7D0FA0028F4D10127184B18
S315080037700494CDE902032369009701936368E2681C
S315080037802168207A01F0ECFC04460028E3D195F97B
S315080037900830002B0BDB03F01F025B099B0003F1CB
S315080037A06043974003F56143C3F880711F60304654
S315080037B0FFF77CFDD0E700BF1D36000891330008EF
S315080037C0F1590008F759000885350008038000F00C
S315080037D01D3300082DE9F0411C46574B86B002936D
S315080037E0564B0127019300230C9D00939046CDE983
S315080037F003770A46524B2946FFF770FF064600280C
S3150800380040F0918023683946AB6363683A20EB63DE
S31508003810637A85F84130237A85F84030E37A85F86B
S315080038204330A37A85F84230637B85F84530237B9D
S3150800383085F84430E37B85F84730A37B85F8463026
S31508003840FDF7E8FE3B460422617A207AFEF7FCFC87
S315080038503B460222E17AA07AFEF7F6FC3946606812
S31508003860FDF7D8FE88F8006041462068FEF738FF65
S315080038701422637C5B0103F1A04303F57033C3F89C
S315080038809827617A227A42EA0142C3F8B027E17A98
S31508003890A27A42EA0142C3F8A82785F8486098F850
S315080038A01930032B45D8DFE803F03542021C022302
S315080038B085F8483000230422E17BA07BFEF7C4FC90
S315080038C0022741F29871627C1E4B03EB4210475067
S315080038D0E07BA17BBD3241EA004103EB421359600C
S315080038E018E0012785F8483002220023617B207BF7
S315080038F0FEF7AAFC617B637C227BBD3342EA014268
S3150800390010495B01CA500422236803F58053DA651F
S31508003910002FCFD1AA6B0521D36C206843F004038E
S31508003920D364FEF793FE304606B0BDE8F081002763
S31508003930D8E72326F7E700BF095A0008FD5900080B
S31508003940815A000800C003502DE9F04F9B4691B0FC
S315080039500B1E0A93AD4B904614BF81469946002428
S315080039601A9E9BF8000070B9444538BF2246434664
S315080039704FF000000A9928BF08F1FF32C8472046D1
S3150800398011B0BDE8F08F25280BF1010B06D02246B1
S3150800399043460A99651CC8472C46E2E700230DE012
S315080039A02D2A2AD0302A06D0303A092A4FF00007A5
S315080039B011D80A2532E043F001038B46594611F81F
S315080039C0012B2B2A1CD0EBD8202A1CD0232A1DD049
S315080039D02A2A2BD000279BF800202E2A64D19BF890
S315080039E001100BF10102A1F13000092843F48063AC
S315080039F051D800254FF00A0C26E043F00203DCE715
S31508003A0043F00403D9E743F00803D6E743F010036D
S31508003A10D3E78B4605FB0722A2F13007594611F872
S31508003A20012BA2F130000928F3D9D4E756F8047B14
S31508003A308B46002FBCBF43F002037F42CBE702460A
S31508003A400CFB0511A1F13005104610F8011BA1F178
S31508003A50300EBEF1090FF2D9114611F8010B6C2888
S31508003A602CD024D8682830D06A2837D011468B46FF
S31508003A701BF8010B672875D857284BD8452807D057
S31508003A8085D9462800F03181472880D143F4006360
S31508003A9043F020033FE12A2907D156F8045B0BF1CE
S31508003AA0020225EAE575D7E75A460025D4E77428C1
S31508003AB001D07A28DAD143F48073D8E750786C2895
S31508003AC0F9D143F44073911CD1E75078682802D0A5
S31508003AD043F08003CBE743F0C003F4E743F40073F5
S31508003AE0C5E70A2A00F06281072A7FF450AF43F03F
S31508003AF0210305930823CDE903531023CDE90113C8
S31508003B0056F8043B22460093484643460A9902F073
S31508003B10EEF8FAE0A0F158020F2A3FF638AF01A1F5
S31508003B2051F822F0953B00088F3900088F390008B4
S31508003B308F3900088F3900088F3900088F39000837
S31508003B408F3900088F3900088F390008953B00081F
S31508003B50353D0008953B00080F3D0008EF3C00087E
S31508003B600F3D0008A0F16902D2B20F2A3FF60FAF47
S31508003B70012149F2410C914011EA0C01B1D0782893
S31508003B8003F4806122D1002900F0908023F00D0211
S31508003B90102307E0622803F4806220D142BB23F099
S31508003BA00C02022312F4007100F08380CDE907723B
S31508003BB00022CDE9043206F1070A2AF0070A06951B
S31508003BC00292FAE80223CDE900233DE06F2812D1DC
S31508003BD023F00C0209B123F00D020823E2E7582866
S31508003BE016D1002A39D123F00C0242F02002CFE781
S31508003BF023F00D02D5E7692823F0100230D023F010
S31508003C001C0209B123F01D020A23CBE72D5B00082D
S31508003C1042BB23F01002930527D5073626F0070680
S31508003C20B24671685AF8083B0A26CDE9077200279A
S31508003C30CA0F0029CDE904670695029202DA5B42AB
S31508003C4061EB4101CDE900314346224648460A99CF
S31508003C5002F090F80446564683E623F00D02C4E7C0
S31508003C600029D8D023F01102D5E7D00506F1040AB9
S31508003C7001D5336802E0510613D53378CDE90472CD
S31508003C800A22002B02924FEAD37203950192B8BF1B
S31508003C905B4200934346224648460A9902F027F8B3
S31508003CA0D8E71306E5D5B6F90030E7E723F00C02A6
S31508003CB06EE7D00506F1040A06D5CDE90472CDE90A
S31508003CC0023501913368E4E7510608D53178CDE924
S31508003CD002350023CDE90472CDE90013DAE731682D
S31508003CE012F0800F18BF89B2F1E743F02003CDE93F
S31508003CF00173073626F007060095B6EC020B434615
S31508003D00224648460A99FCF7F7FB044629E667283F
S31508003D1001D143F40063CDE90173073626F007069F
S31508003D200095B6EC020B4346224648460A99FCF72C
S31508003D3027FAEAE713F0020523D04FF0010A631CBD
S31508003D400B93224643460A9916F8040BC8475DB3F7
S31508003D5054460B9A1EE0434620200A99C8470AEBA8
S31508003D6004020AF1010A5745F5D8002F07F1FF3377
S31508003D7008BF002307F1010A1C4408BF4FF0020AD6
S31508003D80DDE7AA46EBE7551C434620200A99C847B3
S31508003D902A460134BC42F6D3A7EB0A03574538BF77
S31508003DA000230B9A1A440B920B9CDAE53246002D37
S31508003DB052F8046B14BF29464FF0FF310B92324676
S31508003DC03144107808B18A4211D1A2EB060A13F4DD
S31508003DD080620C9202D0AA4528BFAA4613F00203B5
S31508003DE00D931BD1AAEB040322460F9308E0013278
S31508003DF0E7E7531C0E93202043460A99C8470E9AB4
S31508003E000F9BD3189F42F4D8A7EB0A03574538BF30
S31508003E1000230AF101021C4403EB020AA31B0E93BA
S31508003E2004E01D46434622460A99C8470E9BF418E5
S31508003E3016F8010B28B10C9B002BF3D06B1E002D36
S31508003E40EFD10D9B93B12246AAEB040505E0561C5B
S31508003E50434620200A99C847324653199F42F6D846
S31508003E60A7EB0A03574538BF00231C440B9E78E589
S31508003E700FB41FB506AA52F8043B02A90392009292
S31508003E8004484FF0FF32FFF75FFD05B05DF804EB1D
S31508003E9004B07047135E00081FB5034600914FF043
S31508003EA0FF3203A90248FFF74FFD05B05DF804FB92
S31508003EB0135E000830B50A4C0A4B22680A4D1A6090
S31508003EC00A4B85B02B600A4B0193FFF7FBF92B6869
S31508003ED0029001A92068039301F0D7F905B030BD17
S31508003EE01C1000201C1200201812002010100020A0
S31508003EF0B065000838B5FFF7E5F90446064D2B68A6
S31508003F00D3F8B002FFF7D2F9286801F0D2F92046B3
S31508003F10BDE83840FFF7CAB91C10002010B5274C79
S31508003F20FDF72CFEFEF75EF8236F23F0070343F038
S31508003F300303236701F050F9214B00209B6ADB013C
S31508003F405EBF4FF480321F4B9A62D4F8203123F0BB
S31508003F50070343F00203C4F82031D4F8283123F0CC
S31508003F60070343F00203C4F82831D4F8403123F09C
S31508003F70030343F00203C4F84031D4F8603123F058
S31508003F80030343F00203C4F86031D4F8403223F047
S31508003F90030343F00203C4F84032D4F8003223F096
S31508003FA0070343F00203C4F80032D4F8083223F0BA
S31508003FB0070343F00203C4F8083210BD008000501E
S31508003FC00040005A0060005A30B5204D95B00DAC3F
S31508003FD00FCD0FC495E80700292384E807001C4A7B
S31508003FE00021CDE902230523CDE904118DF811300E
S31508003FF004230E220DF1260006918DF8133001F0E8
S315080040004CFF4FF48021134B1348CDE907130923BE
S315080040108DF824300A238DF82530104B0DAA0A9303
S3150800402020230B9340F20113ADF830300C4B07A94F
S31508004030009302ABFFF7CEFB044618B18621094868
S3150800404001F042F8204615B030BD00BF28660008CA
S3150800405000C0055024C005503015002087160020E2
S31508004060E4140020C165000808B5FFF7ADFF28B1C4
S31508004070BDE808409A21024801F026B808BD00BFED
S31508004080C1650008014801F001BD00BF30150020D8
S3150800409008B501F033FD01F0C4FE0448FFF7E8FE59
S315080040A001F039FD01F0BEFEFAE700BF44660008DC
S315080040B081F0004102E000BF83F0004330B54FEACB
S315080040C041044FEA430594EA050F08BF90EA020F38
S315080040D01FBF54EA000C55EA020C7FEA645C7FEACB
S315080040E0655C00F0E2804FEA5454D4EB5555B8BFEE
S315080040F06D420CDD2C4480EA020281EA030382EA5F
S31508004100000083EA010180EA020281EA0303362DF0
S3150800411088BF30BD11F0004F4FEA01314FF4801CC3
S315080041204CEA113102D0404261EB410113F0004FD5
S315080041304FEA03334CEA133302D0524263EB43038C
S3150800414094EA050F00F0A780A4F10104D5F1200E2A
S315080041500DDB02FA0EFC22FA05F2801841F1000185
S3150800416003FA0EF2801843FA05F359410EE0A5F159
S3150800417020050EF1200E012A03FA0EFC28BF4CF08A
S31508004180020C43FA05F3C01851EBE37101F0004540
S3150800419007D54FF0000EDCF1000C7EEB00006EEB4D
S315080041A00101B1F5801F1BD3B1F5001F0CD34908D7
S315080041B05FEA30004FEA3C0C04F101044FEA44522E
S315080041C012F5800F80F09A80BCF1004F08BF5FEAB5
S315080041D0500C50F1000041EB045141EA050130BD95
S315080041E05FEA4C0C404141EB0101013C28BFB1F5A7
S315080041F0801FE9D291F0000F04BF01460020B1FAF2
S3150800420081F308BF2033A3F10B03B3F120020CDAC4
S315080042100C3208DD02F1140CC2F10C0201FA0CF0A2
S3150800422021FA02F10CE002F11402D8BFC2F1200C07
S3150800423001FA02F120FA0CFCDCBF41EA0C019040BD
S31508004240E41AA2BF01EB0451294330BD6FEA040406
S315080042501F3C1CDA0C340EDC04F11404C4F12002F1
S3150800426020FA04F001FA02F340EA030021FA04F303
S3150800427045EA030130BDC4F10C04C4F1200220FA5A
S3150800428002F001FA04F340EA0300294630BD21FA98
S3150800429004F0294630BD94F0000F83F4801306BF5E
S315080042A081F480110134013D4EE77FEA645C18BF52
S315080042B07FEA655C29D094EA050F08BF90EA020FE9
S315080042C005D054EA000C04BF1946104630BD91EAE1
S315080042D0030F1EBF0021002030BD5FEA545C05D1E4
S315080042E04000494128BF41F0004130BD14F5800423
S315080042F03CBF01F5801130BD01F0004545F0FE4197
S3150800430041F470014FF0000030BD7FEA645C1ABFCB
S31508004310194610467FEA655C1CBF0B46024650EA02
S31508004320013406BF52EA033591EA030F41F400212E
S3150800433030BD00BF90F0000F04BF0021704730B5B4
S315080043404FF4806404F132044FF000054FF0000189
S3150800435050E700BF90F0000F04BF0021704730B54A
S315080043604FF4806404F1320410F0004548BF40421F
S315080043704FF000013EE700BF42004FEAE2014FEA74
S3150800438031014FEA02701FBF12F07F4393F07F4F4F
S3150800439081F06051704732F07F4208BF704793F052
S315080043A07F4F04BF41F40021704730B54FF4607465
S315080043B001F0004521F000411CE700BF50EA010268
S315080043C008BF704730B54FF000050AE050EA010211
S315080043D008BF704730B511F0004502D5404261EB81
S315080043E041014FF4806404F132045FEA915C3FF4C2
S315080043F0D8AE4FF003025FEADC0C18BF03325FEA5F
S31508004400DC0C18BF033202EBDC02C2F1200300FA0F
S3150800441003FC20FA02F001FA03FE40EA0E0021FA34
S3150800442002F11444BDE600BF70B54FF0FF0C4CF422
S31508004430E06C1CEA11541DBF1CEA135594EA0C0FD4
S3150800444095EA0C0F00F0DEF82C4481EA030621EA0F
S315080044504C5123EA4C5350EA013518BF52EA03354A
S3150800446041F4801143F4801338D0A0FB02CE4FF0FC
S315080044700005E1FB02E506F00042E0FB03E54FF02C
S315080044800006E1FB03569CF0000F18BF4EF0010E24
S31508004490A4F1FF04B6F5007F64F5407404D25FEA20
S315080044A04E0E6D4146EB060642EAC62141EA5551D3
S315080044B04FEAC52040EA5E504FEACE2EB4F1FD0C15
S315080044C088BFBCF5E06F1ED8BEF1004F08BF5FEA93
S315080044D0500E50F1000041EB045170BD06F0004645
S315080044E046EA010140EA020081EA0301B4EB5C04F2
S315080044F0C2BFD4EB0C0541EA045170BD41F48011EA
S315080045004FF0000E013C00F3AB8014F1360FDEBF0E
S31508004510002001F0004170BDC4F10004203C35DAEA
S315080045200C341BDC04F11404C4F1200500FA05F36D
S3150800453020FA04F001FA05F240EA020001F000420E
S3150800454021F0004110EBD37021FA04F642EB060184
S315080045505EEA430E08BF20EAD37070BDC4F10C04AE
S31508004560C4F1200500FA04F320FA05F001FA04F272
S3150800457040EA020001F0004110EBD37041F100015E
S315080045805EEA430E08BF20EAD37070BDC4F1200569
S3150800459000FA05F24EEA020E20FA04F301FA05F2D1
S315080045A043EA020321FA04F001F0004121FA04F279
S315080045B020EA020000EBD3705EEA430E08BF20EA49
S315080045C0D37070BD94F0000F0FD101F00046400083
S315080045D041EB010111F4801F08BF013CF7D041EA05
S315080045E0060195F0000F18BF704703F00046520009
S315080045F043EB030313F4801F08BF013DF7D043EADA
S315080046000603704794EA0C0F0CEA135518BF95EA8F
S315080046100C0F0CD050EA410618BF52EA4306D1D116
S3150800462081EA030101F000414FF0000070BD50EA35
S31508004630410606BF1046194652EA430619D094EABF
S315080046400C0F02D150EA013613D195EA0C0F05D1A9
S3150800465052EA03361CBF104619460AD181EA0301FD
S3150800466001F0004141F0FE4141F470014FF00000B5
S3150800467070BD41F0FE4141F4780170BD70B54FF050
S31508004680FF0C4CF4E06C1CEA11541DBF1CEA1355D0
S3150800469094EA0C0F95EA0C0F00F0A7F8A4EB0504B2
S315080046A081EA030E52EA03354FEA013100F08880A9
S315080046B04FEA03334FF0805545EA131343EA126372
S315080046C04FEA022245EA111545EA10654FEA002627
S315080046D00EF000419D4208BF964244F1FD0404F5E0
S315080046E0407402D25B084FEA3202B61A65EB03053C
S315080046F05B084FEA32024FF480104FF4002CB6EBF9
S31508004700020E75EB030E22BFB61A754640EA0C0078
S315080047105B084FEA3202B6EB020E75EB030E22BFB8
S31508004720B61A754640EA5C005B084FEA3202B6EBF9
S31508004730020E75EB030E22BFB61A754640EA9C00B8
S315080047405B084FEA3202B6EB020E75EB030E22BF88
S31508004750B61A754640EADC0055EA060E18D04FEA46
S31508004760051545EA16754FEA06164FEAC30343EAE6
S3150800477052734FEAC2025FEA1C1CC0D111F4801FB3
S315080047800BD141EA00014FF000004FF0004CB6E7AC
S3150800479011F4801F04BF01430020B4F1FD0C88BF4B
S315080047A0BCF5E06F3FF6AFAEB5EB030C04BFB6EB56
S315080047B0020C5FEA500C50F1000041EB045170BD49
S315080047C00EF0004E4EEA113114EB5C04C2BFD4EB76
S315080047D00C0541EA045170BD41F480114FF0000EFA
S315080047E0013C90E645EA060E8DE60CEA135594EA76
S315080047F00C0F08BF95EA0C0F3FF43BAF94EA0C0F79
S315080048000AD150EA01347FF434AF95EA0C0F7FF4ED
S3150800481025AF104619462CE795EA0C0F06D152EA41
S3150800482003353FF4FDAE1046194622E750EA410625
S3150800483018BF52EA43067FF4C5AE50EA41047FF436
S315080048400DAF52EA43057FF4EBAE12E74FF0FF3C9B
S3150800485006E000BF4FF0010C02E000BF4FF0010C6C
S315080048604DF804CD4FEA410C7FEA6C5C4FEA430CE5
S3150800487018BF7FEA6C5C1BD001B050EA410C0CBF34
S3150800488052EA430C91EA030F02BF90EA020F002096
S31508004890704710F1000F91EA030F58BF994208BFFD
S315080048A090422CBFD8176FEAE37040F001007047BA
S315080048B04FEA410C7FEA6C5C02D150EA013C07D111
S315080048C04FEA430C7FEA6C5CD6D152EA033CD3D05C
S315080048D05DF8040B704700BF8446104662468C4656
S315080048E01946634600E000BF01B5FFF7B7FF002889
S315080048F048BF10F1000F01BD4DF808EDFFF7F4FFB2
S315080049000CBF012000205DF808FB00BF4DF808ED3C
S31508004910FFF7EAFF34BF012000205DF808FB00BF5F
S315080049204DF808EDFFF7E0FF94BF012000205DF881
S3150800493008FB00BF4DF808EDFFF7CEFF94BF012036
S3150800494000205DF808FB00BF4DF808EDFFF7C4FF2F
S3150800495034BF012000205DF808FB00BF4FEA410282
S3150800496012F5001215D211D56FF47873B3EB6252B3
S3150800497012D94FEAC12343F0004343EA505311F0DA
S31508004980004F23FA02F018BF404270474FF000006C
S31508004990704750EA013005D111F0004008BF6FF0AA
S315080049A0004070474FF00000704700BF4A0011D220
S315080049B012F5001211D20DD56FF47873B3EB62526B
S315080049C00ED44FEAC12343F0004343EA505323FA77
S315080049D002F070474FF00000704750EA013002D1EC
S315080049E04FF0FF3070474FF00000704753B94AB98F
S315080049F0002908BF00281CBF4FF0FF314FF0FF30D9
S31508004A0000F082B9ADF1080C6DE904CE00F006F8A5
S31508004A10DDF804E0DDE9022304B070472DE9F04F24
S31508004A20099D0C46002B4DD18A420F468446964670
S31508004A30B2FA82F360D94BB102FA03FEC3F120023F
S31508004A409F4000FA03FC20FA02F217434FEA1E467B
S31508004A501FFA8EF44FEA1C42B7FBF6F106FB1177F4
S31508004A6001FB04F042EA0742904208D91EEB020213
S31508004A7001F1FF3702D2904200F231813946121A0B
S31508004A801FFA8CFCB2FBF6F006FB102200FB04F4BE
S31508004A904CEA024C644508D91EEB0C0C00F1FF32B7
S31508004AA002D2644500F21E81104640EA0140ACEB92
S31508004AB0040C002125B12CFA03F30022C5E90032C3
S31508004AC0BDE8F08F8B4205D90DB1C5E9000100217B
S31508004AD00846F5E7B3FA83F100294DD1A342C0F0A1
S31508004AE0F380904280F0F080064623460846002D63
S31508004AF0E6D0C5E90063E3E7002B40F0A3808A1AF5
S31508004B004FEA1E471FFA8EF60121B2FBF7F407FBA0
S31508004B1014204FEA1C4242EA004206FB04F0904287
S31508004B200FD91EEB020204F1FF382CBF4FF0010922
S31508004B304FF00009904203D9B9F1000F00F0CC807C
S31508004B404446121A1FFA8CFCB2FBF7F007FB102238
S31508004B5000FB06F64CEA024C664508D91EEB0C0C1F
S31508004B6000F1FF3202D2664500F2B3801046ACEB84
S31508004B70060C40EA04409DE7C1F120068B4004FA82
S31508004B8001FE22FA06F720FA06FCF4408A401F4383
S31508004B904EEA0C0300FA01FE4FEA17484FEA13499A
S31508004BA01FFA87FCB4FBF8F008FB104449EA0444F2
S31508004BB000FB0CF9A1450ED93C1900F1FF3A2CBFB0
S31508004BC04FF0010B4FF0000BA14503D9BBF1000FC5
S31508004BD000F08B805046A4EB09041FFA83F9B4FB56
S31508004BE0F8F308FB134403FB0CFC49EA0444A44508
S31508004BF006D93C1903F1FF3801D2A4457BD84346B0
S31508004C0043EA0040A4EB0C04A0FB02984445CC46BA
S31508004C10434602D306D1CE4504D20138B9EB020C7D
S31508004C2068EB0703002D6CD0BEEB0C0264EB0304A3
S31508004C3022FA01F304FA06F6CC4000211E43C5E920
S31508004C4000643DE702FA03FEC3F1200104FA03F209
S31508004C5000FA03FCCC404FEA1E4720FA01F11FFA7E
S31508004C608EF6B4FBF7F00A4307FB1044110C41EA31
S31508004C70044100FB06F48C420ED91EEB010100F13B
S31508004C80FF382CBF4FF001094FF000098C4202D9BA
S31508004C90B9F1000F2CD04046091B92B2B1FBF7F4CC
S31508004CA007FB141142EA014204FB06F1914207D9B7
S31508004CB01EEB020204F1FF3801D291421ED8444687
S31508004CC0521A44EA004120E7861A64EB03030120DE
S31508004CD00DE7F44402384AE7023C724431E70239E8
S31508004CE07244CCE6F4440238DFE602383C4472E704
S31508004CF002387144D0E7023B3C4481E7023C7244E7
S31508004D00DEE72946DCE600BF704700BF08B5064B5C
S31508004D10044613B10021AFF30080044B1B6803B1AE
S31508004D209847204600F007FA000000008016002089
S31508004D30242B2DE9F0478646904601D8012B06D14B
S31508004D4000F098F9162303600020BDE8F0870D46A9
S31508004D5035482A4615F8014B065D16F00806F8D1BF
S31508004D602D2C24D12C780126951C2BBB302C30D029
S31508004D700A2306F1004C00220CF1FF3C1046BCFB4E
S31508004D80F3F903FB19CAA4F13007092F28D83C46C2
S31508004D90A34234DD571C07D081452DD301D1A24546
S31508004DA02ADB00FB0340012215F8014BEBE72B2C0D
S31508004DB004BF2C78951CD8E7102BDAD1302CD8D123
S31508004DC02A7802F0DF02582AD3D16C7810230235EC
S31508004DD0CFE72B7803F0DF03582BF6D00823C8E774
S31508004DE0A4F14107192F01D8373CD1E7A4F161078F
S31508004DF0192F04D8573CCBE74FF0FF32D4E7531CA2
S31508004E0008D122236046CEF80030B8F1000F9CD0B6
S31508004E10691E06E006B14042B8F1000F95D0002A97
S31508004E20F6D1C8F8001090E75266000813460A46FD
S31508004E30014602480068FFF77BBF00BF201000202C
S31508004E402DE9F04386460D46354E284615F8014BA2
S31508004E50375D17F00807F8D12D2C26D12C780127B5
S31508004E60851C3BBB302C32D00A234FF0FF38002676
S31508004E70B8FBF3F803FB08F930466FEA0909A4F111
S31508004E80300CBCF1090F29D86446A34237DDB6F1C8
S31508004E90FF3F07D080452FD301D1A1452CDB00FB6E
S31508004EA00340012615F8014BE9E72B2C04BF2C78A3
S31508004EB0851CD6E7102BD8D1302CD6D1287800F00F
S31508004EC0DF005828D1D16C7810230235CDE72B782E
S31508004ED003F0DF03582BF6D00823C6E7A4F1410CEC
S31508004EE0BCF1190F01D8373CCFE7A4F1610CBCF12E
S31508004EF0190F04D8573CC8E74FF0FF36D2E7731CA2
S31508004F0006D122233046CEF8003032B9BDE8F08308
S31508004F1007B14042002AF9D006B1691E1160F5E7CB
S31508004F205266000813460A46014602480068FFF71B
S31508004F3087BF00BF201000202DE9F04F904685B0AE
S31508004F4089461E460D46454A02902B4615F8014BE2
S31508004F50175D17F00807F8D12D2C41D12C780127B9
S31508004F609D1C002E41D1302C4CD00A2607F1004A50
S31508004F7007F1FF3BF31732460AF1FF3A5846039307
S31508004F805146FFF733FD019200228E4684461146AC
S31508004F901046A4F13003092B05D9A4F14103192BB6
S31508004FA037D8A4F137039E423DDD541C15D08445FD
S31508004FB07EEB010234D38E4508BF844502D1019A9F
S31508004FC09A422DDB039A714300FB0211A6FB0002ED
S31508004FD00A44181842EBE371012215F8014BD8E789
S31508004FE02B2C04BF2C789D1CBBE7102EBED1302C71
S31508004FF0BCD12B7803F0DF03582BB7D16C78102679
S315080050000235B3E72B7803F0DF03582BF6D00826D2
S31508005010ACE7A4F16103192B05D8A4F15703C2E73D
S315080050204FF0FF32D9E7531C0AD12223029A584679
S3150800503051461360B8F1000F0AD105B0BDE8F08FEC
S3150800504017B1404261EB4101B8F1000FF5D00AB142
S3150800505005F1FF39C8F80090EFE700BF526600086F
S3150800506013460A46014602480068FFF765BF00BFB7
S3150800507020100020014B1868704700BF2010002040
S3150800508070B50D4D00260D4C641BA410A64209D11F
S315080050900B4D00260B4C00F043FF641BA410A642E0
S315080050A005D170BD55F8043B01369847EEE755F82B
S315080050B0043B01369847F2E7781000207810002064
S315080050C0781000207C100020FEE70023036070475C
S315080050D010B538B132B129B100230139D45C14B9FD
S315080050E00023037010BD8B42FAD200F8014B01333E
S315080050F0F4E7034638B10020814204D01A5C02B9AD
S3150800510070470130F8E770474FF0FF31FFF7F1BFFE
S3150800511070B50C461646054660B15AB151B1FFF74F
S31508005120F3FF844206D9211A32462844BDE8704066
S31508005130FFF7CEBF70BDFEE7FEE710B53AB1002314
S3150800514050F8234041F8234001339A42F8D110BD64
S31508005150002070474FF4004070474FF47A7070474C
S3150800516010B588B004460E98009207900D9822460E
S3150800517006909DF8300005900B9804909DF828003D
S3150800518003900020CDE901300B460121FBF7FEFC18
S3150800519008B010BD70B5054614460E4600F031F845
S315080051A02B685C4034405C402C60BDE8704000F0E1
S315080051B02CB808B5FBF784FCBDE808400021FCF7CD
S315080051C0FDB90029CCBF01210021FCF7F7B902215E
S315080051D04FF42070FCF770BE10B5FBF75FFC044671
S315080051E0FBF722FFC0F102012046FFF7EAFF012183
S315080051F00020FCF77FFFFCF705FFBDE81040FCF731
S3150800520071BBEFF3108072B6704700B962B670478B
S31508005210EFF31180302383F31188704780F31188E8
S3150800522070477047704708B50020FCF77BFF0120E0
S3150800523008BD70B5054614460E46FFF7E2FF2B6813
S315080052405C4034405C402C60BDE87040FFF7DDBF31
S3150800525083695B06FCD5C1637047704700207047B9
S3150800526000207047012310B580F88830037804467B
S3150800527053B100F050FA21462046FDF7B3FA20460E
S31508005280BDE8104000F03CBA10BD38B50D460446DE
S31508005290FDF790FA6B682046C4F8B032A96800F0AA
S315080052A085F94FF0FF332046C4F8B432FFF7D6FF2E
S315080052B038BD08B5FDF7B8FA08BD0A7801382D2AB1
S315080052C00ABF012200228918FDF7F8BA07281BD859
S315080052D0DFE800F0060A0D101315041701207047C1
S315080052E000220820FDF7EABA00221020FAE7002279
S315080052F02020F7E70820FFF7E0BF1020FBE7202073
S31508005300F9E70846FDF73CBB002070472DE9F7434F
S3150800531007280C46DDE90A7690461D4608D8013866
S3150800532006280AD8DFE800F01D27303A44574A0015
S31508005330212850D003B0BDE8F0830022204611464C
S31508005340FFF7F0FD3368C0B205EB83013A6845F80C
S315080053502300013348F8221033603B6801333B6071
S31508005360E8E7002220461146FFF7DCFD336880B2E5
S3150800537005EB8301EAE7002220461146FFF7D2FD36
S31508005380336805EB8301E1E7002220461146FFF763
S315080053904DFD336840B205EB8301D7E7002220466E
S315080053A01146FFF743FD336800B205EB8301CDE7ED
S315080053B0002220461146FFF739FDE1E7002389461A
S315080053C01E461D468DF8063019F8013F7D2B06D17D
S315080053D025702D0A65703B6848F82340BDE7202BE9
S315080053E0F2D006F00102013612B98DF80430EBE767
S315080053F01022002101A88DF80530FFF717FD631963
S3150800540001359870ADB2DFE72DE9F04F9B460023D2
S3150800541085B08B45814688469246CDE902336BDCDA
S315080054201A461E4619F80340FF2C08D15B4496B16C
S31508005430013B434516DD2B2005B0BDE8F08F172C40
S3150800544004D8102C28BF01220133EBE7203C012C9D
S3150800545098BF0126F8E762B1013B4345EBDC3546C8
S31508005460374602E000252F462E46454504DB002038
S31508005470E2E79845F3D0DEE75D453BDB19F80730F0
S31508005480202B18D109EB07035B78FF2BD3D1CEB9B4
S3150800549020465AF82510FFF719FF78B303AB019396
S315080054A002AB00932046DDE90E235AF82510FFF7D4
S315080054B02DFF0135D9E7212B0ED109EB07035B78C0
S315080054C0FF2BB8D1029B5AF825200E99012641F8E0
S315080054D0232001330293ECE7A3F11004072C02D929
S315080054E01C460137D3E709EB07035B78FF2BA2D1EC
