:020000040800F2
:100000000010002091090008F56700082D75000810
:10001000357500083D750008457500084D750008E8
:10002000F5670008F5670008F5670008F567000840
:10003000F5670008F5670008ED7800080B75000803
:10004000F5670008F5670008F5670008F567000820
:10005000F5670008F5670008F5670008F567000810
:10006000F5670008D93C000807750008F567000827
:10007000F5670008F5670008F5670008F5670008F0
:10008000F5670008F5670008F5670008F5670008E0
:10009000F5670008F5670008950F0008F567000888
:1000A000F5670008F5670008F5670008F5670008C0
:1000B000F5670008F5670008F5670008F5670008B0
:1000C000F5670008F5670008F5670008F5670008A0
:1000D000F5670008F5670008F5670008F567000890
:1000E000F5670008F5670008F5670008F567000880
:1000F000F5670008F5670008F5670008F567000870
:10010000F5670008F5670008F5670008F56700085F
:10011000F5670008F5670008F5670008F56700084F
:10012000F5670008F5670008F5670008F56700083F
:10013000F5670008F5670008F5670008F56700082F
:10014000F5670008F5670008F5670008F56700081F
:10015000F5670008F5670008F5670008F56700080F
:10016000F5670008F5670008F5670008F5670008FF
:10017000F5670008F5670008F56700080000000053
:100180002DE9F04F93B0CDE90A32DDE91C530E930F
:1001900053EC102BCDE90801104619468DED060BE6
:1001A0001E9E05F007FF80B1DDE906014FF0FF322A
:1001B000C54B05F027FF40B9DDE906014FF0FF32DE
:1001C0006FF4801305F000FF70B1DDE908019DEDCB
:1001D000060B0E9B1E96CDE91C53DDE90A3213B0C7
:1001E000BDE8F04F00F088B90022DDE906010023E8
:1001F00005F0EAFE002800F03381DDE906A303F1F3
:10020000004BCBF30A5016F48063A0F2FF3008BF16
:1002100006250F9305F0FCFB9BA3D3E9002305F013
:1002200061FC9BA3D3E9002305F0A6FACBF31304EA
:10023000894644F07F5180460022A44B504641F449
:10024000401105F097FA94A3D3E9002305F04AFC86
:1002500002460B464046494605F08EFA05F0DCFEA4
:10026000044605F0D5FB8EA3D3E9002380468946DA
:1002700005F038FC0022964B05F07EFA05F0CCFE26
:1002800089A3D3E9002307464946404605F02AFCE6
:1002900080463846894605F0BBFB85A3D3E9002399
:1002A00005F020FC02460B464046494605F062FA3E
:1002B00002460B46CDE90C2305F014FCDDE90C23C6
:1002C000804689461046194605F056FA0022CDE9C7
:1002D0001001804B4046494605F02EFD00227E4B22
:1002E00005F04AFA02460B464046494605F024FD11
:1002F00000227A4B05F040FA02460B46404649463A
:1003000005F01AFDDDE90C238046894600204FF0F8
:10031000804105F02FFA02460B464046494605F05B
:100320002BFA02460B46DDE9100105F005FD07F248
:10033000FF3700226A4B05F01FFA00223B0505F04B
:10034000D1FB52465B468046894605F05BFE00289D
:1003500040F08980CDE90C8904F16303C72B34BFD9
:100360000427052731051BD553A3D3E900235046A5
:10037000594605F03DFE00287FD051A3D3E9002364
:100380005046594605F020FE002876D00027A542A9
:10039000C6BF2C1B04F1FF3500253C4646F48066A1
:1003A0000E9B9F422CBF4FF00008A3EB070816F0EE
:1003B000020903D0002F18BF4FF000083CB1DDE95F
:1003C0000C235046594605F0B7FC82468B46DDE9C2
:1003D00006010022002305F0F7FD10B10BF10043E8
:1003E0009B46DDE9080126F40063CDE90183DDE9E0
:1003F0000A324BEC10AB009500F07EF802465FB37A
:10040000DDE9091316F0200F00F10105089E0CBF6D
:1004100065204520B047DDE908010523002205934A
:100420000A23002CCDE9023207F1FF374FEAD473DB
:10043000B8BF64422A46019304970A9B009406F0D1
:10044000AAFF0246B9F1000F06D00B9BC41A0B9B02
:100450001A190E9BA34245D8104613B0BDE8F08F81
:10046000DDE906ABCDE60022404649461A4B05F0D1
:1004700063FC013CCDE90C016EE7002D90D00F9B91
:10048000002B8DD0013D8BE7FB799F501344D33F68
:10049000B3C8608B288AC63F61436F63A787D23F8A
:1004A00071A379094F930A401655B5BBB16B024051
:1004B000EF39FAFE422EE63F2D431CEBE2361A3F9F
:1004C0000000000080842E41FFFFEF7F0000F83F16
:1004D0000000E03F00002C400000244000001840D5
:1004E0000000F03F2020DDE90913089DA8470134F2
:1004F000ADE700BF000000002DE9F04F5BEC10AB52
:1005000097B0CDE90501DDE92057CDE90723504635
:1005100052465B465946229E05F04CFD70B90323B6
:10052000CDE902760193B04B0093DDE90501DDE9E9
:10053000072306F050FE17B0BDE8F08F4FF0FF32F2
:100540006FF480135046594605F03EFD28B1042350
:10055000CDE902760193A54BE6E74FF0FF32504616
:100560005946A34B05F04EFD68B1A24A06F00403BC
:10057000002B08BF0322A04B1CBF13460422CDE969
:1005800002760192D0E7504693A3D3E9002359465F
:1005900005F038FD38B992A3D3E9002350465946F7
:1005A00005F012FD68B1DDE90723DDE905014BEC3B
:1005B00010ABCDE92176209517B0BDE8F04FFFF7DD
:1005C000DFBD002200235046594605F0FDFC0028FF
:1005D00000F09A805B4652460020002105F0CAF8E0
:1005E000012382468B46099316F4806400F08E80C6
:1005F000092D40F28E80002430210EABA5F10902B6
:100600000134202C03F8011BA5EB040901D094420E
:10061000F6D15946504605F0FFFC784B054603EBF2
:10062000C90393ED007B8DED0A7B05F0F1F90246DD
:100630000B465046594605F09DF8DDE90A2305F0C2
:1006400051FA02460B46CDE90C2305F00DFD80461C
:1006500005F0CEF902460B46DDE90C0105F08AF8FB
:1006600002460B46CDE90C230022654B05F0CAFC7F
:10067000002851D008F10108404605F0B9F90246BA
:100680000B46DDE90A0105F0A9FC10B14FF00008A6
:100690000135B9F1000F50D1284605F0B9F90246ED
:1006A0000B465046594605F065F80022544B8046EB
:1006B000894605F089FC30B1002240464946504B3E
:1006C00005F0A0FC10B1E80700D501350A210EABFA
:1006D0001A19202C0AD095FBF1F001FB105530358A
:1006E00002F8015B013405460028F2D106F003024E
:1006F000012A57D1002F55D0099A12B916F00C0FC4
:1007000000D0013F302245E009906DE74FF0060927
:100710007FE7A94600247CE70022DDE90C01384B85
:1007200005F052FC0028B4D1B8F1000F02D018F047
:10073000010FAED008F10108ABE70A210EAB23444C
:10074000202C0ED0B8FBF1F001FB1082B8F1090F9C
:1007500002F1300209F1FF3904F1010403F8012B21
:1007600011D83021A1440EAA202CAFD0A14504F10C
:1007700001030AD11C4609F158030DEB03092E238E
:1007800009F8203CA2E78046DAE7A1541C46EBE7D3
:100790001A550134A74205D9202CF9D1CDE90276AA
:1007A0000194C1E6202CF9D0099A3AB12D2104F127
:1007B00058026A4402F8201C0134EFE7710704D59F
:1007C00004F158022B216A44F4E73207E6D504F11C
:1007D000580220216A44EDE70000000065CDCD41BC
:1007E0000000000065CDCDC1D0800008D480000895
:1007F000FFFFEF7FC7800008CC800008E080000882
:100800000000E03F0348044B834202D0034B03B196
:100810001847704784110020841100200000000058
:10082000064B0749C91A891048BF0131491003D046
:10083000044B0BB101481847704700BF84110020DA
:10084000841100200000000010B5064C237843B945
:10085000FFF7D8FF044B13B10448AFF30080012326
:10086000237010BDD45701200000000088900008BC
:1008700008B5054B1BB105490548AFF30080BDE83D
:100880000840FFF7CDBF00BF0000000088510120E5
:1008900088900008A3F5803A704700BF174B002BE3
:1008A00008BF134B9D46FFF7F5FF00218B460F460F
:1008B0001348144A121A07F075F80E4B002B00D09B
:1008C00098470D4B002B00D09847002000210400D2
:1008D0000D000D48002802D00C48AFF3008005F051
:1008E0002DFF2000290003F0FDF905F06DFD00BF8C
:1008F00000000800000000000000000000100020C0
:1009000084110020005801200000000000000000B9
:1009100038B504460D4601B118B93721034805F032
:1009200031FF23682B60256038BD00BFA07A000826
:1009300070B5D0B1C9B10E4E431E013913F8014F45
:100940002046325D02F00302012A11F8012F08BF90
:1009500004F12000B55C05F00305012D08BF20322D
:10096000801A01D1002CE9D170BD0120FCE700BF45
:10097000868F00080348044A0449121A921005F0B1
:100980003ABF00BF209200082092000800580120C2
:1009900008B500F02FF8FFF7EDFF124B12498B421C
:1009A00012D30020114B12498B4218D3FFF776FF68
:1009B000186850F82240586840F822400132986880
:1009C0008242F5D30C33EAE70022F8E71C6844F8CA
:1009D000220001325C68A242F8D30833E4E7002227
:1009E000F8E700BF909000089C9000089C900008D9
:1009F0009C9000084FF480414FF0FF30114B124A99
:100A000010B59A60D3F8882042F47002C3F88820A9
:100A10000E4A91660E4901F5005210660D48506667
:100A20000220C3F8D000BFF34F8FBFF36F8F0124B4
:100A30004FF440330848C0F88041D36004600B6134
:100A400010BD00BF00ED00E0000000080090005065
:100A5000008000447FFF7F0300E100E0014B186845
:100A6000704700BF04100020084B1B6F03F0070302
:100A7000022B04D0032B05D0012B05D0FEE7044B3D
:100A800018687047034BFBE703487047008000502D
:100A9000041000200C100020002D310108B5FFF7D4
:100AA000E3FF054B1B6FC3F303330133B0FBF3F0DC
:100AB000024B186008BD00BF0080005000100020ED
:100AC0000048704700B4C404014B1868704700BF69
:100AD0000C10002000487047002D31014FF0B44346
:100AE0009868C0F304400C280AD8DFE800F00B092E
:100AF00009090909072119091B1D1F000F48704723
:100B0000002070479B6803F04073B3F1807F11D0E1
:100B1000B3F1007F10D00A4A002B08BF104670477F
:100B200008487047084870470848704708487047A9
:100B3000084870470848704708487047405DC6003D
:100B400000093D00C0EA210180BA8C010048E8019B
:100B5000005A62020024F40080841E0040420F000C
:100B6000014B1868704700BF081000202DE9F04FB6
:100B70009A46564B85B01B7806460F461546DDF85B
:100B80003C909DF844B0DDF85080002B00F0978039
:100B9000072A00F296800E9B002B00F09280B9F19C
:100BA000000F00F08E80129BB3F5006F00F3898078
:100BB000012803D1109B002B00F08380444B03EBF2
:100BC00005131B7B002B7ED0424C1022002168466F
:100BD00006F0E8FE04EB45141022A7BB3946204678
:100BE00006F0E0FE43F210036380BBF1000F03D177
:100BF000E37843F00303E370364A0E9B02EB451C97
:100C0000CCE90193129B6901581E9DF84C30C0F34A
:100C10000A0003F003039B0643EA001E53582E48C4
:100C2000012E00EA03004EEA0003CDF800A0535065
:100C300017D0B8F1000F2ED19CF8023068F30413DE
:100C40008CF8023027E00021204606F0ABFE4FF47E
:100C500044736380BBF1000FCED1E37843F03003DF
:100C6000C9E713230CF1100ECCF80C309CE80F00F0
:100C70008EE80F006FF00301DCF81C20109B61F37D
:100C80009F02012FCCF81C20CCF8143003D1CCF8F3
:100C90001890CCF8043000270D4A290102EB051307
:100CA00042F80180159A28465A60694622469F609C
:100CB0005E7301F019F9384605B0BDE8F08F0748BA
:100CC000FAE70748F8E70748F6E700BFD5570120DD
:100CD000A0520120A05101200F80FFF3028000F0FC
:100CE000018000F0078000F038B5124B05461B78F4
:100CF000DBB1E0B105F0D9FD0F4A00231146147BAA
:100D000054B92B6001251A0101EB03131D738C509C
:100D100005F0D1FD204638BD0133082B02F1100249
:100D2000EDD105F0C8FD0548F5E70548F3E70548AE
:100D3000F1E700BFD5570120A0520120048000F048
:100D4000028000F0018000F038B505F0AEFD002310
:100D500005460B4A147B6CB90133082B02F11002D3
:100D6000F8D101F039F8074B28461C7005F0A3FDB7
:100D7000204603E0284605F09EFD034838BD00BF2D
:100D8000A0520120D5570120058000F00D4B10B571
:100D90001B78044693B1072812D805F086FD0A4B4C
:100DA00003EB04131A7B2AB100241C7305F083FDA6
:100DB000204610BD05F07FFD0448FAE70448F8E737
:100DC0000448F6E7D5570120A0520120068000F024
:100DD000028000F0018000F0154B13B51868002365
:100DE00001908DF8043005F060FD124B1C7824B1A1
:100DF00005F061FD104802B010BD01221A7005F027
:100E00005AFD0E4B01A81C731C7783F82C4083F805
:100E10003C4083F84C4083F85C4083F86C4083F896
:100E20007C4008238DF8073001F014F82046E2E7F3
:100E3000097B0008D5570120038000F0A052012053
:100E40000A4A08B512785AB107280BD8084A02EBAB
:100E500000131B7B43B1002100F0DCFF002008BD24
:100E60000448FCE70448FAE70448F8E7D5570120AE
:100E7000A0520120028000F0018000F0078000F005
:100E80000A4A08B512785AB107280BD8084A02EB6B
:100E900000131B7B43B1012100F0BCFF002008BD03
:100EA0000448FCE70448FAE70448F8E7D55701206E
:100EB000A0520120028000F0018000F0078000F0C5
:100EC0000A4A08B5127852B107280AD8084A02EB34
:100ED00000131B7B3BB101F089F8002008BD0548D9
:100EE000FCE70548FAE70548F8E700BFD5570120B9
:100EF000A0520120028000F0018000F0078000F085
:100F00000D4B1B7893B1072812D889B10B4B03EB1B
:100F100000131B7B73B10A4B1A6D012383401342EC
:100F200014BF0123002300200B7070470548704751
:100F30000548704705487047D5570120A052012049
:100F400000000450028000F0018000F0078000F0F3
:100F50000B4A10B512780C4662B107280CD859B16B
:100F6000084A02EB00131B7B43B101F05BF82070D1
:100F7000002010BD0448FCE70448FAE70448F8E7FD
:100F8000D5570120A0520120028000F0018000F01E
:100F9000078000F0184B2DE9F0411F6D5B6D1F407D
:100FA00000D5FEE701260025144CDFF858803742B3
:100FB00018D02368C8F85060A3B1A1682846013151
:100FC0006268A1609847637B012B0BD150B90C4B31
:100FD00003EB45131A7B60F341021A731A7F60F327
:100FE00041021A770135082D4FEA460604F1100434
:100FF000DDD1BDE8F08100BF00000450A052012007
:10100000A051012000200450044BD3F88420D206C4
:10101000FBD4D3F88400C0F3811070470040005027
:1010200038B5124B0546D3F880300C4603F0030365
:10103000022B0BD0032B0DD0012B0FD1FFF714FD8A
:101040000D2305B1286004B1236038BDFFF746FDCC
:101050000723F6E7FFF702FD0623F2E7044841F213
:10106000DF1105F08FFB00231846EAE700800050EF
:101070000D7B000838B51A4B0546D3F820010C4605
:1010800000F00700062821D8DFE800F028040C143F
:1010900010181C00FFF7E2FC052305B1286004B11D
:1010A000236038BDFFF710FD0323F6E7FFF716FDB9
:1010B0000723F2E7FFF70EFD0223EEE7FFF7CEFC72
:1010C0000623EAE7FFF700FD0423E6E7054841F2BF
:1010D0005C2105F057FB00231846DEE70123DCE71F
:1010E000008000500D7B000838B5194B0546D3F839
:1010F00028310C4603F00703013B052B20D8DFE81D
:1011000003F003131B0F0B17FFF7A8FC052305B112
:10111000286004B1236038BDFFF7A0FC0623F6E782
:10112000FFF7DCFC0723F2E7FFF7CEFC0323EEE733
:10113000FFF7CAFC0423EAE7FFF7CCFC0223E6E74B
:10114000044841F2640105F01DFB00231846DEE768
:10115000008000500D7B0008F7B50027144B019765
:10116000D3F88041064604F00304022C0D4614D047
:10117000032C0DD0012C14D1394601A8FFF77AFFBA
:101180000F240EB1019B336005B12C6003B0F0BD9C
:10119000FFF7A4FC07240190F3E7FFF79BFC019005
:1011A000EFE741F2B131034805F0ECFA3C46E8E7DD
:1011B000008000500D7B000838B50F4B0546D3F872
:1011C00090320C4603F00303012B09D0022B0BD104
:1011D000FFF784FC072305B1286004B1236038BD04
:1011E000FFF778FC0223F6E7044841F2501105F0BE
:1011F000C9FA00231846EEE7008000500D7B000876
:10120000002337B50193194B0546D3F820320C461D
:1012100003F00703042B1FD8DFE803F025030F14A6
:101220001900002101A8FFF75FFF11230DB1019AFA
:101230002A6004B1236003B030BDFFF74FFC0723E1
:101240000190F3E705F0E2FA0A230190EEE7FFF7D9
:1012500087FC09230190E9E741F22301044805F0E6
:1012600091FA0023E2E70123E0E700BF008000508D
:101270000D7B000838B5104B0546D3F840310C46BD
:1012800003F00303022B0BD0032B0DD0012B0FD146
:1012900005F0BCFA0A2305B1286004B1236038BD0B
:1012A000FFF75EFC0923F6E705F0B3FA0B23F2E73C
:1012B00001230020EFE700BF00800050002337B576
:1012C0000193184B0546D3F860320C4603F0070330
:1012D000013B032B1FD8DFE803F0020E1914002195
:1012E00001A8FFF7C7FE0F230DB1019A2A6004B1D0
:1012F000236003B030BD002101A8FFF7BBFF10231E
:10130000F2E7FFF7EBFB07230190EDE7FFF7E2FBC6
:1013100002230190E8E741F2C801034805F032FAE0
:101320000023E1E7008000500D7B000873B5002426
:101330000F4B0194D3F87032064603F00303012BE0
:101340000D4607D0022B11D041F22611094805F0B5
:1013500019FA04E0214601A8FFF78CFF10240EB112
:10136000019B336005B12C6002B070BD1424F6E718
:10137000008000500D7B000838B5164B0546D3F8A9
:1013800000020C4600F00700042819D8DFE800F03E
:1013900020030B0F130005F039FA0A2305B128606A
:1013A00004B1236038BDFFF7DBFB0923F6E705F046
:1013B00030FA0B23F2E7FFF771FB0E23800AEDE70B
:1013C000054841F26F4105F0DDF900231846E5E7D5
:1013D0000123E3E7008000500D7B000838B5164B71
:1013E0000546D3F808020C4600F00700042819D877
:1013F000DFE800F020030B0F130005F007FA0A23C3
:1014000005B1286004B1236038BDFFF7A9FB0923AB
:10141000F6E705F0FEF90B23F2E7FFF73FFB0E239B
:10142000800AEDE7054841F2A74105F0ABF900233A
:101430001846E5E70123E3E7008000500D7B000834
:1014400038B5104B0546D3F840320C4603F0030381
:10145000022B0BD0032B0DD0012B0FD105F0D6F9A9
:101460000A2305B1286004B1236038BDFFF778FB7B
:101470000923F6E705F0CDF90B23F2E7012300205D
:10148000EFE700BF0080005038B5124B0546D3F897
:1014900050320C4603F00303022B0FD0032B05D070
:1014A000012B0FD105F0B2F90A2302E005F0B1F9E2
:1014B0000B2305B1286004B1236038BDFFF750FB52
:1014C0000923F6E7044841F2940105F05BF9002393
:1014D0001846EEE7008000500D7B000838B5104B31
:1014E0000546D3F860310C4603F00303022B0BD002
:1014F000032B0DD0012B0FD105F088F90A2305B17C
:10150000286004B1236038BDFFF72AFB0923F6E702
:1015100005F07FF90B23F2E701230020EFE700BF7E
:1015200000800050B0F5207F10B52ED009D8B0F55E
:10153000007F24D003D868B1B0F5C07F0AD0002462
:101540001BE0B0F5607FFAD1124BD3F88040C4F3B2
:10155000011412E00F4B1C6F230B13F00E0FC4F39A
:1015600003340AD0072C08D00F2C06D0032C04D04B
:1015700040F28521084805F005F9601C10BD054BB7
:10158000D3F89040C4F30464F7E7024B1C6FC4F334
:101590008024F2E7008000500D7B00084FF4803279
:1015A00038B5104B04469A6600200D46FFF7BAFF87
:1015B00041F671320C4B6043DC69DA635A6804F41B
:1015C000803422F440125DB90849884294BF00205B
:1015D0000120000502435A600CB10022DA6338BDD5
:1015E0000349F2E70090005000000350005A6202E5
:1015F000002D310138B5430904460D460ED140F2A5
:101600002F310D4805F0BEF8002304F01F0485B10A
:1016100003F580530122A2401A6038BD012B04D08B
:10162000022B04D040F23D31EBE7044BEDE7044BD5
:10163000EBE703F50053EDE70D7B000864800050F5
:1016400068800050002130B5B0F5807F85B0044639
:10165000CDE9001100F006816BD8002800F0DB8096
:10166000A0F12004602C75D8602C73D8DFE814F04A
:10167000D300E000D300E000F000F000F000F00044
:10168000F000E000F5007E000B019E007E00E0000F
:10169000E000E000720072007200720072007200DE
:1016A00072000B01E000E000E00023011001E00007
:1016B000720072007200720072007200720072009A
:1016C00072007200720072001501F000D300D300A6
:1016D000D300B1007E007E00B9001A019300C8005B
:1016E000C800720072007200720072007200720014
:1016F000720072007200720072007200720072005A
:101700007200720072007200720072007200720049
:101710007200720072007200720072007200720039
:101720007200720072007200720072007200720029
:10173000CD00B0F5E06F00F0AB803CD8B0F5607F35
:1017400000F081801DD8B0F5007F67D008D8B0F5D3
:10175000C07F60D040F29441594805F013F857E03B
:10176000B0F5207F64D0B0F5407FF3D1FFF796F954
:1017700004464FF42070FFF7D5FEB4FBF0F4640884
:101780005FE0B0F5B06F68D00AD8B0F5806F5FD079
:10179000B0F5A06FDED100216846FFF731FD37E0DC
:1017A000B0F5C06F6FD0B0F5D06FD3D100216846CF
:1017B000FFF7E2FD2CE0B0F5286F73D016D8B0F536
:1017C000186F6AD00AD8B0F5F06F74D0B0F5106F0A
:1017D000C0D100216846FFF701FE19E0B0F5206F87
:1017E000B8D100216846FFF769FD11E0B0F5306F10
:1017F0005DD0AFD3B0F5386F45D0B0F5406FA9D10B
:1018000000216846FFF770FC02E0FFF72DF9009019
:10181000009805B030BDFFF741F9F8E7FFF724F96C
:1018200005462046FFF77EFEB5FBF0F50095EFE795
:10183000FFF734F904464FF42070FFF773FEB4FB52
:10184000F0F40094E4E701A8FFF7EAFB019DE8E764
:1018500000216846FFF70EFCDAE700216846FFF733
:101860007BFCD5E74FF0E02302911B695B0705D5B0
:10187000FFF714F90290029B0093C9E703A902A89D
:10188000FFF7F8FCF7E700216846FFF7F3FCBFE736
:1018900000216846FFF7D4FDBAE700216846FFF74C
:1018A000F3FDB5E700216846FFF740FDB0E7684665
:1018B000FFF782FCACE700216846FFF70FFEA7E7C1
:1018C0000D7B000808B58020FFF7BCFE034B984253
:1018D0009EBF4FF48032024B1A6708BD005A620265
:1018E00000A00050436810B5072B044604D940F609
:1018F000B3512A4804F046FFA368032B04D940F6ED
:10190000B551264804F03EFF2378032B04D940F656
:10191000B751224804F036FF94F90130002B04DA65
:1019200040F6B9511D4804F02DFF4FF400011C4A48
:10193000637851664FF4D151022002F5B8325162FA
:1019400018494F2B48604FF0010028BF4F2301F585
:10195000805148601169C903FCD4217843EA01230E
:101960005361D4E901131B0143EA0123617B0B435B
:10197000217B43EA41039360E37BA17B1B0143EAA4
:101980004113617C0B43217C43EA41035360A37CF8
:1019900013B16FF4D153536210BD00BF0D7B00082B
:1019A0000090005000100250014B1880704700BF9B
:1019B00078110020B0F5207F38B577D00ED8B0F57B
:1019C000007F61D003D890B3B0F5C07F2FD040F234
:1019D0001231BDE838403D4804F0D4BEB0F5607F18
:1019E000F5D13B4A4C1ED2F8FC5015F080751EBF55
:1019F000D2F8FC3023F08073C2F8FC30032C04D9F9
:101A000040F2F221314804F0BDFE324AD2F8803073
:101A100023F0300343EA0413C2F8803035B12C4A76
:101A2000D2F8FC3043F08073C2F8FC3038BD4C1E55
:101A3000012C0AD9102903D8274BCB40DB0704D44B
:101A400040F2C721214804F09DFE04F0FFFE04F09F
:101A50000BFF4FF48031214B1E4A1967136F23F49B
:101A6000704343EA04331367FFF718F80446FFF79F
:101A7000CBFAC0F10201204604F0F0FE00F040F87D
:101A8000BDE83840FFF71EBF4C1E1F2C04D940F2A2
:101A900006310E4804F076FE0E4AD2F8903023F05C
:101AA000F85343EA0463C2F89030BFE74C1E012CA0
:101AB00004D94FF44371054804F064FE054A136FDE
:101AC00023F4806343EA84231367AFE70D7B0008A8
:101AD00000ED00E000800050100101000090005077
:101AE00008B50121022000F02FF804F0AFFE04F049
:101AF000BBFE4FF48032014B1A6708BD00900050C6
:101B000008B54FF4C070FFF79DFDBDE808400449DB
:101B1000884294BF012102214FF42070FFF74ABF91
:101B200080F0FA02024A536B0342FCD1704700BFB7
:101B300000400950034A0179D36E23F030030B4370
:101B4000D366704700400050F8B50446244BD3F8E4
:101B50008420D006FBD4D3F88430C3F381139C4295
:101B60003CD0FEF781FF012C05460BD11D4B98425E
:101B700004D940F292711C4804F004FE0121284669
:101B800004F06CFE04F08AFE4FF00072174B07461B
:101B90005A66204604F092FE4FF48063104E621E97
:101BA00093403367736E9A0103D4D6F884309B0652
:101BB0000AD5384604F076FE022C0FD12846BDE83F
:101BC000F840002104F04ABED6F884309906E9D5E1
:101BD0004FF4F461044804F0D5FDE3E7F8BD00BF1D
:101BE00000400050005A6202737B00080060005001
:101BF00010B50C4608B9FEF737FF074B21461B7896
:101C00003BB1064B984204D80120BDE81040FFF7D5
:101C10009BBF0220F9E700BFD6570120005A62029D
:101C20004FF0004238B5244B244C5A664AF6CD3367
:101C3000656C014605F00105236428BB0120FFF710
:101C400071FF6368DB0715D51D4B586008461D4BB7
:101C5000226BD2070CD4984208D1072415B1174B38
:101C6000194A1A6404F02BFE204638BD0130EFE714
:101C70009842F2D00024F1E70132236B13F00803FD
:101C800005D08A42F8D1E8E700220E49F5E78A42FA
:101C9000E3D020210A4A91620121A2F580525160CD
:101CA0000649084A886A800603D49342D5D0013396
:101CB000F8E79342DDE700BF009000500040095074
:101CC0000060095040420F003254FFFF032838B52E
:101CD00004460D4605D8094B33F81030CB40DB07DE
:101CE00004D440F22D41064804F04CFD302301227B
:101CF0005C43044BAA401A5138BD00BFA87C0008C1
:101D0000D97B000840D00350032838B504460D465F
:101D100005D8094B33F81030CB40DB0704D440F230
:101D2000FE31064804F02EFD302301225C43044BB3
:101D3000AA401A5138BD00BFA87C0008D97B000812
:101D400040E0035003282DE9F04104460D461746B4
:101D5000984605D81D4B33F81030CB40DB0704D430
:101D60004FF4B0711A4804F00DFD37B129462046F2
:101D7000B8F1000F20D0FFF7A9FF0F21072D04EBCA
:101D8000440688BFA5F108034FEA0616114895BF1F
:101D9000AB009B0004360C3607FA03F2994030443E
:101DA00004F094FD7FB929462046B8F1000F06D013
:101DB000BDE8F041FFF78ABFFFF7A6FFDDE7BDE80A
:101DC000F041FFF7A1BFBDE8F08100BFA87C00088B
:101DD000407C000830C003504FF480020B4B10B51C
:101DE000C3F88020BFF34F8FBFF36F8F0024FF2213
:101DF000074B21465C6520209A625C60FFF7FAFB86
:101E00002146BDE810402120FFF7F4BB00E100E0CF
:101E100000000450072838B504460D4603DD77213D
:101E2000084804F0AFFC1F2C03D99121064804F0A8
:101E3000A9FC064A064B002D08BF13460122A2400A
:101E40001A6038BDB07C0008177D000840100450AF
:101E50004020045010B5044618B991211F4804F0E1
:101E600091FC23781B0613F0604F03D092211B488E
:101E700004F088FCE3780F2B03D9A321174804F062
:101E800081FC01212020FFF7B5FB01212120FFF774
:101E9000B1FB0122124B5A60227812069A606178D7
:101EA000A27842EA01429A61FF229A6200229A6372
:101EB0001A644FF000425A654FF0FF324FF4800130
:101EC00003F500531A65074AC2F88011E3781B0135
:101ED000DBB282F81633116010BD00BFB07C000881
:101EE0000000045000E100E02DE9F0410126C3B2FA
:101EF000072805460C46904606FA03F603DDEC215A
:101F0000364804F03FFC1CB9ED21344804F03AFC9B
:101F1000236823F47C1323F00F031BB1F0212F4817
:101F200004F030FCA37A1B0413F47C0F04D040F2BD
:101F300009112A4804F026FCE37A1B0513F07E6F92
:101F400004D040F20B11254804F01CFC237B5B05F8
:101F500013F0FE5F04D040F20D11204804F012FC93
:101F60001F4B204F1E65AB00226803F1A04303F511
:101F700088235A60302202FB0575637B2B66E37A67
:101F8000A27A1B0543EA0243227B43EA4253EB65F4
:101F900028F003032B6704F088FC7B6D33437B65DB
:101FA000237A13B13B6C33433B64637A13B1BB6B4D
:101FB0003343BB632279A37943EA0243084A93611E
:101FC0006179E37943EA014307498B61054B566325
:101FD0009E64BDE8F04104F06EBC00BFB07C000818
:101FE00000200450000004500010045010B50124DB
:101FF000C3B2072804FA03F404DD40F2971107483E
:1020000004F0C0FB04F051FC054B5A6D22EA0402B7
:102010005A659C62BDE8104004F04DBCB07C0008DD
:102020000000045010B50124C3B2072804FA03F4D9
:1020300004DD40F2B5110A4804F0A4FB04F035FCBD
:10204000084BDA6A224208D15B6B9C430CBF012427
:10205000002404F030FC204610BD0024F9E700BF46
:10206000B07C0008000004500B4B984211D003F5DF
:10207000804398420DD003F58043984209D003F580
:102080008043984205D003F58043C31A5842584113
:1020900070470120704700BF0080045030B4184CD6
:1020A000A04214D004F58044A0421BD004F5804423
:1020B000A04219D004F58044A04217D004F5804412
:1020C000A04215D030BC8F210E4804F05BBB00202D
:1020D00006250D4C73B105FB001004EB800462650E
:1020E00030BC70470120F3E70220F1E70320EFE75F
:1020F0000420EDE705FB0011120204EB8104EEE77A
:10210000008004507D7D00080081035038B50546ED
:102110000C46FFF7A9FF18B9B421214804F032FB9F
:10212000284604F0E2FB012205F500531A632B6BED
:102130009B07FCD4237962881B0243EA8243A27A7C
:102140001343627843EA8213E27A43EAC213227BA2
:1021500043EA4213627B43EA0213A27B43EAC203CF
:10216000E27B43EAC223A27943EA0243E27943EAEB
:10217000424301226B6005F580531A6322780AB945
:102180000223EB6000236B626379217A1B0143EA2F
:102190008103617A0B43AB600AB10123EB6038BD68
:1021A0007D7D0008F8B506460F461446FFF75CFF34
:1021B00020B94FF48671254804F0E4FA022F04D9BF
:1021C00040F20D11214804F0DDFA304604F08DFB99
:1021D000012206F500531A63336B9B07FCD4637A24
:1021E000E2791B0143EA0253A27906EB4715134338
:1021F000E27A43EAC2432B66237A1BB3237B2A6E1F
:10220000394642EA43422A66013B18BF0123304661
:10221000A278FFF743FF012306F580563363637806
:1022200022781B0643EA8263E27843EA023322798A
:1022300043EA8223627943EA0223A27A43EA8203D1
:102240006B66F8BD2B6E2B66E5E700BF7D7D000851
:10225000F8B507460C461D4616464AB94FF4A1711B
:10226000314804F08FFA24B1402D09D1062328E02B
:1022700021B94FF42070FFF7E5F90446402D42D014
:10228000402D09D87DB1202D17D040F28911BDE82D
:10229000F840254804F076BA602DF6D1B6EB940FDD
:1022A0003CD804230DE0B6EB141F04D94FF4BA71E7
:1022B0001D4804F067FA102303E0B6EBD40F1CD8D6
:1022C00008235E43730803EB4413B3FBF6F3174E86
:1022D000203BB6EBC30F4FEAC30404D24FF4D071D6
:1022E000114804F04FFABB68344023F06003BB6030
:1022F000BB681D43BD60FC61F8BD40F279110A481E
:1023000004F040FADCE70623B4FBF3F3B342ADD2AA
:102310004FF4BF71044804F035FAA7E740F2831187
:10232000014804F02FFABCE7E57D0008F8FF7F00C4
:1023300038B50C4B044698420D4604D04FF4337127
:10234000094804F01FFA012204F580535A60EB4358
:10235000934003F00A036361656115B904F5005405
:10236000626038BD00C00550E57D0008124B10B515
:102370009842044604D040F24241104804F002FA68
:10238000012104F58053596040F6AA6341F2050229
:10239000636100230A48A360E365E26004F500522C
:1023A0002361E361E36490640348A365844204BF4E
:1023B00023656365516010BD00C00550E57D0008D0
:1023C000FFFF0100304B70B5984204460D4604D023
:1023D00040F2FD212D4804F0D5F92046FFF7C6FF55
:1023E000012304F580567360AB7C1BB1A36843F0F6
:1023F0008043A360EB7C5BB1234B9C4202BF2A7DF0
:10240000A3F51033C3F8D421E36D43F08003E365F3
:102410002A8A6B7B20461343EA891343E3602B7BB4
:10242000D5E90112FFF714FF6B7D1BB1A36843F4DC
:102430008033A360AB7D1BB1A36843F40043A3606A
:10244000EB7D2A7E1B07120502F4E00203F0E04355
:102450001343A3656B7E9A1E012A4FF0020209D82E
:102460000B49032BC1F8982709D10423F3652B7876
:10247000636170BD0749012BC1F89827F4E7042276
:1024800004F50053DA65F2E700C00550E57D000869
:1024900000D0035000E0035010B54FF42F7200211C
:1024A000044605F07FFA8023C4F88C30054B04F114
:1024B0009C00C4F88430012384F88830BDE81040C3
:1024C00004F061B94D7E000810B5D0F8A0400A466E
:1024D00084B904F0CCFB044610B90024204610BD9A
:1024E0002D2896BF064B074953F82010064804F0E4
:1024F00004FDF3E7D0F8A4101046A047EDE700BFB5
:10250000F87E0008507E00085E7E0008F8B590F85E
:102510008060044616B100263046F8BD04F0F4F998
:102520000028F8D1012384F8803094F8883033B142
:10253000D4F88410194884F8886004F0DEFC4FF069
:10254000FF37D4F8B402421C1CD0C4F8B47210F0A7
:10255000FF0520D0204604F0D4F92946204600F09B
:10256000AFFB0028EDD0204604F0D0F994F8883075
:102570006BB1D4F88410094804F0BFFC002384F840
:10258000883004E004F09EFC431CE0D101260023C7
:1025900084F88030C0E70126D3E700BF2B80000815
:1025A000F8B50B780446302B0D46164604D14B780F
:1025B00003F0DF03582B11D0284F6A1E12F8011FB9
:1025C000002934D128460A2204F0A8F8202C03461A
:1025D0000D4631D1B1FA81F040091AE04A1C1F4979
:1025E00012F8013F8BB9284605F028FA1C4B023837
:1025F0002340032B12D10134A41084420AD1A878BD
:1026000037288CBF0020012003E0CB5C13F044008E
:10261000E6D1F8BDCCBF01200020FAE7002CB8BFFE
:102620000334B0EBA40FD4BF01200020F1E77B5CA2
:1026300013F00400C2D1ECE726B1084302D0013BFD
:1026400061F100050122A240013A1A40002D08BFA5
:102650009A420CBF01200020DBE700BF868F0008F4
:1026600003000080F0B5037801467B2B17D10646A6
:10267000022400220B4F16F8015F7D2D05D10B5D62
:102680006BB9D24302F0010008E07B5D13F0440017
:1026900002D001320134EEE7202DFBD0F0BD002046
:1026A000FCE700BF868F000870B506460D4605F0B2
:1026B000C5F90446304604F020FC044EAC4200D379
:1026C00070BD304604F019FC0134F7E71E800008A5
:1026D0002DE9F84F044602216048FFF7E5FF1E216F
:1026E0002068FFF7E1FF6368586804F006FC5C4867
:1026F00004F003FC67683B7BFD2B12D8D7F80880F9
:102700004FF0FF34404605F099F90646DFF84C914A
:10271000DFF8A8A1DFF864B10C3717F8013BFF2BF5
:1027200001D1BDE8F88F212B14D8212B14D8DFE874
:1027300003F0178C8884807C78741313131313139D
:102740001313706C6864605C5854131313131313E1
:102750001313504CFE2B34D006B10134414D02E02E
:1027600006B10134404D02214846FFF79DFF1E216E
:102770004846FFF799FF504604F0BFFB59462846EC
:1027800005F03DF93949002818BF2946384804F0BA
:10279000B4FB3B78202B02D12B2004F0A2FB354860
:1027A00004F0ABFB4EB118F804301F2B05D018F81D
:1027B00004001F2801D0B4424BDB294804F09DFBE4
:1027C000ABE706B101342C4DCDE706B101342B4DFA
:1027D000C9E7002EA1D001349FE706B10134284D8E
:1027E000C1E706B10134274DBDE706B10134264DDE
:1027F000B9E706B10134254DB5E706B10134244DE2
:10280000B1E706B10134234DADE706B10134224DE5
:10281000A9E706B10134214DA5E706B10134204DE9
:10282000A1E706B101341F4D9DE706B101341E4DED
:1028300099E706B101341D4D95E706B101341C4DF1
:1028400091E706B101341B4D8DE706B101341A4DF5
:1028500089E704F046FB0134A9E700BF3280000895
:10286000DF890008BD7F0008B77F000814800008DA
:102870002B80000818800008C57F0008CB7F000867
:10288000D47F0008DB7F0008E67F0008F07F0008A7
:10289000FA7F0008E57F0008EF7F0008F97F000855
:1028A00002800008068000080E800008B17F000842
:1028B000B87F00080D800008B07F0008168000086F
:1028C0002DE9F04F93B005468B4600240092049307
:1028D00005F0B4F81C9F049B05901C6028463C60E2
:1028E0000AAA09A904F02AFB064658B90A9805F075
:1028F000A5F83446B146049B1860D5F89C30039384
:10290000039B1BB9204613B0BDE8F08F039B9B6867
:102910000193002B69D02E4416F8013B202B12D0D6
:1029200000260C237343019A02EB030AD358029347
:10293000002B55D0DDF82480C84551DB9AF80830CB
:102940002BB1721C35E03B6801333B60E4E73B6828
:10295000D5F894200299D21A049B1A6012AB03EBAB
:10296000890353F8203C1846069305F023F8079096
:102970000028E6D1029805F061F8DAF80410034661
:10298000087BD7F800A0FE28079A16D108F1FF3877
:10299000C8452ED00B6806980292019305F04EF8B8
:1029A0000AF10103029A0344E95C21B13B6009F199
:1029B00001091646B5E70133F6E7D5F89420A2EBF6
:1029C0000A029A42BDDC5846069305F037F8069B8A
:1029D00003447B2B1DD958461E4A009903F0F6FE8E
:1029E0002B46059A2A449A422AD1039B1B680393DB
:1029F00086E7D5F89420A2EB0A029A42E3DDD1F8EB
:102A0000008058F80C2B82B9059B3B60049B1A6030
:102A1000E6E75846029A009903F0D8FE58460E4A57
:102A20000099013403F0D2FE8BE75846009903F079
:102A3000CDFE5846084A009903F0C8FE0134E0E78D
:102A400013F8011B0029CED14FF0200103F8011C1F
:102A5000C9E700BF1B8000081E8000082DE9F04771
:102A6000002486B01C60DDE90EA8064689468AF877
:102A700000401168154888F8004017461D468DF83B
:102A80001740FDF755FF18B901242B6801332B605F
:102A90000020D6F89C6036B914B1012388F80030C4
:102AA00006B0BDE8F087B06868B14B460021CDE9BB
:102AB00002A8CDE900750DF1170204F075F89DF834
:102AC0001730002BE8D13668E5E700BF208000080A
:102AD0002DE9F04300260446ADF5457D7C223146C4
:102AE00005A802AF049604F05DFF802220460097FF
:102AF00003AB04A9FFF7E4FE01283ED104A804F0CB
:102B00009DFF03993B68A0EB01080B44234428EA8E
:102B1000E878054604A801444246184604F081FFBF
:102B200000F80860D4F89060039B3968D4F89020CE
:102B30001944B14212DCD4F89410E81A0244C4F8E3
:102B40009020014404AAC4F89410D41825182B1B13
:102B5000002B0DDC0DF5457DBDE8F083A05C04F095
:102B6000C0F9D4F8903001360133C4F89030DBE777
:102B700014F8010B04F0B5F9E9E7EBDD24AD802290
:102B80003146284604F00EFF44AB4FF40072314644
:102B9000184604F007FF0DF1100903464A464FF0AE
:102BA0000108314612F8016B002E49D104A843F800
:102BB000281004F043FF2946334619F8016B0DF540
:102BC000887C5CF8042B824243D10133984501F89C
:102BD000016BF2DAD4F89060039BB34242DC2346E7
:102BE000354A04A9354804F088F9284604F026FF40
:102BF0000646039B3F68F61A1F44E0191D4426EA67
:102C0000E67204F198031744984204EB07014ED290
:102C100004F1900399424AD96A1E81190B1A002BBC
:102C200039DD12F8013F00F8013BD4F89030013350
:102C3000C4F89030D4F894300133C4F89430EDE700
:102C4000202E01F1010104BF43F8281008F101080A
:102C5000A8E70DF1100E7244D25CB242B1D000224E
:102C6000EA54B7E7D4F890300136E05C04F039F963
:102C7000D4F890300133C4F89030ADE7D4F8902008
:102C8000013B0132C4F89020D4F894200132C4F8FA
:102C90009420002BF2DC00232E44E355731B002B01
:102CA0007FF758AF15F8010B04F01BF9F6E729463A
:102CB00004F0B7FE3346ECE74D7E0008258000089F
:102CC0002DE9F843D0E9245604460F46002294F833
:102CD0009830012B07D10A2F07D1002384F89830B0
:102CE0000020BDE8F88300F29F801B2F01D1022352
:102CF000F4E70D2F0DD1012384F898300D2004F056
:102D0000F0F80A2004F0EDF800230120C4E9243390
:102D1000E7E74FF00008082F84F8988034D1454544
:102D200030DDB5420FD1384604F0DBF8202004F046
:102D3000D8F8013D384604F0D4F8013E04F8058087
:102D4000C4E92456CCE7FBDA05F1FF39384604F034
:102D5000C8F804EB0903A6EB09026119184604F050
:102D600007FE04F806800146013E484804F0C5F815
:102D700035464D4501DC4D46E2E7082004F0B1F848
:102D8000013DF6E7ACD0DBE77F2F1CD1002EA7DD9D
:102D9000B542A5DA6319691C21441846721B04F078
:102DA000E7FD04F806800146394804F0A6F808203B
:102DB000013E04F096F8B542F9D1D4F89430013BC5
:102DC000C4F894308CE70A2F98D0092F03D12046FD
:102DD000FFF77EFE84E7D4F88C30013BB3427FF7E7
:102DE0007FAFB54204EB050805F101090CDB38465D
:102DF00088F80070D4F89430C4F890900133C4F887
:102E0000943004F06EF86BE74146721B04EB090046
:102E100004F0AEFD404604F070F80820013E04F0D6
:102E200060F8B542F9DDE2E7022B06D15B2F01D154
:102E3000032353E784F8982049E7032B7FF450AF2E
:102E4000413F84F89820032F3FF64AAFDFE807F0B0
:102E500002070A160121204603F0F4FF40E74FF075
:102E6000FF31F8E7B542BFF63BAF605D04F039F8DB
:102E7000D4F890300133C4F8903031E7002D7FF75B
:102E80002FAF013D0820C4F89050BAE72E8000080B
:102E90003380000813B50024064A6846536F43F098
:102EA0000103536700948DF80440FEF743FE20466B
:102EB00002B010BD0040005030B5094D87B001ACE4
:102EC0000FCD0FC42B6801A823603F238DF8053078
:102ED000FEF708FD3220FEF767FD002007B030BD89
:102EE000388000086FF00403502110B50A480B4CDD
:102EF00013F0800F03F1010207D123444F2A83F816
:102F000000131346F4D1002010BD03F00F03043B5F
:102F1000034419761346EBE700ED00E000E100E022
:102F200010B5044603F0BAFC024B1C6003F0BAFC77
:102F3000002010BD2853012010B503F0AFFC034B57
:102F40001C6803F0AFFC204610BD00BF28530120D1
:102F5000302238B5037A0446534303F1A04303F506
:102F60008023DD6ED0E9032313449D4201D8AA4299
:102F700004D94FF43E71054803F004FCD4E903037F
:102F800003449D4218BF284638BD00BF4C8000084E
:102F900030B51446054687B01046FFF7D9FF636980
:102FA000024683423CBFD4E903315B181B1AABB124
:102FB0001249049403910021CDE9013101230093CA
:102FC0002846D4E9001303F027FC20B14FF43471F4
:102FD0000B4803F0D7FB002007B030BD012262761A
:102FE00094F82D20002AF6D084F835301321E369B7
:102FF000204698472046636A9847ECE7912F0008DF
:103000004C8000082DE9F04788B004460F4616466C
:10301000984603F04AFC8146002E00F0AD80237EE6
:1030200003F0FF02002B00F0E0802046FFF790FF46
:1030300063698246984206D1637E23B940F27F31AC
:103040006B4803F09FFB6569AA459DBFD4E9033235
:103050009B185D1BAAEB0505B54228BF354603F05A
:1030600024FC94F82D308246002B40F096802A46AE
:103070003846616904F0D5FC63692E462B446361D0
:103080002CE06069037803F0FD01112940F0828093
:10309000216B884205D1A3F111014B424B4184F8C9
:1030A0003430013E6369216B01328B4203F101032D
:1030B00008BF236363619542E3D1D4E90323216B05
:1030C0001344994208BF2263216B8A4201D88B4284
:1030D00004D84FF46D71464803F054FBD4E9032340
:1030E00061691344994208BF626161698A4201D8EB
:1030F0008B4204D84FF471713D4803F043FB002329
:10310000207A6376FDF79CFE20B140F211313848F9
:1031100003F038FB2046FFF71BFF636983423FD172
:103120000023E568237694F82D30656103B12563AB
:103130002046636A98472F4B04940393002302931D
:1031400023692A4601930123009363682168207A4A
:1031500003F062FB20B140F22D31254803F012FB51
:10316000207AFDF78DFE20B140F25131204803F066
:1031700009FB504603F09FFB4846C8F8006003F087
:103180009AFBD8F80030002B0CBF1B20002008B0A1
:10319000BDE8F08707F8013B84E72E4600228AE766
:1031A0000123207A23760DF11E01FDF7D1FE20B117
:1031B0004FF450710E4803F0E5FA9DF81E30207A66
:1031C000002BCDD00DF11F01FDF79AFE20B140F28A
:1031D0004631074803F0D6FA9DF81F10207A0029DF
:1031E000BED12246FFF7D4FEBAE71646C4E700BFB9
:1031F0004C800008912F000870B504460568FFF761
:103200009BFE844202D10020FFF78AFE95F93630FA
:10321000002B11DB012203F01F015B099B0003F16E
:1032200060438A4003F56143C3F88021C3F88020DE
:10323000BFF34F8FBFF36F8F287AFDF741FE20B1A8
:103240004FF4ED71104803F09DFA287AFDF79EFDCA
:1032500020B14FF4EF710C4803F094FAFDF774FDC0
:1032600038B10A4B984204D04FF4F171064803F08C
:1032700089FA00232846C4E90033C4E90433A36073
:10328000AB6ABDE8704018474C800008058000F02C
:103290002DE9F84304460D4690F82C80DFF8AC90F9
:1032A0008E18AE4228D094F82D3083B103F0FDFA89
:1032B000237E07461BBB226B63699A4204D040F20F
:1032C000F911484603F05EFA384603F0F4FA94F830
:1032D0003430002BE5D0B8F1000F06D02B780A2B44
:1032E00003D10D212046E36998472046E36915F88C
:1032F000011B98470028D4D00020BDE8F883204661
:10330000FFF726FEE1680138884238BF2069D4F80B
:1033100030C03CBF00F1FF30401803469C450BD045
:1033200013F80129112A01D0132A07D1A2F11103A0
:103330005A425A4184F834202063C5E7994282BF3B
:10334000236903F1FF335B18E8E700BF4C800008F6
:10335000F0B50C460646154687B0382200212046B7
:103360001F4604F01FFB95E8030000232A6923761B
:10337000EB6884E80300C4E904232A7DE36084F851
:103380002C20AA7D2363012384F8343084F835305F
:103390000C9B84F82D2023620D9BE76163620E9BDA
:1033A000A3622B7A84F83630204B34607360204B54
:1033B000B360204B3361204B7361204BF360FDF70A
:1033C0000BFD30B11E4B984203D01024204607B0AD
:1033D000F0BD002104F10800FDF786FC0028F4D1BF
:1033E0000127184B0494CDE9020323690097019348
:1033F0006368E2682168207A03F00EFA0446002828
:10340000E3D195F90830002B0BDB03F01F025B09B9
:103410009B0003F16043974003F56143C3F880715B
:103420001F603046FFF77CFDD0E700BF91320008F7
:1034300005300008997000089F700008F9310008F5
:10344000038000F0912F00082DE9F0411C46574BF6
:1034500086B00293564B0127019300230C9D0093E5
:103460009046CDE903770A46524B2946FFF770FF95
:103470000646002840F0918023683946AB636368B4
:103480003A20EB63637A85F84130237A85F840303F
:10349000E37A85F84330A37A85F84230637B85F878
:1034A0004530237B85F84430E37B85F84730A37BA8
:1034B00085F84630FEF79EF83B460422617A207A72
:1034C000FEF740FC3B460222E17AA07AFEF73AFC86
:1034D00039466068FEF78EF888F80060414620683B
:1034E000FEF770FF1422637C5B0103F1A04303F538
:1034F0007033C3F89827617A227A42EA0142C3F80E
:10350000B027E17AA27A42EA0142C3F8A82785F8F7
:10351000486098F81930032B45D8DFE803F03542AE
:10352000021C022385F8483000230422E17BA07BA3
:10353000FEF708FC022741F29871627C1E4B03EBF8
:1035400042104750E07BA17BBD3241EA004103EBD2
:103550004213596018E0012785F848300222002301
:10356000617B207BFEF7EEFB617B637C227BBD33BE
:1035700042EA014210495B01CA500422236803F564
:103580008053DA65002FCFD1AA6B0521D36C206858
:1035900043F00403D364FEF7CBFE304606B0BDE82B
:1035A000F0810027D8E72326F7E700BFB1700008B5
:1035B000A57000082971000800C003502DE9F04FE4
:1035C0009B4691B00B1E0A93AD4B904614BF8146AB
:1035D000994600241A9E9BF8000070B9444538BFF4
:1035E000224643464FF000000A9928BF08F1FF32F7
:1035F000C847204611B0BDE8F08F25280BF1010B1C
:1036000006D0224643460A99651CC8472C46E2E785
:1036100000230DE02D2A2AD0302A06D0303A092A7C
:103620004FF0000711D80A2532E043F001038B4622
:10363000594611F8012B2B2A1CD0EBD8202A1CD07C
:10364000232A1DD02A2A2BD000279BF800202E2ABF
:1036500064D19BF801100BF10102A1F1300009289F
:1036600043F4806351D800254FF00A0C26E043F064
:103670000203DCE743F00403D9E743F00803D6E78D
:1036800043F01003D3E78B4605FB0722A2F1300776
:10369000594611F8012BA2F130000928F3D9D4E7DB
:1036A00056F8047B8B46002FBCBF43F002037F42D9
:1036B000CBE702460CFB0511A1F13005104610F8CE
:1036C000011BA1F1300EBEF1090FF2D9114611F81C
:1036D000010B6C282CD024D8682830D06A2837D029
:1036E00011468B461BF8010B672875D857284BD815
:1036F000452807D085D9462800F03181472880D158
:1037000043F4006343F020033FE12A2907D156F830
:10371000045B0BF1020225EAE575D7E75A4600255E
:10372000D4E7742801D07A28DAD143F48073D8E73B
:1037300050786C28F9D143F44073911CD1E750784C
:10374000682802D043F08003CBE743F0C003F4E7DE
:1037500043F40073C5E70A2A00F06281072A7FF468
:1037600050AF43F0210305930823CDE90353102301
:10377000CDE9011356F8043B2246009348464346E0
:103780000A9903F008FEFAE0A0F158020F2A3FF66A
:1037900038AF01A151F822F00938000803360008BB
:1037A0000336000803360008033600080336000815
:1037B0000336000803360008033600080336000805
:1037C00009380008A93900080938000883390008B9
:1037D0006339000883390008A0F16902D2B20F2AC8
:1037E0003FF60FAF012149F2410C914011EA0C0163
:1037F000B1D0782803F4806122D1002900F09080B4
:1038000023F00D02102307E0622803F4806220D128
:1038100042BB23F00C02022312F4007100F08380FB
:10382000CDE907720022CDE9043206F1070A2AF039
:10383000070A06950292FAE80223CDE900233DE04B
:103840006F2812D123F00C0209B123F00D020823D6
:10385000E2E7582816D1002A39D123F00C0242F0B1
:103860002002CFE723F00D02D5E7692823F01002EC
:1038700030D023F01C0209B123F01D020A23CBE74C
:10388000D571000842BB23F01002930527D50736F7
:1038900026F00706B24671685AF8083B0A26CDE9B9
:1038A00007720027CA0F0029CDE904670695029226
:1038B00002DA5B4261EB4101CDE900314346224629
:1038C00048460A9903F0AAFD0446564683E623F0CB
:1038D0000D02C4E70029D8D023F01102D5E7D005A6
:1038E00006F1040A01D5336802E0510613D5337896
:1038F000CDE904720A22002B02924FEAD37203959B
:103900000192B8BF5B4200934346224648460A995B
:1039100003F041FDD8E71306E5D5B6F90030E7E737
:1039200023F00C026EE7D00506F1040A06D5CDE9B6
:103930000472CDE9023501913368E4E7510608D5F8
:103940003178CDE902350023CDE90472CDE90013C9
:10395000DAE7316812F0800F18BF89B2F1E743F05F
:103960002003CDE90173073626F007060095B6EC73
:10397000020B4346224648460A99FCF7BDFD044621
:1039800029E6672801D143F40063CDE901730736C6
:1039900026F007060095B6EC020B43462246484641
:1039A0000A99FCF7EDFBEAE713F0020523D04FF08C
:1039B000010A631C0B93224643460A9916F8040B2E
:1039C000C8475DB354460B9A1EE0434620200A992F
:1039D000C8470AEB04020AF1010A5745F5D8002F3F
:1039E00007F1FF3308BF002307F1010A1C4408BF99
:1039F0004FF0020ADDE7AA46EBE7551C43462020BC
:103A00000A99C8472A460134BC42F6D3A7EB0A03F9
:103A1000574538BF00230B9A1A440B920B9CDAE5EA
:103A20003246002D52F8046B14BF29464FF0FF3187
:103A30000B9232463144107808B18A4211D1A2EB80
:103A4000060A13F480620C9202D0AA4528BFAA4647
:103A500013F002030D931BD1AAEB040322460F932C
:103A600008E00132E7E7531C0E93202043460A99F1
:103A7000C8470E9A0F9BD3189F42F4D8A7EB0A03AE
:103A8000574538BF00230AF101021C4403EB020A28
:103A9000A31B0E9304E01D46434622460A99C847DD
:103AA0000E9BF41816F8010B28B10C9B002BF3D0D9
:103AB0006B1E002DEFD10D9B93B12246AAEB04059E
:103AC00005E0561C434620200A99C8473246531940
:103AD0009F42F6D8A7EB0A03574538BF00231C4482
:103AE0000B9E78E50FB41FB506AA52F8043B02A955
:103AF0000392009204484FF0FF32FFF75FFD05B0DC
:103B00005DF804EB04B07047BB7400081FB50346B2
:103B100000914FF0FF3203A90248FFF74FFD05B0B7
:103B20005DF804FBBB74000830B50A4C0A4B2268F0
:103B30000A4D1A600A4B85B02B600A4B0193FFF7C0
:103B4000FBF92B68029001A92068039302F0F1FEB3
:103B500005B030BD1C10002024530120205301204B
:103B6000101000203081000838B5FFF7E5F9044651
:103B7000064D2B68D3F8B002FFF7D2F9286802F09F
:103B8000ECFE2046BDE83840FFF7CAB91C10002003
:103B900010B5224CFDF7A4FF236F23F0070343F079
:103BA0000203236702F065FED4F82031002023F0E1
:103BB000070343F00103C4F82031D4F8283123F07F
:103BC000070343F00103C4F82831D4F8403123F04F
:103BD000030343F00203C4F84031D4F8603123F00A
:103BE000030343F00203C4F86031D4F8403223F0F9
:103BF000030343F00203C4F84032D4F8003223F048
:103C0000070343F00203C4F80032D4F8083223F06B
:103C1000070343F00203C4F8083210BD00800050CF
:103C200030B51F4D95B00DAC0FCD0FC495E8070012
:103C3000292384E807001B4A0021CDE9022305233C
:103C4000CDE904118DF8113004230E220DF1260068
:103C500006918DF8133003F0A5FE4FF48021124B2E
:103C60001248CDE9071309238DF824300A238DF873
:103C700025300F4B0DAA0A9320230B9301238DF8B7
:103C800031300C4B07A9009302ABFFF7DDFB044674
:103C900018B18621084802F075FD204615B030BDE8
:103CA000AC81000800C0055024C0055038560120E2
:103CB000D7570120EC5501204481000808B5FFF7D3
:103CC000AFFF28B1BDE808409A21024802F05ABD72
:103CD00008BD00BF44810008014803F02BBA00BFB3
:103CE000385601201FB500232F4A0393039B9342AC
:103CF00056DD03F057FA03F0E8FB00F037FB00F065
:103D0000F9F80022FF20114600F098F80A2000F090
:103D1000CDF8012000F0DCF8412224492448FFF7C7
:103D2000E1FE00F02FFA462220492248FFF7DAFE92
:103D300001F058FB4B221D491F48FFF7D3FE1F4BD4
:103D40001F4AD9681F4821F4E0610904090C0A439D
:103D5000DA60202283F8232010225A769A764FF4D4
:103D6000A052194B1421009200F006FD034620B129
:103D700059220E491548FFF7B5FE00F091FF0346A2
:103D800020B15A2209491148FFF7ACFE5C220749CD
:103D90000F48FFF7A7FE03F012FA03F097FBFAE7CC
:103DA000039B01330393A1E71FA10700C88100080B
:103DB000CF810008EE8100080F82000800ED00E0CE
:103DC0000003FA05338200082E82000838820008BA
:103DD0006D82000870B5074C0646236B0D46DB0765
:103DE00004D440F24231044802F0CCFC04EB461407
:103DF000A56670BD000005508B820008014B187845
:103E0000704700BF7A110020014B1878704700BF3F
:103E1000FA57012010B1064B1B78037011B1054B06
:103E20001B780B7012B1044B1B781370704700BFE6
:103E3000F9570120F8570120F7570120164B70B5AC
:103E40001870164B0C461970154B1A70154B1D78CF
:103E5000F5B16426144B1B7813FB04F4B4FBF6F4A1
:103E600010FB03F0E5B213FB02F4B0FBF6F0B4FB79
:103E7000F6F4C1B2E4B20020FFF7ACFF29460120FE
:103E8000FFF7A8FF2146BDE870400220FFF7A2BF60
:103E900029462C46EFE700BFF9570120F8570120CB
:103EA000F7570120FA5701207A110020044B1870AF
:103EB000044B1A78044B1978044B1878FFF7BEBFEF
:103EC0007A110020F7570120F8570120F9570120F7
:103ED000044B1870044B1A78044B1978044B18786B
:103EE000FFF7ACBFFA570120F7570120F857012020
:103EF000F957012030B5012189B03A20FDF77AFB4E
:103F000001212620FDF776FB002304221846082114
:103F1000FDF718FF0023042218460921FDF712FFC0
:103F200000230025184604220A21FDF70BFF0F226B
:103F300000210DF1110003F035FD0D22002168462E
:103F400003F030FD26208DF81050FDF77BFB2A4B47
:103F50002A4CB0FBF3F003230138ADF8120004A99A
:103F600020468DF80630FEF7D1F80722244B29466B
:103F7000C3F838274FF40022C3F83C274FF410222F
:103F8000C3F840274FF420222046C3F844276A464E
:103F9000FEF708F96A4601212046FEF703F96A4652
:103FA00002212046FEF7FEF8236BDB0704D440F223
:103FB000B641144802F0E6FB4FF480730021E36140
:103FC0000846FFF707FF00210120FFF703FF00214C
:103FD0000220FFF7FFFE00230B4A13700B4A1370F9
:103FE0000B4A13700B4A137064220B4B1A70012397
:103FF000E36009B030BD00BFA0860100000005509D
:1040000000C003508B820008FA570120F7570120A7
:10401000F8570120F95701207A11002008B5104BFC
:10402000984216D003F58043984215D003F580439B
:10403000984211D003F5804398420DD003F5804398
:10404000984209D0074840F2D22102F09BFB0020A1
:1040500008BD4FF0FF30FBE74FF6FF70F8E700BFF9
:10406000008004508B82000870B5154604460E4649
:10407000FFF7D4FFA84204D24FF45071074802F072
:1040800081FB236BDB0704D440F24231034802F08A
:1040900079FB04EB4614A56670BD00BF8B82000857
:1040A00010B50446FFF7BAFF632804D840F2B441C4
:1040B000064802F067FB236BDB0704D440F2B641ED
:1040C000024802F05FFB6423E36110BD8B820008AD
:1040D000032810B50A46044606D9BDE8104026223A
:1040E0000E490F48FFF7FEBC642905D92B220B4966
:1040F0000C48FFF7F7FC642214B921460A4805E092
:10410000012C07D0022C07D000210848BDE8104040
:10411000FFF7AABF2146F8E70121EFE7A7830008D0
:10412000F3820008178300080080045000C0045088
:1041300010B503281DD8DFE800F0020C181A0E4C49
:10414000236BDB0703D411210C4802F01BFBA06E8C
:1041500009E00B4C236BDA0703D41121074802F066
:1041600011FBD4F88800C0B210BD034CF2E7044C38
:10417000E6E70020F8E700BF0080045057830008FE
:1041800000C00450F0B5002489B001213A20FDF7A9
:1041900031FA01212420FDF72DFA01212520FDF718
:1041A00029FA0023042206210220FDF7CBFD00237B
:1041B000042209210220FDF7C5FD00230422072166
:1041C0000220FDF7BFFD0023042208210220FDF795
:1041D000B9FD0F2200210DF1110003F0E3FB0D22C8
:1041E0000021684603F0DEFB25208DF81040FDF726
:1041F00029FA2B4B0327B0FBF3F02A4E2A4D013846
:10420000ADF8120004A930468DF80670FDF77EFF68
:10421000284604A9FDF77AFF244B254AC3F8F8760F
:10422000C3F81877C3F8FC2602F58032C3F80027DC
:1042300002F58032C3F81C2702F58032C3F820272C
:1042400021466A463046FDF7ADFF6A4630460121F9
:10425000FDF7A8FF6A4621462846FDF7A3FF6A46F8
:1042600001212846FDF79EFF3046FFF719FF28463B
:10427000FFF716FF21462046FFF72AFF21460120BF
:10428000FFF726FF21460220FFF722FF214638468E
:10429000FFF71EFF0123F360EB6009B0F0BD00BF24
:1042A000808D5B000080045000C0045000C00350AB
:1042B00002000600244C07B520702448016000214C
:1042C00000910191EFF309810091EFF308810191D1
:1042D000009991422FD8009A6AB301221C4B1A70A0
:1042E0004FF0E0231B4AD3F8281D1B4C1160D3F874
:1042F000341D1A4A1160D3F8382D194B1A60002367
:10430000237000F033FA48B100F0C4FF30B100F080
:10431000C1FF32224168204603F05EFBBFF34F8F9E
:104320001049114BCA6802F4E0621343CB60BFF33B
:104330004F8F00BFFDE7019A9A42D1D8019B002B15
:10434000CED00222024BCAE711D803200CD803209A
:1043500010D8032004D8032012D8032008D8032043
:1043600000D8032000ED00E00400FA0538B59A4BB0
:104370009A48D3F89440FFF7B5FBBD229849994875
:10438000FFF7B0FB8020FDF75DF9BE22034694499C
:104390009548FFF7A7FBBF2291499448FFF7A2FB7E
:1043A000630504D5C3228E499148FFF79BFBA50501
:1043B00004D5C4228A498F48FFF794FB200604D510
:1043C000C52287498C48FFF78DFBE10504D5C6223D
:1043D00083498A48FFF786FB620704D5C7228049D4
:1043E0008748FFF77FFB230504D5C8227C49854811
:1043F000FFF778FBA50604D5C92279498248FFF763
:1044000071FB200704D5CA2275498048FFF76AFB73
:10441000E10604D5CB2272497D48FFF763FBA20772
:1044200004D5CC226E497B48FFF75CFBA30404D57E
:10443000CD226B497848FFF755FB002C04DACE22D9
:1044400067497648FFF74EFBE50704D5CF2264495C
:104450007348FFF747FB14F04003724D724C00F0B5
:104460006681D2225E497148FFF73CFBD8225C4945
:104470006F48FFF737FB2B78002B00F04A81DD22D5
:1044800057496B48FFF72EFB2A786A4B544953F87B
:1044900022306948DE22FFF725FB236813F0BB0FAB
:1044A0003BD0E4224E496548FFF71CFB2368D80740
:1044B00004D5E5224A496248FFF714FB23689907AF
:1044C00004D5E62246495F48FFF70CFB23681A072C
:1044D00004D5E72242495C48FFF704FB2368DB066A
:1044E00004D5E8223E495948FFF7FCFA23689806AC
:1044F00004D5E9223A495648FFF7F4FA2368190629
:1045000006D5544BEB221B6835495348FFF7EAFAAE
:10451000EC2233494648FFF7E5FA236813F43B4F92
:104520003BD0F3222E494D48FFF7DCFA2368DA0529
:1045300004D5F4222A494A48FFF7D4FA23689B0598
:1045400004D5F52226494748FFF7CCFA2368180519
:1045500004D5F62222493C48FFF7C4FA2368D9045F
:1045600004D5F7221E493948FFF7BCFA23689A049C
:1045700004D5F8221A493648FFF7B4FA23681B0419
:1045800006D5394BFA221B6815493348FFF7AAFABA
:10459000FB2213492648FFF7A5FA2368334A1A423B
:1045A00000F0A6804FF481720D493148FFF79AFA66
:1045B0002368D80305D540F2031209492D48FFF7B7
:1045C00091FA2368990359D54FF4827204492A4815
:1045D000FFF788FA52E000BF00400050DE89000873
:1045E000C0830008CE8300080B8400082E840008D6
:1045F0004A840008708400089A840008C98400086E
:10460000F88400081E850008458500086A850008B2
:104610008C850008AE850008CE850008EF8500086F
:104620000D86000811D8032004D803203286000824
:104630005E860008308A00086B860008A3860008A2
:10464000C9860008F58600081A8700085787000801
:104650008987000808D80320C2870008FD87000862
:104660001C8800084188000800D8032000001F03B0
:104670006788000888880008AD88000823685A0306
:1046800005D540F205122B492B48FFF72BFA23687A
:104690001B0305D54FF4837226492848FFF722FAF9
:1046A0002368D80105D54FF4847222492448FFF7C6
:1046B00019FA2368990105D540F209121D492148CC
:1046C000FFF710FA2368DA020CD51F4B1F4A19783E
:1046D0001F4B2048012908BF134640F20D1215490F
:1046E000FFF700FA40F20F1212491B48FFF7FAF9E0
:1046F0002368DB020DD4194B40F215120D491B68DB
:104700001748FFF7EFF94FF48B720A491248FFF789
:10471000E9F94FF48E7207491248FFF7E3F90023D5
:104720004FF400322B7023600F4B1A6738BD2B708B
:1047300023609BE6C0830008CA880008E48800085C
:10474000028900082789000810D8032012D8032006
:10475000AF830008478900085E8600080CD8032054
:1047600072890008A289000800400050014B1878A7
:10477000704700BFFB5701202DE9F04FDFF8C090D4
:104780001E4699F8003085B007468A469346DDF804
:104790003880002B4CD14FF0E024D4F8883D254DD3
:1047A00043F47003C4F8883D6B6B802043F00043F2
:1047B0006B636B6B43F080436B63236923F00103EE
:1047C0002361D4F8203D43F00073C4F8203DD4F8B1
:1047D000203D43F47023C4F8203DFCF733FF4FF431
:1047E0007A73B0FBF3F06061236943F00403236143
:1047F000236943F002032361236943F0010323612A
:1048000000F02AF843465A465146384600F074FAFA
:1048100058B90123314689F80030074ACDE9020032
:10482000CDE90008054800F02BFC05B0BDE8F08F8D
:104830000520FAE700EF00E0557500088C560120CE
:10484000FB57012010B103680BB1181A7047014BD8
:10485000FBE700BF885101204FF4A032002101483E
:1048600003F0A0B88811002073B540B3EFF31083B4
:10487000019372B6BFF36F8F264C4FF0FF350021C6
:104880002646073020F007022046FFF7DBFF63686B
:1048900033B90838A84203D282429CBF054621465C
:1048A0002468002CF0D1B14202D31B4B994209D9A4
:1048B00002F052FE019B83F31088BFF36F8F00203C
:1048C00002B070BD312A12D80AB3086808325318F2
:1048D00083421EBF88500B605C60012301F1080019
:1048E0004B60019B83F31088BFF36F8FE8E70846A6
:1048F000FFF7A8FF8A1A0244A2F1080399421EBFDB
:10490000086842F8080CC1E90034012159601046DA
:10491000E7E700BF881100208751012037B5002844
:104920003AD01E4B984237D31D4CA04234D8EFF3F7
:104930001082019272B6BFF36F8F083B00211D46B3
:10494000AB420AD3A34208D883421A6802D862B1A4
:10495000824218D219461346F2E7019B83F310886E
:10496000BFF36F8F022003B030BD5A6021B14A6897
:1049700012B9186808601A60019B83F31088BFF3AE
:104980006F8F0020EFE70020586050680028EDD1BD
:1049900014681C601060E9E70120E4E79011002032
:1049A00087510120044B1B680BB9184603E0986837
:1049B000027A002AF7D07047505601202DE9F74FB0
:1049C0000646EFF31083019372B6BFF36F8F4FF07B
:1049D000FF374FF001089EB9002F08DD6D4B1B68B3
:1049E000986802F0AAFFB842ACBF00260126019BDE
:1049F00083F31088BFF36F8F304603B0BDE8F08FAC
:104A0000706902F0BDFE3378062B10D000213046CD
:104A1000F368984783467369D3F80090B9F1000FA3
:104A200008D186F80890FFF7BDFF0646D3E74FF0A0
:104A3000000BF0E7D9F80840237E042B30D0012B7F
:104A40002ED03378062B04D121463046F3689847A0
:104A5000834694F84050002D71D1A06BA84222D11A
:104A6000E16BBBF1000F25D08D4211D2884288BF87
:104A7000636B0BF1FF3B84BF53F8213083F8088050
:104A800002231BF1020F08BF4FF0FF3BE5632376C3
:104A9000237E022B04D194F94C309F42B8BF1F46AD
:104AA000D9F80090BAE7636B53F82530B342D7D0FA
:104AB0000135D3E78D42EBD1A36B0135AB420AD967
:104AC000636B214653F8250002F0A4FE0028F3D0C2
:104AD000A36BAB420CD8E3694FF0FF35002B0CBF42
:104AE00002230323237694F84030E563012B0AE088
:104AF000022301212376636BE56353F82530197295
:104B000094F840308B42C3D14FF0FF33E363E36945
:104B10004FF0000B002B14BF032302232376E36B1B
:104B2000AB42B5D00021A06B8842B1D0636B53F883
:104B300021300131B34218BF83F80880F4E7012D1A
:104B4000A6D1E56BBBF1000FDED04FF0000A06E006
:104B5000616B51F82A00B0420DD10AF1010AA16B34
:104B60005145F5D80023BBF1FF3FE36301D00BF1C2
:104B7000FF3B0223D2E7214602F04CFE0028ECD195
:104B80004FF0FF33E363E369002B14BF03230223D9
:104B9000C4E700BF6C5601202DE9F04F3D4B85B0B6
:104BA0001B78012B72D172B600230193EFF30983B6
:104BB000394C0193D4F80080B8F1000F03D0019A6A
:104BC000D8F808301A62DFF8D49000254FF0FF3A89
:104BD000D9F80060276823689E421DD100264FF057
:104BE000FF3B3FBB002E33D1256035B962B602F0E2
:104BF000B2FC72B62368002BE7D000230293EFF3D8
:104C00000B83029323689A68D2E909135B1A02990D
:104C1000994224D3194623E0B068037E022B03D1C6
:104C200002F08BFE504503DA504682463668D2E7E2
:104C30003546FAE7B868037E022B03D102F07DFE09
:104C4000584503DA584683463F68CAE73E46FAE7C6
:104C50000DB92660D1E7DA45A8BF2E46F9E70299DB
:104C60000391039981F30B88126A0192019A82F3EE
:104C7000098883F30B88B8F1000F06D0D8F8080034
:104C8000037E042B01D100F0F3F862B605B0BDE855
:104C9000F08F00BFFC5701206C5601207056012098
:104CA00007B5FFF763FDE0B1EFF31083019372B630
:104CB000BFF36F8F01220C4B1A7000F07DF938B1F1
:104CC0004FF0E022D2F8043D43F08053C2F8043D97
:104CD000019B83F31088BFF36F8F002003B05DF852
:104CE00004FB0420FAE700BFFC570120014B1878B1
:104CF000704700BFFC57012073B50D1E06461446D1
:104D0000C0F28A80B2F5C07FC0F08680B3F5C07F64
:104D1000C0F082801046FFF7A7FD18B9032528468A
:104D200002B070BD044424F007040094EFF308813E
:104D300081F30988009B194681F30888EFF31481F9
:104D400041F0020181F314880190019B194681F31F
:104D50000A885820FFF788FD04460028DED000238B
:104D60000372012303702D4BC36002F04BFC2C4BEC
:104D70006061236130461EB102F060FEFFF774FDF2
:104D80000223657684F84C5000252376C4E9075544
:104D9000C4E90D556060A585A562A56402F032FCEA
:104DA0006369C4E914556064002B33D0002831D006
:104DB000606818BB76BB1B4E00222146304602F0CD
:104DC00045FC636902462BB3636C1BB310BB2146E1
:104DD000154802F03BFC0546B0B12146304602F0D2
:104DE0006FFC606902F0B2FC606C02F0AFFC6068BE
:104DF000FFF794FD2046FFF791FD90E7002EDAD0F3
:104E0000314602F006FED6E7084B32681A60084BBE
:104E10001C6084E70325E4E7012580E74F7900085B
:104E20002579000870560120505601206C5601204B
:104E30009056012013B50446FFF758FF012803469A
:104E400010D1EFF31082019272B6BFF36F8F074A51
:104E50001268906803768464FFF7B0FD02F064FD89
:104E600062B6FBE7042002B010BD00BF6C56012003
:104E700073B504460146494802F0D1FB002C00F00E
:104E80008A80002800F085802378012B40F0838001
:104E9000434D2B689B68A34214D0EFF3108301931A
:104EA00072B6BFF36F8F012320462376FFF786FD8E
:104EB0002B689B689C420BD10423237602F034FDBF
:104EC00062B6FBE7FFF712FF0128E6D004203CE0C2
:104ED000636B002B52D12146324802F0F1FB214690
:104EE0002E4802F0EDFB606902F030FC606C02F0CD
:104EF0002DFC236D002B0CDD0025206BFFF70EFD34
:104F00002E46D4E914309D4201DA002838D1FFF74B
:104F100005FDD4E90930C01AFFF700FD0025012383
:104F2000C4E90D552376C4E90955C4E914556068F0
:104F30002562E561FFF7F2FC2046FFF7EFFC019BDD
:104F400083F31088BFF36F8F284602B070BD636B88
:104F500053F825306BB12146586902F0B1FB636B01
:104F600053F8250002F0F9FA636B53F82500FFF7B8
:104F700025FD0135A36B9D42E9D3ACE70025F9E798
:104F800050F82500FFF7CAFC636D43F82560013532
:104F9000B7E70220D9E70120D7E700BF705601200C
:104FA0006C56012050560120024B1B689868FFF791
:104FB0005FBF00BF6C56012007B5EFF3108301936C
:104FC00072B6BFF36F8F114B1A68114B1B686BB130
:104FD000986802F0B2FC01465AB9019B83F310882D
:104FE000BFF36F8F104603B05DF804FB4FF0FF3145
:104FF000F2E79068037E022B03D102F09EFC81420F
:1050000001DB1268E8E70120EDE700BF70560120E0
:105010006C56012010B5044608B9002010BD037875
:10502000012BFAD10146074802F0F9FA0028F4D022
:10503000207E0428F1D00228F0D1636B002B18BF2A
:105040000320EBE77056012082B00346EFF3108295
:10505000019272B6BFF36F8F084A106818B1826868
:10506000928D9A4208D1019B83F31088BFF36F8F12
:1050700000B1806802B070470068EFE77056012009
:105080002DE9F74F0D46174699469DF930B001902E
:10509000002800F0ED80002A00F0EA80BBF1000F4C
:1050A000C0F2E680B9F1010F00F2E2800D9BB3F58A
:1050B000C07FC0F0DD80FFF759FB002800F0DA80E8
:1050C0005820FFF7D1FB824620B90324204603B0C5
:1050D000BDE8F08F0D98FFF7C7FB064618B950469C
:1050E000FFF71CFCF1E74FF0000800F0DBF800EBE5
:1050F000080484EA1444E4B22046FFF7A5FF10B187
:1051000008F10108F1E701228AF800205A4A8AF8DA
:105110000800CAF80C2002F075FA584ACAF81400C0
:10512000CAF8102028461DB102F088FCFFF79CFB4E
:105130000222AAF82C4000240D9B8AF81820F218AD
:10514000CAE9093222F00702CAF82020CAF83070F2
:10515000CAE90D44CAF804008AF819B08AF84CB0BC
:10516000CAF81C40CAF8484002F04CFA0F9B4FF0B6
:105170008071A3420E9B0CBF22461A460F9BCAF8B1
:105180005020DAF82020CAF85430CAF8440042E926
:1051900002713B493B4F42F81C3CA14508BF3946D0
:1051A00042E904416FF002010E9B42E90A41A2F17B
:1051B000440142E9064442E90C4442E90E4442E912
:1051C000104442F8203CCAF8201042F8444CDAF867
:1051D0001420002A4AD0002848D0DAF8040030BB56
:1051E000002D43D100225146274802F02FFA0246F3
:1051F00000283BD15146254802F028FA0446E0B188
:105200005146214802F05CFADAF8140002F09EFAE6
:10521000DAF8440002F09AFADAF80400FFF77EFBAD
:105220005046FFF77BFB3046FFF778FB4EE7002D3B
:10523000D8D0294602F0EDFBD4E7504602F07DFBC2
:1052400013490246096871B1886802F076FB904202
:1052500005DAFFF74BFD012801D102F065FB019B48
:10526000C3F800A032E74FF0FF30F0E70324CBE7AC
:1052700001242BE7042429E74F7900082579000849
:10528000A94F0008354E00087056012050560120E5
:105290006C560120024B186800B18068704700BF4F
:1052A0006C560120014B1868704700BF94560120CE
:1052B0002DE9F7430546FFF759FA28B3EFF31083BA
:1052C000019372B6BFF36F8F224ADFF890801368A4
:1052D0002B441360204B1C68D8F80030BBB1986891
:1052E00002F02BFB064600274FF0020994B9012F6C
:1052F00005D1FFF7FBFC012801D102F015FB019B52
:1053000083F31088BFF36F8F03B0BDE8F0834FF0D5
:10531000FF36E8E7A068C3695A1E033204D8AB42DF
:1053200034BF00235B1BC361C269037E6AB9032BD0
:105330000BD180F8189002F000FB864207DCD8F809
:105340000030A34218BF012701E0022BF3D02468EC
:10535000CCE700BF94560120705601206C56012006
:1053600008B514220A490B48FEF7BCFB0021084689
:10537000FEF7AEFE00210120FEF7AAFE002102206A
:10538000FEF7A6FEBDE8084000210320FEF7A0BE00
:10539000488A00084E8A000807B51F220D490E48AA
:1053A000FEF7A0FBFFF77EFF0190FFF77BFF019B5D
:1053B000C01AB0F5FA7FF8D3BFF34F8F0749084BF7
:1053C000CA6802F4E0621343CB60BFF34F8F00BFA3
:1053D000FDE700BF488A00086D8A000800ED00E084
:1053E0000400FA0510B5074C0749206801F032FCAB
:1053F0000649206801F02EFC20680549BDE81040F0
:1054000001F028BC1C1000202010002050100020AB
:10541000B010002013B51E4C0DF107020DF106016E
:105420000DF10500FEF7F6FC1A48FEF75BFB21467E
:105430002C221948FEF756FBFEF7E6FC21460346F0
:105440002D221648FEF74EFBFEF7D8FC21460346F8
:105450002E221348FEF746FB21469DF805302F22E9
:105460001048FEF73FFB21469DF8063030220E48DB
:10547000FEF738FB21469DF8073031220B48FEF736
:1054800031FB322221460A48FEF72CFB02B010BD48
:10549000CD8A0008DF890008D78A0008208B000821
:1054A000428B0008648B0008868B0008A88B0008DC
:1054B000CA8B00082DE9F041D0E9022352F82310ED
:1054C00002EB830253680F781E7893680D4C1D78A9
:1054D00031462A463846FEF7B1FC3B46214620229B
:1054E0000948FEF7FFFA3346214621220748FEF716
:1054F000F9FA2B462146BDE8F04122220448FEF786
:10550000F1BA00BFCD8A0008648B0008868B0008C2
:10551000A88B000810B5D0E9023253F82230187871
:10552000FEF7C4FCFEF76AFCBDE8104003461522F6
:1055300001490248FEF7D6BACD8A0008428B00081E
:1055400010B5D0E9023253F822301878003818BF6D
:105550000120FEF7BDFCFEF757FCBDE810400346F6
:105560000E2202490248FEF7BDBA00BFCD8A0008EC
:10557000208B000810B51A4C1A48FEF7B3FA2146E2
:1055800034221948FEF7AEFA0020FEF7D1FD21467D
:10559000034635221548FEF7A5FA0120FEF7C8FD9F
:1055A0002146034636221248FEF79CFA0220FEF7F7
:1055B000BFFD2146034637220E48FEF793FA03202B
:1055C000FEF7B6FD2146034638220B48FEF78AFA5D
:1055D0002146BDE8104039220848FEF783BA00BFD3
:1055E000DD8C0008DF890008E98C00082F8D000899
:1055F000598D0008838D0008AD8D0008D78D0008F7
:1056000010B5D0E90232044653F822300020197850
:10561000FEF75EFDE368A268013352F823300120F3
:105620001978FEF755FDE368A268023352F823307B
:1056300002201978FEF74CFDE368A268033352F8A4
:10564000233003201978FEF743FD0020FEF770FD9C
:10565000114C0346214629221048FEF743FA012047
:10566000FEF766FD214603462A220D48FEF73AFA68
:105670000220FEF75DFD214603462B220948FEF776
:1056800031FA0320FEF754FD2146BDE810400346E1
:105690002C220548FEF726BADD8C00082F8D000865
:1056A000598D0008838D0008AD8D0008D0E90232C5
:1056B00053F8223010B519780320FEF709FD0320B6
:1056C000FEF736FDBDE8104003461F22014902489F
:1056D000FEF708BADD8C0008AD8D0008D0E9023273
:1056E00053F8223010B519780220FEF7F1FC0220A1
:1056F000FEF71EFDBDE8104003461922014902488D
:10570000FEF7F0B9DD8C0008838D0008D0E9023285
:1057100053F8223010B519780120FEF7D9FC01208A
:10572000FEF706FDBDE8104003461322014902487A
:10573000FEF7D8B9DD8C0008598D0008D0E9023297
:1057400053F8223010B519780020FEF7C1FC002074
:10575000FEF7EEFCBDE8104003460D220149024869
:10576000FEF7C0B9DD8C00082F8D000881F00041E4
:1057700002E000BF83F0004330B54FEA41044FEA36
:10578000430594EA050F08BF90EA020F1FBF54EAD1
:10579000000C55EA020C7FEA645C7FEA655C00F06D
:1057A000E2804FEA5454D4EB5555B8BF6D420CDD3E
:1057B0002C4480EA020281EA030382EA000083EAC1
:1057C000010180EA020281EA0303362D88BF30BD61
:1057D00011F0004F4FEA01314FF4801C4CEA1131B7
:1057E00002D0404261EB410113F0004F4FEA033316
:1057F0004CEA133302D0524263EB430394EA050FA1
:1058000000F0A780A4F10104D5F1200E0DDB02FA0F
:105810000EFC22FA05F2801841F1000103FA0EF2A3
:10582000801843FA05F359410EE0A5F120050EF169
:10583000200E012A03FA0EFC28BF4CF0020C43FA9A
:1058400005F3C01851EBE37101F0004507D54FF0A7
:10585000000EDCF1000C7EEB00006EEB0101B1F5F7
:10586000801F1BD3B1F5001F0CD349085FEA30003D
:105870004FEA3C0C04F101044FEA445212F5800F48
:1058800080F09A80BCF1004F08BF5FEA500C50F1E5
:10589000000041EB045141EA050130BD5FEA4C0CC8
:1058A000404141EB0101013C28BFB1F5801FE9D225
:1058B00091F0000F04BF01460020B1FA81F308BF48
:1058C0002033A3F10B03B3F120020CDA0C3208DD14
:1058D00002F1140CC2F10C0201FA0CF021FA02F1EF
:1058E0000CE002F11402D8BFC2F1200C01FA02F15F
:1058F00020FA0CFCDCBF41EA0C019040E41AA2BF84
:1059000001EB0451294330BD6FEA04041F3C1CDA4B
:105910000C340EDC04F11404C4F1200220FA04F06B
:1059200001FA02F340EA030021FA04F345EA030115
:1059300030BDC4F10C04C4F1200220FA02F001FAD7
:1059400004F340EA0300294630BD21FA04F0294659
:1059500030BD94F0000F83F4801306BF81F48011F2
:105960000134013D4EE77FEA645C18BF7FEA655C65
:1059700029D094EA050F08BF90EA020F05D054EA37
:10598000000C04BF1946104630BD91EA030F1EBF3C
:105990000021002030BD5FEA545C05D14000494140
:1059A00028BF41F0004130BD14F580043CBF01F533
:1059B000801130BD01F0004545F0FE4141F4700119
:1059C0004FF0000030BD7FEA645C1ABF19461046F4
:1059D0007FEA655C1CBF0B46024650EA013406BFF5
:1059E00052EA033591EA030F41F4002130BD00BFB4
:1059F00090F0000F04BF0021704730B54FF4806471
:105A000004F132044FF000054FF0000150E700BFF1
:105A100090F0000F04BF0021704730B54FF4806450
:105A200004F1320410F0004548BF40424FF000013D
:105A30003EE700BF42004FEAE2014FEA31014FEA80
:105A400002701FBF12F07F4393F07F4F81F06051CF
:105A5000704732F07F4208BF704793F07F4F04BF1A
:105A600041F40021704730B54FF4607401F00045F7
:105A700021F000411CE700BF50EA010208BF704757
:105A800030B54FF000050AE050EA010208BF704748
:105A900030B511F0004502D5404261EB41014FF4B1
:105AA000806404F132045FEA915C3FF4D8AE4FF0B9
:105AB00003025FEADC0C18BF03325FEADC0C18BF9C
:105AC000033202EBDC02C2F1200300FA03FC20FAED
:105AD00002F001FA03FE40EA0E0021FA02F114443A
